{
  "_format": "hh-sol-artifact-1",
  "contractName": "SplitsWarehouse",
  "sourceName": "contracts/splits/SplitsWarehouse.sol",
  "abi": [
    {
      "inputs": [
        {
          "internalType": "string",
          "name": "_native_token_name",
          "type": "string"
        },
        {
          "internalType": "string",
          "name": "_native_token_symbol",
          "type": "string"
        }
      ],
      "stateMutability": "nonpayable",
      "type": "constructor"
    },
    {
      "inputs": [
        {
          "internalType": "uint48",
          "name": "deadline",
          "type": "uint48"
        }
      ],
      "name": "ExpiredSignature",
      "type": "error"
    },
    {
      "inputs": [],
      "name": "InvalidAck",
      "type": "error"
    },
    {
      "inputs": [],
      "name": "InvalidAmount",
      "type": "error"
    },
    {
      "inputs": [],
      "name": "InvalidNonce",
      "type": "error"
    },
    {
      "inputs": [],
      "name": "InvalidPermitParams",
      "type": "error"
    },
    {
      "inputs": [],
      "name": "InvalidShortString",
      "type": "error"
    },
    {
      "inputs": [],
      "name": "InvalidSigner",
      "type": "error"
    },
    {
      "inputs": [],
      "name": "LengthMismatch",
      "type": "error"
    },
    {
      "inputs": [],
      "name": "Overflow",
      "type": "error"
    },
    {
      "inputs": [
        {
          "internalType": "string",
          "name": "str",
          "type": "string"
        }
      ],
      "name": "StringTooLong",
      "type": "error"
    },
    {
      "inputs": [
        {
          "internalType": "address",
          "name": "owner",
          "type": "address"
        }
      ],
      "name": "WithdrawalPaused",
      "type": "error"
    },
    {
      "inputs": [],
      "name": "ZeroOwner",
      "type": "error"
    },
    {
      "anonymous": false,
      "inputs": [
        {
          "indexed": true,
          "internalType": "address",
          "name": "owner",
          "type": "address"
        },
        {
          "indexed": true,
          "internalType": "address",
          "name": "spender",
          "type": "address"
        },
        {
          "indexed": true,
          "internalType": "uint256",
          "name": "id",
          "type": "uint256"
        },
        {
          "indexed": false,
          "internalType": "uint256",
          "name": "amount",
          "type": "uint256"
        }
      ],
      "name": "Approval",
      "type": "event"
    },
    {
      "anonymous": false,
      "inputs": [],
      "name": "EIP712DomainChanged",
      "type": "event"
    },
    {
      "anonymous": false,
      "inputs": [
        {
          "indexed": true,
          "internalType": "address",
          "name": "owner",
          "type": "address"
        },
        {
          "indexed": true,
          "internalType": "uint256",
          "name": "nonce",
          "type": "uint256"
        }
      ],
      "name": "NonceInvalidation",
      "type": "event"
    },
    {
      "anonymous": false,
      "inputs": [
        {
          "indexed": true,
          "internalType": "address",
          "name": "owner",
          "type": "address"
        },
        {
          "indexed": true,
          "internalType": "address",
          "name": "spender",
          "type": "address"
        },
        {
          "indexed": false,
          "internalType": "bool",
          "name": "approved",
          "type": "bool"
        }
      ],
      "name": "OperatorSet",
      "type": "event"
    },
    {
      "anonymous": false,
      "inputs": [
        {
          "indexed": false,
          "internalType": "address",
          "name": "caller",
          "type": "address"
        },
        {
          "indexed": true,
          "internalType": "address",
          "name": "sender",
          "type": "address"
        },
        {
          "indexed": true,
          "internalType": "address",
          "name": "receiver",
          "type": "address"
        },
        {
          "indexed": true,
          "internalType": "uint256",
          "name": "id",
          "type": "uint256"
        },
        {
          "indexed": false,
          "internalType": "uint256",
          "name": "amount",
          "type": "uint256"
        }
      ],
      "name": "Transfer",
      "type": "event"
    },
    {
      "anonymous": false,
      "inputs": [
        {
          "indexed": true,
          "internalType": "address",
          "name": "owner",
          "type": "address"
        },
        {
          "indexed": true,
          "internalType": "address",
          "name": "token",
          "type": "address"
        },
        {
          "indexed": true,
          "internalType": "address",
          "name": "withdrawer",
          "type": "address"
        },
        {
          "indexed": false,
          "internalType": "uint256",
          "name": "amount",
          "type": "uint256"
        },
        {
          "indexed": false,
          "internalType": "uint256",
          "name": "reward",
          "type": "uint256"
        }
      ],
      "name": "Withdraw",
      "type": "event"
    },
    {
      "anonymous": false,
      "inputs": [
        {
          "indexed": true,
          "internalType": "address",
          "name": "owner",
          "type": "address"
        },
        {
          "components": [
            {
              "internalType": "uint16",
              "name": "incentive",
              "type": "uint16"
            },
            {
              "internalType": "bool",
              "name": "paused",
              "type": "bool"
            }
          ],
          "indexed": false,
          "internalType": "struct SplitsWarehouse.WithdrawConfig",
          "name": "config",
          "type": "tuple"
        }
      ],
      "name": "WithdrawConfigUpdated",
      "type": "event"
    },
    {
      "inputs": [],
      "name": "APPROVE_AND_CALL_TYPE_HASH",
      "outputs": [
        {
          "internalType": "bytes32",
          "name": "",
          "type": "bytes32"
        }
      ],
      "stateMutability": "view",
      "type": "function"
    },
    {
      "inputs": [],
      "name": "DOMAIN_SEPARATOR",
      "outputs": [
        {
          "internalType": "bytes32",
          "name": "",
          "type": "bytes32"
        }
      ],
      "stateMutability": "view",
      "type": "function"
    },
    {
      "inputs": [],
      "name": "NATIVE_TOKEN",
      "outputs": [
        {
          "internalType": "address",
          "name": "",
          "type": "address"
        }
      ],
      "stateMutability": "view",
      "type": "function"
    },
    {
      "inputs": [],
      "name": "NATIVE_TOKEN_ID",
      "outputs": [
        {
          "internalType": "uint256",
          "name": "",
          "type": "uint256"
        }
      ],
      "stateMutability": "view",
      "type": "function"
    },
    {
      "inputs": [],
      "name": "PERCENTAGE_SCALE",
      "outputs": [
        {
          "internalType": "uint256",
          "name": "",
          "type": "uint256"
        }
      ],
      "stateMutability": "view",
      "type": "function"
    },
    {
      "inputs": [
        {
          "internalType": "address",
          "name": "owner",
          "type": "address"
        },
        {
          "internalType": "address",
          "name": "spender",
          "type": "address"
        },
        {
          "internalType": "uint256",
          "name": "tokenId",
          "type": "uint256"
        }
      ],
      "name": "allowance",
      "outputs": [
        {
          "internalType": "uint256",
          "name": "amount",
          "type": "uint256"
        }
      ],
      "stateMutability": "view",
      "type": "function"
    },
    {
      "inputs": [
        {
          "internalType": "address",
          "name": "_spender",
          "type": "address"
        },
        {
          "internalType": "uint256",
          "name": "_id",
          "type": "uint256"
        },
        {
          "internalType": "uint256",
          "name": "_amount",
          "type": "uint256"
        }
      ],
      "name": "approve",
      "outputs": [
        {
          "internalType": "bool",
          "name": "",
          "type": "bool"
        }
      ],
      "stateMutability": "nonpayable",
      "type": "function"
    },
    {
      "inputs": [
        {
          "internalType": "address",
          "name": "_owner",
          "type": "address"
        },
        {
          "internalType": "address",
          "name": "_spender",
          "type": "address"
        },
        {
          "internalType": "bool",
          "name": "_operator",
          "type": "bool"
        },
        {
          "internalType": "uint256",
          "name": "_id",
          "type": "uint256"
        },
        {
          "internalType": "uint256",
          "name": "_amount",
          "type": "uint256"
        },
        {
          "internalType": "uint256",
          "name": "_nonce",
          "type": "uint256"
        },
        {
          "internalType": "uint48",
          "name": "_deadline",
          "type": "uint48"
        },
        {
          "internalType": "bytes",
          "name": "_signature",
          "type": "bytes"
        }
      ],
      "name": "approveBySig",
      "outputs": [
        {
          "internalType": "bool",
          "name": "",
          "type": "bool"
        }
      ],
      "stateMutability": "nonpayable",
      "type": "function"
    },
    {
      "inputs": [
        {
          "internalType": "address",
          "name": "owner",
          "type": "address"
        },
        {
          "internalType": "uint256",
          "name": "id",
          "type": "uint256"
        }
      ],
      "name": "balanceOf",
      "outputs": [
        {
          "internalType": "uint256",
          "name": "amount",
          "type": "uint256"
        }
      ],
      "stateMutability": "view",
      "type": "function"
    },
    {
      "inputs": [
        {
          "internalType": "address[]",
          "name": "_receivers",
          "type": "address[]"
        },
        {
          "internalType": "address",
          "name": "_token",
          "type": "address"
        },
        {
          "internalType": "uint256[]",
          "name": "_amounts",
          "type": "uint256[]"
        }
      ],
      "name": "batchDeposit",
      "outputs": [],
      "stateMutability": "payable",
      "type": "function"
    },
    {
      "inputs": [
        {
          "internalType": "address[]",
          "name": "_receivers",
          "type": "address[]"
        },
        {
          "internalType": "address",
          "name": "_token",
          "type": "address"
        },
        {
          "internalType": "uint256[]",
          "name": "_amounts",
          "type": "uint256[]"
        }
      ],
      "name": "batchTransfer",
      "outputs": [],
      "stateMutability": "nonpayable",
      "type": "function"
    },
    {
      "inputs": [
        {
          "internalType": "uint256",
          "name": "id",
          "type": "uint256"
        }
      ],
      "name": "decimals",
      "outputs": [
        {
          "internalType": "uint8",
          "name": "",
          "type": "uint8"
        }
      ],
      "stateMutability": "view",
      "type": "function"
    },
    {
      "inputs": [
        {
          "internalType": "address",
          "name": "_receiver",
          "type": "address"
        },
        {
          "internalType": "address",
          "name": "_token",
          "type": "address"
        },
        {
          "internalType": "uint256",
          "name": "_amount",
          "type": "uint256"
        }
      ],
      "name": "deposit",
      "outputs": [],
      "stateMutability": "payable",
      "type": "function"
    },
    {
      "inputs": [],
      "name": "eip712Domain",
      "outputs": [
        {
          "internalType": "bytes1",
          "name": "fields",
          "type": "bytes1"
        },
        {
          "internalType": "string",
          "name": "name",
          "type": "string"
        },
        {
          "internalType": "string",
          "name": "version",
          "type": "string"
        },
        {
          "internalType": "uint256",
          "name": "chainId",
          "type": "uint256"
        },
        {
          "internalType": "address",
          "name": "verifyingContract",
          "type": "address"
        },
        {
          "internalType": "bytes32",
          "name": "salt",
          "type": "bytes32"
        },
        {
          "internalType": "uint256[]",
          "name": "extensions",
          "type": "uint256[]"
        }
      ],
      "stateMutability": "view",
      "type": "function"
    },
    {
      "inputs": [
        {
          "internalType": "uint256",
          "name": "_nonce",
          "type": "uint256"
        }
      ],
      "name": "invalidateNonce",
      "outputs": [],
      "stateMutability": "nonpayable",
      "type": "function"
    },
    {
      "inputs": [
        {
          "internalType": "address",
          "name": "owner",
          "type": "address"
        },
        {
          "internalType": "address",
          "name": "operator",
          "type": "address"
        }
      ],
      "name": "isOperator",
      "outputs": [
        {
          "internalType": "bool",
          "name": "approved",
          "type": "bool"
        }
      ],
      "stateMutability": "view",
      "type": "function"
    },
    {
      "inputs": [
        {
          "internalType": "address",
          "name": "_from",
          "type": "address"
        },
        {
          "internalType": "uint256",
          "name": "_nonce",
          "type": "uint256"
        }
      ],
      "name": "isValidNonce",
      "outputs": [
        {
          "internalType": "bool",
          "name": "",
          "type": "bool"
        }
      ],
      "stateMutability": "view",
      "type": "function"
    },
    {
      "inputs": [
        {
          "internalType": "uint256",
          "name": "id",
          "type": "uint256"
        }
      ],
      "name": "name",
      "outputs": [
        {
          "internalType": "string",
          "name": "",
          "type": "string"
        }
      ],
      "stateMutability": "view",
      "type": "function"
    },
    {
      "inputs": [
        {
          "internalType": "address",
          "name": "account",
          "type": "address"
        },
        {
          "internalType": "uint256",
          "name": "word",
          "type": "uint256"
        }
      ],
      "name": "nonceBitMap",
      "outputs": [
        {
          "internalType": "uint256",
          "name": "bitMap",
          "type": "uint256"
        }
      ],
      "stateMutability": "view",
      "type": "function"
    },
    {
      "inputs": [
        {
          "internalType": "address",
          "name": "_operator",
          "type": "address"
        },
        {
          "internalType": "bool",
          "name": "_approved",
          "type": "bool"
        }
      ],
      "name": "setOperator",
      "outputs": [
        {
          "internalType": "bool",
          "name": "",
          "type": "bool"
        }
      ],
      "stateMutability": "nonpayable",
      "type": "function"
    },
    {
      "inputs": [
        {
          "components": [
            {
              "internalType": "uint16",
              "name": "incentive",
              "type": "uint16"
            },
            {
              "internalType": "bool",
              "name": "paused",
              "type": "bool"
            }
          ],
          "internalType": "struct SplitsWarehouse.WithdrawConfig",
          "name": "_config",
          "type": "tuple"
        }
      ],
      "name": "setWithdrawConfig",
      "outputs": [],
      "stateMutability": "nonpayable",
      "type": "function"
    },
    {
      "inputs": [
        {
          "internalType": "bytes4",
          "name": "_interfaceId",
          "type": "bytes4"
        }
      ],
      "name": "supportsInterface",
      "outputs": [
        {
          "internalType": "bool",
          "name": "supported",
          "type": "bool"
        }
      ],
      "stateMutability": "view",
      "type": "function"
    },
    {
      "inputs": [
        {
          "internalType": "uint256",
          "name": "id",
          "type": "uint256"
        }
      ],
      "name": "symbol",
      "outputs": [
        {
          "internalType": "string",
          "name": "",
          "type": "string"
        }
      ],
      "stateMutability": "view",
      "type": "function"
    },
    {
      "inputs": [
        {
          "internalType": "address",
          "name": "_spender",
          "type": "address"
        },
        {
          "internalType": "bool",
          "name": "_operator",
          "type": "bool"
        },
        {
          "internalType": "uint256",
          "name": "_id",
          "type": "uint256"
        },
        {
          "internalType": "uint256",
          "name": "_amount",
          "type": "uint256"
        },
        {
          "internalType": "address",
          "name": "_target",
          "type": "address"
        },
        {
          "internalType": "bytes",
          "name": "_data",
          "type": "bytes"
        }
      ],
      "name": "temporaryApproveAndCall",
      "outputs": [
        {
          "internalType": "bool",
          "name": "",
          "type": "bool"
        }
      ],
      "stateMutability": "nonpayable",
      "type": "function"
    },
    {
      "inputs": [
        {
          "internalType": "address",
          "name": "_owner",
          "type": "address"
        },
        {
          "internalType": "address",
          "name": "_spender",
          "type": "address"
        },
        {
          "internalType": "bool",
          "name": "_operator",
          "type": "bool"
        },
        {
          "internalType": "uint256",
          "name": "_id",
          "type": "uint256"
        },
        {
          "internalType": "uint256",
          "name": "_amount",
          "type": "uint256"
        },
        {
          "internalType": "address",
          "name": "_target",
          "type": "address"
        },
        {
          "internalType": "bytes",
          "name": "_data",
          "type": "bytes"
        },
        {
          "internalType": "uint256",
          "name": "_nonce",
          "type": "uint256"
        },
        {
          "internalType": "uint48",
          "name": "_deadline",
          "type": "uint48"
        },
        {
          "internalType": "bytes",
          "name": "_signature",
          "type": "bytes"
        }
      ],
      "name": "temporaryApproveAndCallBySig",
      "outputs": [
        {
          "internalType": "bool",
          "name": "",
          "type": "bool"
        }
      ],
      "stateMutability": "nonpayable",
      "type": "function"
    },
    {
      "inputs": [
        {
          "internalType": "address",
          "name": "_receiver",
          "type": "address"
        },
        {
          "internalType": "uint256",
          "name": "_id",
          "type": "uint256"
        },
        {
          "internalType": "uint256",
          "name": "_amount",
          "type": "uint256"
        }
      ],
      "name": "transfer",
      "outputs": [
        {
          "internalType": "bool",
          "name": "",
          "type": "bool"
        }
      ],
      "stateMutability": "nonpayable",
      "type": "function"
    },
    {
      "inputs": [
        {
          "internalType": "address",
          "name": "_sender",
          "type": "address"
        },
        {
          "internalType": "address",
          "name": "_receiver",
          "type": "address"
        },
        {
          "internalType": "uint256",
          "name": "_id",
          "type": "uint256"
        },
        {
          "internalType": "uint256",
          "name": "_amount",
          "type": "uint256"
        }
      ],
      "name": "transferFrom",
      "outputs": [
        {
          "internalType": "bool",
          "name": "",
          "type": "bool"
        }
      ],
      "stateMutability": "nonpayable",
      "type": "function"
    },
    {
      "inputs": [
        {
          "internalType": "address",
          "name": "_owner",
          "type": "address"
        },
        {
          "internalType": "address[]",
          "name": "_tokens",
          "type": "address[]"
        },
        {
          "internalType": "uint256[]",
          "name": "_amounts",
          "type": "uint256[]"
        },
        {
          "internalType": "address",
          "name": "_withdrawer",
          "type": "address"
        }
      ],
      "name": "withdraw",
      "outputs": [],
      "stateMutability": "nonpayable",
      "type": "function"
    },
    {
      "inputs": [
        {
          "internalType": "address",
          "name": "_owner",
          "type": "address"
        },
        {
          "internalType": "address",
          "name": "_token",
          "type": "address"
        }
      ],
      "name": "withdraw",
      "outputs": [],
      "stateMutability": "nonpayable",
      "type": "function"
    },
    {
      "inputs": [
        {
          "internalType": "address",
          "name": "owner",
          "type": "address"
        }
      ],
      "name": "withdrawConfig",
      "outputs": [
        {
          "internalType": "uint16",
          "name": "incentive",
          "type": "uint16"
        },
        {
          "internalType": "bool",
          "name": "paused",
          "type": "bool"
        }
      ],
      "stateMutability": "view",
      "type": "function"
    }
  ],
  "bytecode": "0x6101a0604052346200008f5762000020620000196200022d565b9062000313565b6200002a62000095565b61475562000b1982396080518161318a015260a051816131c1015260c05181613150015260e05181613c1b01526101005181613c40015261012051816122db01526101405181612310015261016051816117cf01526101805181611f4c015261475590f35b6200009b565b60405190565b600080fd5b601f801991011690565b634e487b7160e01b600052604160045260246000fd5b90620000cc90620000a0565b810190811060018060401b03821117620000e557604052565b620000aa565b9062000102620000fa62000095565b9283620000c0565b565b600080fd5b600080fd5b600080fd5b600080fd5b60018060401b038111620001375762000133602091620000a0565b0190565b620000aa565b60005b83811062000152575050906000910152565b80602091830151818501520162000140565b909291926200017d620001778262000118565b620000eb565b938185526020850190828401116200019c576200019a926200013d565b565b62000113565b9080601f83011215620001c357816020620001c09351910162000164565b90565b6200010e565b9190916040818403126200022757600081015160018060401b038111620002215783620001f8918301620001a2565b92602082015160018060401b0381116200021b57620002189201620001a2565b90565b62000109565b62000109565b62000104565b620002506200526e803803806200024481620000eb565b928339810190620001c9565b9091565b906200026a620002648362000118565b620000eb565b918252565b60007f53706c69747357617265686f7573650000000000000000000000000000000000910152565b620002a3600f62000254565b90620002b2602083016200026f565b565b620002be62000297565b90565b60007f7631000000000000000000000000000000000000000000000000000000000000910152565b620002f5600262000254565b906200030460208301620002c1565b565b62000310620002e9565b90565b90620003426200034c926200033c6200032b620002b4565b6200033562000306565b9062000352565b620005e2565b61016052620005e2565b61018052565b906200035e9162000360565b565b906200036c916200036e565b565b906200037a91620003d8565b565b90565b90565b60200190565b5190565b60018060a01b031690565b90565b620003b3620003ad620003b9926200038c565b62000397565b6200038c565b90565b620003c7906200039a565b90565b620003d590620003bc565b90565b90620004206200044092620003fa81620003f360036200037c565b9062000954565b6101205262000416836200040f60046200037c565b9062000954565b610140526200037f565b620004366200042f8262000388565b9162000382565b2060e0526200037f565b620004566200044f8262000388565b9162000382565b20610100524660a0526200046962000a90565b6080526200047730620003ca565b60c052565b600090565b90565b90565b620004a06200049a620004a69262000484565b62000397565b62000481565b90565b5190565b60209181520190565b620004db620004e5602093620004eb93620004d181620004a9565b93848093620004ad565b958691016200013d565b620000a0565b0190565b620005079160208201916000818403910152620004b6565b90565b90565b6200051990516200050a565b90565b1b90565b620005406200053a620005338362000388565b9262000382565b6200050d565b90602081106200054f575b5090565b6200056490600019906020036008026200051c565b16386200054b565b60001c90565b6200058b62000585620005919262000481565b62000397565b62000481565b90565b620005a3620005a9916200056c565b62000572565b90565b60001b90565b620005cb620005c5620005d19262000481565b620005ac565b6200050a565b90565b620005df906200050a565b90565b620005ec6200047c565b50620005f8816200037f565b90620006048262000388565b6200061b62000614601f62000487565b9162000481565b116200065b575062000652816200064b620006446200063e620006589562000520565b62000594565b9162000388565b17620005b2565b620005d4565b90565b62000681906200066a62000095565b91829163305a27a960e01b835260048301620004ef565b0390fd5b90565b620006a16200069b620006a79262000685565b62000397565b62000481565b90565b634e487b7160e01b600052602260045260246000fd5b9060016002830492168015620006e3575b6020831014620006dd57565b620006aa565b91607f1691620006d1565b600052602060002090565b601f602091010490565b91906008620007239102916200071c600019846200051c565b926200051c565b9181191691161790565b90565b91906200074b62000745620007549362000572565b6200072d565b90835462000703565b9055565b600090565b62000773916200076c62000758565b9162000730565b565b5b81811062000782575050565b806200079260006001936200075d565b0162000776565b9190601f8111620007aa575b505050565b620007b9620007e493620006ee565b906020620007c784620006f9565b83019310620007ed575b620007dc90620006f9565b019062000775565b388080620007a5565b9150620007dc81929050620007d1565b1c90565b90620008149060001990600802620007fd565b191690565b81620008259162000801565b906002021790565b906200083981620004a9565b9060018060401b0382116200090c576200086082620008598554620006c0565b8562000799565b602090601f83116001146200089a5791809162000888936000926200088d575b505062000819565b90555b565b9091500151388062000880565b601f19831691620008ab85620006ee565b9260005b818110620008f357509160029391856001969410620008d6575b505050020190556200088b565b620008e8910151601f84169062000801565b9055388080620008c9565b91936020600181928787015181550195019201620008af565b620000aa565b906200091e916200082d565b565b90565b6200093c62000936620009429262000920565b620005ac565b6200050a565b90565b6200095160ff62000923565b90565b906200095f6200047c565b50620009756200096f836200037f565b62000388565b6200098c62000985602062000688565b9162000481565b10600014620009a45750620009a190620005e2565b90565b6000620009b6620009bd939262000b15565b0162000912565b620009d1620009cb62000945565b620005d4565b90565b600090565b7f8b73c3c69bb8fe3d512ecc4cf759cc79239f7b179b0ffacaa9a75d522b39400f90565b62000a08906200050a565b9052565b62000a179062000481565b9052565b62000a26906200038c565b90565b62000a349062000a1b565b9052565b9095949262000a8e9462000a7b62000a869262000a7060809662000a6560a088019c6000890190620009fd565b6020870190620009fd565b6040850190620009fd565b606083019062000a0c565b019062000a29565b565b62000a9a620009d4565b5062000aa5620009d9565b62000afb62000ab560e06200050d565b9162000aeb62000ac76101006200050d565b4662000ad330620003ca565b9162000ade62000095565b9687956020870162000a38565b60208201810382520382620000c0565b62000b1162000b0a8262000388565b9162000382565b2090565b9056fe60806040526004361015610013575b611533565b61001e6000356101fb565b8062ad800c146101f6578062fdd58e146101f157806301ffc9a7146101ec5780630647ee20146101e7578063095bcdb6146101e257806310c07f2f146101dd57806314925cad146101d85780632e72102f146101d357806331f7d964146101ce5780633644e515146101c95780633f26479e146101c45780633f47e662146101bf5780633fcbd4d1146101ba578063426a8493146101b557806348eebe45146101b05780634e41a1fb146101ab578063558a7297146101a6578063598af9e7146101a1578063676ae78f1461019c578063829ab5c1146101975780638340f5491461019257806384b0196e1461018d578063b6363cf214610188578063b70e36f014610183578063d23c07241461017e578063dc393b6b14610179578063e088902914610174578063f46d86e21461016f578063f940e3851461016a5763fe99049a0361000e576114fa565b61147f565b61144a565b6113e1565b611325565b611257565b6111ed565b6111b7565b6110d5565b610f97565b610f5b565b610eb2565b610e7c565b610dc7565b610d64565b610d2f565b610cab565b610c75565b610c1e565b610bc0565b610b52565b610af7565b610a6a565b61092c565b6106ee565b6105c8565b610557565b610522565b610475565b6102e2565b60e01c90565b60405190565b600080fd5b600080fd5b600080fd5b90565b61022281610216565b0361022957565b600080fd5b9050359061023b82610219565b565b90602082820312610257576102549160000161022e565b90565b61020c565b5190565b60209181520190565b60005b83811061027d575050906000910152565b80602091830151818501520161026c565b601f801991011690565b6102b76102c06020936102c5936102ae8161025c565b93848093610260565b95869101610269565b61028e565b0190565b6102df9160208201916000818403910152610298565b90565b346103125761030e6102fd6102f836600461023d565b61170a565b610305610201565b918291826102c9565b0390f35b610207565b60018060a01b031690565b61032b90610317565b90565b61033781610322565b0361033e57565b600080fd5b905035906103508261032e565b565b919060408382031261037b578061036f6103789260008601610343565b9360200161022e565b90565b61020c565b90565b61039761039261039c92610317565b610380565b610317565b90565b6103a890610383565b90565b6103b49061039f565b90565b906103c1906103ab565b600052602052604060002090565b6103e36103de6103e892610216565b610380565b610216565b90565b906103f5906103cf565b600052602052604060002090565b1c90565b90565b61041a90600861041f9302610403565b610407565b90565b9061042d915461040a565b90565b61044a61044f926104456001936000946103b7565b6103eb565b610422565b90565b61045b90610216565b9052565b919061047390600060208501940190610452565b565b346104a6576104a261049161048b366004610352565b90610430565b610499610201565b9182918261045f565b0390f35b610207565b63ffffffff60e01b1690565b6104c0816104ab565b036104c757565b600080fd5b905035906104d9826104b7565b565b906020828203126104f5576104f2916000016104cc565b90565b61020c565b151590565b610508906104fa565b9052565b9190610520906000602085019401906104ff565b565b346105525761054e61053d6105383660046104db565b6117fb565b610545610201565b9182918261050c565b0390f35b610207565b346105885761058461057361056d366004610352565b9061187b565b61057b610201565b9182918261050c565b0390f35b610207565b90916060828403126105c3576105c06105a98460008501610343565b936105b7816020860161022e565b9360400161022e565b90565b61020c565b346105f9576105f56105e46105de36600461058d565b91611988565b6105ec610201565b9182918261050c565b0390f35b610207565b906020828203126106185761061591600001610343565b90565b61020c565b90610627906103ab565b600052602052604060002090565b60001c90565b61ffff1690565b61064e61065391610635565b61063b565b90565b6106609054610642565b90565b60101c90565b60ff1690565b61067b61068091610663565b610669565b90565b61068d905461066f565b90565b61069b90600661061d565b906106b360006106ac818501610656565b9301610683565b90565b61ffff1690565b6106c6906106b6565b9052565b9160206106ec9294936106e5604082019660008301906106bd565b01906104ff565b565b3461071f576107066107013660046105fe565b610690565b9061071b610712610201565b928392836106ca565b0390f35b610207565b61072d816104fa565b0361073457565b600080fd5b9050359061074682610724565b565b600080fd5b600080fd5b634e487b7160e01b600052604160045260246000fd5b906107729061028e565b810190811067ffffffffffffffff82111761078c57604052565b610752565b906107a461079d610201565b9283610768565b565b67ffffffffffffffff81116107c4576107c060209161028e565b0190565b610752565b90826000939282370152565b909291926107ea6107e5826107a6565b610791565b9381855260208501908284011161080657610804926107c9565b565b61074d565b9080601f8301121561082957816020610826933591016107d5565b90565b610748565b65ffffffffffff1690565b6108428161082e565b0361084957565b600080fd5b9050359061085b82610839565b565b9061014082820312610927576108768160008401610343565b926108848260208501610343565b926108928360408301610739565b926108a0816060840161022e565b926108ae826080850161022e565b926108bc8360a08301610343565b9260c082013567ffffffffffffffff811161092257816108dd91840161080b565b926108eb8260e0850161022e565b926108fa83610100830161084e565b9261012082013567ffffffffffffffff811161091d5761091a920161080b565b90565b610211565b610211565b61020c565b346109695761096561095461094236600461085d565b98979097969196959295949394611a56565b61095c610201565b9182918261050c565b0390f35b610207565b600080fd5b600080fd5b909182601f830112156109b25781359167ffffffffffffffff83116109ad5760200192602083028401116109a857565b610973565b61096e565b610748565b909182601f830112156109f15781359167ffffffffffffffff83116109ec5760200192602083028401116109e757565b610973565b61096e565b610748565b9190606083820312610a5f57600083013567ffffffffffffffff8111610a5a5781610a22918501610978565b929093610a328360208301610343565b92604082013567ffffffffffffffff8111610a5557610a5192016109b7565b9091565b610211565b610211565b61020c565b60000190565b34610a9c57610a86610a7d3660046109f6565b93929092611b1e565b610a8e610201565b80610a9881610a64565b0390f35b610207565b6000910312610aac57565b61020c565b73eeeeeeeeeeeeeeeeeeeeeeeeeeeeeeeeeeeeeeee90565b610ad1610ab1565b90565b610add90610322565b9052565b9190610af590600060208501940190610ad4565b565b34610b2757610b07366004610aa1565b610b23610b12610ac9565b610b1a610201565b91829182610ae1565b0390f35b610207565b90565b610b3890610b2c565b9052565b9190610b5090600060208501940190610b2f565b565b34610b8257610b62366004610aa1565b610b7e610b6d611cd5565b610b75610201565b91829182610b3c565b0390f35b610207565b90565b610b9e610b99610ba392610b87565b610380565b610216565b90565b610bb2620f4240610b8a565b90565b610bbd610ba6565b90565b34610bf057610bd0366004610aa1565b610bec610bdb610bb5565b610be3610201565b9182918261045f565b0390f35b610207565b60ff1690565b610c0490610bf5565b9052565b9190610c1c90600060208501940190610bfb565b565b34610c4e57610c4a610c39610c3436600461023d565b611d50565b610c41610201565b91829182610c08565b0390f35b610207565b610c6d610c7292610c686005936000946103b7565b6103eb565b610422565b90565b34610ca657610ca2610c91610c8b366004610352565b90610c53565b610c99610201565b9182918261045f565b0390f35b610207565b34610cdc57610cd8610cc7610cc136600461058d565b91611e14565b610ccf610201565b9182918261050c565b0390f35b610207565b610cea90610383565b90565b610d01610cfc610d0692610317565b610380565b610216565b90565b610d21610d1c610d17610ab1565b610ce1565b610ced565b90565b610d2c610d09565b90565b34610d5f57610d3f366004610aa1565b610d5b610d4a610d24565b610d52610201565b9182918261045f565b0390f35b610207565b34610d9457610d90610d7f610d7a36600461023d565b611e87565b610d87610201565b918291826102c9565b0390f35b610207565b9190604083820312610dc25780610db6610dbf9260008601610343565b93602001610739565b90565b61020c565b34610df857610df4610de3610ddd366004610d99565b90611f73565b610deb610201565b9182918261050c565b0390f35b610207565b9091606082840312610e3357610e30610e198460008501610343565b93610e278160208601610343565b9360400161022e565b90565b61020c565b90610e42906103ab565b600052602052604060002090565b90610e7992610e6f610e7492610e6a600295600096610e38565b6103b7565b6103eb565b610422565b90565b34610ead57610ea9610e98610e92366004610dfd565b91610e50565b610ea0610201565b9182918261045f565b0390f35b610207565b610ec9610ec03660046109f6565b93929092611fb0565b610ed1610201565b80610edb81610a64565b0390f35b9160c083830312610f5657610ef78260008501610343565b92610f058360208301610739565b92610f13816040840161022e565b92610f21826060850161022e565b92610f2f8360808301610343565b9260a082013567ffffffffffffffff8111610f5157610f4e920161080b565b90565b610211565b61020c565b34610f9257610f8e610f7d610f71366004610edf565b94939093929192612130565b610f85610201565b9182918261050c565b0390f35b610207565b610fab610fa5366004610dfd565b91612153565b610fb3610201565b80610fbd81610a64565b0390f35b60ff60f81b1690565b610fd390610fc1565b9052565b5190565b60209181520190565b60200190565b610ff390610216565b9052565b9061100481602093610fea565b0190565b60200190565b9061102b61102561101e84610fd7565b8093610fdb565b92610fe4565b9060005b81811061103c5750505090565b90919261105561104f6001928651610ff7565b94611008565b910191909161102f565b939591946110b16110a66110c5956110986110bb956110d29c9a61108b60e08c019260008d0190610fca565b8a820360208c0152610298565b9088820360408a0152610298565b976060870190610452565b6080850190610ad4565b60a0830190610b2f565b60c081840391015261100e565b90565b3461110c576110e5366004610aa1565b6111086110f0612297565b936110ff979597939193610201565b9788978861105f565b0390f35b610207565b919060408382031261113a578061112e6111379260008601610343565b93602001610343565b90565b61020c565b90611149906103ab565b600052602052604060002090565b90611161906103ab565b600052602052604060002090565b61117f9060086111849302610403565b610669565b90565b90611192915461116f565b90565b6111af6111b4926111aa60009360009461113f565b611157565b611187565b90565b346111e8576111e46111d36111cd366004611111565b90611195565b6111db610201565b9182918261050c565b0390f35b610207565b3461121b5761120561120036600461023d565b61237b565b61120d610201565b8061121781610a64565b0390f35b610207565b600080fd5b908160409103126112335790565b611220565b906040828203126112525761124f91600001611225565b90565b61020c565b346112855761126f61126a366004611238565b6125a6565b611277610201565b8061128181610a64565b0390f35b610207565b91909161010081840312611320576112a58360008301610343565b926112b38160208401610343565b926112c18260408501610739565b926112cf836060830161022e565b926112dd816080840161022e565b926112eb8260a0850161022e565b926112f98360c0830161084e565b9260e082013567ffffffffffffffff811161131b57611318920161080b565b90565b610211565b61020c565b3461135f5761135b61134a61133b36600461128a565b96959095949194939293612640565b611352610201565b9182918261050c565b0390f35b610207565b91906080838203126113dc5761137d8160008501610343565b92602081013567ffffffffffffffff81116113d7578261139e918301610978565b929093604083013567ffffffffffffffff81116113d2576113c4836113cf9286016109b7565b939094606001610343565b90565b610211565b610211565b61020c565b34611416576114006113f4366004611364565b949390939291926127a9565b611408610201565b8061141281610a64565b0390f35b610207565b7f01eb7e05a16709b6f764150593b828b1110ce9fbd8830ba01c079956b1c9cd7f90565b61144761141b565b90565b3461147a5761145a366004610aa1565b61147661146561143f565b61146d610201565b91829182610b3c565b0390f35b610207565b346114ae57611498611492366004611111565b90612930565b6114a0610201565b806114aa81610a64565b0390f35b610207565b6080818303126114f5576114ca8260008301610343565b926114f26114db8460208501610343565b936114e9816040860161022e565b9360600161022e565b90565b61020c565b3461152e5761152a6115196115103660046114b3565b92919091612a25565b611521610201565b9182918261050c565b0390f35b610207565b600080fd5b606090565b67ffffffffffffffff811161155b5761155760209161028e565b0190565b610752565b9061157261156d8361153d565b610791565b918252565b60007f53706c6974732057726170706564200000000000000000000000000000000000910152565b6115a9600f611560565b906115b660208301611577565b565b6115c061159f565b90565b6115cb6115b8565b90565b6115d790610383565b90565b6115e3906115ce565b90565b6115ef9061039f565b90565b60e01b90565b9092919261160d6116088261153d565b610791565b938185526020850190828401116116295761162792610269565b565b61074d565b9080601f8301121561164c57816020611649935191016115f8565b90565b610748565b9060208282031261168257600082015167ffffffffffffffff811161167d5761167a920161162e565b90565b610211565b61020c565b61168f610201565b3d6000823e3d90fd5b905090565b6116c26116b9926020926116b08161025c565b94858093611698565b93849101610269565b0190565b6116d4906116da939261169d565b9061169d565b90565b6116fc9291611708916116ee610201565b9485926020840192836116c6565b90810382520383610768565b565b611712611538565b508061172d611727611722610d09565b610216565b91610216565b146117c95761176f90600061175961175461174f6117496115c3565b94612c3d565b6115da565b6115e6565b6306fdde0390611767610201565b9485926115f2565b8252818061177f60048201610a64565b03915afa9081156117c45761179c9260009261179f575b506116dd565b90565b6117bd9192503d806000833e6117b58183610768565b810190611651565b9038611796565b611687565b506117f37f0000000000000000000000000000000000000000000000000000000000000000612c0d565b90565b600090565b6118036117f6565b5061180d81612c5a565b908115611819575b5090565b905061183461182e634a31d20760e01b6104ab565b916104ab565b1438611815565b61184761184c91610635565b610407565b90565b611859905461183b565b90565b90565b61187361186e6118789261185c565b610380565b610216565b90565b906118a76118a26118976118ac936118916117f6565b50612d39565b9190919460056103b7565b6103eb565b61184f565b166118c06118ba600061185f565b91610216565b1490565b634e487b7160e01b600052601160045260246000fd5b6118e96118ef91939293610216565b92610216565b82039182116118fa57565b6118c4565b60001b90565b90611912600019916118ff565b9181191691161790565b90565b9061193461192f61193b926103cf565b61191c565b8254611905565b9055565b61194e61195491939293610216565b92610216565b820180921161195f57565b6118c4565b91602061198692949361197f60408201966000830190610ad4565b0190610452565b565b91906119926117f6565b506119c5826119bf6119b06119a9600133906103b7565b85906103eb565b916119ba8361184f565b6118da565b9061191f565b6119f7826119f16119e26119db600188906103b7565b85906103eb565b916119ec8361184f565b61193f565b9061191f565b339233909192611a39611a33611a2d7f1b3d7edb2e9c0b0e7c525b20aaaef0f5940d2ed71663c7d39266ecafac728859946103ab565b946103ab565b946103cf565b94611a4e611a45610201565b92839283611964565b0390a4600190565b91929394959690611a9e998199611a9293611a6f6117f6565b50611a7b868290612d80565b8a8a8a60019689908b918d93949596979899612e7c565b95909192939495613002565b600190565b5090565b5090565b600090565b600090565b6001611ac19101610216565b90565b634e487b7160e01b600052603260045260246000fd5b9190811015611aea576020020190565b611ac4565b35611af98161032e565b90565b9190811015611b0c576020020190565b611ac4565b35611b1b81610219565b90565b919390611b2c838290611aa3565b611b48611b42611b3d878690611aa7565b610216565b91610216565b03611cad57611b70611b58611aab565b95611b61611aab565b50611b6a611ab0565b50613119565b92611b7c818390611aa3565b96611b85611aab565b965b87611b9a611b948b610216565b91610216565b1015611c6f57611c63611c6991611bbb611bb686888d91611ada565b611aef565b611bd0611bcb8b8d8b9091611afc565b611b11565b90611c0282611bfc611bed8d611be8600187906103b7565b6103eb565b91611bf78361184f565b61193f565b9061191f565b339033908b9184611c45611c3f611c397f1b3d7edb2e9c0b0e7c525b20aaaef0f5940d2ed71663c7d39266ecafac728859946103ab565b946103ab565b946103cf565b94611c5a611c51610201565b92839283611964565b0390a49061193f565b97611ab5565b96611b87565b9250965050611cab9450611ca5929350611c96915092611c91600133906103b7565b6103eb565b91611ca08361184f565b6118da565b9061191f565b565b611cb5610201565b631fec674760e31b815280611ccc60048201610a64565b0390fd5b600090565b611cdd611cd0565b50611ce6613136565b90565b600090565b90565b611d05611d00611d0a92611cee565b610380565b610bf5565b90565b611d1681610bf5565b03611d1d57565b600080fd5b90505190611d2f82611d0d565b565b90602082820312611d4b57611d4891600001611d22565b90565b61020c565b611d58611ce9565b5080611d73611d6d611d68610d09565b610216565b91610216565b14611e06576020611d96611d91611d8c611dac94612c3d565b6115da565b6115e6565b63313ce56790611da4610201565b9384926115f2565b82528180611dbc60048201610a64565b03915afa908115611e0157600091611dd3575b5090565b611df4915060203d8111611dfa575b611dec8183610768565b810190611d31565b38611dcf565b503d611de2565b611687565b50611e116012611cf1565b90565b9091611e2d92611e226117f6565b5033929091926131f1565b90565b60007f73706c6974730000000000000000000000000000000000000000000000000000910152565b611e626006611560565b90611e6f60208301611e30565b565b611e79611e58565b90565b611e84611e71565b90565b611e8f611538565b5080611eaa611ea4611e9f610d09565b610216565b91610216565b14611f4657611eec906000611ed6611ed1611ecc611ec6611e7c565b94612c3d565b6115da565b6115e6565b6395d89b4190611ee4610201565b9485926115f2565b82528180611efc60048201610a64565b03915afa908115611f4157611f1992600092611f1c575b506116dd565b90565b611f3a9192503d806000833e611f328183610768565b810190611651565b9038611f13565b611687565b50611f707f0000000000000000000000000000000000000000000000000000000000000000612c0d565b90565b611f8991611f7f6117f6565b50339190916132ba565b90565b611f9590610383565b90565b611fa190611f8c565b90565b611fad9061039f565b90565b909193611fbe828490611aa3565b611fda611fd4611fcf878590611aa7565b610216565b91610216565b0361210d57611fe7611aab565b93611ff0611aab565b50611ffa86613119565b96612006848690611aa3565b9661200f611aab565b5b8061202361201d8b610216565b91610216565b1015612077576120729061206d61204f612047612042888a8691611afc565b611b11565b9a8b9061193f565b9961206461205f8a8c8691611ada565b611aef565b908d9091613338565b611ab5565b612010565b509596509650505050508061209b612095612090610ab1565b610322565b91610322565b146000146120e157506120b66120b034610216565b91610216565b036120be575b565b6120c6610201565b63162908e360e11b8152806120dd60048201610a64565b0390fd5b906120f66120f1612108936115da565b611f98565b903361210130611fa4565b9192613435565b6120bc565b612115610201565b631fec674760e31b81528061212c60048201610a64565b0390fd5b939161214e9593916121406117f6565b503395909192939495613002565b600190565b918161216e612168612163610ab1565b610322565b91610322565b146000146121c8578061218961218334610216565b91610216565b036121a55761219c6121a3935b92613119565b9091613338565b565b6121ad610201565b63162908e360e11b8152806121c460048201610a64565b0390fd5b61219c6121a3936121f56121e36121de866115da565b611f98565b336121ed30611fa4565b908692613435565b612196565b600090565b606090565b90565b6122109061039f565b90565b61222761222261222c9261185c565b6118ff565b610b2c565b90565b67ffffffffffffffff81116122475760208091020190565b610752565b9061225e6122598361222f565b610791565b918252565b369037565b9061228d6122758361224c565b92602080612283869361222f565b9201910390612263565b565b600f60f81b90565b61229f6121fa565b506122a8611538565b506122b1611538565b506122ba611aab565b506122c3611ab0565b506122cc611cd0565b506122d56121ff565b5061230a7f00000000000000000000000000000000000000000000000000000000000000006123046003612204565b906135da565b9061233f7f00000000000000000000000000000000000000000000000000000000000000006123396004612204565b906135da565b90469061234b30612207565b906123566000612213565b90612369612364600061185f565b612268565b9061237261228f565b96959493929190565b6123ae61239d61238a83612d39565b9190612398600533906103b7565b6103eb565b906123a78261184f565b179061191f565b33906123e36123dd7f239b0d63832ec06e8082928dc583392b57a30d16e4bb425b49d82c7808e308b0936103ab565b916103cf565b916123ec610201565b806123f681610a64565b0390a3565b612404816106b6565b0361240b57565b600080fd5b3561241a816123fb565b90565b9061242a61ffff916118ff565b9181191691161790565b61244861244361244d926106b6565b610380565b6106b6565b90565b90565b9061246861246361246f92612434565b612450565b825461241d565b9055565b3561247d81610724565b90565b60101b90565b9061249462ff000091612480565b9181191691161790565b6124a7906104fa565b90565b90565b906124c26124bd6124c99261249e565b6124aa565b8254612486565b9055565b906124f8602060006124fe946124f08282016124ea848801612410565b90612453565b019201612473565b906124ad565b565b9061250a916124cd565b565b90503590612519826123fb565b565b5061252a90602081019061250c565b90565b612536906106b6565b9052565b50612549906020810190610739565b90565b612555906104fa565b9052565b90602061258661258e9361257d612573600083018361251b565b600086019061252d565b8281019061253a565b91019061254c565b565b91906125a490600060408501940190612559565b565b6125bb816125b66006339061061d565b612500565b336125fb6125e97fbc150027ce95c264ad6d257eb2f738f76ce357f3b4a68aaf2d1681ce903cb21c926103ab565b926125f2610201565b91829182612590565b0390a2565b61261461260f6126199261185c565b610380565b610317565b90565b61262590612600565b90565b6126326000611560565b90565b61263d612628565b90565b919293946126919761268792976126556117f6565b50612661858490612d80565b600085938a888a908c92612675600061261c565b94969798612681612635565b96612e7c565b9390919293613629565b5050600190565b906126a2906106b6565b9052565b906126b0906104fa565b9052565b6126be6040610791565b90565b906126f86126ef60006126d26126b4565b946126e96126e1838301610656565b838801612698565b01610683565b602084016126a6565b565b612703906126c1565b90565b61271090516104fa565b90565b61271d90516106b6565b90565b61273461272f612739926106b6565b610380565b610216565b90565b61274b61275191939293610216565b92610216565b9161275d838202610216565b92818404149015171561276c57565b6118c4565b634e487b7160e01b600052601260045260246000fd5b61279361279991610216565b91610216565b9081156127a4570490565b612771565b9390959492916127ba878290611aa3565b6127d66127d06127cb868690611aa7565b610216565b91610216565b036128ee576127ef6127ea6006879061061d565b6126fa565b6127fb60208201612706565b6128c857612807611aab565b50612813888390611aa3565b9661281c611aab565b5b8061283061282a8b610216565b91610216565b10156128bc576128b7906128b28b6128806128726128586128538c8c8891611afc565b611b11565b61286c61286760008b01612713565b612720565b9061273c565b61287a610ba6565b90612787565b6128956128908d938a8791611ada565b611aef565b6128a96128a48c8c8891611afc565b611b11565b908c9293613757565b611ab5565b61281d565b50975050505050505050565b6128ea866128d4610201565b9182916363fb9b1760e11b835260048301610ae1565b0390fd5b6128f6610201565b631fec674760e31b81528061290d60048201610a64565b0390fd5b90565b61292861292361292d92612911565b610380565b610216565b90565b91903361294561293f85610322565b91610322565b1415806129e9575b6129a7575b6129a5919261299061298061297b61296c600185906103b7565b61297586613119565b906103eb565b61184f565b61298a6001612914565b906118da565b909190339161299f600061185f565b93613757565b565b6129be60006129b86006869061061d565b01610683565b15612952576129e5836129cf610201565b9182916363fb9b1760e11b835260048301610ae1565b0390fd5b50326129fd6129f785610322565b91610322565b141561294d565b612a10612a1591610635565b610669565b90565b612a229054612a04565b90565b929190612a306117f6565b5033612a44612a3e86610322565b91610322565b141580612b95575b612b13575b612a8383612a7d612a6e612a67600189906103b7565b86906103eb565b91612a788361184f565b6118da565b9061191f565b612ab583612aaf612aa0612a99600186906103b7565b86906103eb565b91612aaa8361184f565b61193f565b9061191f565b3393909192612af6612af0612aea7f1b3d7edb2e9c0b0e7c525b20aaaef0f5940d2ed71663c7d39266ecafac728859946103ab565b946103ab565b946103cf565b94612b0b612b02610201565b92839283611964565b0390a4600190565b612b3b612b36612b2f612b2860028890610e38565b33906103b7565b84906103eb565b61184f565b80612b50612b4a600019610216565b91610216565b03612b5c575b50612a51565b612b6a612b8f9185906118da565b612b8a612b83612b7c60028990610e38565b33906103b7565b85906103eb565b61191f565b38612b56565b50612bbd612bb7612bb2612bab6000889061113f565b3390611157565b612a18565b156104fa565b612a4c565b90565b612bd9612bd4612bde92612bc2565b610380565b610216565b90565b369037565b90612c0b612bf383611560565b92602080612c01869361153d565b9201910390612be1565b565b612c15611538565b50612c1f816138e6565b90612c32612c2d6020612bc5565b612be6565b918252602082015290565b612c52612c5791612c4c611ab0565b5061396e565b61039f565b90565b612c626117f6565b5080612c7d612c77630f632fb360e01b6104ab565b916104ab565b14908115612c8a575b5090565b9050612ca5612c9f6301ffc9a760e01b6104ab565b916104ab565b1438612c86565b90565b612cc3612cbe612cc892612cac565b610380565b610bf5565b90565b612cea90612ce4612cde612cef94610bf5565b91610216565b90610403565b610216565b90565b612d06612d01612d0b92610216565b610380565b610bf5565b90565b1b90565b612d3190612d2b612d25612d3694610bf5565b91610216565b90612d0e565b610216565b90565b90612d42611aab565b50612d4b611aab565b50612d7d612d6383612d5d6008612caf565b90612ccb565b92612d78612d72600192612cf2565b91612914565b612d12565b90565b612d8982612d39565b90612db5612da38392612d9e600587906103b7565b6103eb565b91612dad8361184f565b18809261191f565b16612dc9612dc3600061185f565b91610216565b14612e1a5790612e02612dfc7f239b0d63832ec06e8082928dc583392b57a30d16e4bb425b49d82c7808e308b0936103ab565b916103cf565b91612e0b610201565b80612e1581610a64565b0390a3565b612e22610201565b633ab3447f60e11b815280612e3960048201610a64565b0390fd5b612e51612e4c612e569261082e565b610380565b610216565b90565b612e629061082e565b9052565b9190612e7a90600060208501940190612e59565b565b99989694929099979593919742612e9b612e958a612e3d565b91610216565b11612efa5792612ed19a989592612ecb9a989592612ec49895978b909192939495969798613a74565b9091613b24565b156104fa565b612ed757565b612edf610201565b632057875960e21b815280612ef660048201610a64565b0390fd5b612f1c88612f06610201565b918291633aae542960e01b835260048301612e66565b0390fd5b612f2990610383565b90565b612f3590612f20565b90565b612f419061039f565b90565b90505190612f51826104b7565b565b90602082820312612f6d57612f6a91600001612f44565b90565b61020c565b5190565b60209181520190565b612f9e612fa7602093612fac93612f9581612f72565b93848093612f76565b95869101610269565b61028e565b0190565b9193612fe8612fff9694612fde612ff29497612fd460a08801996000890190610ad4565b60208701906104ff565b6040850190610452565b6060830190610452565b6080818403910152612f7f565b90565b95602061302995969493929661302e6130208a8a8789918693613629565b98909897612f2c565b612f38565b613057600063b74de3da6130628d9589988b91909161304b610201565b9a8b998a9889976115f2565b875260048701612fb0565b03925af1908115613114576000916130e6575b5061308f613089635ba6f1ed60e11b6104ab565b916104ab565b036130c3576000146130ad5750506130a9929190916132ba565b505b565b9091506130bd93929091926131f1565b506130ab565b6130cb610201565b632bc5818360e11b8152806130e260048201610a64565b0390fd5b613107915060203d811161310d575b6130ff8183610768565b810190612f53565b38613075565b503d6130f5565b611687565b61312e61313391613128611aab565b50610ce1565b610ced565b90565b61313e611cd0565b5061314830612207565b61317a6131747f0000000000000000000000000000000000000000000000000000000000000000610322565b91610322565b14806131b7575b6000146131ac577f000000000000000000000000000000000000000000000000000000000000000090565b6131b4613c05565b90565b50466131eb6131e57f0000000000000000000000000000000000000000000000000000000000000000610216565b91610216565b14613181565b929190926131fd6117f6565b506132278361322261321b61321460028690610e38565b88906103b7565b85906103eb565b61191f565b9290919261327c61326a61326461325e7fb3fd5071835887567a0671151121894ddccc2842f1d10bedad13e0d17cace9a7946103ab565b946103ab565b946103cf565b94613273610201565b9182918261045f565b0390a4600190565b9061329060ff916118ff565b9181191691161790565b906132af6132aa6132b69261249e565b6124aa565b8254613284565b9055565b9190916132c56117f6565b506132e5826132e06132d96000859061113f565b8690611157565b61329a565b91909161333061331e6133187fceb576d9f15e4e200fdb5096d64d5dfd667e16def20c1eefd14256d8e3faa267936103ab565b936103ab565b93613327610201565b9182918261050c565b0390a3600190565b919061336c82613366613357613350600188906103b7565b85906103eb565b916133618361184f565b61193f565b9061191f565b3392613378600061261c565b9091926133b76133b16133ab7f1b3d7edb2e9c0b0e7c525b20aaaef0f5940d2ed71663c7d39266ecafac728859946103ab565b946103ab565b946103cf565b946133cc6133c3610201565b92839283611964565b0390a4565b6133da9061039f565b90565b63ffffffff1690565b6133fa6133f56133ff926133dd565b6115f2565b6104ab565b90565b60409061342c613433949695939661342260608401986000850190610ad4565b6020830190610ad4565b0190610452565b565b613482939161346e60049461347d93946134526323b872dd6133e6565b9391909161345e610201565b9788956020870190815201613402565b60208201810382520383610768565b613dc7565b565b61348d90610b2c565b90565b90565b6134a76134a26134ac92613490565b6118ff565b610b2c565b90565b6134b960ff613493565b90565b634e487b7160e01b600052602260045260246000fd5b90600160028304921680156134f2575b60208310146134ed57565b6134bc565b91607f16916134e2565b60209181520190565b600052602060002090565b906000929180549061352b613524836134d2565b80946134fc565b916001811690816000146135845750600114613547575b505050565b6135549192939450613505565b916000925b81841061356c5750500190388080613542565b60018160209295939554848601520191019290613559565b92949550505060ff1916825215156020020190388080613542565b906135a991613510565b90565b906135cc6135c5926135bc610201565b9384809261359f565b0383610768565b565b6135d7906135ac565b90565b906135e3611538565b506135ed82613484565b6136066136006135fb6134af565b610b2c565b91610b2c565b141560001461361c575061361990612c0d565b90565b61362691506135ce565b90565b9492939091936136376117f6565b61363f611aab565b956000146136da575061365b613655600061185f565b91610216565b14159081156136bd575b5061369a576136969061368c6136876136806000889061113f565b8390611157565b612a18565b94906001916132ba565b505b565b6136a2610201565b63637e1dc560e11b8152806136b960048201610a64565b0390fd5b90506136d26136cc600061185f565b91610216565b141538613665565b95945090613715929161370b6137066136ff6136f860028a90610e38565b86906103b7565b83906103eb565b61184f565b95929091926131f1565b50613698565b61372490610383565b90565b6137309061371b565b90565b91602061375592949361374e60408201966000830190610452565b0190610452565b565b9291613778906137718561376a85613119565b8391613e34565b85906118da565b928161379361378d613788610ab1565b610322565b91610322565b1460001461383b576137ae6137a782613727565b85906140c5565b846137c26137bc600061185f565b91610216565b03613823575b5b909192936138096138036137fd7ffbde797d201c681b91056529119e0b02407c7bb96a4a2c75c01fc9667232c8db946103ab565b946103ab565b946103ab565b9461381e613815610201565b92839283613733565b0390a4565b61383661382f84613727565b86906140c5565b6137c8565b61385761384f61384a846115da565b611f98565b828691613ecc565b8461386b613865600061185f565b91610216565b03613876575b6137c9565b61389261388a613885846115da565b611f98565b848791613ecc565b613871565b6138a36138a891610635565b6103cf565b90565b6138bf6138ba6138c492613490565b610380565b610216565b90565b90565b6138de6138d96138e3926138c7565b610380565b610216565b90565b6138fb613900916138f5611aab565b50613484565b613897565b61390a60ff6138ab565b168061391f613919601f6138ca565b91610216565b116139275790565b61392f610201565b632cd44ac360e21b81528061394660048201610a64565b0390fd5b600090565b90565b61396661396161396b9261394f565b610380565b610bf5565b90565b61397661394a565b5061398b8161398560a0613952565b90612ccb565b61399e613998600061185f565b91610216565b036139a65790565b6139ae610201565b631a93c68960e11b8152806139c560048201610a64565b0390fd5b60200190565b98969492909b9a99979593916101608a019c60008b016139ee91610b2f565b60208a016139fb916104ff565b60408901613a0891610ad4565b60608801613a1591610ad4565b60808701613a22916104ff565b60a08601613a2f91610452565b60c08501613a3c91610452565b60e08401613a4991610ad4565b6101008301613a5791610b2f565b6101208201613a6591610452565b61014001613a7291612e59565b565b95613ac995613ad89892999395613af09b95613a8e611cd0565b50613a9761141b565b999b979091929394613ab1613aab82612f72565b916139c9565b20959697613abd610201565b9c8d9b60208d016139cf565b60208201810382520382610768565b613aea613ae482612f72565b916139c9565b20614123565b90565b634e487b7160e01b600052602160045260246000fd5b60051115613b1357565b613af3565b90613b2282613b09565b565b91613b2d6117f6565b50613b39828290614164565b613b4c613b466000613b18565b91613b18565b149081613b78575b50928315613b63575b50505090565b613b709350919091614261565b388080613b5d565b9050613b8c613b8685610322565b91610322565b1438613b54565b7f8b73c3c69bb8fe3d512ecc4cf759cc79239f7b179b0ffacaa9a75d522b39400f90565b90959492613c0394613bf2613bfc92613be8608096613bde60a088019c6000890190610b2f565b6020870190610b2f565b6040850190610b2f565b6060830190610452565b0190610ad4565b565b613c0d611cd0565b50613c16613b93565b613c8d7f000000000000000000000000000000000000000000000000000000000000000091613c7e7f000000000000000000000000000000000000000000000000000000000000000046613c6930612207565b91613c72610201565b96879560208701613bb7565b60208201810382520382610768565b613c9f613c9982612f72565b916139c9565b2090565b60007f5361666545524332303a206c6f772d6c6576656c2063616c6c206661696c6564910152565b613cd56020611560565b90613ce260208301613ca3565b565b613cec613ccb565b90565b90505190613cfc82610724565b565b90602082820312613d1857613d1591600001613cef565b90565b61020c565b60207f6f74207375636365656400000000000000000000000000000000000000000000917f5361666545524332303a204552433230206f7065726174696f6e20646964206e60008201520152565b613d78602a604092610260565b613d8181613d1d565b0190565b613d9b9060208101906000818303910152613d6b565b90565b15613da557565b613dad610201565b62461bcd60e51b815280613dc360048201613d85565b0390fd5b613e1191613dd7613de6926133d1565b90613de0613ce4565b91614334565b613def81612f72565b613e02613dfc600061185f565b91610216565b14908115613e13575b50613d9e565b565b613e2e91506020613e2382612f72565b818301019101613cfe565b38613e0b565b9190613e6882613e62613e53613e4c600188906103b7565b85906103eb565b91613e5d8361184f565b6118da565b9061191f565b3392613e74600061261c565b9192613eb2613eac613ea67f1b3d7edb2e9c0b0e7c525b20aaaef0f5940d2ed71663c7d39266ecafac728859946103ab565b946103ab565b946103cf565b94613ec7613ebe610201565b92839283611964565b0390a4565b91613f10600492613f01613f159593613ee863a9059cbb6133e6565b92613ef1610201565b9687946020860190815201611964565b60208201810382520383610768565b613dc7565b565b613f209061039f565b90565b60007f416464726573733a20696e73756666696369656e742062616c616e6365000000910152565b613f58601d602092610260565b613f6181613f23565b0190565b613f7b9060208101906000818303910152613f4b565b90565b15613f8557565b613f8d610201565b62461bcd60e51b815280613fa360048201613f65565b0390fd5b613fb09061039f565b90565b905090565b613fc460008092613fb3565b0190565b613fd190613fb8565b90565b90613fe6613fe1836107a6565b610791565b918252565b606090565b3d60001461400d576140013d613fd4565b903d6000602084013e5b565b614015613feb565b9061400b565b60207f6563697069656e74206d61792068617665207265766572746564000000000000917f416464726573733a20756e61626c6520746f2073656e642076616c75652c207260008201520152565b614076603a604092610260565b61407f8161401b565b0190565b6140999060208101906000818303910152614069565b90565b156140a357565b6140ab610201565b62461bcd60e51b8152806140c160048201614083565b0390fd5b6000614121926140fb82936140f66140dc30613f17565b316140ef6140e986610216565b91610216565b1015613f7e565b613fa7565b90614104610201565b908161410f81613fc8565b03925af161411b613ff0565b5061409c565b565b61413d9061412f611cd0565b50614138613136565b614357565b90565b600090565b90565b61415c61415761416192614145565b610380565b610216565b90565b61416c611ab0565b50614175614140565b5061417f82612f72565b61419261418c6041614148565b91610216565b146000146141d9576141d3916141a6611cd0565b506141af611cd0565b506141b8611ce9565b5060208101516060604083015192015160001a9091926143f6565b91909190565b50506141e5600061261c565b90600290565b9161420f9261420260408201936000830190610b2f565b6020818403910152612f7f565b90565b61421b81610b2c565b0361422257565b600080fd5b9050519061423482614212565b565b906020828203126142505761424d91600001614227565b90565b61020c565b61425e906104ab565b90565b9160046142aa6000949361429b86956142786117f6565b5094630b135d3f60e11b9261428b610201565b95869460208601908152016141eb565b60208201810382520382610768565b602081019051915afa6142bb613ff0565b9080614310575b90816142cd575b5090565b6142e8915060206142dd82612f72565b818301019101614236565b6143096143036142fe630b135d3f60e11b614255565b610b2c565b91610b2c565b14386142c9565b5061431a81612f72565b61432d6143276020612bc5565b91610216565b10156142c2565b906143549291614342613feb565b509061434e600061185f565b9161457b565b90565b604291614362611cd0565b50604051917f19010000000000000000000000000000000000000000000000000000000000008352600283015260228201522090565b90565b6143af6143aa6143b492614398565b610380565b610216565b90565b6143ed6143f4946143e36060949897956143d9608086019a6000870190610b2f565b6020850190610bfb565b6040830190610b2f565b0190610b2f565b565b929190614401611ab0565b5061440a614140565b5061441483613897565b6144466144407f7fffffffffffffffffffffffffffffff5d576e7357a4501ddfe92f46681b20a061439b565b91610216565b116144bd57614467600093602095929361445e610201565b948594856143b7565b838052039060015afa156144b8576144806000516118ff565b8061449c614496614491600061261c565b610322565b91610322565b146144a75790600090565b506144b2600061261c565b90600190565b611687565b505050506144cb600061261c565b90600390565b60207f722063616c6c0000000000000000000000000000000000000000000000000000917f416464726573733a20696e73756666696369656e742062616c616e636520666f60008201520152565b61452c6026604092610260565b614535816144d1565b0190565b61454f906020810190600081830391015261451f565b90565b1561455957565b614561610201565b62461bcd60e51b81528061457760048201614539565b0390fd5b91600080916145d2959361458d613feb565b506145b461459a30613f17565b316145ad6145a785610216565b91610216565b1015614552565b8591602082019151925af1916145c8613ff0565b9092909192614659565b90565b60007f416464726573733a2063616c6c20746f206e6f6e2d636f6e7472616374000000910152565b61460a601d602092610260565b614613816145d5565b0190565b61462d90602081019060008183039101526145fd565b90565b1561463757565b61463f610201565b62461bcd60e51b81528061465560048201614617565b0390fd5b919290614664613feb565b506000146146aa575061467682612f72565b614689614683600061185f565b91610216565b14614693575b5090565b61469f6146a4916146fe565b614630565b3861468f565b82906146b582612f72565b6146c86146c2600061185f565b91610216565b116000146146d95750805190602001fd5b6146fa906146e5610201565b91829162461bcd60e51b8352600483016102c9565b0390fd5b6147066117f6565b503b61471b614715600061185f565b91610216565b119056fea2646970667358221220b1a55263feb5315b1014439dea24449ca5054fc8c03e278c582e70fac955358864736f6c63430008180033",
  "linkReferences": {},
  "deployedLinkReferences": {}
}