{
  "_format": "hh-sol-artifact-1",
  "contractName": "SplitCreator",
  "sourceName": "contracts/SplitCreator.sol",
  "abi": [
    {
      "inputs": [
        {
          "internalType": "address",
          "name": "_splitFactoryV2",
          "type": "address"
        },
        {
          "internalType": "address",
          "name": "_fractionToken",
          "type": "address"
        },
        {
          "internalType": "address",
          "name": "_trustedForwarder",
          "type": "address"
        }
      ],
      "stateMutability": "nonpayable",
      "type": "constructor"
    },
    {
      "anonymous": false,
      "inputs": [
        {
          "indexed": false,
          "internalType": "address",
          "name": "split",
          "type": "address"
        }
      ],
      "name": "SplitCreated",
      "type": "event"
    },
    {
      "inputs": [
        {
          "components": [
            {
              "internalType": "uint256",
              "name": "hatId",
              "type": "uint256"
            },
            {
              "internalType": "uint256",
              "name": "multiplierBottom",
              "type": "uint256"
            },
            {
              "internalType": "uint256",
              "name": "multiplierTop",
              "type": "uint256"
            },
            {
              "internalType": "address[]",
              "name": "wearers",
              "type": "address[]"
            }
          ],
          "internalType": "struct SplitCreator.SplitInfo[]",
          "name": "_splitInfos",
          "type": "tuple[]"
        }
      ],
      "name": "create",
      "outputs": [
        {
          "internalType": "address",
          "name": "",
          "type": "address"
        }
      ],
      "stateMutability": "nonpayable",
      "type": "function"
    },
    {
      "inputs": [
        {
          "internalType": "address",
          "name": "forwarder",
          "type": "address"
        }
      ],
      "name": "isTrustedForwarder",
      "outputs": [
        {
          "internalType": "bool",
          "name": "",
          "type": "bool"
        }
      ],
      "stateMutability": "view",
      "type": "function"
    }
  ],
  "bytecode": "0x60a06040523462000041576200001f6200001862000140565b9162000256565b6200002962000047565b61143e62000297823960805181610415015261143e90f35b6200004d565b60405190565b600080fd5b601f801991011690565b634e487b7160e01b600052604160045260246000fd5b906200007e9062000052565b810190811060018060401b038211176200009757604052565b6200005c565b90620000b4620000ac62000047565b928362000072565b565b600080fd5b60018060a01b031690565b620000d190620000bb565b90565b620000df81620000c6565b03620000e757565b600080fd5b90505190620000fb82620000d4565b565b90916060828403126200013a57620001376200011d8460008501620000ec565b936200012d8160208601620000ec565b93604001620000ec565b90565b620000b6565b62000163620016d58038038062000157816200009d565b928339810190620000fd565b909192565b90565b620001846200017e6200018a92620000bb565b62000168565b620000bb565b90565b62000198906200016b565b90565b620001a6906200018d565b90565b60001b90565b90620001c260018060a01b0391620001a9565b9181191691161790565b620001d7906200018d565b90565b90565b90620001f7620001f1620001ff92620001cc565b620001da565b8254620001af565b9055565b6200020e906200016b565b90565b6200021c9062000203565b90565b6200022a9062000203565b90565b90565b906200024a6200024462000252926200021f565b6200022d565b8254620001af565b9055565b9062000281620002796200028793620002736200028f9662000291565b6200019b565b6000620001dd565b62000211565b600162000230565b565b60805256fe60806040526004361015610013575b6103fa565b61001e60003561003d565b8063572b6c05146100385763e80233e50361000e576103c5565b6100da565b60e01c90565b60405190565b600080fd5b600080fd5b600080fd5b60018060a01b031690565b61006c90610058565b90565b61007881610063565b0361007f57565b600080fd5b905035906100918261006f565b565b906020828203126100ad576100aa91600001610084565b90565b61004e565b151590565b6100c0906100b2565b9052565b91906100d8906000602085019401906100b7565b565b3461010a576101066100f56100f0366004610093565b610404565b6100fd610043565b918291826100c4565b0390f35b610049565b600080fd5b601f801991011690565b634e487b7160e01b600052604160045260246000fd5b9061013e90610114565b810190811067ffffffffffffffff82111761015857604052565b61011e565b90610170610169610043565b9283610134565b565b67ffffffffffffffff811161018a5760208091020190565b61011e565b600080fd5b600080fd5b600080fd5b90565b6101aa8161019e565b036101b157565b600080fd5b905035906101c3826101a1565b565b67ffffffffffffffff81116101dd5760208091020190565b61011e565b909291926101f76101f2826101c5565b61015d565b938185526020808601920283019281841161023457915b83831061021b5750505050565b602080916102298486610084565b81520192019161020e565b61018f565b9080601f8301121561025757816020610254933591016101e2565b90565b61010f565b9190916080818403126102d457610273608061015d565b9261028181600084016101b6565b600085015261029381602084016101b6565b60208501526102a581604084016101b6565b6040850152606082013567ffffffffffffffff81116102cf576102c89201610239565b6060830152565b610199565b610194565b9291906102ed6102e882610172565b61015d565b93818552602080860192028101918383116103445781905b838210610313575050505050565b813567ffffffffffffffff811161033f57602091610334878493870161025c565b815201910190610305565b61010f565b61018f565b9080601f8301121561036757816020610364933591016102d9565b90565b61010f565b9060208282031261039d57600082013567ffffffffffffffff8111610398576103959201610349565b90565b610053565b61004e565b6103ab90610063565b9052565b91906103c3906000602085019401906103a2565b565b346103f5576103f16103e06103db36600461036c565b610c53565b6103e8610043565b918291826103af565b0390f35b610049565b600080fd5b600090565b61040c6103ff565b5061043f6104397f0000000000000000000000000000000000000000000000000000000000000000610063565b91610063565b1490565b600090565b90565b90565b61046261045d61046792610448565b61044b565b61019e565b90565b6001610476910161019e565b90565b5190565b634e487b7160e01b600052603260045260246000fd5b9061049d82610479565b8110156104ae576020809102010190565b61047d565b5190565b60001c90565b60018060a01b031690565b6104d46104d9916104b7565b6104bd565b90565b6104e690546104c8565b90565b6104fd6104f861050292610058565b61044b565b610058565b90565b61050e906104e9565b90565b61051a90610505565b90565b610527905161019e565b90565b90610534826104b3565b811015610545576020809102010190565b61047d565b6105549051610063565b90565b60e01b90565b9050519061056a826101a1565b565b90602082820312610586576105839160000161055d565b90565b61004e565b6105949061019e565b9052565b9160206105ba9294936105b36040820196600083019061058b565b01906103a2565b565b6105c4610043565b3d6000823e3d90fd5b905051906105da8261006f565b565b909291926105f16105ec826101c5565b61015d565b938185526020808601920283019281841161062e57915b8383106106155750505050565b6020809161062384866105cd565b815201920191610608565b61018f565b9080601f830112156106515781602061064e935191016105dc565b90565b61010f565b9060208282031261068757600082015167ffffffffffffffff81116106825761067f9201610633565b90565b610053565b61004e565b91906106a09060006020850194019061058b565b565b90565b6106b96106b46106be926106a2565b61044b565b61019e565b90565b634e487b7160e01b600052601160045260246000fd5b6106e66106ec9193929361019e565b9261019e565b82018092116106f757565b6106c1565b9061070e610709836101c5565b61015d565b918252565b369037565b9061073d610725836106fc565b9260208061073386936101c5565b9201910390610713565b565b67ffffffffffffffff81116107575760208091020190565b61011e565b9061076e6107698361073f565b61015d565b918252565b369037565b9061079d6107858361075c565b92602080610793869361073f565b9201910390610773565b565b634e487b7160e01b600052601260045260246000fd5b6107c16107c79161019e565b9161019e565b9081156107d2570490565b61079f565b906107e190610063565b9052565b5190565b906107f3826107e5565b811015610804576020809102010190565b61047d565b906108139061019e565b9052565b6108209061019e565b600019811461082f5760010190565b6106c1565b909291926108496108448261073f565b61015d565b938185526020808601920283019281841161088657915b83831061086d5750505050565b6020809161087b848661055d565b815201920191610860565b61018f565b9080601f830112156108a9578160206108a693519101610834565b90565b61010f565b906020828203126108df57600082015167ffffffffffffffff81116108da576108d7920161088b565b90565b610053565b61004e565b60209181520190565b60200190565b6108fc90610063565b9052565b9061090d816020936108f3565b0190565b60200190565b9061093461092e610927846104b3565b80936108e4565b926108ed565b9060005b8181106109455750505090565b90919261095e6109586001928651610900565b94610911565b9101919091610938565b60209181520190565b60200190565b6109809061019e565b9052565b9061099181602093610977565b0190565b60200190565b906109b86109b26109ab846107e5565b8093610968565b92610971565b9060005b8181106109c95750505090565b9091926109e26109dc6001928651610984565b94610995565b91019190916109bc565b91610a1990610a0b610a27959360608601908682036000880152610917565b908482036020860152610917565b91604081840391015261099b565b90565b610a39610a3f9193929361019e565b9261019e565b91610a4b83820261019e565b928184041490151715610a5a57565b6106c1565b610a69608061015d565b90565b52565b52565b61ffff1690565b610a8d610a88610a9292610448565b61044b565b610a72565b90565b90610a9f90610a72565b9052565b60018060a01b031690565b610aba610abf916104b7565b610aa3565b90565b610acc9054610aae565b90565b610ad890610505565b90565b610ae490610505565b90565b90602082820312610b0157610afe916000016105cd565b90565b61004e565b60209181520190565b90610b2c610b26610b1f846104b3565b8093610b06565b926108ed565b9060005b818110610b3d5750505090565b909192610b56610b506001928651610900565b94610911565b9101919091610b30565b60209181520190565b90610b86610b80610b79846107e5565b8093610b60565b92610971565b9060005b818110610b975750505090565b909192610bb0610baa6001928651610984565b94610995565b9101919091610b8a565b610bc390610a72565b9052565b90610c1a90606080610bfd610beb6080850160008801518682036000880152610b0f565b60208701518582036020870152610b69565b94610c1060408201516040860190610977565b0151910190610bba565b90565b604090610c4a610c3f610c519597969460608401908482036000860152610bc7565b9660208301906103a2565b01906103a2565b565b90610c5c610443565b50610c67600061044e565b90610c72600061044e565b915b82610c8f610c89610c8487610479565b61019e565b9161019e565b1015610e4457610ca0848490610493565b5191610cac600061044e565b915b82610ccd610cc7610cc260608801516104b3565b61019e565b9161019e565b1015610e2e57610ce5610ce060016104dc565b610511565b602063616151a691610cf96000880161051d565b90610d2c610d14610d0f60608b01518a9061052a565b61054a565b94610d37610d20610043565b96879586948594610557565b845260048401610598565b03915afa908115610e2957610d8a916000918291610dfb575b50610d63610d5e60016104dc565b610511565b610d7f630be49bca610d73610043565b95869485938493610557565b83526004830161068c565b03915afa918215610df657610dc1610db1610dcd94610dc794600091610dd3575b506104b3565b610dbb60016106a5565b906106d7565b906106d7565b9261046a565b91610cae565b610df091503d806000833e610de88183610134565b810190610656565b38610dab565b6105bc565b610e1c915060203d8111610e22575b610e148183610134565b81019061056c565b38610d50565b503d610e0a565b6105bc565b94925092610e3c915061046a565b919092610c74565b915091610e5082610718565b91610e5a81610718565b93610e6d610e6783610778565b92610778565b91610e78600061044e565b91610e83600061044e565b945b85610ea0610e9a610e9584610479565b61019e565b9161019e565b10156111ce579590610eb3878790610493565b5191610ebf600061044e565b915b82610ee0610eda610ed560608801516104b3565b61019e565b9161019e565b10156111b857610ef8610ef360016104dc565b610511565b602063616151a691610f0c6000880161051d565b90610f3f610f27610f2260608b01518a9061052a565b61054a565b94610f4a610f33610043565b96879586948594610557565b845260048401610598565b03915afa9081156111b357600091611185575b5084604001610f6b9061051d565b85602001610f789061051d565b610f81916107b5565b96856060015185610f919161052a565b610f9a9061054a565b8482610fa59161052a565b90610faf916107d7565b856060015185610fbe9161052a565b610fc79061054a565b8c82610fd29161052a565b90610fdc916107d7565b85600001610fe99061051d565b8782610ff4916107e9565b90610ffe91610809565b87898261100a916107e9565b9061101491610809565b61101d90610817565b9061102860016104dc565b61103190610511565b630be49bca61103e610043565b809361104a8293610557565b8252600482019061105a9161068c565b03815a93600094fa9081156111805760009161115d575b509961107d600061044e565b915b8c8c61109c61109661109187936104b3565b61019e565b9161019e565b10156111435761113d916110fc611137928f6110ef6110ea60608e6110e18e6110dc6110d48f6110cf906110f79a61052a565b61054a565b8b909261052a565b6107d7565b01518d9061052a565b61054a565b84909261052a565b6107d7565b61111d61110b60008b0161051d565b6111188c918490926107e9565b610809565b6111328c61112d8d8490926107e9565b610809565b610817565b9261046a565b9161107f565b5097509390506111559192995061046a565b919790610ec1565b61117a91503d806000833e6111728183610134565b810190610656565b38611071565b6105bc565b6111a6915060203d81116111ac575b61119e8183610134565b81019061056c565b38610f5d565b503d611194565b6105bc565b96909792506111c7915061046a565b9490610e85565b50935090946000906111e86111e360016104dc565b610511565b61120a6310f9f7b46112158994966111fe610043565b97889687958695610557565b8552600485016109ec565b03915afa908115611403576000916113e0575b50611233600061044e565b9261123d86610778565b94611248600061044e565b5b8061125c6112568a61019e565b9161019e565b10156112c0576112bb906112b66112a361129b61128261127d8986906107e9565b61051d565b6112956112908b87906107e9565b61051d565b90610a2a565b9889906106d7565b976112b18a918490926107e9565b610809565b61046a565b611249565b50611301919650611306935061130f94925094916112f86000936112ef6112e5610a5f565b9860008a01610a6c565b60208801610a6f565b60408601610809565b610a79565b60608301610a95565b602061132361131e6000610ac2565b610acf565b632556fa399290611351600061133830610adb565b9561135c33611345610043565b98899788968795610557565b855260048501610c1d565b03925af19081156113db576000916113ad575b50806113a77fdf7d1ed20f071eb873c2656fb1be2da4bb3f7167526dd07848e4c718e5c967a19161139e610043565b918291826103af565b0390a190565b6113ce915060203d81116113d4575b6113c68183610134565b810190610ae7565b3861136f565b503d6113bc565b6105bc565b6113fd91503d806000833e6113f58183610134565b8101906108ae565b38611228565b6105bc56fea2646970667358221220d1cd434afde78edaacc5895b1d924df174d31adfe348124425b9a55b666d32bf64736f6c63430008180033",
  "linkReferences": {},
  "deployedLinkReferences": {}
}