{
  "_format": "hh-sol-artifact-1",
  "contractName": "SampleCreateSubDomain",
  "sourceName": "contracts/mock/SampleCreateSubDomain.sol",
  "abi": [
    {
      "inputs": [
        {
          "internalType": "contract ENS",
          "name": "ens",
          "type": "address"
        }
      ],
      "stateMutability": "payable",
      "type": "constructor"
    },
    {
      "inputs": [
        {
          "internalType": "string",
          "name": "_subDomain",
          "type": "string"
        }
      ],
      "name": "createSubDomain",
      "outputs": [],
      "stateMutability": "nonpayable",
      "type": "function"
    },
    {
      "inputs": [],
      "name": "nameWrapperAddress",
      "outputs": [
        {
          "internalType": "address",
          "name": "",
          "type": "address"
        }
      ],
      "stateMutability": "view",
      "type": "function"
    },
    {
      "inputs": [],
      "name": "parentNode",
      "outputs": [
        {
          "internalType": "bytes32",
          "name": "",
          "type": "bytes32"
        }
      ],
      "stateMutability": "view",
      "type": "function"
    },
    {
      "inputs": [],
      "name": "resolverAddress",
      "outputs": [
        {
          "internalType": "address",
          "name": "",
          "type": "address"
        }
      ],
      "stateMutability": "view",
      "type": "function"
    }
  ],
  "bytecode": "0x6080604052620000186200001262000113565b62000241565b6200002262000031565b6106996200057a823961069990f35b60405190565b601f801991011690565b634e487b7160e01b600052604160045260246000fd5b90620000639062000037565b810190811060018060401b038211176200007c57604052565b62000041565b90620000996200009162000031565b928362000057565b565b600080fd5b60018060a01b031690565b620000b690620000a0565b90565b620000c490620000ab565b90565b620000d281620000b9565b03620000da57565b600080fd5b90505190620000ee82620000c7565b565b906020828203126200010d576200010a91600001620000df565b90565b6200009b565b6200013662000c13803803806200012a8162000082565b928339810190620000f0565b90565b60001b90565b906200014e6000199162000139565b9181191691161790565b90565b90565b62000177620001716200017d9262000158565b62000139565b6200015b565b90565b60001c90565b620001919062000180565b90565b90620001ae620001a8620001b6926200015e565b62000186565b82546200013f565b9055565b90620001cd60018060a01b039162000139565b9181191691161790565b90565b620001f3620001ed620001f992620000a0565b620001d7565b620000a0565b90565b6200020790620001da565b90565b6200021590620001fc565b90565b90565b90620002356200022f6200023d926200020a565b62000218565b8254620001ba565b9055565b6200024e90339062000449565b6200027b7f97cd6f9ae139c32c43a0343366f02acaf191af1d32ff86da66b9a672d120944c600162000194565b6200029c738fade66b79cc9f707ab26799354482eb93a5b7dd60026200021b565b620002bd730635513f179d50a207757e05759cbd106d7dfce860036200021b565b565b620002ca90620001fc565b90565b90565b620002e9620002e3620002ef92620002cd565b62000139565b6200015b565b90565b6200031d7f91d1777781884d03a6757a803996e38de2a42967fb37eeaca72729271025a9e2620002d0565b90565b60e01b90565b6200033181620000ab565b036200033957565b600080fd5b905051906200034d8262000326565b565b906020828203126200036c5762000369916000016200033e565b90565b6200009b565b6200037d906200015b565b9052565b9190620003979060006020850194019062000372565b565b620003a362000031565b3d6000823e3d90fd5b620003b790620001da565b90565b620003c590620003ac565b90565b620003d390620001fc565b90565b620003e1816200015b565b03620003e957565b600080fd5b90505190620003fd82620003d6565b565b906020828203126200041c576200041991600001620003ee565b90565b6200009b565b6200042d90620000ab565b9052565b9190620004479060006020850194019062000422565b565b60206200045a6200049292620002bf565b6302571be390620004866200046e620002f2565b926200047962000031565b9586948593849362000320565b83526004830162000381565b03915afa9182156200057357620004c4620004be620004f2946020946000916200053f575b50620003ba565b620003c8565b620004e66000631e83409a620004d962000031565b9687958694859362000320565b83526004830162000431565b03925af18015620005395762000506575b50565b6200052b9060203d811162000531575b62000522818362000057565b810190620003ff565b62000503565b503d62000516565b62000399565b620005649150853d81116200056b575b6200055b818362000057565b8101906200034f565b38620004b7565b503d6200054f565b6200039956fe60806040526004361015610013575b610374565b61001e60003561005d565b8063299c47f61461005857806366a34af214610053578063b1db5bec1461004e5763f3068a000361000e5761033f565b6102ab565b610266565b6101a4565b60e01c90565b60405190565b600080fd5b600080fd5b600080fd5b600080fd5b600080fd5b601f801991011690565b634e487b7160e01b600052604160045260246000fd5b906100ac90610082565b810190811067ffffffffffffffff8211176100c657604052565b61008c565b906100de6100d7610063565b92836100a2565b565b67ffffffffffffffff81116100fe576100fa602091610082565b0190565b61008c565b90826000939282370152565b9092919261012461011f826100e0565b6100cb565b938185526020850190828401116101405761013e92610103565b565b61007d565b9080601f83011215610163578160206101609335910161010f565b90565b610078565b9060208282031261019957600082013567ffffffffffffffff8111610194576101919201610145565b90565b610073565b61006e565b60000190565b346101d2576101bc6101b7366004610168565b6105b2565b6101c4610063565b806101ce8161019e565b0390f35b610069565b60009103126101e257565b61006e565b1c90565b60018060a01b031690565b61020690600861020b93026101e7565b6101eb565b90565b9061021991546101f6565b90565b610229600360009061020e565b90565b60018060a01b031690565b6102409061022c565b90565b61024c90610237565b9052565b919061026490600060208501940190610243565b565b34610296576102763660046101d7565b61029261028161021c565b610289610063565b91829182610250565b0390f35b610069565b6102a8600260009061020e565b90565b346102db576102bb3660046101d7565b6102d76102c661029b565b6102ce610063565b91829182610250565b0390f35b610069565b90565b6102f39060086102f893026101e7565b6102e0565b90565b9061030691546102e3565b90565b61031660016000906102fb565b90565b90565b61032590610319565b9052565b919061033d9060006020850194019061031c565b565b3461036f5761034f3660046101d7565b61036b61035a610309565b610362610063565b91829182610329565b0390f35b610069565b600080fd5b60001c90565b61038b61039091610379565b6101eb565b90565b61039d905461037f565b90565b90565b6103b76103b26103bc9261022c565b6103a0565b61022c565b90565b6103c8906103a3565b90565b6103d4906103bf565b90565b6103e0906103a3565b90565b6103ec906103d7565b90565b6103fb61040091610379565b6102e0565b90565b61040d90546103ef565b90565b610419906103d7565b90565b60e01b90565b61042b81610319565b0361043257565b600080fd5b9050519061044482610422565b565b906020828203126104605761045d91600001610437565b90565b61006e565b5190565b60209181520190565b60005b838110610486575050906000910152565b806020918301518185015201610475565b6104b66104bf6020936104c4936104ad81610465565b93848093610469565b95869101610472565b610082565b0190565b90565b67ffffffffffffffff1690565b6104ec6104e76104f1926104c8565b6103a0565b6104cb565b90565b6104fd906104d8565b9052565b63ffffffff1690565b61051e610519610523926104c8565b6103a0565b610501565b90565b61052f9061050a565b9052565b9297969461058e9061058460c09661057a61056f61059f9b966105989861056260e08c019260008d019061031c565b8a820360208c0152610497565b9c6040890190610243565b6060870190610243565b60808501906104f4565b60a0830190610526565b01906104f4565b565b6105a9610063565b3d6000823e3d90fd5b60206105ce6105c96105c46003610393565b6103cb565b6103e3565b916324c1af449261061560006105e46001610403565b93956106206105f230610410565b6105fc6002610393565b8485918693610609610063565b9c8d9b8c9a8b9961041c565b895260048901610533565b03925af1801561065e57610632575b50565b6106529060203d8111610657575b61064a81836100a2565b810190610446565b61062f565b503d610640565b6105a156fea2646970667358221220034f955560a9ec64ddad5baeecf5408377d8d7c84e7b6cc630e41e1ceadcd49a64736f6c63430008180033",
  "linkReferences": {},
  "deployedLinkReferences": {}
}