{
  "_format": "hh-sol-artifact-1",
  "contractName": "MultiClaimsFractionHatter",
  "sourceName": "contracts/bigbang/MultiClaimsFractionHatter.sol",
  "abi": [
    {
      "inputs": [
        {
          "internalType": "address",
          "name": "_hatsAddress",
          "type": "address"
        },
        {
          "internalType": "address",
          "name": "_fractionTokenAddress",
          "type": "address"
        },
        {
          "internalType": "address",
          "name": "_timeframeAddress",
          "type": "address"
        },
        {
          "internalType": "address",
          "name": "_trustedForwarder",
          "type": "address"
        }
      ],
      "stateMutability": "nonpayable",
      "type": "constructor"
    },
    {
      "inputs": [
        {
          "internalType": "uint256",
          "name": "_admin",
          "type": "uint256"
        },
        {
          "internalType": "string",
          "name": "_details",
          "type": "string"
        },
        {
          "internalType": "uint32",
          "name": "_maxSupply",
          "type": "uint32"
        },
        {
          "internalType": "address",
          "name": "_eligibility",
          "type": "address"
        },
        {
          "internalType": "address",
          "name": "_toggle",
          "type": "address"
        },
        {
          "internalType": "bool",
          "name": "_mutable",
          "type": "bool"
        },
        {
          "internalType": "string",
          "name": "_imageURI",
          "type": "string"
        },
        {
          "internalType": "address",
          "name": "_wearer",
          "type": "address"
        }
      ],
      "name": "bigbang",
      "outputs": [],
      "stateMutability": "nonpayable",
      "type": "function"
    },
    {
      "inputs": [],
      "name": "fractionTokenContract",
      "outputs": [
        {
          "internalType": "contract IFractionToken",
          "name": "",
          "type": "address"
        }
      ],
      "stateMutability": "view",
      "type": "function"
    },
    {
      "inputs": [],
      "name": "hatsContract",
      "outputs": [
        {
          "internalType": "contract IHats",
          "name": "",
          "type": "address"
        }
      ],
      "stateMutability": "view",
      "type": "function"
    },
    {
      "inputs": [
        {
          "internalType": "address",
          "name": "forwarder",
          "type": "address"
        }
      ],
      "name": "isTrustedForwarder",
      "outputs": [
        {
          "internalType": "bool",
          "name": "",
          "type": "bool"
        }
      ],
      "stateMutability": "view",
      "type": "function"
    },
    {
      "inputs": [],
      "name": "timeframeContract",
      "outputs": [
        {
          "internalType": "contract ITimeFrameHatModule",
          "name": "",
          "type": "address"
        }
      ],
      "stateMutability": "view",
      "type": "function"
    }
  ],
  "bytecode": "0x60a0604052346200004457620000226200001862000151565b92919091620002bb565b6200002c6200004a565b6109736200031382396080518161090f015261097390f35b62000050565b60405190565b600080fd5b601f801991011690565b634e487b7160e01b600052604160045260246000fd5b90620000819062000055565b810190811060018060401b038211176200009a57604052565b6200005f565b90620000b7620000af6200004a565b928362000075565b565b600080fd5b60018060a01b031690565b620000d490620000be565b90565b620000e281620000c9565b03620000ea57565b600080fd5b90505190620000fe82620000d7565b565b6080818303126200014b576200011a8260008301620000ef565b92620001486200012e8460208501620000ef565b936200013e8160408601620000ef565b93606001620000ef565b90565b620000b9565b6200017462000c86803803806200016881620000a0565b92833981019062000100565b90919293565b90565b62000196620001906200019c92620000be565b6200017a565b620000be565b90565b620001aa906200017d565b90565b620001b8906200019f565b90565b60001b90565b90620001d460018060a01b0391620001bb565b9181191691161790565b620001e9906200019f565b90565b90565b9062000209620002036200021192620001de565b620001ec565b8254620001c1565b9055565b62000220906200017d565b90565b6200022e9062000215565b90565b6200023c9062000215565b90565b90565b906200025c62000256620002649262000231565b6200023f565b8254620001c1565b9055565b62000273906200017d565b90565b620002819062000268565b90565b6200028f9062000268565b90565b90565b90620002af620002a9620002b79262000284565b62000292565b8254620001c1565b9055565b620002f5620003039392620002ef620002e7620002fd94620002e16200030b996200030d565b620001ad565b6000620001ef565b62000223565b600162000242565b62000276565b600262000295565b565b60805256fe60806040526004361015610013575b61052b565b61001e60003561006d565b80630bd3a2f814610068578063572b6c051461006357806397e39fef1461005e578063a6cbf17c146100595763c28eeee40361000e576104f6565b610451565b6103ac565b6102ca565b610248565b60e01c90565b60405190565b600080fd5b600080fd5b600080fd5b90565b61009481610088565b0361009b57565b600080fd5b905035906100ad8261008b565b565b600080fd5b600080fd5b600080fd5b909182601f830112156100f85781359167ffffffffffffffff83116100f35760200192600183028401116100ee57565b6100b9565b6100b4565b6100af565b63ffffffff1690565b61010f816100fd565b0361011657565b600080fd5b9050359061012882610106565b565b60018060a01b031690565b61013e9061012a565b90565b61014a81610135565b0361015157565b600080fd5b9050359061016382610141565b565b151590565b61017381610165565b0361017a57565b600080fd5b9050359061018c8261016a565b565b6101008183031261023d576101a682600083016100a0565b92602082013567ffffffffffffffff811161023857836101c79184016100be565b9290936101d7816040840161011b565b926101e58260608501610156565b926101f38360808301610156565b926102018160a0840161017f565b9260c083013567ffffffffffffffff811161023357610225836102309286016100be565b93909460e001610156565b90565b610083565b610083565b61007e565b60000190565b346102835761026d61025b36600461018e565b9897909796919695929594939461079a565b610275610073565b8061027f81610242565b0390f35b610079565b906020828203126102a25761029f91600001610156565b90565b61007e565b6102b090610165565b9052565b91906102c8906000602085019401906102a7565b565b346102fa576102f66102e56102e0366004610288565b6108fe565b6102ed610073565b918291826102b4565b0390f35b610079565b600091031261030a57565b61007e565b1c90565b60018060a01b031690565b61032e906008610333930261030f565b610313565b90565b90610341915461031e565b90565b61034f600080610336565b90565b90565b61036961036461036e9261012a565b610352565b61012a565b90565b61037a90610355565b90565b61038690610371565b90565b6103929061037d565b9052565b91906103aa90600060208501940190610389565b565b346103dc576103bc3660046102ff565b6103d86103c7610344565b6103cf610073565b91829182610396565b0390f35b610079565b60018060a01b031690565b6103fc906008610401930261030f565b6103e1565b90565b9061040f91546103ec565b90565b61041f6002600090610404565b90565b61042b90610371565b90565b61043790610422565b9052565b919061044f9060006020850194019061042e565b565b34610481576104613660046102ff565b61047d61046c610412565b610474610073565b9182918261043b565b0390f35b610079565b60018060a01b031690565b6104a19060086104a6930261030f565b610486565b90565b906104b49154610491565b90565b6104c460016000906104a9565b90565b6104d090610371565b90565b6104dc906104c7565b9052565b91906104f4906000602085019401906104d3565b565b34610526576105063660046102ff565b6105226105116104b7565b610519610073565b918291826104e0565b0390f35b610079565b600080fd5b60001c90565b61054261054791610530565b610313565b90565b6105549054610536565b90565b600080fd5b601f801991011690565b634e487b7160e01b600052604160045260246000fd5b906105869061055c565b810190811067ffffffffffffffff8211176105a057604052565b610566565b60e01b90565b905051906105b88261008b565b565b906020828203126105d4576105d1916000016105ab565b90565b61007e565b6105e290610088565b9052565b60209181520190565b90826000939282370152565b91906106158161060e8161061a956105e6565b80956105ef565b61055c565b0190565b610627906100fd565b9052565b61063490610135565b9052565b946106889061067e610673886106a99d9b976106929761066661069c9b9f9d98600060e086019501906105d9565b8b830360208d01526105fb565b9a604089019061061e565b606087019061062b565b608085019061062b565b60a08301906102a7565b60c08185039101526105fb565b90565b6106b4610073565b3d6000823e3d90fd5b6106c96106ce91610530565b610486565b90565b6106db90546106bd565b90565b90565b6106ed6106f291610088565b6106de565b9052565b610702816020936106e1565b0190565b90565b600091031261071457565b61007e565b5190565b60005b838110610731575050906000910152565b806020918301518185015201610720565b61076161076a60209361076f9361075881610719565b938480936105e6565b9586910161071d565b61055c565b0190565b929160206107906107989360408701908782036000890152610742565b94019061062b565b565b9197926000936020986107ed93986107e297986107be6107b98961054a565b61037d565b9963b052925e979b9d959091929394956107d6610073565b9e8f9d8e9c8d9b6105a5565b8b5260048b01610638565b03925af19081156108f4576000916108c6575b5061081361080e60016106d1565b6104c7565b9161084b610837610846631c351a9d9461082b610073565b928391602083016106f6565b6020820181038252038261057c565b610706565b9092803b156108c1576108726000809461087d610866610073565b978896879586946105a5565b845260048401610773565b03925af180156108bc5761088f575b50565b6108af9060003d81116108b5575b6108a7818361057c565b810190610709565b3861088c565b503d61089d565b6106ac565b610557565b6108e7915060203d81116108ed575b6108df818361057c565b8101906105ba565b38610800565b503d6108d5565b6106ac565b600090565b6109066108f9565b506109396109337f0000000000000000000000000000000000000000000000000000000000000000610135565b91610135565b149056fea2646970667358221220b201f2bb1447d6cef58b1c5d04a48f02f99a072db9ac7b1cdf40e4c1314d5e4664736f6c63430008180033",
  "linkReferences": {},
  "deployedLinkReferences": {}
}