{
  "_format": "hh-sol-artifact-1",
  "contractName": "HelloWorld",
  "sourceName": "contracts/HelloWorld.sol",
  "abi": [
    {
      "inputs": [
        {
          "internalType": "address",
          "name": "_trustedForwarder",
          "type": "address"
        }
      ],
      "stateMutability": "nonpayable",
      "type": "constructor"
    },
    {
      "inputs": [],
      "name": "getText",
      "outputs": [
        {
          "internalType": "string",
          "name": "",
          "type": "string"
        }
      ],
      "stateMutability": "view",
      "type": "function"
    },
    {
      "inputs": [
        {
          "internalType": "address",
          "name": "forwarder",
          "type": "address"
        }
      ],
      "name": "isTrustedForwarder",
      "outputs": [
        {
          "internalType": "bool",
          "name": "",
          "type": "bool"
        }
      ],
      "stateMutability": "view",
      "type": "function"
    },
    {
      "inputs": [
        {
          "internalType": "string",
          "name": "_newText",
          "type": "string"
        }
      ],
      "name": "setNewText",
      "outputs": [],
      "stateMutability": "nonpayable",
      "type": "function"
    },
    {
      "inputs": [],
      "name": "text",
      "outputs": [
        {
          "internalType": "string",
          "name": "",
          "type": "string"
        }
      ],
      "stateMutability": "view",
      "type": "function"
    },
    {
      "inputs": [],
      "name": "trustedForwarder",
      "outputs": [
        {
          "internalType": "address",
          "name": "",
          "type": "address"
        }
      ],
      "stateMutability": "view",
      "type": "function"
    }
  ],
  "bytecode": "0x60a060405234801561001057600080fd5b50604051610a02380380610a02833981810160405281019061003291906100d1565b808073ffffffffffffffffffffffffffffffffffffffff1660808173ffffffffffffffffffffffffffffffffffffffff168152505050506100fe565b600080fd5b600073ffffffffffffffffffffffffffffffffffffffff82169050919050565b600061009e82610073565b9050919050565b6100ae81610093565b81146100b957600080fd5b50565b6000815190506100cb816100a5565b92915050565b6000602082840312156100e7576100e661006e565b5b60006100f5848285016100bc565b91505092915050565b6080516108e961011960003960006101e601526108e96000f3fe608060405234801561001057600080fd5b50600436106100575760003560e01c80631f1bd6921461005c5780632742d0f61461007a578063572b6c05146100965780637da0a877146100c6578063e00fe2eb146100e4575b600080fd5b610064610102565b604051610071919061032c565b60405180910390f35b610094600480360381019061008f9190610497565b610190565b005b6100b060048036038101906100ab919061053e565b6101a3565b6040516100bd9190610586565b60405180910390f35b6100ce6101e2565b6040516100db91906105b0565b60405180910390f35b6100ec61020a565b6040516100f9919061032c565b60405180910390f35b6000805461010f906105fa565b80601f016020809104026020016040519081016040528092919081815260200182805461013b906105fa565b80156101885780601f1061015d57610100808354040283529160200191610188565b820191906000526020600020905b81548152906001019060200180831161016b57829003601f168201915b505050505081565b806000908161019f91906107e1565b5050565b60006101ad6101e2565b73ffffffffffffffffffffffffffffffffffffffff168273ffffffffffffffffffffffffffffffffffffffff16149050919050565b60007f0000000000000000000000000000000000000000000000000000000000000000905090565b606060008054610219906105fa565b80601f0160208091040260200160405190810160405280929190818152602001828054610245906105fa565b80156102925780601f1061026757610100808354040283529160200191610292565b820191906000526020600020905b81548152906001019060200180831161027557829003601f168201915b5050505050905090565b600081519050919050565b600082825260208201905092915050565b60005b838110156102d65780820151818401526020810190506102bb565b60008484015250505050565b6000601f19601f8301169050919050565b60006102fe8261029c565b61030881856102a7565b93506103188185602086016102b8565b610321816102e2565b840191505092915050565b6000602082019050818103600083015261034681846102f3565b905092915050565b6000604051905090565b600080fd5b600080fd5b600080fd5b600080fd5b7f4e487b7100000000000000000000000000000000000000000000000000000000600052604160045260246000fd5b6103a4826102e2565b810181811067ffffffffffffffff821117156103c3576103c261036c565b5b80604052505050565b60006103d661034e565b90506103e2828261039b565b919050565b600067ffffffffffffffff8211156104025761040161036c565b5b61040b826102e2565b9050602081019050919050565b82818337600083830152505050565b600061043a610435846103e7565b6103cc565b90508281526020810184848401111561045657610455610367565b5b610461848285610418565b509392505050565b600082601f83011261047e5761047d610362565b5b813561048e848260208601610427565b91505092915050565b6000602082840312156104ad576104ac610358565b5b600082013567ffffffffffffffff8111156104cb576104ca61035d565b5b6104d784828501610469565b91505092915050565b600073ffffffffffffffffffffffffffffffffffffffff82169050919050565b600061050b826104e0565b9050919050565b61051b81610500565b811461052657600080fd5b50565b60008135905061053881610512565b92915050565b60006020828403121561055457610553610358565b5b600061056284828501610529565b91505092915050565b60008115159050919050565b6105808161056b565b82525050565b600060208201905061059b6000830184610577565b92915050565b6105aa81610500565b82525050565b60006020820190506105c560008301846105a1565b92915050565b7f4e487b7100000000000000000000000000000000000000000000000000000000600052602260045260246000fd5b6000600282049050600182168061061257607f821691505b602082108103610625576106246105cb565b5b50919050565b60008190508160005260206000209050919050565b60006020601f8301049050919050565b600082821b905092915050565b60006008830261068d7fffffffffffffffffffffffffffffffffffffffffffffffffffffffffffffffff82610650565b6106978683610650565b95508019841693508086168417925050509392505050565b6000819050919050565b6000819050919050565b60006106de6106d96106d4846106af565b6106b9565b6106af565b9050919050565b6000819050919050565b6106f8836106c3565b61070c610704826106e5565b84845461065d565b825550505050565b600090565b610721610714565b61072c8184846106ef565b505050565b5b8181101561075057610745600082610719565b600181019050610732565b5050565b601f821115610795576107668161062b565b61076f84610640565b8101602085101561077e578190505b61079261078a85610640565b830182610731565b50505b505050565b600082821c905092915050565b60006107b86000198460080261079a565b1980831691505092915050565b60006107d183836107a7565b9150826002028217905092915050565b6107ea8261029c565b67ffffffffffffffff8111156108035761080261036c565b5b61080d82546105fa565b610818828285610754565b600060209050601f83116001811461084b5760008415610839578287015190505b61084385826107c5565b8655506108ab565b601f1984166108598661062b565b60005b828110156108815784890151825560018201915060208501945060208101905061085c565b8683101561089e578489015161089a601f8916826107a7565b8355505b6001600288020188555050505b50505050505056fea26469706673582212207101d3944abc7bc75139d49b3e59ee905bcc9b2d7cdfbbbc93fe36f70ed2437d64736f6c63430008140033",
  "linkReferences": {},
  "deployedLinkReferences": {}
}