{
  "_format": "hh-sol-artifact-1",
  "contractName": "ERC6909X",
  "sourceName": "contracts/splits/tokens/ERC6909X.sol",
  "abi": [
    {
      "inputs": [
        {
          "internalType": "string",
          "name": "_name",
          "type": "string"
        },
        {
          "internalType": "string",
          "name": "_version",
          "type": "string"
        }
      ],
      "stateMutability": "nonpayable",
      "type": "constructor"
    },
    {
      "inputs": [
        {
          "internalType": "uint48",
          "name": "deadline",
          "type": "uint48"
        }
      ],
      "name": "ExpiredSignature",
      "type": "error"
    },
    {
      "inputs": [],
      "name": "InvalidAck",
      "type": "error"
    },
    {
      "inputs": [],
      "name": "InvalidNonce",
      "type": "error"
    },
    {
      "inputs": [],
      "name": "InvalidPermitParams",
      "type": "error"
    },
    {
      "inputs": [],
      "name": "InvalidShortString",
      "type": "error"
    },
    {
      "inputs": [],
      "name": "InvalidSigner",
      "type": "error"
    },
    {
      "inputs": [
        {
          "internalType": "string",
          "name": "str",
          "type": "string"
        }
      ],
      "name": "StringTooLong",
      "type": "error"
    },
    {
      "anonymous": false,
      "inputs": [
        {
          "indexed": true,
          "internalType": "address",
          "name": "owner",
          "type": "address"
        },
        {
          "indexed": true,
          "internalType": "address",
          "name": "spender",
          "type": "address"
        },
        {
          "indexed": true,
          "internalType": "uint256",
          "name": "id",
          "type": "uint256"
        },
        {
          "indexed": false,
          "internalType": "uint256",
          "name": "amount",
          "type": "uint256"
        }
      ],
      "name": "Approval",
      "type": "event"
    },
    {
      "anonymous": false,
      "inputs": [],
      "name": "EIP712DomainChanged",
      "type": "event"
    },
    {
      "anonymous": false,
      "inputs": [
        {
          "indexed": true,
          "internalType": "address",
          "name": "owner",
          "type": "address"
        },
        {
          "indexed": true,
          "internalType": "uint256",
          "name": "nonce",
          "type": "uint256"
        }
      ],
      "name": "NonceInvalidation",
      "type": "event"
    },
    {
      "anonymous": false,
      "inputs": [
        {
          "indexed": true,
          "internalType": "address",
          "name": "owner",
          "type": "address"
        },
        {
          "indexed": true,
          "internalType": "address",
          "name": "spender",
          "type": "address"
        },
        {
          "indexed": false,
          "internalType": "bool",
          "name": "approved",
          "type": "bool"
        }
      ],
      "name": "OperatorSet",
      "type": "event"
    },
    {
      "anonymous": false,
      "inputs": [
        {
          "indexed": false,
          "internalType": "address",
          "name": "caller",
          "type": "address"
        },
        {
          "indexed": true,
          "internalType": "address",
          "name": "sender",
          "type": "address"
        },
        {
          "indexed": true,
          "internalType": "address",
          "name": "receiver",
          "type": "address"
        },
        {
          "indexed": true,
          "internalType": "uint256",
          "name": "id",
          "type": "uint256"
        },
        {
          "indexed": false,
          "internalType": "uint256",
          "name": "amount",
          "type": "uint256"
        }
      ],
      "name": "Transfer",
      "type": "event"
    },
    {
      "inputs": [],
      "name": "APPROVE_AND_CALL_TYPE_HASH",
      "outputs": [
        {
          "internalType": "bytes32",
          "name": "",
          "type": "bytes32"
        }
      ],
      "stateMutability": "view",
      "type": "function"
    },
    {
      "inputs": [],
      "name": "DOMAIN_SEPARATOR",
      "outputs": [
        {
          "internalType": "bytes32",
          "name": "",
          "type": "bytes32"
        }
      ],
      "stateMutability": "view",
      "type": "function"
    },
    {
      "inputs": [
        {
          "internalType": "address",
          "name": "owner",
          "type": "address"
        },
        {
          "internalType": "address",
          "name": "spender",
          "type": "address"
        },
        {
          "internalType": "uint256",
          "name": "tokenId",
          "type": "uint256"
        }
      ],
      "name": "allowance",
      "outputs": [
        {
          "internalType": "uint256",
          "name": "amount",
          "type": "uint256"
        }
      ],
      "stateMutability": "view",
      "type": "function"
    },
    {
      "inputs": [
        {
          "internalType": "address",
          "name": "_spender",
          "type": "address"
        },
        {
          "internalType": "uint256",
          "name": "_id",
          "type": "uint256"
        },
        {
          "internalType": "uint256",
          "name": "_amount",
          "type": "uint256"
        }
      ],
      "name": "approve",
      "outputs": [
        {
          "internalType": "bool",
          "name": "",
          "type": "bool"
        }
      ],
      "stateMutability": "nonpayable",
      "type": "function"
    },
    {
      "inputs": [
        {
          "internalType": "address",
          "name": "_owner",
          "type": "address"
        },
        {
          "internalType": "address",
          "name": "_spender",
          "type": "address"
        },
        {
          "internalType": "bool",
          "name": "_operator",
          "type": "bool"
        },
        {
          "internalType": "uint256",
          "name": "_id",
          "type": "uint256"
        },
        {
          "internalType": "uint256",
          "name": "_amount",
          "type": "uint256"
        },
        {
          "internalType": "uint256",
          "name": "_nonce",
          "type": "uint256"
        },
        {
          "internalType": "uint48",
          "name": "_deadline",
          "type": "uint48"
        },
        {
          "internalType": "bytes",
          "name": "_signature",
          "type": "bytes"
        }
      ],
      "name": "approveBySig",
      "outputs": [
        {
          "internalType": "bool",
          "name": "",
          "type": "bool"
        }
      ],
      "stateMutability": "nonpayable",
      "type": "function"
    },
    {
      "inputs": [
        {
          "internalType": "address",
          "name": "owner",
          "type": "address"
        },
        {
          "internalType": "uint256",
          "name": "id",
          "type": "uint256"
        }
      ],
      "name": "balanceOf",
      "outputs": [
        {
          "internalType": "uint256",
          "name": "amount",
          "type": "uint256"
        }
      ],
      "stateMutability": "view",
      "type": "function"
    },
    {
      "inputs": [],
      "name": "eip712Domain",
      "outputs": [
        {
          "internalType": "bytes1",
          "name": "fields",
          "type": "bytes1"
        },
        {
          "internalType": "string",
          "name": "name",
          "type": "string"
        },
        {
          "internalType": "string",
          "name": "version",
          "type": "string"
        },
        {
          "internalType": "uint256",
          "name": "chainId",
          "type": "uint256"
        },
        {
          "internalType": "address",
          "name": "verifyingContract",
          "type": "address"
        },
        {
          "internalType": "bytes32",
          "name": "salt",
          "type": "bytes32"
        },
        {
          "internalType": "uint256[]",
          "name": "extensions",
          "type": "uint256[]"
        }
      ],
      "stateMutability": "view",
      "type": "function"
    },
    {
      "inputs": [
        {
          "internalType": "uint256",
          "name": "_nonce",
          "type": "uint256"
        }
      ],
      "name": "invalidateNonce",
      "outputs": [],
      "stateMutability": "nonpayable",
      "type": "function"
    },
    {
      "inputs": [
        {
          "internalType": "address",
          "name": "owner",
          "type": "address"
        },
        {
          "internalType": "address",
          "name": "operator",
          "type": "address"
        }
      ],
      "name": "isOperator",
      "outputs": [
        {
          "internalType": "bool",
          "name": "approved",
          "type": "bool"
        }
      ],
      "stateMutability": "view",
      "type": "function"
    },
    {
      "inputs": [
        {
          "internalType": "address",
          "name": "_from",
          "type": "address"
        },
        {
          "internalType": "uint256",
          "name": "_nonce",
          "type": "uint256"
        }
      ],
      "name": "isValidNonce",
      "outputs": [
        {
          "internalType": "bool",
          "name": "",
          "type": "bool"
        }
      ],
      "stateMutability": "view",
      "type": "function"
    },
    {
      "inputs": [
        {
          "internalType": "address",
          "name": "account",
          "type": "address"
        },
        {
          "internalType": "uint256",
          "name": "word",
          "type": "uint256"
        }
      ],
      "name": "nonceBitMap",
      "outputs": [
        {
          "internalType": "uint256",
          "name": "bitMap",
          "type": "uint256"
        }
      ],
      "stateMutability": "view",
      "type": "function"
    },
    {
      "inputs": [
        {
          "internalType": "address",
          "name": "_operator",
          "type": "address"
        },
        {
          "internalType": "bool",
          "name": "_approved",
          "type": "bool"
        }
      ],
      "name": "setOperator",
      "outputs": [
        {
          "internalType": "bool",
          "name": "",
          "type": "bool"
        }
      ],
      "stateMutability": "nonpayable",
      "type": "function"
    },
    {
      "inputs": [
        {
          "internalType": "bytes4",
          "name": "_interfaceId",
          "type": "bytes4"
        }
      ],
      "name": "supportsInterface",
      "outputs": [
        {
          "internalType": "bool",
          "name": "supported",
          "type": "bool"
        }
      ],
      "stateMutability": "view",
      "type": "function"
    },
    {
      "inputs": [
        {
          "internalType": "address",
          "name": "_spender",
          "type": "address"
        },
        {
          "internalType": "bool",
          "name": "_operator",
          "type": "bool"
        },
        {
          "internalType": "uint256",
          "name": "_id",
          "type": "uint256"
        },
        {
          "internalType": "uint256",
          "name": "_amount",
          "type": "uint256"
        },
        {
          "internalType": "address",
          "name": "_target",
          "type": "address"
        },
        {
          "internalType": "bytes",
          "name": "_data",
          "type": "bytes"
        }
      ],
      "name": "temporaryApproveAndCall",
      "outputs": [
        {
          "internalType": "bool",
          "name": "",
          "type": "bool"
        }
      ],
      "stateMutability": "nonpayable",
      "type": "function"
    },
    {
      "inputs": [
        {
          "internalType": "address",
          "name": "_owner",
          "type": "address"
        },
        {
          "internalType": "address",
          "name": "_spender",
          "type": "address"
        },
        {
          "internalType": "bool",
          "name": "_operator",
          "type": "bool"
        },
        {
          "internalType": "uint256",
          "name": "_id",
          "type": "uint256"
        },
        {
          "internalType": "uint256",
          "name": "_amount",
          "type": "uint256"
        },
        {
          "internalType": "address",
          "name": "_target",
          "type": "address"
        },
        {
          "internalType": "bytes",
          "name": "_data",
          "type": "bytes"
        },
        {
          "internalType": "uint256",
          "name": "_nonce",
          "type": "uint256"
        },
        {
          "internalType": "uint48",
          "name": "_deadline",
          "type": "uint48"
        },
        {
          "internalType": "bytes",
          "name": "_signature",
          "type": "bytes"
        }
      ],
      "name": "temporaryApproveAndCallBySig",
      "outputs": [
        {
          "internalType": "bool",
          "name": "",
          "type": "bool"
        }
      ],
      "stateMutability": "nonpayable",
      "type": "function"
    },
    {
      "inputs": [
        {
          "internalType": "address",
          "name": "_receiver",
          "type": "address"
        },
        {
          "internalType": "uint256",
          "name": "_id",
          "type": "uint256"
        },
        {
          "internalType": "uint256",
          "name": "_amount",
          "type": "uint256"
        }
      ],
      "name": "transfer",
      "outputs": [
        {
          "internalType": "bool",
          "name": "",
          "type": "bool"
        }
      ],
      "stateMutability": "nonpayable",
      "type": "function"
    },
    {
      "inputs": [
        {
          "internalType": "address",
          "name": "_sender",
          "type": "address"
        },
        {
          "internalType": "address",
          "name": "_receiver",
          "type": "address"
        },
        {
          "internalType": "uint256",
          "name": "_id",
          "type": "uint256"
        },
        {
          "internalType": "uint256",
          "name": "_amount",
          "type": "uint256"
        }
      ],
      "name": "transferFrom",
      "outputs": [
        {
          "internalType": "bool",
          "name": "",
          "type": "bool"
        }
      ],
      "stateMutability": "nonpayable",
      "type": "function"
    }
  ],
  "bytecode": "0x610160604052346200007b57620000206200001962000219565b9062000240565b6200002a62000081565b6127b962000a07823960805181611b43015260a05181611b7a015260c05181611b09015260e051816121e90152610100518161220e015261012051816112440152610140518161127901526127b990f35b62000087565b60405190565b600080fd5b601f801991011690565b634e487b7160e01b600052604160045260246000fd5b90620000b8906200008c565b810190811060018060401b03821117620000d157604052565b62000096565b90620000ee620000e662000081565b9283620000ac565b565b600080fd5b600080fd5b600080fd5b600080fd5b60018060401b03811162000123576200011f6020916200008c565b0190565b62000096565b60005b8381106200013e575050906000910152565b8060209183015181850152016200012c565b9092919262000169620001638262000104565b620000d7565b938185526020850190828401116200018857620001869262000129565b565b620000ff565b9080601f83011215620001af57816020620001ac9351910162000150565b90565b620000fa565b9190916040818403126200021357600081015160018060401b0381116200020d5783620001e49183016200018e565b92602082015160018060401b03811162000207576200020492016200018e565b90565b620000f5565b620000f5565b620000f0565b6200023c620031c0803803806200023081620000d7565b928339810190620001b5565b9091565b906200024c916200024e565b565b906200025a916200025c565b565b906200026891620002c6565b565b90565b90565b60200190565b5190565b60018060a01b031690565b90565b620002a16200029b620002a7926200027a565b62000285565b6200027a565b90565b620002b59062000288565b90565b620002c390620002aa565b90565b906200030e6200032e92620002e881620002e160036200026a565b9062000682565b610120526200030483620002fd60046200026a565b9062000682565b610140526200026d565b620003246200031d8262000276565b9162000270565b2060e0526200026d565b620003446200033d8262000276565b9162000270565b20610100524660a05262000357620007cd565b6080526200036530620002b8565b60c052565b600090565b90565b90565b6200038e62000388620003949262000372565b62000285565b6200036f565b90565b5190565b634e487b7160e01b600052602260045260246000fd5b9060016002830492168015620003d4575b6020831014620003ce57565b6200039b565b91607f1691620003c2565b600052602060002090565b601f602091010490565b1b90565b91906008620004189102916200041160001984620003f4565b92620003f4565b9181191691161790565b6200043b6200043562000441926200036f565b62000285565b6200036f565b90565b90565b9190620004626200045c6200046b9362000422565b62000444565b908354620003f8565b9055565b600090565b6200048a91620004836200046f565b9162000447565b565b5b81811062000499575050565b80620004a9600060019362000474565b016200048d565b9190601f8111620004c1575b505050565b620004d0620004fb93620003df565b906020620004de84620003ea565b8301931062000504575b620004f390620003ea565b01906200048c565b388080620004bc565b9150620004f381929050620004e8565b1c90565b906200052b906000199060080262000514565b191690565b816200053c9162000518565b906002021790565b90620005508162000397565b9060018060401b03821162000623576200057782620005708554620003b1565b85620004b0565b602090601f8311600114620005b1579180916200059f93600092620005a4575b505062000530565b90555b565b9091500151388062000597565b601f19831691620005c285620003df565b9260005b8181106200060a57509160029391856001969410620005ed575b50505002019055620005a2565b620005ff910151601f84169062000518565b9055388080620005e0565b91936020600181928787015181550195019201620005c6565b62000096565b90620006359162000544565b565b90565b90565b60001b90565b6200065c62000656620006629262000637565b6200063d565b6200063a565b90565b6200067160ff62000643565b90565b6200067f906200063a565b90565b906200068d6200036a565b50620006a36200069d836200026d565b62000276565b620006ba620006b3602062000375565b916200036f565b10600014620006d25750620006cf9062000963565b90565b6000620006e4620006eb939262000852565b0162000629565b620006ff620006f962000665565b62000674565b90565b600090565b7f8b73c3c69bb8fe3d512ecc4cf759cc79239f7b179b0ffacaa9a75d522b39400f90565b6200073790516200063a565b90565b62000745906200063a565b9052565b62000754906200036f565b9052565b62000763906200027a565b90565b620007719062000758565b9052565b90959492620007cb94620007b8620007c392620007ad608096620007a260a088019c60008901906200073a565b60208701906200073a565b60408501906200073a565b606083019062000749565b019062000766565b565b620007d762000702565b50620007e262000707565b62000838620007f260e06200072b565b9162000828620008046101006200072b565b466200081030620002b8565b916200081b62000081565b9687956020870162000775565b60208201810382520382620000ac565b6200084e620008478262000276565b9162000270565b2090565b90565b90565b620008716200086b620008779262000855565b62000285565b6200036f565b90565b60209181520190565b620008a8620008b2602093620008b8936200089e8162000397565b938480936200087a565b9586910162000129565b6200008c565b0190565b620008d4916020820191600081840391015262000883565b90565b620008f7620008f1620008ea8362000276565b9262000270565b6200072b565b906020811062000906575b5090565b6200091b9060001990602003600802620003f4565b163862000902565b60001c90565b620009386200093e9162000923565b62000422565b90565b6200095a6200095462000960926200036f565b6200063d565b6200063a565b90565b6200096d6200036a565b5062000979816200026d565b90620009858262000276565b6200099c62000995601f62000858565b916200036f565b11620009dc5750620009d381620009cc620009c5620009bf620009d995620008d7565b62000929565b9162000276565b1762000941565b62000674565b90565b62000a0290620009eb62000081565b91829163305a27a960e01b835260048301620008bc565b0390fdfe60806040526004361015610013575b610e2b565b61001e60003561012c565b8062fdd58e1461012757806301ffc9a7146101225780630647ee201461011d578063095bcdb61461011857806314925cad146101135780633644e5151461010e5780633fcbd4d114610109578063426a849314610104578063558a7297146100ff578063598af9e7146100fa578063829ab5c1146100f557806384b0196e146100f0578063b6363cf2146100eb578063b70e36f0146100e6578063dc393b6b146100e1578063f46d86e2146100dc5763fe99049a0361000e57610df2565b610d76565b610d08565b610c3a565b610bdf565b610af7565b610937565b610885565b6107d0565b61076c565b610736565b6106df565b610667565b61041f565b6103ae565b610379565b6102cc565b60e01c90565b60405190565b600080fd5b600080fd5b600080fd5b60018060a01b031690565b61015b90610147565b90565b61016781610152565b0361016e57565b600080fd5b905035906101808261015e565b565b90565b61018e81610182565b0361019557565b600080fd5b905035906101a782610185565b565b91906040838203126101d257806101c66101cf9260008601610173565b9360200161019a565b90565b61013d565b90565b6101ee6101e96101f392610147565b6101d7565b610147565b90565b6101ff906101da565b90565b61020b906101f6565b90565b9061021890610202565b600052602052604060002090565b61023a61023561023f92610182565b6101d7565b610182565b90565b9061024c90610226565b600052602052604060002090565b1c90565b90565b610271906008610276930261025a565b61025e565b90565b906102849154610261565b90565b6102a16102a69261029c60019360009461020e565b610242565b610279565b90565b6102b290610182565b9052565b91906102ca906000602085019401906102a9565b565b346102fd576102f96102e86102e23660046101a9565b90610287565b6102f0610132565b918291826102b6565b0390f35b610138565b63ffffffff60e01b1690565b61031781610302565b0361031e57565b600080fd5b905035906103308261030e565b565b9060208282031261034c5761034991600001610323565b90565b61013d565b151590565b61035f90610351565b9052565b919061037790600060208501940190610356565b565b346103a9576103a561039461038f366004610332565b610e35565b61039c610132565b91829182610363565b0390f35b610138565b346103df576103db6103ca6103c43660046101a9565b90610ebb565b6103d2610132565b91829182610363565b0390f35b610138565b909160608284031261041a576104176104008460008501610173565b9361040e816020860161019a565b9360400161019a565b90565b61013d565b346104505761044c61043b6104353660046103e4565b91610fc8565b610443610132565b91829182610363565b0390f35b610138565b61045e81610351565b0361046557565b600080fd5b9050359061047782610455565b565b600080fd5b600080fd5b601f801991011690565b634e487b7160e01b600052604160045260246000fd5b906104ad90610483565b810190811067ffffffffffffffff8211176104c757604052565b61048d565b906104df6104d8610132565b92836104a3565b565b67ffffffffffffffff81116104ff576104fb602091610483565b0190565b61048d565b90826000939282370152565b90929192610525610520826104e1565b6104cc565b938185526020850190828401116105415761053f92610504565b565b61047e565b9080601f830112156105645781602061056193359101610510565b90565b610479565b65ffffffffffff1690565b61057d81610569565b0361058457565b600080fd5b9050359061059682610574565b565b9061014082820312610662576105b18160008401610173565b926105bf8260208501610173565b926105cd836040830161046a565b926105db816060840161019a565b926105e9826080850161019a565b926105f78360a08301610173565b9260c082013567ffffffffffffffff811161065d5781610618918401610546565b926106268260e0850161019a565b92610635836101008301610589565b9261012082013567ffffffffffffffff8111610658576106559201610546565b90565b610142565b610142565b61013d565b346106a4576106a061068f61067d366004610598565b98979097969196959295949394611096565b610697610132565b91829182610363565b0390f35b610138565b60009103126106b457565b61013d565b90565b6106c5906106b9565b9052565b91906106dd906000602085019401906106bc565b565b3461070f576106ef3660046106a9565b61070b6106fa6110e8565b610702610132565b918291826106c9565b0390f35b610138565b61072e6107339261072960059360009461020e565b610242565b610279565b90565b346107675761076361075261074c3660046101a9565b90610714565b61075a610132565b918291826102b6565b0390f35b610138565b3461079d576107996107886107823660046103e4565b916110fc565b610790610132565b91829182610363565b0390f35b610138565b91906040838203126107cb57806107bf6107c89260008601610173565b9360200161046a565b90565b61013d565b34610801576107fd6107ec6107e63660046107a2565b90611118565b6107f4610132565b91829182610363565b0390f35b610138565b909160608284031261083c576108396108228460008501610173565b936108308160208601610173565b9360400161019a565b90565b61013d565b9061084b90610202565b600052602052604060002090565b906108829261087861087d92610873600295600096610841565b61020e565b610242565b610279565b90565b346108b6576108b26108a161089b366004610806565b91610859565b6108a9610132565b918291826102b6565b0390f35b610138565b9160c083830312610932576108d38260008501610173565b926108e1836020830161046a565b926108ef816040840161019a565b926108fd826060850161019a565b9261090b8360808301610173565b9260a082013567ffffffffffffffff811161092d5761092a9201610546565b90565b610142565b61013d565b3461096e5761096a61095961094d3660046108bb565b94939093929192611131565b610961610132565b91829182610363565b0390f35b610138565b60ff60f81b1690565b61098590610973565b9052565b5190565b60209181520190565b60005b8381106109aa575050906000910152565b806020918301518185015201610999565b6109da6109e36020936109e8936109d181610989565b9384809361098d565b95869101610996565b610483565b0190565b6109f590610152565b9052565b5190565b60209181520190565b60200190565b610a1590610182565b9052565b90610a2681602093610a0c565b0190565b60200190565b90610a4d610a47610a40846109f9565b80936109fd565b92610a06565b9060005b818110610a5e5750505090565b909192610a77610a716001928651610a19565b94610a2a565b9101919091610a51565b93959194610ad3610ac8610ae795610aba610add95610af49c9a610aad60e08c019260008d019061097c565b8a820360208c01526109bb565b9088820360408a01526109bb565b9760608701906102a9565b60808501906109ec565b60a08301906106bc565b60c0818403910152610a30565b90565b34610b2e57610b073660046106a9565b610b2a610b12611200565b93610b21979597939193610132565b97889788610a81565b0390f35b610138565b9190604083820312610b5c5780610b50610b599260008601610173565b93602001610173565b90565b61013d565b90610b6b90610202565b600052602052604060002090565b90610b8390610202565b600052602052604060002090565b60ff1690565b610ba7906008610bac930261025a565b610b91565b90565b90610bba9154610b97565b90565b610bd7610bdc92610bd2600093600094610b61565b610b79565b610baf565b90565b34610c1057610c0c610bfb610bf5366004610b33565b90610bbd565b610c03610132565b91829182610363565b0390f35b610138565b90602082820312610c2f57610c2c9160000161019a565b90565b61013d565b60000190565b34610c6857610c52610c4d366004610c15565b6112e4565b610c5a610132565b80610c6481610c34565b0390f35b610138565b91909161010081840312610d0357610c888360008301610173565b92610c968160208401610173565b92610ca4826040850161046a565b92610cb2836060830161019a565b92610cc0816080840161019a565b92610cce8260a0850161019a565b92610cdc8360c08301610589565b9260e082013567ffffffffffffffff8111610cfe57610cfb9201610546565b90565b610142565b61013d565b34610d4257610d3e610d2d610d1e366004610c6d565b969590959491949392936113de565b610d35610132565b91829182610363565b0390f35b610138565b7f01eb7e05a16709b6f764150593b828b1110ce9fbd8830ba01c079956b1c9cd7f90565b610d73610d47565b90565b34610da657610d863660046106a9565b610da2610d91610d6b565b610d99610132565b918291826106c9565b0390f35b610138565b608081830312610ded57610dc28260008301610173565b92610dea610dd38460208501610173565b93610de1816040860161019a565b9360600161019a565b90565b61013d565b34610e2657610e22610e11610e08366004610dab565b92919091611457565b610e19610132565b91829182610363565b0390f35b610138565b600080fd5b600090565b610e3d610e30565b50610e47816115f4565b908115610e53575b5090565b9050610e6e610e68634a31d20760e01b610302565b91610302565b1438610e4f565b60001c90565b610e87610e8c91610e75565b61025e565b90565b610e999054610e7b565b90565b90565b610eb3610eae610eb892610e9c565b6101d7565b610182565b90565b90610ee7610ee2610ed7610eec93610ed1610e30565b506116f8565b91909194600561020e565b610242565b610e8f565b16610f00610efa6000610e9f565b91610182565b1490565b634e487b7160e01b600052601160045260246000fd5b610f29610f2f91939293610182565b92610182565b8203918211610f3a57565b610f04565b60001b90565b90610f5260001991610f3f565b9181191691161790565b90565b90610f74610f6f610f7b92610226565b610f5c565b8254610f45565b9055565b610f8e610f9491939293610182565b92610182565b8201809211610f9f57565b610f04565b916020610fc6929493610fbf604082019660008301906109ec565b01906102a9565b565b9190610fd2610e30565b5061100582610fff610ff0610fe96001339061020e565b8590610242565b91610ffa83610e8f565b610f1a565b90610f5f565b6110378261103161102261101b6001889061020e565b8590610242565b9161102c83610e8f565b610f7f565b90610f5f565b33923390919261107961107361106d7f1b3d7edb2e9c0b0e7c525b20aaaef0f5940d2ed71663c7d39266ecafac72885994610202565b94610202565b94610226565b9461108e611085610132565b92839283610fa4565b0390a4600190565b919293949596906110de9981996110d2936110af610e30565b506110bb86829061173f565b8a8a8a60019689908b918d9394959697989961183b565b959091929394956119d8565b600190565b600090565b6110f06110e3565b506110f9611aef565b90565b90916111159261110a610e30565b503392909192611baa565b90565b61112e91611124610e30565b5033919091611c82565b90565b939161114f959391611141610e30565b5033959091929394956119d8565b600190565b600090565b606090565b600090565b600090565b606090565b90565b611179906101f6565b90565b61119061118b61119592610e9c565b610f3f565b6106b9565b90565b67ffffffffffffffff81116111b05760208091020190565b61048d565b906111c76111c283611198565b6104cc565b918252565b369037565b906111f66111de836111b5565b926020806111ec8693611198565b92019103906111cc565b565b600f60f81b90565b611208611154565b50611211611159565b5061121a611159565b5061122361115e565b5061122c611163565b506112356110e3565b5061123e611168565b506112737f000000000000000000000000000000000000000000000000000000000000000061126d600361116d565b90611e56565b906112a87f00000000000000000000000000000000000000000000000000000000000000006112a2600461116d565b90611e56565b9046906112b430611170565b906112bf600061117c565b906112d26112cd6000610e9f565b6111d1565b906112db6111f8565b96959493929190565b6113176113066112f3836116f8565b91906113016005339061020e565b610242565b9061131082610e8f565b1790610f5f565b339061134c6113467f239b0d63832ec06e8082928dc583392b57a30d16e4bb425b49d82c7808e308b093610202565b91610226565b91611355610132565b8061135f81610c34565b0390a3565b61137861137361137d92610e9c565b6101d7565b610147565b90565b61138990611364565b90565b67ffffffffffffffff81116113aa576113a6602091610483565b0190565b61048d565b906113c16113bc8361138c565b6104cc565b918252565b6113d060006113af565b90565b6113db6113c6565b90565b9192939461142f9761142592976113f3610e30565b506113ff85849061173f565b600085938a888a908c926114136000611380565b9496979861141f6113d3565b9661183b565b9390919293611ea5565b5050600190565b61144261144791610e75565b610b91565b90565b6114549054611436565b90565b929190611462610e30565b503361147661147086610152565b91610152565b1415806115c7575b611545575b6114b5836114af6114a06114996001899061020e565b8690610242565b916114aa83610e8f565b610f1a565b90610f5f565b6114e7836114e16114d26114cb6001869061020e565b8690610242565b916114dc83610e8f565b610f7f565b90610f5f565b339390919261152861152261151c7f1b3d7edb2e9c0b0e7c525b20aaaef0f5940d2ed71663c7d39266ecafac72885994610202565b94610202565b94610226565b9461153d611534610132565b92839283610fa4565b0390a4600190565b61156d61156861156161155a60028890610841565b339061020e565b8490610242565b610e8f565b8061158261157c600019610182565b91610182565b0361158e575b50611483565b61159c6115c1918590610f1a565b6115bc6115b56115ae60028990610841565b339061020e565b8590610242565b610f5f565b38611588565b506115ef6115e96115e46115dd60008890610b61565b3390610b79565b61144a565b15610351565b61147e565b6115fc610e30565b5080611617611611630f632fb360e01b610302565b91610302565b14908115611624575b5090565b905061163f6116396301ffc9a760e01b610302565b91610302565b1438611620565b90565b60ff1690565b61166361165e61166892611646565b6101d7565b611649565b90565b61168a9061168461167e61168f94611649565b91610182565b9061025a565b610182565b90565b6116a66116a16116ab92610182565b6101d7565b611649565b90565b90565b6116c56116c06116ca926116ae565b6101d7565b610182565b90565b1b90565b6116f0906116ea6116e46116f594611649565b91610182565b906116cd565b610182565b90565b9061170161115e565b5061170a61115e565b5061173c6117228361171c600861164f565b9061166b565b92611737611731600192611692565b916116b1565b6116d1565b90565b611748826116f8565b90611774611762839261175d6005879061020e565b610242565b9161176c83610e8f565b188092610f5f565b166117886117826000610e9f565b91610182565b146117d957906117c16117bb7f239b0d63832ec06e8082928dc583392b57a30d16e4bb425b49d82c7808e308b093610202565b91610226565b916117ca610132565b806117d481610c34565b0390a3565b6117e1610132565b633ab3447f60e11b8152806117f860048201610c34565b0390fd5b61181061180b61181592610569565b6101d7565b610182565b90565b61182190610569565b9052565b919061183990600060208501940190611818565b565b9998969492909997959391974261185a6118548a6117fc565b91610182565b116118b957926118909a98959261188a9a9895926118839895978b909192939495969798612042565b90916120f2565b15610351565b61189657565b61189e610132565b632057875960e21b8152806118b560048201610c34565b0390fd5b6118db886118c5610132565b918291633aae542960e01b835260048301611825565b0390fd5b6118e8906101da565b90565b6118f4906118df565b90565b611900906101f6565b90565b60e01b90565b905051906119168261030e565b565b906020828203126119325761192f91600001611909565b90565b61013d565b5190565b60209181520190565b61196361196c6020936119719361195a81611937565b9384809361193b565b95869101610996565b610483565b0190565b91936119ad6119c496946119a36119b7949761199960a088019960008901906109ec565b6020870190610356565b60408501906102a9565b60608301906102a9565b6080818403910152611944565b90565b6119cf610132565b3d6000823e3d90fd5b9560206119ff959694939296611a046119f68a8a8789918693611ea5565b989098976118eb565b6118f7565b611a2d600063b74de3da611a388d9589988b919091611a21610132565b9a8b998a988997611903565b875260048701611975565b03925af1908115611aea57600091611abc575b50611a65611a5f635ba6f1ed60e11b610302565b91610302565b03611a9957600014611a83575050611a7f92919091611c82565b505b565b909150611a939392909192611baa565b50611a81565b611aa1610132565b632bc5818360e11b815280611ab860048201610c34565b0390fd5b611add915060203d8111611ae3575b611ad581836104a3565b810190611918565b38611a4b565b503d611acb565b6119c7565b611af76110e3565b50611b0130611170565b611b33611b2d7f0000000000000000000000000000000000000000000000000000000000000000610152565b91610152565b1480611b70575b600014611b65577f000000000000000000000000000000000000000000000000000000000000000090565b611b6d6121d3565b90565b5046611ba4611b9e7f0000000000000000000000000000000000000000000000000000000000000000610182565b91610182565b14611b3a565b92919092611bb6610e30565b50611be083611bdb611bd4611bcd60028690610841565b889061020e565b8590610242565b610f5f565b92909192611c35611c23611c1d611c177fb3fd5071835887567a0671151121894ddccc2842f1d10bedad13e0d17cace9a794610202565b94610202565b94610226565b94611c2c610132565b918291826102b6565b0390a4600190565b90611c4960ff91610f3f565b9181191691161790565b611c5c90610351565b90565b90565b90611c77611c72611c7e92611c53565b611c5f565b8254611c3d565b9055565b919091611c8d610e30565b50611cad82611ca8611ca160008590610b61565b8690610b79565b611c62565b919091611cf8611ce6611ce07fceb576d9f15e4e200fdb5096d64d5dfd667e16def20c1eefd14256d8e3faa26793610202565b93610202565b93611cef610132565b91829182610363565b0390a3600190565b611d09906106b9565b90565b90565b611d23611d1e611d2892611d0c565b610f3f565b6106b9565b90565b611d3560ff611d0f565b90565b634e487b7160e01b600052602260045260246000fd5b9060016002830492168015611d6e575b6020831014611d6957565b611d38565b91607f1691611d5e565b60209181520190565b600052602060002090565b9060009291805490611da7611da083611d4e565b8094611d78565b91600181169081600014611e005750600114611dc3575b505050565b611dd09192939450611d81565b916000925b818410611de85750500190388080611dbe565b60018160209295939554848601520191019290611dd5565b92949550505060ff1916825215156020020190388080611dbe565b90611e2591611d8c565b90565b90611e48611e4192611e38610132565b93848092611e1b565b03836104a3565b565b611e5390611e28565b90565b90611e5f611159565b50611e6982611d00565b611e82611e7c611e77611d2b565b6106b9565b916106b9565b1415600014611e985750611e95906122bc565b90565b611ea29150611e4a565b90565b949293909193611eb3610e30565b611ebb61115e565b95600014611f565750611ed7611ed16000610e9f565b91610182565b1415908115611f39575b50611f1657611f1290611f08611f03611efc60008890610b61565b8390610b79565b61144a565b9490600191611c82565b505b565b611f1e610132565b63637e1dc560e11b815280611f3560048201610c34565b0390fd5b9050611f4e611f486000610e9f565b91610182565b141538611ee1565b95945090611f919291611f87611f82611f7b611f7460028a90610841565b869061020e565b8390610242565b610e8f565b9592909192611baa565b50611f14565b60200190565b98969492909b9a99979593916101608a019c60008b01611fbc916106bc565b60208a01611fc991610356565b60408901611fd6916109ec565b60608801611fe3916109ec565b60808701611ff091610356565b60a08601611ffd916102a9565b60c0850161200a916102a9565b60e08401612017916109ec565b6101008301612025916106bc565b6101208201612033916102a9565b6101400161204091611818565b565b95612097956120a698929993956120be9b9561205c6110e3565b50612065610d47565b999b97909192939461207f61207982611937565b91611f97565b2095969761208b610132565b9c8d9b60208d01611f9d565b602082018103825203826104a3565b6120b86120b282611937565b91611f97565b206122ec565b90565b634e487b7160e01b600052602160045260246000fd5b600511156120e157565b6120c1565b906120f0826120d7565b565b916120fb610e30565b50612107828290612332565b61211a61211460006120e6565b916120e6565b149081612146575b50928315612131575b50505090565b61213e9350919091612476565b38808061212b565b905061215a61215485610152565b91610152565b1438612122565b7f8b73c3c69bb8fe3d512ecc4cf759cc79239f7b179b0ffacaa9a75d522b39400f90565b909594926121d1946121c06121ca926121b66080966121ac60a088019c60008901906106bc565b60208701906106bc565b60408501906106bc565b60608301906102a9565b01906109ec565b565b6121db6110e3565b506121e4612161565b61225b7f00000000000000000000000000000000000000000000000000000000000000009161224c7f00000000000000000000000000000000000000000000000000000000000000004661223730611170565b91612240610132565b96879560208701612185565b602082018103825203826104a3565b61226d61226782611937565b91611f97565b2090565b90565b61228861228361228d92612271565b6101d7565b610182565b90565b369037565b906122ba6122a2836113af565b926020806122b0869361138c565b9201910390612290565b565b6122c4611159565b506122ce81612598565b906122e16122dc6020612274565b612295565b918252602082015290565b612306906122f86110e3565b50612301611aef565b6125fc565b90565b600090565b90565b61232561232061232a9261230e565b6101d7565b610182565b90565b600090565b61233a611163565b50612343612309565b5061234d82611937565b61236061235a6041612311565b91610182565b146000146123a7576123a1916123746110e3565b5061237d6110e3565b5061238661232d565b5060208101516060604083015192015160001a9091926126a8565b91909190565b50506123b36000611380565b90600290565b916123dd926123d0604082019360008301906106bc565b6020818403910152611944565b90565b906123f26123ed836104e1565b6104cc565b918252565b606090565b3d6000146124195761240d3d6123e0565b903d6000602084013e5b565b6124216123f7565b90612417565b612430816106b9565b0361243757565b600080fd5b9050519061244982612427565b565b90602082820312612465576124629160000161243c565b90565b61013d565b61247390610302565b90565b9160046124bf600094936124b0869561248d610e30565b5094630b135d3f60e11b926124a0610132565b95869460208601908152016123b9565b602082018103825203826104a3565b602081019051915afa6124d06123fc565b9080612525575b90816124e2575b5090565b6124fd915060206124f282611937565b81830101910161244b565b61251e612518612513630b135d3f60e11b61246a565b6106b9565b916106b9565b14386124de565b5061252f81611937565b61254261253c6020612274565b91610182565b10156124d7565b61255561255a91610e75565b610226565b90565b61257161256c61257692611d0c565b6101d7565b610182565b90565b90565b61259061258b61259592612579565b6101d7565b610182565b90565b6125ad6125b2916125a761115e565b50611d00565b612549565b6125bc60ff61255d565b16806125d16125cb601f61257c565b91610182565b116125d95790565b6125e1610132565b632cd44ac360e21b8152806125f860048201610c34565b0390fd5b6042916126076110e3565b50604051917f19010000000000000000000000000000000000000000000000000000000000008352600283015260228201522090565b90565b61265461264f6126599261263d565b6101d7565b610182565b90565b61266590611649565b9052565b61269f6126a69461269560609498979561268b608086019a60008701906106bc565b602085019061265c565b60408301906106bc565b01906106bc565b565b9291906126b3611163565b506126bc612309565b506126c683612549565b6126f86126f27f7fffffffffffffffffffffffffffffff5d576e7357a4501ddfe92f46681b20a0612640565b91610182565b1161276f576127196000936020959293612710610132565b94859485612669565b838052039060015afa1561276a57612732600051610f3f565b8061274e6127486127436000611380565b610152565b91610152565b146127595790600090565b506127646000611380565b90600190565b6119c7565b5050505061277d6000611380565b9060039056fea2646970667358221220f2b64279c2eba46deb4b9239690b0532a42fc6b6f153d4175c137de83f2245f264736f6c63430008180033",
  "linkReferences": {},
  "deployedLinkReferences": {}
}