{
  "_format": "hh-sol-artifact-1",
  "contractName": "TimeFrameHatModule",
  "sourceName": "contracts/timeframe/TimeFrameHatModule.sol",
  "abi": [
    {
      "inputs": [
        {
          "internalType": "address",
          "name": "_hatsAddress",
          "type": "address"
        },
        {
          "internalType": "address",
          "name": "_trustedForwarder",
          "type": "address"
        }
      ],
      "stateMutability": "nonpayable",
      "type": "constructor"
    },
    {
      "inputs": [
        {
          "internalType": "address",
          "name": "wearer",
          "type": "address"
        },
        {
          "internalType": "uint256",
          "name": "hatId",
          "type": "uint256"
        }
      ],
      "name": "getWearingElapsedTime",
      "outputs": [
        {
          "internalType": "uint256",
          "name": "",
          "type": "uint256"
        }
      ],
      "stateMutability": "view",
      "type": "function"
    },
    {
      "inputs": [
        {
          "internalType": "address",
          "name": "wearer",
          "type": "address"
        },
        {
          "internalType": "uint256",
          "name": "hatId",
          "type": "uint256"
        }
      ],
      "name": "getWoreTime",
      "outputs": [
        {
          "internalType": "uint256",
          "name": "",
          "type": "uint256"
        }
      ],
      "stateMutability": "view",
      "type": "function"
    },
    {
      "inputs": [
        {
          "internalType": "address",
          "name": "forwarder",
          "type": "address"
        }
      ],
      "name": "isTrustedForwarder",
      "outputs": [
        {
          "internalType": "bool",
          "name": "",
          "type": "bool"
        }
      ],
      "stateMutability": "view",
      "type": "function"
    },
    {
      "inputs": [
        {
          "internalType": "uint256",
          "name": "hatId",
          "type": "uint256"
        },
        {
          "internalType": "address",
          "name": "wearer",
          "type": "address"
        }
      ],
      "name": "mintHat",
      "outputs": [],
      "stateMutability": "nonpayable",
      "type": "function"
    }
  ],
  "bytecode": "0x60a06040523462000041576200001f6200001862000131565b90620001f3565b6200002962000047565b6107e76200022a82396080518161029101526107e790f35b6200004d565b60405190565b600080fd5b601f801991011690565b634e487b7160e01b600052604160045260246000fd5b906200007e9062000052565b810190811060018060401b038211176200009757604052565b6200005c565b90620000b4620000ac62000047565b928362000072565b565b600080fd5b60018060a01b031690565b620000d190620000bb565b90565b620000df81620000c6565b03620000e757565b600080fd5b90505190620000fb82620000d4565b565b91906040838203126200012b57806200011e620001289260008601620000ec565b93602001620000ec565b90565b620000b6565b6200015462000a118038038062000148816200009d565b928339810190620000fd565b9091565b90565b620001746200016e6200017a92620000bb565b62000158565b620000bb565b90565b62000188906200015b565b90565b62000196906200017d565b90565b60001b90565b90620001b260018060a01b039162000199565b9181191691161790565b620001c7906200017d565b90565b90565b90620001e7620001e1620001ef92620001bc565b620001ca565b82546200019f565b9055565b6200020d9062000207620002159362000217565b6200018b565b6000620001cd565b565b620002229062000224565b565b60805256fe60806040526004361015610013575b610276565b61001e60003561005d565b8063572b6c0514610058578063641f776e14610053578063716107731461004e5763819c4b0d0361000e57610240565b61020a565b610185565b6100f5565b60e01c90565b60405190565b600080fd5b600080fd5b60018060a01b031690565b61008790610073565b90565b6100938161007e565b0361009a57565b600080fd5b905035906100ac8261008a565b565b906020828203126100c8576100c59160000161009f565b90565b61006e565b151590565b6100db906100cd565b9052565b91906100f3906000602085019401906100d2565b565b346101255761012161011061010b3660046100ae565b610280565b610118610063565b918291826100df565b0390f35b610069565b90565b6101368161012a565b0361013d57565b600080fd5b9050359061014f8261012d565b565b919060408382031261017a578061016e6101779260008601610142565b9360200161009f565b90565b61006e565b60000190565b346101b45761019e610198366004610151565b906103fc565b6101a6610063565b806101b08161017f565b0390f35b610069565b91906040838203126101e257806101d66101df926000860161009f565b93602001610142565b90565b61006e565b6101f09061012a565b9052565b9190610208906000602085019401906101e7565b565b3461023b576102376102266102203660046101b9565b90610510565b61022e610063565b918291826101f4565b0390f35b610069565b346102715761026d61025c6102563660046101b9565b90610645565b610264610063565b918291826101f4565b0390f35b610069565b600080fd5b600090565b61028861027b565b506102bb6102b57f000000000000000000000000000000000000000000000000000000000000000061007e565b9161007e565b1490565b60001c90565b60018060a01b031690565b6102dc6102e1916102bf565b6102c5565b90565b6102ee90546102d0565b90565b90565b61030861030361030d92610073565b6102f1565b610073565b90565b610319906102f4565b90565b61032590610310565b90565b601f801991011690565b634e487b7160e01b600052604160045260246000fd5b9061035290610328565b810190811067ffffffffffffffff82111761036c57604052565b610332565b60e01b90565b610380816100cd565b0361038757565b600080fd5b9050519061039982610377565b565b906020828203126103b5576103b29160000161038c565b90565b61006e565b6103c39061007e565b9052565b9160206103e99294936103e2604082019660008301906101e7565b01906103ba565b565b6103f3610063565b3d6000823e3d90fd5b61040e61040960006102e4565b61031c565b91602063641f776e9383906104376000859761044261042b610063565b998a9687958694610371565b8452600484016103c7565b03925af192831561048a5761045c9361045e575b50610758565b565b61047e9060203d8111610483575b6104768183610348565b81019061039b565b610456565b503d61046c565b6103eb565b600090565b61049d90610310565b90565b906104aa90610494565b600052602052604060002090565b6104cc6104c76104d19261012a565b6102f1565b61012a565b90565b906104de906104b8565b600052602052604060002090565b90565b6104fb610500916102bf565b6104ec565b90565b61050d90546104ef565b90565b6105359161052b6105309261052361048f565b5060016104a0565b6104d4565b610503565b90565b90565b61054f61054a61055492610538565b6102f1565b61012a565b90565b60209181520190565b60207f2077656172657220616e64206861744964000000000000000000000000000000917f48617420686173206e6f74206265656e206d696e74656420666f72207468697360008201520152565b6105bb6031604092610557565b6105c481610560565b0190565b6105de90602081019060008183039101526105ae565b90565b156105e857565b6105f0610063565b62461bcd60e51b815280610606600482016105c8565b0390fd5b634e487b7160e01b600052601160045260246000fd5b61062f6106359193929361012a565b9261012a565b820391821161064057565b61060a565b6106686106919261066361066d9361065b61048f565b5060016104a0565b6104d4565b610503565b61068b8161068461067e600061053b565b9161012a565b14156105e1565b42610620565b90565b60007f48617420616c7265616479206d696e7465640000000000000000000000000000910152565b6106c96012602092610557565b6106d281610694565b0190565b6106ec90602081019060008183039101526106bc565b90565b156106f657565b6106fe610063565b62461bcd60e51b815280610714600482016106d6565b0390fd5b60001b90565b9061072b60001991610718565b9181191691161790565b90565b9061074d610748610754926104b8565b610735565b825461071e565b9055565b6107aa6107af9261079961078061077b610774600187906104a0565b84906104d4565b610503565b61079361078d600061053b565b9161012a565b146106ef565b6107a5429360016104a0565b6104d4565b610738565b56fea26469706673582212205f58ab3c886b9f3e0ee702a335be15cd7a18b67a5aefe325d10f683a9705cc7e64736f6c63430008180033",
  "linkReferences": {},
  "deployedLinkReferences": {}
}