{
  "_format": "hh-sol-artifact-1",
  "contractName": "Hats",
  "sourceName": "contracts/hats/src/Hats.sol",
  "abi": [
    {
      "inputs": [
        {
          "internalType": "string",
          "name": "_name",
          "type": "string"
        },
        {
          "internalType": "string",
          "name": "_baseImageURI",
          "type": "string"
        }
      ],
      "stateMutability": "nonpayable",
      "type": "constructor"
    },
    {
      "inputs": [
        {
          "internalType": "uint256",
          "name": "hatId",
          "type": "uint256"
        }
      ],
      "name": "AllHatsWorn",
      "type": "error"
    },
    {
      "inputs": [
        {
          "internalType": "address",
          "name": "wearer",
          "type": "address"
        },
        {
          "internalType": "uint256",
          "name": "hatId",
          "type": "uint256"
        }
      ],
      "name": "AlreadyWearingHat",
      "type": "error"
    },
    {
      "inputs": [],
      "name": "BatchArrayLengthMismatch",
      "type": "error"
    },
    {
      "inputs": [],
      "name": "CircularLinkage",
      "type": "error"
    },
    {
      "inputs": [],
      "name": "CrossTreeLinkage",
      "type": "error"
    },
    {
      "inputs": [
        {
          "internalType": "uint256",
          "name": "hatId",
          "type": "uint256"
        }
      ],
      "name": "HatDoesNotExist",
      "type": "error"
    },
    {
      "inputs": [],
      "name": "HatNotActive",
      "type": "error"
    },
    {
      "inputs": [],
      "name": "Immutable",
      "type": "error"
    },
    {
      "inputs": [],
      "name": "InvalidHatId",
      "type": "error"
    },
    {
      "inputs": [],
      "name": "InvalidUnlink",
      "type": "error"
    },
    {
      "inputs": [],
      "name": "LinkageNotRequested",
      "type": "error"
    },
    {
      "inputs": [],
      "name": "MaxLevelsReached",
      "type": "error"
    },
    {
      "inputs": [],
      "name": "MaxLevelsReached",
      "type": "error"
    },
    {
      "inputs": [],
      "name": "NewMaxSupplyTooLow",
      "type": "error"
    },
    {
      "inputs": [
        {
          "internalType": "address",
          "name": "user",
          "type": "address"
        },
        {
          "internalType": "uint256",
          "name": "hatId",
          "type": "uint256"
        }
      ],
      "name": "NotAdmin",
      "type": "error"
    },
    {
      "inputs": [],
      "name": "NotAdminOrWearer",
      "type": "error"
    },
    {
      "inputs": [],
      "name": "NotEligible",
      "type": "error"
    },
    {
      "inputs": [],
      "name": "NotHatWearer",
      "type": "error"
    },
    {
      "inputs": [],
      "name": "NotHatsEligibility",
      "type": "error"
    },
    {
      "inputs": [],
      "name": "NotHatsToggle",
      "type": "error"
    },
    {
      "inputs": [],
      "name": "StringTooLong",
      "type": "error"
    },
    {
      "inputs": [],
      "name": "ZeroAddress",
      "type": "error"
    },
    {
      "anonymous": false,
      "inputs": [
        {
          "indexed": true,
          "internalType": "address",
          "name": "owner",
          "type": "address"
        },
        {
          "indexed": true,
          "internalType": "address",
          "name": "operator",
          "type": "address"
        },
        {
          "indexed": false,
          "internalType": "bool",
          "name": "approved",
          "type": "bool"
        }
      ],
      "name": "ApprovalForAll",
      "type": "event"
    },
    {
      "anonymous": false,
      "inputs": [
        {
          "indexed": false,
          "internalType": "uint256",
          "name": "id",
          "type": "uint256"
        },
        {
          "indexed": false,
          "internalType": "string",
          "name": "details",
          "type": "string"
        },
        {
          "indexed": false,
          "internalType": "uint32",
          "name": "maxSupply",
          "type": "uint32"
        },
        {
          "indexed": false,
          "internalType": "address",
          "name": "eligibility",
          "type": "address"
        },
        {
          "indexed": false,
          "internalType": "address",
          "name": "toggle",
          "type": "address"
        },
        {
          "indexed": false,
          "internalType": "bool",
          "name": "mutable_",
          "type": "bool"
        },
        {
          "indexed": false,
          "internalType": "string",
          "name": "imageURI",
          "type": "string"
        }
      ],
      "name": "HatCreated",
      "type": "event"
    },
    {
      "anonymous": false,
      "inputs": [
        {
          "indexed": false,
          "internalType": "uint256",
          "name": "hatId",
          "type": "uint256"
        },
        {
          "indexed": false,
          "internalType": "string",
          "name": "newDetails",
          "type": "string"
        }
      ],
      "name": "HatDetailsChanged",
      "type": "event"
    },
    {
      "anonymous": false,
      "inputs": [
        {
          "indexed": false,
          "internalType": "uint256",
          "name": "hatId",
          "type": "uint256"
        },
        {
          "indexed": false,
          "internalType": "address",
          "name": "newEligibility",
          "type": "address"
        }
      ],
      "name": "HatEligibilityChanged",
      "type": "event"
    },
    {
      "anonymous": false,
      "inputs": [
        {
          "indexed": false,
          "internalType": "uint256",
          "name": "hatId",
          "type": "uint256"
        },
        {
          "indexed": false,
          "internalType": "string",
          "name": "newImageURI",
          "type": "string"
        }
      ],
      "name": "HatImageURIChanged",
      "type": "event"
    },
    {
      "anonymous": false,
      "inputs": [
        {
          "indexed": false,
          "internalType": "uint256",
          "name": "hatId",
          "type": "uint256"
        },
        {
          "indexed": false,
          "internalType": "uint32",
          "name": "newMaxSupply",
          "type": "uint32"
        }
      ],
      "name": "HatMaxSupplyChanged",
      "type": "event"
    },
    {
      "anonymous": false,
      "inputs": [
        {
          "indexed": false,
          "internalType": "uint256",
          "name": "hatId",
          "type": "uint256"
        }
      ],
      "name": "HatMutabilityChanged",
      "type": "event"
    },
    {
      "anonymous": false,
      "inputs": [
        {
          "indexed": false,
          "internalType": "uint256",
          "name": "hatId",
          "type": "uint256"
        },
        {
          "indexed": false,
          "internalType": "bool",
          "name": "newStatus",
          "type": "bool"
        }
      ],
      "name": "HatStatusChanged",
      "type": "event"
    },
    {
      "anonymous": false,
      "inputs": [
        {
          "indexed": false,
          "internalType": "uint256",
          "name": "hatId",
          "type": "uint256"
        },
        {
          "indexed": false,
          "internalType": "address",
          "name": "newToggle",
          "type": "address"
        }
      ],
      "name": "HatToggleChanged",
      "type": "event"
    },
    {
      "anonymous": false,
      "inputs": [
        {
          "indexed": false,
          "internalType": "uint32",
          "name": "domain",
          "type": "uint32"
        },
        {
          "indexed": false,
          "internalType": "uint256",
          "name": "newAdmin",
          "type": "uint256"
        }
      ],
      "name": "TopHatLinkRequested",
      "type": "event"
    },
    {
      "anonymous": false,
      "inputs": [
        {
          "indexed": false,
          "internalType": "uint32",
          "name": "domain",
          "type": "uint32"
        },
        {
          "indexed": false,
          "internalType": "uint256",
          "name": "newAdmin",
          "type": "uint256"
        }
      ],
      "name": "TopHatLinked",
      "type": "event"
    },
    {
      "anonymous": false,
      "inputs": [
        {
          "indexed": true,
          "internalType": "address",
          "name": "operator",
          "type": "address"
        },
        {
          "indexed": true,
          "internalType": "address",
          "name": "from",
          "type": "address"
        },
        {
          "indexed": true,
          "internalType": "address",
          "name": "to",
          "type": "address"
        },
        {
          "indexed": false,
          "internalType": "uint256[]",
          "name": "ids",
          "type": "uint256[]"
        },
        {
          "indexed": false,
          "internalType": "uint256[]",
          "name": "amounts",
          "type": "uint256[]"
        }
      ],
      "name": "TransferBatch",
      "type": "event"
    },
    {
      "anonymous": false,
      "inputs": [
        {
          "indexed": true,
          "internalType": "address",
          "name": "operator",
          "type": "address"
        },
        {
          "indexed": true,
          "internalType": "address",
          "name": "from",
          "type": "address"
        },
        {
          "indexed": true,
          "internalType": "address",
          "name": "to",
          "type": "address"
        },
        {
          "indexed": false,
          "internalType": "uint256",
          "name": "id",
          "type": "uint256"
        },
        {
          "indexed": false,
          "internalType": "uint256",
          "name": "amount",
          "type": "uint256"
        }
      ],
      "name": "TransferSingle",
      "type": "event"
    },
    {
      "anonymous": false,
      "inputs": [
        {
          "indexed": false,
          "internalType": "string",
          "name": "value",
          "type": "string"
        },
        {
          "indexed": true,
          "internalType": "uint256",
          "name": "id",
          "type": "uint256"
        }
      ],
      "name": "URI",
      "type": "event"
    },
    {
      "anonymous": false,
      "inputs": [
        {
          "indexed": false,
          "internalType": "uint256",
          "name": "hatId",
          "type": "uint256"
        },
        {
          "indexed": false,
          "internalType": "address",
          "name": "wearer",
          "type": "address"
        },
        {
          "indexed": false,
          "internalType": "bool",
          "name": "wearerStanding",
          "type": "bool"
        }
      ],
      "name": "WearerStandingChanged",
      "type": "event"
    },
    {
      "inputs": [
        {
          "internalType": "uint32",
          "name": "_topHatDomain",
          "type": "uint32"
        },
        {
          "internalType": "uint256",
          "name": "_newAdminHat",
          "type": "uint256"
        },
        {
          "internalType": "address",
          "name": "_eligibility",
          "type": "address"
        },
        {
          "internalType": "address",
          "name": "_toggle",
          "type": "address"
        },
        {
          "internalType": "string",
          "name": "_details",
          "type": "string"
        },
        {
          "internalType": "string",
          "name": "_imageURI",
          "type": "string"
        }
      ],
      "name": "approveLinkTopHatToTree",
      "outputs": [],
      "stateMutability": "nonpayable",
      "type": "function"
    },
    {
      "inputs": [
        {
          "internalType": "uint256",
          "name": "",
          "type": "uint256"
        },
        {
          "internalType": "address",
          "name": "",
          "type": "address"
        }
      ],
      "name": "badStandings",
      "outputs": [
        {
          "internalType": "bool",
          "name": "",
          "type": "bool"
        }
      ],
      "stateMutability": "view",
      "type": "function"
    },
    {
      "inputs": [
        {
          "internalType": "address",
          "name": "_wearer",
          "type": "address"
        },
        {
          "internalType": "uint256",
          "name": "_hatId",
          "type": "uint256"
        }
      ],
      "name": "balanceOf",
      "outputs": [
        {
          "internalType": "uint256",
          "name": "balance",
          "type": "uint256"
        }
      ],
      "stateMutability": "view",
      "type": "function"
    },
    {
      "inputs": [
        {
          "internalType": "address[]",
          "name": "_wearers",
          "type": "address[]"
        },
        {
          "internalType": "uint256[]",
          "name": "_hatIds",
          "type": "uint256[]"
        }
      ],
      "name": "balanceOfBatch",
      "outputs": [
        {
          "internalType": "uint256[]",
          "name": "balances",
          "type": "uint256[]"
        }
      ],
      "stateMutability": "view",
      "type": "function"
    },
    {
      "inputs": [],
      "name": "baseImageURI",
      "outputs": [
        {
          "internalType": "string",
          "name": "",
          "type": "string"
        }
      ],
      "stateMutability": "view",
      "type": "function"
    },
    {
      "inputs": [
        {
          "internalType": "uint256[]",
          "name": "_admins",
          "type": "uint256[]"
        },
        {
          "internalType": "string[]",
          "name": "_details",
          "type": "string[]"
        },
        {
          "internalType": "uint32[]",
          "name": "_maxSupplies",
          "type": "uint32[]"
        },
        {
          "internalType": "address[]",
          "name": "_eligibilityModules",
          "type": "address[]"
        },
        {
          "internalType": "address[]",
          "name": "_toggleModules",
          "type": "address[]"
        },
        {
          "internalType": "bool[]",
          "name": "_mutables",
          "type": "bool[]"
        },
        {
          "internalType": "string[]",
          "name": "_imageURIs",
          "type": "string[]"
        }
      ],
      "name": "batchCreateHats",
      "outputs": [
        {
          "internalType": "bool",
          "name": "success",
          "type": "bool"
        }
      ],
      "stateMutability": "nonpayable",
      "type": "function"
    },
    {
      "inputs": [
        {
          "internalType": "uint256[]",
          "name": "_hatIds",
          "type": "uint256[]"
        },
        {
          "internalType": "address[]",
          "name": "_wearers",
          "type": "address[]"
        }
      ],
      "name": "batchMintHats",
      "outputs": [
        {
          "internalType": "bool",
          "name": "success",
          "type": "bool"
        }
      ],
      "stateMutability": "nonpayable",
      "type": "function"
    },
    {
      "inputs": [
        {
          "internalType": "uint256",
          "name": "_admin",
          "type": "uint256"
        },
        {
          "internalType": "uint16",
          "name": "_newHat",
          "type": "uint16"
        }
      ],
      "name": "buildHatId",
      "outputs": [
        {
          "internalType": "uint256",
          "name": "id",
          "type": "uint256"
        }
      ],
      "stateMutability": "pure",
      "type": "function"
    },
    {
      "inputs": [
        {
          "internalType": "uint256",
          "name": "_hatId",
          "type": "uint256"
        },
        {
          "internalType": "string",
          "name": "_newDetails",
          "type": "string"
        }
      ],
      "name": "changeHatDetails",
      "outputs": [],
      "stateMutability": "nonpayable",
      "type": "function"
    },
    {
      "inputs": [
        {
          "internalType": "uint256",
          "name": "_hatId",
          "type": "uint256"
        },
        {
          "internalType": "address",
          "name": "_newEligibility",
          "type": "address"
        }
      ],
      "name": "changeHatEligibility",
      "outputs": [],
      "stateMutability": "nonpayable",
      "type": "function"
    },
    {
      "inputs": [
        {
          "internalType": "uint256",
          "name": "_hatId",
          "type": "uint256"
        },
        {
          "internalType": "string",
          "name": "_newImageURI",
          "type": "string"
        }
      ],
      "name": "changeHatImageURI",
      "outputs": [],
      "stateMutability": "nonpayable",
      "type": "function"
    },
    {
      "inputs": [
        {
          "internalType": "uint256",
          "name": "_hatId",
          "type": "uint256"
        },
        {
          "internalType": "uint32",
          "name": "_newMaxSupply",
          "type": "uint32"
        }
      ],
      "name": "changeHatMaxSupply",
      "outputs": [],
      "stateMutability": "nonpayable",
      "type": "function"
    },
    {
      "inputs": [
        {
          "internalType": "uint256",
          "name": "_hatId",
          "type": "uint256"
        },
        {
          "internalType": "address",
          "name": "_newToggle",
          "type": "address"
        }
      ],
      "name": "changeHatToggle",
      "outputs": [],
      "stateMutability": "nonpayable",
      "type": "function"
    },
    {
      "inputs": [
        {
          "internalType": "uint256",
          "name": "_hatId",
          "type": "uint256"
        }
      ],
      "name": "checkHatStatus",
      "outputs": [
        {
          "internalType": "bool",
          "name": "toggled",
          "type": "bool"
        }
      ],
      "stateMutability": "nonpayable",
      "type": "function"
    },
    {
      "inputs": [
        {
          "internalType": "uint256",
          "name": "_hatId",
          "type": "uint256"
        },
        {
          "internalType": "address",
          "name": "_wearer",
          "type": "address"
        }
      ],
      "name": "checkHatWearerStatus",
      "outputs": [
        {
          "internalType": "bool",
          "name": "updated",
          "type": "bool"
        }
      ],
      "stateMutability": "nonpayable",
      "type": "function"
    },
    {
      "inputs": [
        {
          "internalType": "uint256",
          "name": "_admin",
          "type": "uint256"
        },
        {
          "internalType": "string",
          "name": "_details",
          "type": "string"
        },
        {
          "internalType": "uint32",
          "name": "_maxSupply",
          "type": "uint32"
        },
        {
          "internalType": "address",
          "name": "_eligibility",
          "type": "address"
        },
        {
          "internalType": "address",
          "name": "_toggle",
          "type": "address"
        },
        {
          "internalType": "bool",
          "name": "_mutable",
          "type": "bool"
        },
        {
          "internalType": "string",
          "name": "_imageURI",
          "type": "string"
        }
      ],
      "name": "createHat",
      "outputs": [
        {
          "internalType": "uint256",
          "name": "newHatId",
          "type": "uint256"
        }
      ],
      "stateMutability": "nonpayable",
      "type": "function"
    },
    {
      "inputs": [
        {
          "internalType": "uint256",
          "name": "_hatId",
          "type": "uint256"
        },
        {
          "internalType": "uint32",
          "name": "_level",
          "type": "uint32"
        }
      ],
      "name": "getAdminAtLevel",
      "outputs": [
        {
          "internalType": "uint256",
          "name": "admin",
          "type": "uint256"
        }
      ],
      "stateMutability": "view",
      "type": "function"
    },
    {
      "inputs": [
        {
          "internalType": "uint256",
          "name": "_hatId",
          "type": "uint256"
        },
        {
          "internalType": "uint32",
          "name": "_level",
          "type": "uint32"
        }
      ],
      "name": "getAdminAtLocalLevel",
      "outputs": [
        {
          "internalType": "uint256",
          "name": "admin",
          "type": "uint256"
        }
      ],
      "stateMutability": "pure",
      "type": "function"
    },
    {
      "inputs": [
        {
          "internalType": "uint256",
          "name": "_hatId",
          "type": "uint256"
        }
      ],
      "name": "getHatEligibilityModule",
      "outputs": [
        {
          "internalType": "address",
          "name": "eligibility",
          "type": "address"
        }
      ],
      "stateMutability": "view",
      "type": "function"
    },
    {
      "inputs": [
        {
          "internalType": "uint256",
          "name": "_hatId",
          "type": "uint256"
        }
      ],
      "name": "getHatLevel",
      "outputs": [
        {
          "internalType": "uint32",
          "name": "level",
          "type": "uint32"
        }
      ],
      "stateMutability": "view",
      "type": "function"
    },
    {
      "inputs": [
        {
          "internalType": "uint256",
          "name": "_hatId",
          "type": "uint256"
        }
      ],
      "name": "getHatMaxSupply",
      "outputs": [
        {
          "internalType": "uint32",
          "name": "maxSupply",
          "type": "uint32"
        }
      ],
      "stateMutability": "view",
      "type": "function"
    },
    {
      "inputs": [
        {
          "internalType": "uint256",
          "name": "_hatId",
          "type": "uint256"
        }
      ],
      "name": "getHatToggleModule",
      "outputs": [
        {
          "internalType": "address",
          "name": "toggle",
          "type": "address"
        }
      ],
      "stateMutability": "view",
      "type": "function"
    },
    {
      "inputs": [
        {
          "internalType": "uint256",
          "name": "_hatId",
          "type": "uint256"
        }
      ],
      "name": "getImageURIForHat",
      "outputs": [
        {
          "internalType": "string",
          "name": "_uri",
          "type": "string"
        }
      ],
      "stateMutability": "view",
      "type": "function"
    },
    {
      "inputs": [
        {
          "internalType": "uint256",
          "name": "_hatId",
          "type": "uint256"
        }
      ],
      "name": "getLocalHatLevel",
      "outputs": [
        {
          "internalType": "uint32",
          "name": "level",
          "type": "uint32"
        }
      ],
      "stateMutability": "pure",
      "type": "function"
    },
    {
      "inputs": [
        {
          "internalType": "uint256",
          "name": "_admin",
          "type": "uint256"
        }
      ],
      "name": "getNextId",
      "outputs": [
        {
          "internalType": "uint256",
          "name": "nextId",
          "type": "uint256"
        }
      ],
      "stateMutability": "view",
      "type": "function"
    },
    {
      "inputs": [
        {
          "internalType": "uint32",
          "name": "_topHatDomain",
          "type": "uint32"
        }
      ],
      "name": "getTippyTopHatDomain",
      "outputs": [
        {
          "internalType": "uint32",
          "name": "domain",
          "type": "uint32"
        }
      ],
      "stateMutability": "view",
      "type": "function"
    },
    {
      "inputs": [
        {
          "internalType": "uint256",
          "name": "_hatId",
          "type": "uint256"
        }
      ],
      "name": "getTopHatDomain",
      "outputs": [
        {
          "internalType": "uint32",
          "name": "domain",
          "type": "uint32"
        }
      ],
      "stateMutability": "pure",
      "type": "function"
    },
    {
      "inputs": [
        {
          "internalType": "uint256",
          "name": "_hatId",
          "type": "uint256"
        }
      ],
      "name": "hatSupply",
      "outputs": [
        {
          "internalType": "uint32",
          "name": "supply",
          "type": "uint32"
        }
      ],
      "stateMutability": "view",
      "type": "function"
    },
    {
      "inputs": [
        {
          "internalType": "uint256",
          "name": "_hatId",
          "type": "uint256"
        }
      ],
      "name": "isActive",
      "outputs": [
        {
          "internalType": "bool",
          "name": "active",
          "type": "bool"
        }
      ],
      "stateMutability": "view",
      "type": "function"
    },
    {
      "inputs": [
        {
          "internalType": "address",
          "name": "_user",
          "type": "address"
        },
        {
          "internalType": "uint256",
          "name": "_hatId",
          "type": "uint256"
        }
      ],
      "name": "isAdminOfHat",
      "outputs": [
        {
          "internalType": "bool",
          "name": "isAdmin",
          "type": "bool"
        }
      ],
      "stateMutability": "view",
      "type": "function"
    },
    {
      "inputs": [
        {
          "internalType": "address",
          "name": "",
          "type": "address"
        },
        {
          "internalType": "address",
          "name": "",
          "type": "address"
        }
      ],
      "name": "isApprovedForAll",
      "outputs": [
        {
          "internalType": "bool",
          "name": "",
          "type": "bool"
        }
      ],
      "stateMutability": "view",
      "type": "function"
    },
    {
      "inputs": [
        {
          "internalType": "address",
          "name": "_wearer",
          "type": "address"
        },
        {
          "internalType": "uint256",
          "name": "_hatId",
          "type": "uint256"
        }
      ],
      "name": "isEligible",
      "outputs": [
        {
          "internalType": "bool",
          "name": "eligible",
          "type": "bool"
        }
      ],
      "stateMutability": "view",
      "type": "function"
    },
    {
      "inputs": [
        {
          "internalType": "address",
          "name": "_wearer",
          "type": "address"
        },
        {
          "internalType": "uint256",
          "name": "_hatId",
          "type": "uint256"
        }
      ],
      "name": "isInGoodStanding",
      "outputs": [
        {
          "internalType": "bool",
          "name": "standing",
          "type": "bool"
        }
      ],
      "stateMutability": "view",
      "type": "function"
    },
    {
      "inputs": [
        {
          "internalType": "uint256",
          "name": "_hatId",
          "type": "uint256"
        }
      ],
      "name": "isLocalTopHat",
      "outputs": [
        {
          "internalType": "bool",
          "name": "_isLocalTopHat",
          "type": "bool"
        }
      ],
      "stateMutability": "pure",
      "type": "function"
    },
    {
      "inputs": [
        {
          "internalType": "uint256",
          "name": "_hatId",
          "type": "uint256"
        }
      ],
      "name": "isTopHat",
      "outputs": [
        {
          "internalType": "bool",
          "name": "_isTopHat",
          "type": "bool"
        }
      ],
      "stateMutability": "view",
      "type": "function"
    },
    {
      "inputs": [
        {
          "internalType": "uint256",
          "name": "_hatId",
          "type": "uint256"
        }
      ],
      "name": "isValidHatId",
      "outputs": [
        {
          "internalType": "bool",
          "name": "validHatId",
          "type": "bool"
        }
      ],
      "stateMutability": "pure",
      "type": "function"
    },
    {
      "inputs": [
        {
          "internalType": "address",
          "name": "_user",
          "type": "address"
        },
        {
          "internalType": "uint256",
          "name": "_hatId",
          "type": "uint256"
        }
      ],
      "name": "isWearerOfHat",
      "outputs": [
        {
          "internalType": "bool",
          "name": "isWearer",
          "type": "bool"
        }
      ],
      "stateMutability": "view",
      "type": "function"
    },
    {
      "inputs": [],
      "name": "lastTopHatId",
      "outputs": [
        {
          "internalType": "uint32",
          "name": "",
          "type": "uint32"
        }
      ],
      "stateMutability": "view",
      "type": "function"
    },
    {
      "inputs": [
        {
          "internalType": "uint32",
          "name": "",
          "type": "uint32"
        }
      ],
      "name": "linkedTreeAdmins",
      "outputs": [
        {
          "internalType": "uint256",
          "name": "",
          "type": "uint256"
        }
      ],
      "stateMutability": "view",
      "type": "function"
    },
    {
      "inputs": [
        {
          "internalType": "uint32",
          "name": "",
          "type": "uint32"
        }
      ],
      "name": "linkedTreeRequests",
      "outputs": [
        {
          "internalType": "uint256",
          "name": "",
          "type": "uint256"
        }
      ],
      "stateMutability": "view",
      "type": "function"
    },
    {
      "inputs": [
        {
          "internalType": "uint256",
          "name": "_hatId",
          "type": "uint256"
        }
      ],
      "name": "makeHatImmutable",
      "outputs": [],
      "stateMutability": "nonpayable",
      "type": "function"
    },
    {
      "inputs": [
        {
          "internalType": "uint256",
          "name": "_hatId",
          "type": "uint256"
        },
        {
          "internalType": "address",
          "name": "_wearer",
          "type": "address"
        }
      ],
      "name": "mintHat",
      "outputs": [
        {
          "internalType": "bool",
          "name": "success",
          "type": "bool"
        }
      ],
      "stateMutability": "nonpayable",
      "type": "function"
    },
    {
      "inputs": [
        {
          "internalType": "address",
          "name": "_target",
          "type": "address"
        },
        {
          "internalType": "string",
          "name": "_details",
          "type": "string"
        },
        {
          "internalType": "string",
          "name": "_imageURI",
          "type": "string"
        }
      ],
      "name": "mintTopHat",
      "outputs": [
        {
          "internalType": "uint256",
          "name": "topHatId",
          "type": "uint256"
        }
      ],
      "stateMutability": "nonpayable",
      "type": "function"
    },
    {
      "inputs": [],
      "name": "name",
      "outputs": [
        {
          "internalType": "string",
          "name": "",
          "type": "string"
        }
      ],
      "stateMutability": "view",
      "type": "function"
    },
    {
      "inputs": [
        {
          "internalType": "uint32",
          "name": "_topHatDomain",
          "type": "uint32"
        },
        {
          "internalType": "uint256",
          "name": "_linkedAdmin",
          "type": "uint256"
        }
      ],
      "name": "noCircularLinkage",
      "outputs": [
        {
          "internalType": "bool",
          "name": "notCircular",
          "type": "bool"
        }
      ],
      "stateMutability": "view",
      "type": "function"
    },
    {
      "inputs": [
        {
          "internalType": "uint32",
          "name": "_topHatDomain",
          "type": "uint32"
        },
        {
          "internalType": "uint256",
          "name": "_newAdminHat",
          "type": "uint256"
        },
        {
          "internalType": "address",
          "name": "_eligibility",
          "type": "address"
        },
        {
          "internalType": "address",
          "name": "_toggle",
          "type": "address"
        },
        {
          "internalType": "string",
          "name": "_details",
          "type": "string"
        },
        {
          "internalType": "string",
          "name": "_imageURI",
          "type": "string"
        }
      ],
      "name": "relinkTopHatWithinTree",
      "outputs": [],
      "stateMutability": "nonpayable",
      "type": "function"
    },
    {
      "inputs": [
        {
          "internalType": "uint256",
          "name": "_hatId",
          "type": "uint256"
        }
      ],
      "name": "renounceHat",
      "outputs": [],
      "stateMutability": "nonpayable",
      "type": "function"
    },
    {
      "inputs": [
        {
          "internalType": "uint32",
          "name": "_topHatDomain",
          "type": "uint32"
        },
        {
          "internalType": "uint256",
          "name": "_requestedAdminHat",
          "type": "uint256"
        }
      ],
      "name": "requestLinkTopHatToTree",
      "outputs": [],
      "stateMutability": "nonpayable",
      "type": "function"
    },
    {
      "inputs": [
        {
          "internalType": "address",
          "name": "",
          "type": "address"
        },
        {
          "internalType": "address",
          "name": "",
          "type": "address"
        },
        {
          "internalType": "uint256[]",
          "name": "",
          "type": "uint256[]"
        },
        {
          "internalType": "uint256[]",
          "name": "",
          "type": "uint256[]"
        },
        {
          "internalType": "bytes",
          "name": "",
          "type": "bytes"
        }
      ],
      "name": "safeBatchTransferFrom",
      "outputs": [],
      "stateMutability": "pure",
      "type": "function"
    },
    {
      "inputs": [
        {
          "internalType": "address",
          "name": "",
          "type": "address"
        },
        {
          "internalType": "address",
          "name": "",
          "type": "address"
        },
        {
          "internalType": "uint256",
          "name": "",
          "type": "uint256"
        },
        {
          "internalType": "uint256",
          "name": "",
          "type": "uint256"
        },
        {
          "internalType": "bytes",
          "name": "",
          "type": "bytes"
        }
      ],
      "name": "safeTransferFrom",
      "outputs": [],
      "stateMutability": "pure",
      "type": "function"
    },
    {
      "inputs": [
        {
          "internalType": "uint32",
          "name": "_topHatDomain",
          "type": "uint32"
        },
        {
          "internalType": "uint256",
          "name": "_newAdminHat",
          "type": "uint256"
        }
      ],
      "name": "sameTippyTopHatDomain",
      "outputs": [
        {
          "internalType": "bool",
          "name": "sameDomain",
          "type": "bool"
        }
      ],
      "stateMutability": "view",
      "type": "function"
    },
    {
      "inputs": [
        {
          "internalType": "address",
          "name": "",
          "type": "address"
        },
        {
          "internalType": "bool",
          "name": "",
          "type": "bool"
        }
      ],
      "name": "setApprovalForAll",
      "outputs": [],
      "stateMutability": "pure",
      "type": "function"
    },
    {
      "inputs": [
        {
          "internalType": "uint256",
          "name": "_hatId",
          "type": "uint256"
        },
        {
          "internalType": "bool",
          "name": "_newStatus",
          "type": "bool"
        }
      ],
      "name": "setHatStatus",
      "outputs": [
        {
          "internalType": "bool",
          "name": "toggled",
          "type": "bool"
        }
      ],
      "stateMutability": "nonpayable",
      "type": "function"
    },
    {
      "inputs": [
        {
          "internalType": "uint256",
          "name": "_hatId",
          "type": "uint256"
        },
        {
          "internalType": "address",
          "name": "_wearer",
          "type": "address"
        },
        {
          "internalType": "bool",
          "name": "_eligible",
          "type": "bool"
        },
        {
          "internalType": "bool",
          "name": "_standing",
          "type": "bool"
        }
      ],
      "name": "setHatWearerStatus",
      "outputs": [
        {
          "internalType": "bool",
          "name": "updated",
          "type": "bool"
        }
      ],
      "stateMutability": "nonpayable",
      "type": "function"
    },
    {
      "inputs": [
        {
          "internalType": "bytes4",
          "name": "interfaceId",
          "type": "bytes4"
        }
      ],
      "name": "supportsInterface",
      "outputs": [
        {
          "internalType": "bool",
          "name": "",
          "type": "bool"
        }
      ],
      "stateMutability": "pure",
      "type": "function"
    },
    {
      "inputs": [
        {
          "internalType": "uint256",
          "name": "_hatId",
          "type": "uint256"
        },
        {
          "internalType": "address",
          "name": "_from",
          "type": "address"
        },
        {
          "internalType": "address",
          "name": "_to",
          "type": "address"
        }
      ],
      "name": "transferHat",
      "outputs": [],
      "stateMutability": "nonpayable",
      "type": "function"
    },
    {
      "inputs": [
        {
          "internalType": "uint32",
          "name": "_topHatDomain",
          "type": "uint32"
        },
        {
          "internalType": "address",
          "name": "_wearer",
          "type": "address"
        }
      ],
      "name": "unlinkTopHatFromTree",
      "outputs": [],
      "stateMutability": "nonpayable",
      "type": "function"
    },
    {
      "inputs": [
        {
          "internalType": "uint256",
          "name": "id",
          "type": "uint256"
        }
      ],
      "name": "uri",
      "outputs": [
        {
          "internalType": "string",
          "name": "_uri",
          "type": "string"
        }
      ],
      "stateMutability": "view",
      "type": "function"
    },
    {
      "inputs": [
        {
          "internalType": "uint256",
          "name": "_hatId",
          "type": "uint256"
        }
      ],
      "name": "viewHat",
      "outputs": [
        {
          "internalType": "string",
          "name": "details",
          "type": "string"
        },
        {
          "internalType": "uint32",
          "name": "maxSupply",
          "type": "uint32"
        },
        {
          "internalType": "uint32",
          "name": "supply",
          "type": "uint32"
        },
        {
          "internalType": "address",
          "name": "eligibility",
          "type": "address"
        },
        {
          "internalType": "address",
          "name": "toggle",
          "type": "address"
        },
        {
          "internalType": "string",
          "name": "imageURI",
          "type": "string"
        },
        {
          "internalType": "uint16",
          "name": "lastHatId",
          "type": "uint16"
        },
        {
          "internalType": "bool",
          "name": "mutable_",
          "type": "bool"
        },
        {
          "internalType": "bool",
          "name": "active",
          "type": "bool"
        }
      ],
      "stateMutability": "view",
      "type": "function"
    }
  ],
  "bytecode": "0x60806040523462000038576200001f62000018620001d6565b90620004a3565b620000296200003e565b617c55620004c08239617c5590f35b62000044565b60405190565b600080fd5b601f801991011690565b634e487b7160e01b600052604160045260246000fd5b90620000759062000049565b810190811060018060401b038211176200008e57604052565b62000053565b90620000ab620000a36200003e565b928362000069565b565b600080fd5b600080fd5b600080fd5b600080fd5b60018060401b038111620000e057620000dc60209162000049565b0190565b62000053565b60005b838110620000fb575050906000910152565b806020918301518185015201620000e9565b90929192620001266200012082620000c1565b62000094565b9381855260208501908284011162000145576200014392620000e6565b565b620000bc565b9080601f830112156200016c5781602062000169935191016200010d565b90565b620000b7565b919091604081840312620001d057600081015160018060401b038111620001ca5783620001a19183016200014b565b92602082015160018060401b038111620001c457620001c192016200014b565b90565b620000b2565b620000b2565b620000ad565b620001f96200811580380380620001ed8162000094565b92833981019062000172565b9091565b5190565b634e487b7160e01b600052602260045260246000fd5b90600160028304921680156200023a575b60208310146200023457565b62000201565b91607f169162000228565b600052602060002090565b601f602091010490565b1b90565b919060086200027e91029162000277600019846200025a565b926200025a565b9181191691161790565b90565b90565b620002a7620002a1620002ad9262000288565b6200028b565b62000288565b90565b90565b9190620002ce620002c8620002d7936200028e565b620002b0565b9083546200025e565b9055565b600090565b620002f691620002ef620002db565b91620002b3565b565b5b81811062000305575050565b80620003156000600193620002e0565b01620002f9565b9190601f81116200032d575b505050565b6200033c620003679362000245565b9060206200034a8462000250565b8301931062000370575b6200035f9062000250565b0190620002f8565b38808062000328565b91506200035f8192905062000354565b1c90565b9062000397906000199060080262000380565b191690565b81620003a89162000384565b906002021790565b90620003bc81620001fd565b9060018060401b0382116200048f57620003e382620003dc855462000217565b856200031c565b602090601f83116001146200041d579180916200040b9360009262000410575b50506200039c565b90555b565b9091500151388062000403565b601f198316916200042e8562000245565b9260005b818110620004765750916002939185600196941062000459575b505050020190556200040e565b6200046b910151601f84169062000384565b90553880806200044c565b9193602060018192878701518155019501920162000432565b62000053565b90620004a191620003b0565b565b90620004b5620004bd92600462000495565b600662000495565b56fe60e06040526004361015610013575b6120f8565b61001e6000356103cc565b8062fdd58e146103c75780630109f854146103c257806301ffc9a7146103bd57806306fdde03146103b85780630b328e26146103b35780630e89341c146103ae5780631183a8c0146103a95780631a64dfad146103a457806321dbb8cb1461039f5780632eb2c2d61461039a578063376792b914610395578063378a8489146103905780633fa9d5441461038b5780634352409a1461038657806345fffac814610381578063499c05e81461037c5780634e1273f41461037757806352a6b2651461037257806354a1826c1461036d57806357f607721461036857806359701e44146103635780635d5eb5af1461035e578063641f776e146103595780636743175a146103545780637178fb511461034f57806374f82e301461034a578063756329a4146103455780637903e56b146103405780637a9df89f1461033b57806380198fad1461033657806382afd23b146103315780638c0760771461032c5780639aa22f6d146103275780639d6ccb9f146103225780639fe3b5101461031d578063a22cb46514610318578063a29e8fa614610313578063a2be079b1461030e578063a4a1f06c14610309578063afaae55a14610304578063b052925e146102ff578063b56f7562146102fa578063c43dc177146102f5578063cead6304146102f0578063d0221ee0146102eb578063d3272ba8146102e6578063d395acf8146102e1578063d80a8434146102dc578063d9fd995b146102d7578063e05209ff146102d2578063e33dd5c9146102cd578063e985e9c5146102c8578063f242432a146102c3578063f737401e146102be578063f8f353b6146102b9578063fb284917146102b4578063fb2aaa4c146102af578063fc3e05a4146102aa5763fd8a71630361000e576120c3565b61208e565b61201a565b611fe5565b611faf565b611f29565b611f08565b611e61565b611dc4565b611d8e565b611d5a565b611cdd565b611c9e565b611bc4565b611b90565b611b5b565b611b0b565b611aa7565b611a68565b611989565b61190e565b61189d565b611799565b61177e565b6116f6565b611693565b61165e565b611629565b6115f4565b6115c0565b61155f565b61151a565b611259565b611224565b6111df565b6111aa565b611174565b61113e565b61110a565b6110d5565b61107c565b611043565b610faa565b610e35565b610ddd565b610da7565b610d71565b610d34565b610cf7565b610c3d565b610ae8565b610a81565b610992565b61095d565b610909565b61080a565b6105af565b610504565b61049a565b60e01c90565b60405190565b600080fd5b600080fd5b600080fd5b60018060a01b031690565b6103fb906103e7565b90565b610407816103f2565b0361040e57565b600080fd5b90503590610420826103fe565b565b90565b61042e81610422565b0361043557565b600080fd5b9050359061044782610425565b565b9190604083820312610472578061046661046f9260008601610413565b9360200161043a565b90565b6103dd565b61048090610422565b9052565b919061049890600060208501940190610477565b565b346104cb576104c76104b66104b0366004610449565b9061213c565b6104be6103d2565b91829182610484565b0390f35b6103d8565b91906040838203126104f957806104ed6104f6926000860161043a565b93602001610413565b90565b6103dd565b60000190565b346105335761051d6105173660046104d0565b9061223a565b6105256103d2565b8061052f816104fe565b0390f35b6103d8565b63ffffffff60e01b1690565b61054d81610538565b0361055457565b600080fd5b9050359061056682610544565b565b906020828203126105825761057f91600001610559565b90565b6103dd565b151590565b61059590610587565b9052565b91906105ad9060006020850194019061058c565b565b346105df576105db6105ca6105c5366004610568565b61238a565b6105d26103d2565b91829182610599565b0390f35b6103d8565b60009103126105ef57565b6103dd565b634e487b7160e01b600052600060045260246000fd5b634e487b7160e01b600052602260045260246000fd5b9060016002830492168015610640575b602083101461063b57565b61060a565b91607f1691610630565b60209181520190565b600052602060002090565b906000929180549061067961067283610620565b809461064a565b916001811690816000146106d25750600114610695575b505050565b6106a29192939450610653565b916000925b8184106106ba5750500190388080610690565b600181602092959395548486015201910192906106a7565b92949550505060ff1916825215156020020190388080610690565b906106f79161065e565b90565b601f801991011690565b634e487b7160e01b600052604160045260246000fd5b90610724906106fa565b810190811067ffffffffffffffff82111761073e57604052565b610704565b9061076361075c926107536103d2565b938480926106ed565b038361071a565b565b906000106107795761077690610743565b90565b6105f4565b61078b6004600090610765565b90565b5190565b60209181520190565b60005b8381106107af575050906000910152565b80602091830151818501520161079e565b6107df6107e86020936107ed936107d68161078e565b93848093610792565b9586910161079b565b6106fa565b0190565b61080791602082019160008184039101526107c0565b90565b3461083a5761081a3660046105e4565b61083661082561077e565b61082d6103d2565b918291826107f1565b0390f35b6103d8565b63ffffffff1690565b6108518161083f565b0361085857565b600080fd5b9050359061086a82610848565b565b90602082820312610886576108839160000161085d565b90565b6103dd565b90565b6108a261089d6108a79261083f565b61088b565b61083f565b90565b906108b49061088e565b600052602052604060002090565b1c90565b90565b6108d99060086108de93026108c2565b6108c6565b90565b906108ec91546108c9565b90565b610906906109016003916000926108aa565b6108e1565b90565b346109395761093561092461091f36600461086c565b6108ef565b61092c6103d2565b91829182610484565b0390f35b6103d8565b90602082820312610958576109559160000161043a565b90565b6103dd565b3461098d5761098961097861097336600461093e565b6123db565b6109806103d2565b918291826107f1565b0390f35b6103d8565b346109c2576109be6109ad6109a836600461093e565b612471565b6109b56103d2565b91829182610484565b0390f35b6103d8565b600080fd5b600080fd5b600080fd5b909182601f83011215610a105781359167ffffffffffffffff8311610a0b576020019260018302840111610a0657565b6109d1565b6109cc565b6109c7565b606081830312610a7c57610a2c8260008301610413565b92602082013567ffffffffffffffff8111610a775783610a4d9184016109d6565b929093604082013567ffffffffffffffff8111610a7257610a6e92016109d6565b9091565b6103e2565b6103e2565b6103dd565b34610ab557610ab1610aa0610a97366004610a15565b939290926125bb565b610aa86103d2565b91829182610484565b0390f35b6103d8565b9190604083820312610ae35780610ad7610ae0926000860161043a565b9360200161085d565b90565b6103dd565b34610b1757610b01610afb366004610aba565b906126f5565b610b096103d2565b80610b13816104fe565b0390f35b6103d8565b909182601f83011215610b565781359167ffffffffffffffff8311610b51576020019260208302840111610b4c57565b6109d1565b6109cc565b6109c7565b909182601f83011215610b955781359167ffffffffffffffff8311610b90576020019260018302840111610b8b57565b6109d1565b6109cc565b6109c7565b9160a083830312610c3857610bb28260008501610413565b92610bc08360208301610413565b92604082013567ffffffffffffffff8111610c335781610be1918401610b1c565b929093606082013567ffffffffffffffff8111610c2e5783610c04918401610b1c565b929093608082013567ffffffffffffffff8111610c2957610c259201610b5b565b9091565b6103e2565b6103e2565b6103e2565b6103dd565b34610c5c57610c4d366004610b9a565b9695909594919493929361280a565b6103d8565b60c081830312610cf257610c78826000830161085d565b92610c86836020840161043a565b92610c948160408501610413565b92610ca28260608301610413565b92608082013567ffffffffffffffff8111610ced5783610cc39184016109d6565b92909360a082013567ffffffffffffffff8111610ce857610ce492016109d6565b9091565b6103e2565b6103e2565b6103dd565b34610d2f57610d19610d0a366004610c61565b9695909594919493929361283b565b610d216103d2565b80610d2b816104fe565b0390f35b6103d8565b34610d6c57610d56610d47366004610c61565b9695909594919493929361294e565b610d5e6103d2565b80610d68816104fe565b0390f35b6103d8565b34610da257610d9e610d8d610d873660046104d0565b90612b76565b610d956103d2565b91829182610599565b0390f35b6103d8565b34610dd857610dd4610dc3610dbd366004610449565b90612d31565b610dcb6103d2565b91829182610599565b0390f35b6103d8565b34610e0d57610e09610df8610df336600461093e565b612d5b565b610e006103d2565b91829182610599565b0390f35b6103d8565b610e1b9061083f565b9052565b9190610e3390600060208501940190610e12565b565b34610e6557610e61610e50610e4b36600461093e565b61316e565b610e586103d2565b91829182610e1f565b0390f35b6103d8565b909182601f83011215610ea45781359167ffffffffffffffff8311610e9f576020019260208302840111610e9a57565b6109d1565b6109cc565b6109c7565b9091604082840312610f0457600082013567ffffffffffffffff8111610eff5783610ed5918401610e6a565b929093602082013567ffffffffffffffff8111610efa57610ef69201610b1c565b9091565b6103e2565b6103e2565b6103dd565b5190565b60209181520190565b60200190565b610f2590610422565b9052565b90610f3681602093610f1c565b0190565b60200190565b90610f5d610f57610f5084610f09565b8093610f0d565b92610f16565b9060005b818110610f6e5750505090565b909192610f87610f816001928651610f29565b94610f3a565b9101919091610f61565b610fa79160208201916000818403910152610f40565b90565b34610fde57610fda610fc9610fc0366004610ea9565b929190916135ac565b610fd16103d2565b91829182610f91565b0390f35b6103d8565b909160408284031261103e57600082013567ffffffffffffffff8111611039578361100f918401610b1c565b929093602082013567ffffffffffffffff8111611034576110309201610e6a565b9091565b6103e2565b6103e2565b6103dd565b3461107757611073611062611059366004610fe3565b929190916136a2565b61106a6103d2565b91829182610599565b0390f35b6103d8565b346110ad576110a9611098611092366004610449565b90613791565b6110a06103d2565b91829182610599565b0390f35b6103d8565b6110bb906103f2565b9052565b91906110d3906000602085019401906110b2565b565b34611105576111016110f06110eb36600461093e565b613910565b6110f86103d2565b918291826110bf565b0390f35b6103d8565b346111395761112361111d3660046104d0565b90613932565b61112b6103d2565b80611135816104fe565b0390f35b6103d8565b3461116f5761116b61115a611154366004610aba565b90613a3d565b6111626103d2565b91829182610484565b0390f35b6103d8565b346111a5576111a161119061118a3660046104d0565b90613ae4565b6111986103d2565b91829182610599565b0390f35b6103d8565b346111da576111d66111c56111c036600461093e565b613d6a565b6111cd6103d2565b91829182610599565b0390f35b6103d8565b3461120f5761120b6111fa6111f536600461093e565b613e37565b6112026103d2565b91829182610e1f565b0390f35b6103d8565b6112216006600090610765565b90565b34611254576112343660046105e4565b61125061123f611214565b6112476103d2565b918291826107f1565b0390f35b6103d8565b346112875761127161126c36600461093e565b613f0d565b6112796103d2565b80611283816104fe565b0390f35b6103d8565b909182601f830112156112c65781359167ffffffffffffffff83116112c15760200192602083028401116112bc57565b6109d1565b6109cc565b6109c7565b909182601f830112156113055781359167ffffffffffffffff83116113005760200192602083028401116112fb57565b6109d1565b6109cc565b6109c7565b9061131d6113166103d2565b928361071a565b565b67ffffffffffffffff81116113375760208091020190565b610704565b9092919261135161134c8261131f565b61130a565b938185526020808601920283019281841161138e57915b8383106113755750505050565b602080916113838486610413565b815201920191611368565b6109d1565b9080601f830112156113b1578160206113ae9335910161133c565b90565b6109c7565b909182601f830112156113f05781359167ffffffffffffffff83116113eb5760200192602083028401116113e657565b6109d1565b6109cc565b6109c7565b91909160e08184031261151557600081013567ffffffffffffffff81116115105783611422918301610b1c565b929093602083013567ffffffffffffffff811161150b578161144591850161128c565b929093604081013567ffffffffffffffff811161150657836114689183016112cb565b929093606083013567ffffffffffffffff8111611501578161148b918501611393565b92608081013567ffffffffffffffff81116114fc57826114ac918301611393565b9260a082013567ffffffffffffffff81116114f757836114cd9184016113b6565b92909360c082013567ffffffffffffffff81116114f2576114ee920161128c565b9091565b6103e2565b6103e2565b6103e2565b6103e2565b6103e2565b6103e2565b6103e2565b6103dd565b3461155a576115566115456115303660046113f5565b9a9990999891989792979693969594956140c3565b61154d6103d2565b91829182610599565b0390f35b6103d8565b3461158d5761157761157236600461093e565b6142fc565b61157f6103d2565b80611589816104fe565b0390f35b6103d8565b91906040838203126115bb57806115af6115b8926000860161085d565b93602001610413565b90565b6103dd565b346115ef576115d96115d3366004611592565b906143df565b6115e16103d2565b806115eb816104fe565b0390f35b6103d8565b346116245761162061160f61160a36600461093e565b614502565b6116176103d2565b91829182610599565b0390f35b6103d8565b346116595761165561164461163f36600461093e565b61452b565b61164c6103d2565b918291826110bf565b0390f35b6103d8565b3461168e5761168a61167961167436600461093e565b614569565b6116816103d2565b91829182610e1f565b0390f35b6103d8565b346116c3576116bf6116ae6116a936600461086c565b6145a0565b6116b66103d2565b91829182610e1f565b0390f35b6103d8565b91906040838203126116f157806116e56116ee926000860161085d565b9360200161043a565b90565b6103dd565b346117275761172361171261170c3660046116c8565b906145f1565b61171a6103d2565b91829182610599565b0390f35b6103d8565b61173581610587565b0361173c57565b600080fd5b9050359061174e8261172c565b565b9190604083820312611779578061176d6117769260008601610413565b93602001611741565b90565b6103dd565b346117945761178e366004611750565b90614629565b6103d8565b346117ca576117c66117b56117af3660046116c8565b9061462e565b6117bd6103d2565b91829182610599565b0390f35b6103d8565b6117e36117de6117e892610422565b61088b565b610422565b90565b906117f5906117cf565b600052602052604060002090565b61181761181261181c926103e7565b61088b565b6103e7565b90565b61182890611803565b90565b6118349061181f565b90565b906118419061182b565b600052602052604060002090565b60ff1690565b61186590600861186a93026108c2565b61184f565b90565b906118789154611855565b90565b61189561189a926118906008936000946117eb565b611837565b61186d565b90565b346118ce576118ca6118b96118b33660046104d0565b9061187b565b6118c16103d2565b91829182610599565b0390f35b6103d8565b9091606082840312611909576119066118ef846000850161043a565b936118fd8160208601610413565b93604001610413565b90565b6103dd565b3461193d576119276119213660046118d3565b91614738565b61192f6103d2565b80611939816104fe565b0390f35b6103d8565b60808183031261198457611959826000830161043a565b9261198161196a8460208501610413565b936119788160408601611741565b93606001611741565b90565b6103dd565b346119bd576119b96119a861199f366004611942565b9291909161496b565b6119b06103d2565b91829182610599565b0390f35b6103d8565b909160e082840312611a63576119db836000840161043a565b92602083013567ffffffffffffffff8111611a5e57816119fc9185016109d6565b929093611a0c836040830161085d565b92611a1a8160608401610413565b92611a288260808501610413565b92611a368360a08301611741565b9260c082013567ffffffffffffffff8111611a5957611a5592016109d6565b9091565b6103e2565b6103e2565b6103dd565b34611aa257611a9e611a8d611a7e3660046119c2565b97969096959195949294614a57565b611a956103d2565b91829182610484565b0390f35b6103d8565b34611ad857611ad4611ac3611abd366004610449565b90614bcf565b611acb6103d2565b91829182610599565b0390f35b6103d8565b9190604083820312611b065780611afa611b03926000860161043a565b93602001611741565b90565b6103dd565b34611b3c57611b38611b27611b21366004611add565b90614d60565b611b2f6103d2565b91829182610599565b0390f35b6103d8565b611b5890611b536002916000926108aa565b6108e1565b90565b34611b8b57611b87611b76611b7136600461086c565b611b41565b611b7e6103d2565b91829182610484565b0390f35b6103d8565b34611bbf57611ba9611ba33660046116c8565b90614df4565b611bb16103d2565b80611bbb816104fe565b0390f35b6103d8565b34611bf457611bf0611bdf611bda36600461093e565b614e69565b611be76103d2565b91829182610599565b0390f35b6103d8565b61ffff1690565b611c0990611bf9565b9052565b61010096611c738297611c69611c95989b9e9d9b611c5f611c9c9e99611c55611c8b9a6020611c4d611c809c6101208d01908d60008184039101526107c0565b9a0190610e12565b60408d0190610e12565b60608b01906110b2565b60808901906110b2565b86820360a08801526107c0565b9860c0850190611c00565b60e083019061058c565b019061058c565b565b34611cd857611cd4611cb9611cb436600461093e565b614edf565b95611ccb9997999591959492946103d2565b998a998a611c0d565b0390f35b6103d8565b34611d0e57611d0a611cf9611cf3366004610449565b90614fb3565b611d016103d2565b91829182610599565b0390f35b6103d8565b919091604081840312611d5557611d2d836000830161043a565b92602082013567ffffffffffffffff8111611d5057611d4c92016109d6565b9091565b6103e2565b6103dd565b34611d8957611d73611d6d366004611d13565b916151e8565b611d7b6103d2565b80611d85816104fe565b0390f35b6103d8565b34611dbf57611dbb611daa611da4366004610aba565b9061531d565b611db26103d2565b91829182610484565b0390f35b6103d8565b34611df457611df0611ddf611dda36600461093e565b615368565b611de76103d2565b918291826107f1565b0390f35b6103d8565b9190604083820312611e225780611e16611e1f9260008601610413565b93602001610413565b90565b6103dd565b90611e319061182b565b600052602052604060002090565b611e59611e5e92611e54600193600094611e27565b611837565b61186d565b90565b34611e9257611e8e611e7d611e77366004611df9565b90611e3f565b611e856103d2565b91829182610599565b0390f35b6103d8565b91909160a081840312611f0357611eb18360008301610413565b92611ebf8160208401610413565b92611ecd826040850161043a565b92611edb836060830161043a565b92608082013567ffffffffffffffff8111611efe57611efa9201610b5b565b9091565b6103e2565b6103dd565b34611f2457611f18366004611e97565b9493909392919261550a565b6103d8565b34611f5857611f42611f3c366004611d13565b9161550f565b611f4a6103d2565b80611f54816104fe565b0390f35b6103d8565b611f6681611bf9565b03611f6d57565b600080fd5b90503590611f7f82611f5d565b565b9190604083820312611faa5780611f9e611fa7926000860161043a565b93602001611f72565b90565b6103dd565b34611fe057611fdc611fcb611fc5366004611f81565b90615673565b611fd36103d2565b91829182610484565b0390f35b6103d8565b3461201557612011612000611ffb36600461093e565b615777565b6120086103d2565b91829182610e1f565b0390f35b6103d8565b3461204a5761204661203561203036600461093e565b6157bf565b61203d6103d2565b91829182610e1f565b0390f35b6103d8565b63ffffffff1690565b61206890600861206d93026108c2565b61204f565b90565b9061207b9154612058565b90565b61208b6005600090612070565b90565b346120be5761209e3660046105e4565b6120ba6120a961207e565b6120b16103d2565b91829182610e1f565b0390f35b6103d8565b346120f3576120ef6120de6120d936600461093e565b615874565b6120e66103d2565b91829182610599565b0390f35b6103d8565b600080fd5b600090565b9061210c906117cf565b600052602052604060002090565b90565b90565b61213461212f6121399261211d565b61088b565b610422565b90565b91906121466120fd565b5061215b61215660078390612102565b61211a565b926121666000612120565b9361217281849061592d565b9081612196575b50612183575b5050565b61218e929350615bee565b90388061217f565b6121a4915082908491615a3a565b38612179565b6121be6121b96121c39261211d565b61088b565b6103e7565b90565b6121cf906121aa565b90565b60001b90565b906121e960018060a01b03916121d2565b9181191691161790565b90565b9061220b6122066122129261182b565b6121f3565b82546121d8565b9055565b91602061223892949361223160408201966000830190610477565b01906110b2565b565b8161225661225061224b60006121c6565b6103f2565b916103f2565b1461231e5761226481615c16565b61227861227360078390612102565b61211a565b61228a61228482615c73565b15610587565b6122fb578061229d6122ae928490615ccd565b906122ea575b5060018491016121f6565b907ff68bc34e5f23b18f8e3a63ff51c021c8fbc9266113a63a4c73a66b4ad9033638916122e56122dc6103d2565b92839283612216565b0390a1565b6122f49084615e14565b50386122a3565b6123036103d2565b635dbbc87360e11b81528061231a600482016104fe565b0390fd5b6123266103d2565b63d92e233d60e01b81528061233d600482016104fe565b0390fd5b600090565b90565b60e01b90565b61236361235e61236892612346565b612349565b610538565b90565b90565b61238261237d6123879261236b565b612349565b610538565b90565b612392612341565b50806123aa6123a46301ffc9a761234f565b91610538565b149081156123b7575b5090565b90506123cf6123c9630e89341c61236e565b91610538565b14386123b3565b606090565b6123ed906123e76123d6565b5061655c565b90565b61ffff1690565b612403612408916103cc565b6123f0565b90565b61241590546123f7565b90565b90565b61242f61242a61243492612418565b61088b565b611bf9565b90565b634e487b7160e01b600052601160045260246000fd5b61245961245f91611bf9565b91611bf9565b019061ffff821161246c57565b612437565b6124ae9061247d6120fd565b506124a8612498600061249260078590612102565b0161240b565b6124a2600161241b565b9061244d565b90615673565b90565b60001c90565b6124c36124c8916124b1565b61204f565b90565b6124d590546124b7565b90565b6124e19061083f565b63ffffffff81146124f25760010190565b612437565b9061250663ffffffff916121d2565b9181191691161790565b90565b9061252861252361252f9261088e565b612510565b82546124f7565b9055565b61254761254261254c9261083f565b61088b565b610422565b90565b90565b60ff1690565b61256c6125676125719261254f565b61088b565b612552565b90565b1b90565b6125979061259161258b61259c94612552565b91610422565b90612574565b610422565b90565b6125b36125ae6125b892612418565b61088b565b61083f565b90565b919493906126389161263f946125cf6120fd565b506126086125f86125e86125e360056124cb565b6124d8565b6125f3816005612513565b612533565b61260260e0612558565b90612578565b9788939060019461261960006121c6565b9161262460006121c6565b93612632600096979861259f565b926167e9565b8390616918565b565b60c01c90565b61265361265891612641565b61204f565b90565b6126659054612647565b90565b60a01c90565b61267a61267f91612668565b61204f565b90565b61268c905461266e565b90565b60a01b90565b906126a763ffffffff60a01b9161268f565b9181191691161790565b906126c66126c16126cd9261088e565b612510565b8254612695565b9055565b9160206126f39294936126ec60408201966000830190610477565b0190610e12565b565b6126fe81615c16565b61271261270d60078390612102565b61211a565b61272461271e82615c73565b15610587565b6127e7578261274661274061273b6000850161265b565b61083f565b9161083f565b106127c4578261276961276361275e60008501612682565b61083f565b9161083f565b03612774575b505050565b6127829060008491016126b1565b907fb1141d53812d55ffe5a4ca05e686728ebe52d8e4fc66057d6e54724c01a77f56916127b96127b06103d2565b928392836126d1565b0390a138808061276f565b6127cc6103d2565b63d2955d3b60e01b8152806127e3600482016104fe565b0390fd5b6127ef6103d2565b635dbbc87360e11b815280612806600482016104fe565b0390fd5b600080fd5b90565b61282661282161282b9261280f565b61088b565b610422565b90565b612838600e612812565b90565b916128be9795939196949261286a61286561285583612533565b61285f60e0612558565b90612578565b615c16565b612873886157bf565b61288c61288661288161282e565b610422565b91612533565b106000146128c0576128b06128ab896128a5600161241b565b90615673565b615c16565b5b9690919293949596616a58565b565b6128c9886169d1565b6128b1565b6128da6128df916124b1565b6108c6565b90565b6128ec90546128ce565b90565b9190600861290b91029161290560001984612574565b92612574565b9181191691161790565b90565b919061292e612929612936936117cf565b612915565b9083546128ef565b9055565b61294c916129466120fd565b91612918565b565b9694929095939161295e876157bf565b61297761297161296c61282e565b610422565b91612533565b10600014612a135761299b61299688612990600161241b565b90615673565b615c16565b5b866129c26129bc6129b76129b260028d906108aa565b6128e2565b610422565b91610422565b036129f0576129ee976129e160006129dc600284906108aa565b61293a565b9690919293949596616a58565b565b6129f86103d2565b635e598f5160e11b815280612a0f600482016104fe565b0390fd5b612a1c876169d1565b61299c565b60018060a01b031690565b612a38612a3d916124b1565b612a21565b90565b612a4a9054612a2c565b90565b916020612a6f929493612a68604082019660008301906110b2565b0190610477565b565b67ffffffffffffffff8111612a8f57612a8b6020916106fa565b0190565b610704565b90612aa6612aa183612a71565b61130a565b918252565b606090565b3d600014612acd57612ac13d612a94565b903d6000602084013e5b565b612ad5612aab565b90612acb565b5190565b90565b612af6612af1612afb92612adf565b61088b565b610422565b90565b90505190612b0b82610425565b565b9190604083820312612b365780612b2a612b339260008601612afe565b93602001612afe565b90565b6103dd565b90565b612b52612b4d612b5792612b3b565b61088b565b610422565b90565b612b6e612b69612b7392612418565b61088b565b610422565b90565b90612b7f612341565b50612b88612341565b50612b91612341565b50600080612bab81612ba560078790612102565b01612a40565b83612be48691612bd5612bbc6103d2565b938492600460208501635eb41c3960e11b815201612a4d565b6020820181038252038261071a565b602081019051915afa612bf5612ab0565b9080612d0e575b600014612ceb57612c1d906020612c1282612adb565b818301019101612b0d565b9281612c32612c2c6002612b3e565b91610422565b1080612cd0575b600014612cad57612c8093612c57612c516001612b5a565b91610422565b14600014612ca65760015b91829081612c8a575b50600014612c835760015b9092909192616f60565b90565b6000612c76565b9050612c9f612c996001612b5a565b91610422565b1438612c6b565b6000612c62565b612cb56103d2565b6345ebc5ad60e11b815280612ccc600482016104fe565b0390fd5b5083612ce5612cdf6002612b3e565b91610422565b10612c39565b612cf36103d2565b6345ebc5ad60e11b815280612d0a600482016104fe565b0390fd5b50612d1881612adb565b612d2b612d256040612ae2565b91610422565b14612bfc565b90612d4491612d3e612341565b5061213c565b612d57612d516000612120565b91610422565b1190565b612d63612341565b50612d6d81615874565b9081612d78575b5090565b612d979150612d9290612d8c600391614569565b906108aa565b6128e2565b612daa612da46000612120565b91610422565b1438612d74565b600090565b60018060e01b031690565b612dd5612dd0612dda92612db6565b61088b565b610422565b90565b612df1612dec612df69261211d565b61088b565b61083f565b90565b60018060d01b031690565b612e18612e13612e1d92612df9565b61088b565b610422565b90565b60018060c01b031690565b612e3f612e3a612e4492612e20565b61088b565b610422565b90565b612e5b612e56612e6092612b3b565b61088b565b61083f565b90565b60018060b01b031690565b612e82612e7d612e8792612e63565b61088b565b610422565b90565b90565b612ea1612e9c612ea692612e8a565b61088b565b61083f565b90565b612ebd612eb8612ec2926103e7565b61088b565b610422565b90565b90565b612edc612ed7612ee192612ec5565b61088b565b61083f565b90565b71ffffffffffffffffffffffffffffffffffff1690565b612f0f612f0a612f1492612ee4565b61088b565b610422565b90565b90565b612f2e612f29612f3392612f17565b61088b565b61083f565b90565b6fffffffffffffffffffffffffffffffff1690565b612f5f612f5a612f6492612f36565b61088b565b610422565b90565b90565b612f7e612f79612f8392612f67565b61088b565b61083f565b90565b6dffffffffffffffffffffffffffff1690565b612fad612fa8612fb292612f86565b61088b565b610422565b90565b90565b612fcc612fc7612fd192612fb5565b61088b565b61083f565b90565b6bffffffffffffffffffffffff1690565b612ff9612ff4612ffe92612fd4565b61088b565b610422565b90565b90565b61301861301361301d92613001565b61088b565b61083f565b90565b69ffffffffffffffffffff1690565b61304361303e61304892613020565b61088b565b610422565b90565b90565b61306261305d6130679261304b565b61088b565b61083f565b90565b67ffffffffffffffff1690565b61308b6130866130909261306a565b61088b565b610422565b90565b90565b6130aa6130a56130af92613093565b61088b565b61083f565b90565b65ffffffffffff1690565b6130d16130cc6130d6926130b2565b61088b565b610422565b90565b90565b6130f06130eb6130f5926130d9565b61088b565b61083f565b90565b90565b61310f61310a613114926130f8565b61088b565b61083f565b90565b61312b61312661313092611bf9565b61088b565b610422565b90565b90565b61314a61314561314f92613133565b61088b565b61083f565b90565b61316661316161316b9261280f565b61088b565b61083f565b90565b613176612db1565b508061318760018060e01b03612dc1565b1661319b6131956000612120565b91610422565b1461349a57806131b060018060d01b03612e04565b166131c46131be6000612120565b91610422565b1461348c57806131d960018060c01b03612e2b565b166131ed6131e76000612120565b91610422565b1461347e578061320260018060b01b03612e6e565b166132166132106000612120565b91610422565b14613470578061322b60018060a01b03612ea9565b1661323f6132396000612120565b91610422565b14613462578061326071ffffffffffffffffffffffffffffffffffff612efb565b1661327461326e6000612120565b91610422565b1461345457806132936fffffffffffffffffffffffffffffffff612f4b565b166132a76132a16000612120565b91610422565b1461344657806132c46dffffffffffffffffffffffffffff612f99565b166132d86132d26000612120565b91610422565b1461343857806132f36bffffffffffffffffffffffff612fe5565b166133076133016000612120565b91610422565b1461342a578061332069ffffffffffffffffffff61302f565b1661333461332e6000612120565b91610422565b1461341c578061334b67ffffffffffffffff613077565b1661335f6133596000612120565b91610422565b1461340e578061337465ffffffffffff6130bd565b166133886133826000612120565b91610422565b14613400578061339b63ffffffff612533565b166133af6133a96000612120565b91610422565b146133f2576133bf61ffff613117565b166133d36133cd6000612120565b91610422565b146133e5576133e2600e613152565b90565b6133ef600d613136565b90565b506133fd600c6130fb565b90565b5061340b600b6130dc565b90565b50613419600a613096565b90565b50613427600961304e565b90565b506134356008613004565b90565b506134436007612fb8565b90565b506134516006612f6a565b90565b5061345f6005612f1a565b90565b5061346d6004612ec8565b90565b5061347b6003612e8d565b90565b506134896002612e47565b90565b50613497600161259f565b90565b506134a56000612ddd565b90565b606090565b5090565b5090565b67ffffffffffffffff81116134cd5760208091020190565b610704565b906134e46134df836134b5565b61130a565b918252565b369037565b906135136134fb836134d2565b9260208061350986936134b5565b92019103906134e9565b565b60016135219101610422565b90565b634e487b7160e01b600052603260045260246000fd5b919081101561354a576020020190565b613524565b35613559816103fe565b90565b919081101561356c576020020190565b613524565b3561357b81610425565b90565b9061358882610f09565b811015613599576020809102010190565b613524565b906135a890610422565b9052565b9392906135b76134a8565b506135c38582906134ad565b6135df6135d96135d48686906134b1565b610422565b91610422565b0361367f576135f76135f28683906134ad565b6134ee565b946136006120fd565b5b8061361e6136186136138587906134ad565b610422565b91610422565b1015613678576136739061366e61365c61364261363d8688869161353a565b61354f565b6136566136518a8a879161355c565b613571565b9061213c565b6136698a9184909261357e565b61359e565b613515565b613601565b5050505050565b6136876103d2565b63fc5221bd60e01b81528061369e600482016104fe565b0390fd5b939291936136ae612341565b506136ba8183906134b1565b93846136d86136d26136cd8988906134ad565b610422565b91610422565b0361374d576136e76000612120565b5b806136fb6136f588610422565b91610422565b10156137415761373c9061373661371c6137178688859161355c565b613571565b61373061372b8b8a869161353a565b61354f565b90613ae4565b50613515565b6136e8565b50945050505050600190565b6137556103d2565b63fc5221bd60e01b81528061376c600482016104fe565b0390fd5b61377c613781916124b1565b61184f565b90565b61378e9054613770565b90565b613799612341565b506000806137b3816137ad60078790612102565b01612a40565b836137ec86916137dd6137c46103d2565b938492600460208501635eb41c3960e11b815201612a4d565b6020820181038252038261071a565b602081019051915afa6137fd612ab0565b90806138e8575b6000146138bc5761382590602061381a82612adb565b818301019101612b0d565b929061383a6138346002612b3e565b91610422565b10806138a1575b60001461387457505061385d6138576001612b5a565b91610422565b1460001461386d5760015b905b5b565b6000613868565b61389b92506138959161388b6138909260086117eb565b611837565b613784565b15610587565b9061386a565b50826138b66138b06002612b3e565b91610422565b10613841565b506138d76138dc916138d26138e29460086117eb565b611837565b613784565b15610587565b9061386b565b506138f281612adb565b6139056138ff6040612ae2565b91610422565b14613804565b600090565b600161392961392f9261392161390b565b506007612102565b01612a40565b90565b8161394e61394861394360006121c6565b6103f2565b916103f2565b146139f35761395c81615c16565b61397061396b60078390612102565b61211a565b61398261397c82615c73565b15610587565b6139d0576139949060008491016121f6565b907f5f59e4feecec6992840f6f7c313415b21889d4445ea82fefd7f620aeb194461d916139cb6139c26103d2565b92839283612216565b0390a1565b6139d86103d2565b635dbbc87360e11b8152806139ef600482016104fe565b0390fd5b6139fb6103d2565b63d92e233d60e01b815280613a12600482016104fe565b0390fd5b613a22613a289161083f565b9161083f565b90039063ffffffff8211613a3857565b612437565b90613a466120fd565b50613a63613a5e6003613a5885614569565b906108aa565b6128e2565b80613a77613a716000612120565b91610422565b14613ad757613a98613a9384613a8d6000612ddd565b9061531d565b6157bf565b80613aab613aa58561083f565b9161083f565b1115613abf5750613abc9250613a3d565b90565b613ace9150613ad49392613a16565b9061531d565b90565b50613ae19161531d565b90565b90613aed612341565b50613b02613afd60078490612102565b61211a565b613b0e60008201612682565b613b21613b1b6000612ddd565b9161083f565b14613c5057613b3a613b34838590614fb3565b15610587565b613c2d57613b52613b4c82859061592d565b15610587565b613c0a57613b5f83615c16565b613b87613b81613b7c6000613b7581860161265b565b9401612682565b61083f565b9161083f565b1015613be457613b9881839061707b565b613bab613ba56000612120565b91610422565b11613bbf5790613bba91616918565b600190565b613be0613bca6103d2565b92839263643d208360e01b845260048401612a4d565b0390fd5b613c0682613bf06103d2565b91829163019b2d5760e31b835260048301610484565b0390fd5b613c126103d2565b63e629aba360e01b815280613c29600482016104fe565b0390fd5b613c356103d2565b637c75aa6f60e11b815280613c4c600482016104fe565b0390fd5b613c7283613c5c6103d2565b918291632b88c60560e21b835260048301610484565b0390fd5b90565b613c8d613c88613c9292613c76565b61088b565b610422565b90565b613c9f6010613c79565b90565b613cb1613cb791939293610422565b92610422565b8203918211613cc257565b612437565b613cd6613cdc91939293610422565b92610422565b91613ce8838202610422565b928184041490151715613cf757565b612437565b613d1b90613d15613d0f613d2094610422565b91610422565b906108c2565b610422565b90565b613d37613d32613d3c92610422565b61088b565b611bf9565b90565b613d53613d4e613d589261211d565b61088b565b611bf9565b90565b6001613d679103610422565b90565b613d72612341565b50613d7c81615874565b613e3157613dad613da8613d8f8361316e565b613d976120fd565b50613da2600161259f565b90613a16565b612533565b5b80613dc2613dbc6000612120565b91610422565b1115613e2a57613dfd613df883613df2613dda613c95565b613dec613de561282e565b8790613ca2565b90613cc7565b90613cfc565b613d23565b613e10613e0a6000613d3f565b91611bf9565b14613e2357613e1e90613d5b565b613dae565b5050600090565b5050600190565b50600190565b6000613e50613e5692613e48612db1565b506007612102565b0161265b565b90565b90565b613e70613e6b613e7592613e59565b61088b565b612fd4565b90565b6bffffffffffffffffffffffff1690565b613e95613e9a91612668565b613e78565b90565b613ea79054613e89565b90565b90613ec46bffffffffffffffffffffffff60a01b9161268f565b9181191691161790565b613ee2613edd613ee792612fd4565b61088b565b612fd4565b90565b90565b90613f02613efd613f0992613ece565b613eea565b8254613eaa565b9055565b613f1681615c16565b613f2a613f2560078390612102565b61211a565b613f3c613f3682615c73565b15610587565b613fa957613f6e906001613f5b613f5582605e1b613e5c565b19612fd4565b910190613f6782613e9d565b1690613eed565b613fa47f10bb2a0010ffb3a037a886128a37f6574be73acb0ee505c37a4f12e8d290ed8e91613f9b6103d2565b91829182610484565b0390a1565b613fb16103d2565b635dbbc87360e11b815280613fc8600482016104fe565b0390fd5b5090565b5090565b5190565b5090565b600080fd5b600080fd5b600080fd5b90359060016020038136030382121561402d570180359067ffffffffffffffff82116140285760200191600182023603831361402357565b613fe6565b613fe1565b613fdc565b9082101561404d5760206140499202810190613feb565b9091565b613524565b9190811015614062576020020190565b613524565b3561407181610848565b90565b9061407e82613fd4565b81101561408f576020809102010190565b613524565b61409e90516103f2565b90565b91908110156140b1576020020190565b613524565b356140c08161172c565b90565b9199989b9a9490929360c0526080526140da612341565b506140e68183906134b1565b60a05260a0516141086141026140fd8c8790613fcc565b610422565b91610422565b14806142d2575b806142ae575b8061428a575b80614264575b80614239575b6141319015610587565b6142165761413f6000612120565b5b8061415561414f60a051610422565b91610422565b101561420557806141fa8d8c8c8c8c8c6141e46141f28e6141e98f8f908f9e6142009f61418b614199946141909290849161355c565b613571565b9b919091614032565b94909a8d6141db6141d66141ce6141c96141c16141bc60c0516080518891614052565b614067565b9b8590614074565b614094565b9a8390614074565b614094565b999190916140a1565b6140b6565b96908b91614032565b979096614a57565b50613515565b614140565b505050505050505050509050600190565b61421e6103d2565b63fc5221bd60e01b815280614235600482016104fe565b0390fd5b5061413160a05161425c6142566142518c8990613fcc565b610422565b91610422565b149050614127565b508a61428461427e61427960a051938b613fd8565b610422565b91610422565b14614121565b5060a0516142a86142a261429d89613fd4565b610422565b91610422565b1461411b565b5060a0516142cc6142c66142c188613fd4565b610422565b91610422565b14614115565b5060a0516142f66142f06142eb60c05160805190613fd0565b610422565b91610422565b1461410f565b61430733829061707b565b61431a6143146001612b5a565b91610422565b1061432b5761432990336170a3565b565b6143336103d2565b63ae9f0ba560e01b81528061434a600482016104fe565b0390fd5b9190600861436e91029161436860018060a01b0384612574565b92612574565b9181191691161790565b919061438e6143896143969361182b565b6121f3565b90835461434e565b9055565b6143ac916143a661390b565b91614378565b565b6143b790612120565b9052565b9160206143dd9294936143d660408201966000830190610e12565b01906143ae565b565b906143fc6143ec83612533565b6143f660e0612558565b90612578565b9061440682615c16565b8061442261441c61441760006121c6565b6103f2565b916103f2565b149081156144e6575b506144c3576000600161447461446f614486946144538561444e60038a906108aa565b61293a565b6144688561446360028a906108aa565b61293a565b6007612102565b61211a565b6144808380830161439a565b0161439a565b60007fd89812e6ebd66026da23b9c10923f8ec2d47c2f4bea260250e66d05ab76f6b89916144be6144b56103d2565b928392836143bb565b0390a1565b6144cb6103d2565b6314c1a0e360e31b8152806144e2600482016104fe565b0390fd5b6144fc91506144f6908390612d31565b15610587565b3861442b565b6145289061450e612341565b5061452361451e60078390612102565b61211a565b61592d565b90565b600061454461454a9261453c61390b565b506007612102565b01612a40565b90565b61456161455c61456692610422565b61088b565b61083f565b90565b61459861459d91614578612db1565b50614592614584613c95565b61458c61282e565b90613cc7565b90613cfc565b61454d565b90565b6145a8612db1565b506145bd6145b8600383906108aa565b6128e2565b90816145d26145cc6000612120565b91610422565b146145ec57506145e46145e991614569565b6145a0565b90565b905090565b61461f61461a61461561460f61462594614609612341565b506145a0565b94614569565b6145a0565b61083f565b9161083f565b1490565b600080fd5b90614637612341565b508061464c6146466000612120565b91610422565b146146995761465a90614569565b908061466e6146688461083f565b9161083f565b146146925761468961468461468f9360036108aa565b6128e2565b9061462e565b90565b5050600090565b5050600190565b906146aa9061182b565b600052602052604060002090565b906146c2906117cf565b600052602052604060002090565b906146dd600019916121d2565b9181191691161790565b906146fc6146f7614703926117cf565b612915565b82546146d0565b9055565b61471090612b5a565b9052565b91602061473692949361472f60408201966000830190610477565b0190614707565b565b909161474382615c16565b61475561474f83612d5b565b15610587565b61491e575b61476583839061707b565b6147786147726001612b5a565b91610422565b106148fb5761478881839061707b565b61479b6147956000612120565b91610422565b116148d6576147b46147ae828490614fb3565b15610587565b6148b3576147df6147d96147ca60078590612102565b6147d4859161211a565b61592d565b15610587565b6148905761480b6147f06000612120565b6148066147ff600087906146a0565b85906146b8565b6146e7565b6148336148186001612b5a565b61482e614827600085906146a0565b85906146b8565b6146e7565b3392909192600161487661487061486a7fc3d58168c5ae7397731d063d5bbf3d657854427343f4c083240f7aacaa2d0f629461182b565b9461182b565b9461182b565b9461488b6148826103d2565b92839283614714565b0390a4565b6148986103d2565b63e629aba360e01b8152806148af600482016104fe565b0390fd5b6148bb6103d2565b637c75aa6f60e11b8152806148d2600482016104fe565b0390fd5b6148f76148e16103d2565b92839263643d208360e01b845260048401612a4d565b0390fd5b6149036103d2565b63ae9f0ba560e01b81528061491a600482016104fe565b0390fd5b61494361493d61493861493360078690612102565b61211a565b615c73565b15610587565b1561475a576149506103d2565b635dbbc87360e11b815280614967600482016104fe565b0390fd5b929091614976612341565b5061498b61498660078690612102565b61211a565b6149a96149a361499e6000339401612a40565b6103f2565b916103f2565b036149be576149bb9392909192616f60565b90565b6149c66103d2565b6345ebc5ad60e11b8152806149dd600482016104fe565b0390fd5b6149ea90611bf9565b61ffff81146149f95760010190565b612437565b90614a0e61ffff60e01b91612349565b9181191691161790565b614a2c614a27614a3192611bf9565b61088b565b611bf9565b90565b90565b90614a4c614a47614a5392614a18565b614a34565b82546149fe565b9055565b939495969897909198614a686120fd565b50614a7285613d23565b614a85614a7f6000613d3f565b91611bf9565b11614b9d5785614aa6614aa0614a9b60006121c6565b6103f2565b916103f2565b14614b7a5786614ac7614ac1614abc60006121c6565b6103f2565b916103f2565b14614b5757614ade614ad886613d6a565b15610587565b614b3457614b3297600097614b1a97614b1396614afa89612471565b9d8e614b0581615c16565b9790919293949596976167e9565b6007612102565b01614b2c614b278261240b565b6149e1565b90614a37565b565b614b3c6103d2565b630b43a06560e41b815280614b53600482016104fe565b0390fd5b614b5f6103d2565b63d92e233d60e01b815280614b76600482016104fe565b0390fd5b614b826103d2565b63d92e233d60e01b815280614b99600482016104fe565b0390fd5b614ba56103d2565b630f9244b960e31b815280614bbc600482016104fe565b0390fd5b6001614bcc910361083f565b90565b90614bd8612341565b50614be16120fd565b50614bea612db1565b50614bf481615874565b600014614d3f57614c17614c126003614c0c84614569565b906108aa565b6128e2565b9182614c2c614c266000612120565b91610422565b14600014614c4157614c3e9250612d31565b90565b9050614c4e818390612d31565b600014614c5c575050600190565b614c658261316e565b9190915b5b80614c7e614c786000612ddd565b9161083f565b1115614cb357614c9983614c9384849061531d565b90612d31565b614cab57614ca690614bc0565b614c6a565b505050600190565b50614cd282614ccc83614cc66000612ddd565b9061531d565b90612d31565b614d3857614cee614cf391614ce8600391614569565b906108aa565b6128e2565b80614d07614d016000612120565b91610422565b14600014614d16575050600090565b614d21828290612d31565b614d3157614d2e91614bcf565b90565b5050600190565b5050600190565b614d5b614d4b8261316e565b614d55600161259f565b90613a16565b614c69565b90614d69612341565b50614d7e614d7960078490612102565b61211a565b614d9c614d96614d916001339401612a40565b6103f2565b916103f2565b03614dad57614daa91615e14565b90565b614db56103d2565b63eaca8b6560e01b815280614dcc600482016104fe565b0390fd5b916020614df2929493614deb60408201966000830190610e12565b0190610477565b565b614e18614e13614e0383612533565b614e0d60e0612558565b90612578565b615c16565b614e2d82614e28600284906108aa565b6146e7565b907f81ae7626a9656578e59b92a7575fdbd9cfe59e467c1e88334e305e0b428e766691614e64614e5b6103d2565b92839283614dd0565b0390a1565b614e71612341565b50614e9b614e93614e8c614e8760078590612102565b61211a565b8390615ccd565b919015610587565b614eab57614ea891615e14565b90565b614eb36103d2565b63eaca8b6560e01b815280614eca600482016104fe565b0390fd5b600090565b614edc90610743565b90565b90614ee86123d6565b50614ef1612db1565b50614efa612db1565b50614f0361390b565b50614f0c61390b565b50614f156123d6565b50614f1e614ece565b50614f27612341565b50614f30612341565b50614f45614f4060078490612102565b61211a565b90614f5260028301614ed3565b92614f5f60008401612682565b92614f6c6000820161265b565b92614f7960008301612a40565b92614f8660018401612a40565b92614f9082615368565b92614fb0614fa06000840161240b565b93614faa84615c73565b9361592d565b90565b90614fdb91614fc0612341565b50614fd5614fd060078490612102565b61211a565b90615a3a565b90565b91565b5090565b90565b614ffc614ff761500192614fe5565b61088b565b610422565b90565b5090565b601f602091010490565b5b81811061501e575050565b8061502c600060019361293a565b01615013565b9190601f8111615042575b505050565b61504e61507393610653565b90602061505a84615008565b8301931061507b575b61506c90615008565b0190615012565b38808061503d565b915061506c81929050615063565b9061509a90600019906008026108c2565b191690565b816150a991615089565b906002021790565b916150bc9082615004565b9067ffffffffffffffff821161517e576150e0826150da8554610620565b85615032565b600090601f83116001146151155791809161510493600092615109575b505061509f565b90555b565b909150013538806150fd565b601f1983169161512485610653565b9260005b8181106151665750916002939185600196941061514c575b50505002019055615107565b61515c910135601f841690615089565b9055388080615140565b91936020600181928787013581550195019201615128565b610704565b9061518e92916150b1565b565b90826000939282370152565b91906151b6816151af816151bb95610792565b8095615190565b6106fa565b0190565b916151e59391926151d860408201946000830190610477565b602081850391015261519c565b90565b9190916151ff6151f9848490614fde565b90614fe1565b61521361520d611b58614fe8565b91610422565b116152d35761522181615c16565b61523561523060078390612102565b61211a565b61524761524183612d5b565b15610587565b615299575b61525b90846003859201615183565b9190916152947f26bb402a5ddddf109a54486ab4d62a69ae00966cbc94c57075787f70bf9cba6c9361528b6103d2565b938493846151bf565b0390a1565b6152ab6152a582615c73565b15610587565b1561524c576152b86103d2565b635dbbc87360e11b8152806152cf600482016104fe565b0390fd5b6152db6103d2565b631623655b60e31b8152806152f2600482016104fe565b0390fd5b6153159061530f61530961531a94610422565b91610422565b90612574565b610422565b90565b906153619061532a6120fd565b5061535b6000199161535561533d613c95565b9161534f61534961282e565b91612533565b90613ca2565b90613cc7565b906152f6565b1690565b90565b6153706123d6565b50615390600361538a61538560078590612102565b61211a565b01614ed3565b6153a161539c82615365565b612adb565b6153b46153ae6000612120565b91610422565b1161550557506153cb6153c6826157bf565b612533565b806153df6153d96000612120565b91610422565b146154f657615401906153f06120fd565b506153fb6001612b5a565b90613ca2565b5b806154166154106000612120565b91610422565b111561548a5761544c600361544661544161543a866154348761454d565b90613a3d565b6007612102565b61211a565b01614ed3565b61545d61545882615365565b612adb565b61547061546a6000612120565b91610422565b11615484575061547f90613d5b565b615402565b91505090565b5060036154b66154b16154aa6154bc946154a46000612ddd565b90613a3d565b6007612102565b61211a565b01614ed3565b6154cd6154c882615365565b612adb565b6154e06154da6000612120565b91610422565b116154f357506154f06006614ed3565b90565b90565b50506155026006614ed3565b90565b905090565b600080fd5b919091615526615520848490614fde565b90614fe1565b61553a615534611b58614fe8565b91610422565b116155fa5761554881615c16565b61555c61555760078390612102565b61211a565b61556e61556883612d5b565b15610587565b6155c0575b61558290846002859201615183565b9190916155bb7fb8350431af3841b22f977d0e8fd4be94669ef68e2db1d7f02a731d5d09ed44cc936155b26103d2565b938493846151bf565b0390a1565b6155d26155cc82615c73565b15610587565b15615573576155df6103d2565b635dbbc87360e11b8152806155f6600482016104fe565b0390fd5b6156026103d2565b631623655b60e31b815280615619600482016104fe565b0390fd5b90565b61563461562f6156399261561d565b61088b565b610422565b90565b6156466020615620565b90565b906156549102610422565b90565b906156629101610422565b90565b906156709103610422565b90565b9061567c6120fd565b506156856120fd565b506156906000612120565b5b806156ab6156a56156a061282e565b610422565b91610422565b1015615754576156e06000196156da6156c261563c565b6156d46156cd613c95565b8690615649565b90615657565b90613cfc565b83166156f56156ef6000612120565b91610422565b146157085761570390613515565b615691565b61574a61571761575093613117565b91615744615723613c95565b9161573f61572f61282e565b6157396001612b5a565b90615665565b615665565b90615649565b906152f6565b1790565b61575c6103d2565b630f9244b960e31b815280615773600482016104fe565b0390fd5b600061579061579692615788612db1565b506007612102565b01612682565b90565b6157a56157ab9161083f565b9161083f565b019063ffffffff82116157ba57565b612437565b906157c8612db1565b506157ef6157ea6157d88461316e565b936157e4600391614569565b906108aa565b6128e2565b806158036157fd6000612120565b91610422565b0361580c575b50565b909161582461582a9161581f600161259f565b615799565b916157bf565b906158359190615799565b9038615809565b61585061584b61585592610422565b61088b565b612db6565b90565b61586c6158676158719261211d565b61088b565b612db6565b90565b61587c612341565b508061589161588b6000612120565b91610422565b11908161589d575b5090565b6158a7915061583c565b6158ba6158b46000615858565b91612db6565b1438615899565b60200190565b90565b6158d490516158c7565b90565b6158f16158ec6158e683612adb565b926158c1565b6158ca565b90602081106158ff575b5090565b6159129060001990602003600802612574565b16386158fb565b61592561592a916124b1565b6117cf565b90565b906000809161593a612341565b5061596f61597e61594d60018701612a40565b926159566103d2565b928391600460208401634b1047bd60e11b815201610484565b6020820181038252038261071a565b602081019051915afa61598f612ab0565b9080615a17575b600014615a07576159a96159ae916158d7565b615919565b806159c26159bc6000612120565b91610422565b146000146159d35750506000905b5b565b6159e66159e06001612b5a565b91610422565b146000146159f857506001905b6159d0565b615a01906171a1565b906159f3565b50615a11906171a1565b906159d1565b50615a2181612adb565b615a34615a2e6020615620565b91610422565b14615996565b91906000615a53818093615a4c612341565b5001612a40565b84615a8c8591615a7d615a646103d2565b938492600460208501635eb41c3960e11b815201612a4d565b6020820181038252038261071a565b602081019051915afa615a9d612ab0565b9080615bcb575b600014615b9f57615ace90615ab7612341565b506020615ac382612adb565b818301019101612b0d565b9290929183615ae6615ae06002612b3e565b91610422565b1080615b84575b600014615b55575050615b09615b036001612b5a565b91610422565b14600014615b4e5760015b9081615b32575b50600014615b2b5760015b905b5b565b6000615b26565b9050615b47615b416001612b5a565b91610422565b1438615b1b565b6000615b14565b615b7e9350615b78925090615b6e615b739260086117eb565b611837565b613784565b15610587565b90615b28565b5082615b99615b936002612b3e565b91610422565b10615aed565b50615bba615bc592615bb5615bbf9360086117eb565b611837565b613784565b15610587565b90615b29565b50615bd581612adb565b615be8615be26040612ae2565b91610422565b14615aa4565b615c1391615c09615c0e92615c016120fd565b5060006146a0565b6146b8565b6128e2565b90565b615c2a615c24338390614bcf565b15610587565b615c315750565b33615c53615c3d6103d2565b92839263f921ec0160e01b845260048401612a4d565b0390fd5b615c6b615c66615c709261211d565b61088b565b612fd4565b90565b6001615c8891615c81612341565b5001613e9d565b615c956001605e1b613e5c565b16615ca9615ca36000615c57565b91612fd4565b141590565b90602082820312615cc857615cc591600001612afe565b90565b6103dd565b60008091939293615cdc612341565b50615d316001615d12615d21615cf0612341565b98615cf96103d2565b928391600460208401634b1047bd60e11b815201610484565b6020820181038252038261071a565b92615d2a612aab565b5001612a40565b90602081019051915afa91615d44612ab0565b8380615dcd575b600014615dc157615d6c906020615d6182612adb565b818301019101615cae565b80615d80615d7a6000612120565b91610422565b14600014615d915750506000905b5b565b615da4615d9e6001612b5a565b91610422565b14600014615db657506001905b615d8e565b909150600091615db1565b50909150600091615d8f565b50615dd781612adb565b615dea615de46020615620565b91610422565b14615d4b565b916020615e12929493615e0b60408201966000830190610477565b019061058c565b565b9190615e1e612341565b92615e33615e2e60078390612102565b61211a565b82615e4e615e48615e43846171a1565b610587565b91610587565b03615e59575b505050565b615e68919293945083906171e1565b907fd07f9843f67faeb66cef933eec38bef71b53ef4086a2aa2a5b109b6ee531c75191615e9f615e966103d2565b92839283615df0565b0390a1600190388080615e54565b6a113237b6b0b4b7111d101160a91b9052565b905090565b615eea615ee192602092615ed88161078e565b94858093615ec0565b9384910161079b565b0190565b691116101134b2111d101160b11b9052565b7011161011383932ba3a3c9034b2111d101160791b9052565b61088b60f21b9052565b615f58615f6893600a615f4860029795600b601196615f4181615ead565b0190615ec5565b615f5181615eee565b0190615ec5565b615f6181615f00565b0190615ec5565b615f7181615f19565b0190565b90615fa291939293615f96615f886103d2565b958693602085019384615f23565b9081038252038361071a565b565b67ffffffffffffffff8111615fc257615fbe6020916106fa565b0190565b610704565b90615fd9615fd483615fa4565b61130a565b918252565b60007f696e616374697665000000000000000000000000000000000000000000000000910152565b6160106008615fc7565b9061601d60208301615fde565b565b616027616006565b90565b60007f6163746976650000000000000000000000000000000000000000000000000000910152565b61605c6006615fc7565b906160696020830161602a565b565b616073616052565b90565b60007f66616c7365000000000000000000000000000000000000000000000000000000910152565b6160a86005615fc7565b906160b560208301616076565b565b6160bf61609e565b90565b60007f7472756500000000000000000000000000000000000000000000000000000000910152565b6160f46004615fc7565b90616101602083016160c2565b565b61610b6160ea565b90565b6a1139ba30ba3ab9911d101160a91b9052565b751116101131bab93932b73a1039bab838363c911d101160511b9052565b711116101139bab838363c9031b0b8111d101160711b9052565b711116101130b236b4b7101434b214911d101160711b9052565b7f222c202261646d696e202870726574747920696429223a2022000000000000009052565b7f222c2022656c69676962696c697479206d6f64756c65223a20220000000000009052565b74111610113a37b3b3b6329036b7b23ab632911d101160591b9052565b6e1116101136baba30b13632911d101160891b9052565b601160f91b9052565b95601a61627d600f97601961626d61629d99601260019f9d6162ad9f9b8261624d60159d601661623d61628d9f600b61625d986162368161610e565b0190615ec5565b61624681616121565b0190615ec5565b6162568161613f565b0190615ec5565b61626681616159565b0190615ec5565b61627681616173565b0190615ec5565b61628681616198565b0190615ec5565b616296816161bd565b0190615ec5565b6162a6816161da565b0190615ec5565b6162b6816161f1565b0190565b93946162ec9691956162e094999893996162d26103d2565b9a8b9860208a0198896161fa565b9081038252038361071a565b565b693d913730b6b2911d101160b11b9052565b7f48617400000000000000000000000000000000000000000000000000000000009052565b72111610113232b9b1b934b83a34b7b7111d101160691b9052565b906000929180549061635b61635483610620565b8094615ec0565b916001811690816000146163af5750600114616377575b505050565b6163849192939450610653565b6000905b83821061639b5750500190388080616372565b600181602092548486015201910190616388565b92949550505060ff19168252801515020190388080616372565b6c1116101134b6b0b3b2911d101160991b9052565b6d011383937b832b93a34b2b9911d160951b9052565b7f7b000000000000000000000000000000000000000000000000000000000000009052565b7f7d000000000000000000000000000000000000000000000000000000000000009052565b600194919385600e60026164946164be97600d616484869b60136003600a6164b89c616469816162ee565b0161647381616300565b0161647d81616325565b0190616340565b61648d816163c9565b0190615ec5565b61649d81615f19565b016164a7816163de565b016164b1816163f4565b0190615ec5565b90615ec5565b6164c781616419565b016164d181616419565b0190565b6164f46165009395946164e66103d2565b96879460208601948561643e565b9081038252038361071a565b565b60007f646174613a6170706c69636174696f6e2f6a736f6e3b6261736536342c000000910152565b616536601d8092615ec0565b61653f81616502565b0190565b906165506165569261652a565b90615ec5565b90565b90565b6166da6166e96166c66166c16166bc6166ee956165776123d6565b5061658c61658760078390612102565b61211a565b6165946120fd565b5061659e82612d5b565b60001461670c57815b6166b460026166ac6165ee6165cb6165c66165c189614569565b612533565b6172c4565b6165d4886172c4565b6165e8896165e26020615620565b906174ee565b91615f75565b936165fa86889061592d565b6000146166ff5761660961606b565b5b9061662761662261661d60008a0161265b565b612533565b6172c4565b9061664461663f61663a60008b01612682565b612533565b6172c4565b90616662616651826172c4565b9161665c6020615620565b906174ee565b9061667761667260008c01612a40565b61768e565b9261668c61668760018d01612a40565b61768e565b946166968c615c73565b6000146166f1576166a5616103565b965b6162ba565b930193615368565b9091926164d5565b615365565b6177b3565b6166ce6103d2565b92839160208301616543565b6020820181038252038261071a565b616559565b90565b6166f96160b7565b966166a7565b61670761601f565b61660a565b6167328261672c61671c856157bf565b616726600161259f565b90613a16565b90613a3d565b6165a7565b90565b61674e61674961675392616737565b61088b565b612fd4565b90565b90565b61676d61676861677292616756565b61088b565b612fd4565b90565b946167c5906167bb6167b0886167e69d9b976167cf976167a36167d99b9f9d98600060e08601950190610477565b8b830360208d015261519c565b9a6040890190610e12565b60608701906110b2565b60808501906110b2565b60a083019061058c565b60c081850391015261519c565b90565b946168ae9598939897929796919661687261680e61680960078490612102565b61211a565b61681d8a8c9060028401615183565b61682a8c600083016126b1565b61683788600083016121f6565b61684484600183016121f6565b61685386889060038401615183565b846000146168b357600161686a6003605e1b616759565b915b01613eed565b9697989490919293947f4d38ad12136291322128027bb8c3af7db2261be395032c1d26dd0ad20cf29415996168a56103d2565b998a998a616775565b0390a1565b60016168c181605f1b61673a565b9161686c565b60016168d3910161083f565b90565b60c01b90565b906168ee63ffffffff60c01b916168d6565b9181191691161790565b9061690d6169086169149261088e565b612510565b82546168dc565b9055565b906169416169266001612b5a565b61693c616935600086906146a0565b84906146b8565b6146e7565b61696a600061695260078490612102565b0161696461695f8261265b565b6168c7565b906168f8565b339161697660006121c6565b90919260016169b76169b16169ab7fc3d58168c5ae7397731d063d5bbf3d657854427343f4c083240f7aacaa2d0f629461182b565b9461182b565b9461182b565b946169cc6169c36103d2565b92839283614714565b0390a4565b6169e56169df338390614bcf565b15610587565b9081616a16575b506169f357565b6169fb6103d2565b63bc3a32ff60e01b815280616a12600482016104fe565b0390fd5b616a2b9150616a259033612d31565b15610587565b386169ec565b616a5090616a4a616a44616a5594612552565b91610422565b906108c2565b610422565b90565b959496939096616a72616a6c888a9061462e565b15610587565b616ec557616a8a616a85600389906108aa565b6128e2565b80616a9e616a986000612120565b91610422565b11616d8f575b50616ac1616ab188612533565b616abb60e0612558565b90612578565b93616ad6616ad160078790612102565b61211a565b9380616af3616aed616ae860006121c6565b6103f2565b916103f2565b03616d41575b5080616b16616b10616b0b60006121c6565b6103f2565b916103f2565b03616cf3575b50616b31616b2b838390614fde565b90614fe1565b80616b45616b3f6000612120565b91610422565b11616c63575b505050616b62616b5c858590614fde565b90614fe1565b80616b76616b706000612120565b91610422565b11616bd2575b5050505050616b9682616b91600384906108aa565b6146e7565b907fd89812e6ebd66026da23b9c10923f8ec2d47c2f4bea260250e66d05ab76f6b8991616bcd616bc46103d2565b92839283614dd0565b0390a1565b616be6616be0611b58614fe8565b91610422565b11616c4057616bfa90846003859201615183565b919091616c337f26bb402a5ddddf109a54486ab4d62a69ae00966cbc94c57075787f70bf9cba6c93616c2a6103d2565b938493846151bf565b0390a13880808080616b7c565b616c486103d2565b631623655b60e31b815280616c5f600482016104fe565b0390fd5b616c77616c71611b58614fe8565b91610422565b11616cd057616c8b82829060028601615183565b83919091616cc57fb8350431af3841b22f977d0e8fd4be94669ef68e2db1d7f02a731d5d09ed44cc93616cbc6103d2565b938493846151bf565b0390a1388080616b4b565b616cd86103d2565b631623655b60e31b815280616cef600482016104fe565b0390fd5b616d0081600186016121f6565b84907ff68bc34e5f23b18f8e3a63ff51c021c8fbc9266113a63a4c73a66b4ad903363891616d38616d2f6103d2565b92839283612216565b0390a138616b1c565b616d4e81600087016121f6565b85907f5f59e4feecec6992840f6f7c313415b21889d4445ea82fefd7f620aeb194461d91616d86616d7d6103d2565b92839283612216565b0390a138616af9565b616db3616da3616d9e8a6145a0565b612533565b616dad60e0612558565b90612578565b616dc7616dc1338390612d31565b15610587565b600014616e8757616e1c616e0c616dfb616deb8d616de560e0612558565b90616a31565b616df560e0612558565b90612578565b93616e0660e0612558565b90616a31565b616e1660e0612558565b90612578565b616e2f616e298492610422565b91610422565b14159182616e68575b5050616e45575b38616aa4565b616e4d6103d2565b6344ce0dd360e11b815280616e64600482016104fe565b0390fd5b616e7e919250616e789092610422565b91610422565b14153880616e38565b5050616e9d616e97888a906145f1565b15610587565b15616e3f57616eaa6103d2565b6344ce0dd360e11b815280616ec1600482016104fe565b0390fd5b616ecd6103d2565b6310084a3f60e21b815280616ee4600482016104fe565b0390fd5b90616ef460ff916121d2565b9181191691161790565b616f0790610587565b90565b90565b90616f22616f1d616f2992616efe565b616f0a565b8254616ee8565b9055565b604090616f57616f5e9496959396616f4d60608401986000850190610477565b60208301906110b2565b019061058c565b565b919392616f6b612341565b94616f7783859061707b565b616f8a616f846000612120565b91610422565b1161703f575b5080616fc1616fbb616fb6616fb1616faa600889906117eb565b8790611837565b613784565b610587565b91610587565b14616fcc575b505050565b90919350616ff8616fdd8215610587565b616ff3616fec600888906117eb565b8590611837565b616f0d565b6001939190916170347ff95db9732f1ede51ad19afa6ee380168a1be58df547533ff009c18ceacd01ef59361702b6103d2565b93849384616f2d565b0390a1388080616fc7565b6170499015610587565b801561706b575b61705b575b38616f90565b6170668284906170a3565b617055565b506170768115610587565b617050565b6170a09161709661709b9261708e6120fd565b5060006146a0565b6146b8565b6128e2565b90565b906170cc6170b16000612120565b6170c76170c0600086906146a0565b84906146b8565b6146e7565b6170f560006170dd60078490612102565b016170ef6170ea8261265b565b614bc0565b906168f8565b339161710160006121c6565b9192600161714161713b6171357fc3d58168c5ae7397731d063d5bbf3d657854427343f4c083240f7aacaa2d0f629461182b565b9461182b565b9461182b565b9461715661714d6103d2565b92839283614714565b0390a4565b90565b61717261716d6171779261715b565b61088b565b612552565b90565b6171999061719361718d61719e94612552565b91612fd4565b906108c2565b612fd4565b90565b6171b960016171c9926171b2612341565b5001613e9d565b6171c3605f61715e565b9061717a565b6171dc6171d66000615c57565b91612fd4565b141590565b906000146172115761720e9060016171fb81605f1b61673a565b91019061720782613e9d565b1790613eed565b5b565b61723f90600161722c61722682605f1b61673a565b19612fd4565b91019061723882613e9d565b1690613eed565b61720f565b369037565b9061726e61725683615fc7565b926020806172648693615fa4565b9201910390617244565b565b61728461727f61728992613093565b61088b565b610422565b90565b634e487b7160e01b600052601260045260246000fd5b6172ae6172b491610422565b91610422565b9081156172bf570490565b61728c565b6172cc6123d6565b506172e96172d9826179bd565b6172e36001612b5a565b90615657565b906172f382617249565b916172fc6120fd565b5060200182015b6001156173675761731661734291613d5b565b916f181899199a1a9b1b9c1cb0b131b232b360811b600a82061a835361733c600a617270565b906172a2565b806173566173506000612120565b91610422565b146173615790617303565b50505b90565b5050617364565b61737d61738391939293610422565b92610422565b820180921161738e57565b612437565b906173b86173a083612a94565b926020806173ae8693612a71565b9201910390617244565b565b600360fc1b90565b906173cc82612adb565b8110156173de57600160209102010190565b613524565b600f60fb1b90565b6173f490610422565b60008114617403576001900390565b612437565b6f181899199a1a9b1b9c1cb0b131b232b360811b90565b617427617408565b90565b90565b61744161743c6174469261742a565b61088b565b610422565b90565b60f81b90565b61746361745e61746892612ec5565b61088b565b612552565b90565b60007f537472696e67733a20686578206c656e67746820696e73756666696369656e74910152565b61749f60208092610792565b6174a88161746b565b0190565b6174c29060208101906000818303910152617493565b90565b156174cc57565b6174d46103d2565b62461bcd60e51b8152806174ea600482016174ac565b0390fd5b91906174f86123d6565b5061759261758261752e61752961751960026175148791612b3e565b613cc7565b6175236002612b3e565b9061736e565b617393565b926175376173ba565b6175508561754a60009360001a93612120565b906173c2565b536175596173e3565b6175728561756c60019360001a93612b5a565b906173c2565b5361757d6002612b3e565b613cc7565b61758c6001612b5a565b9061736e565b925b836175a86175a26001612b5a565b91610422565b111561760f576175b661741f565b816175c1600f61742d565b1691601083101561760a576175dd6175fe92617604941a617449565b6175ed8591889060001a926173c2565b536175f8600461744f565b90616a31565b936173eb565b92617594565b613524565b6176379293506176329061762c6176266000612120565b91610422565b146174c5565b616559565b90565b61764390611803565b90565b90565b61765d61765861766292617646565b61088b565b612552565b90565b61766f6014617649565b90565b61768661768161768b92612552565b61088b565b610422565b90565b6176ab6176a66176c1926176a06123d6565b5061763a565b612ea9565b6176bb6176b6617665565b617672565b906174ee565b90565b6176ce6000615fc7565b90565b6176d96176c4565b90565b60207f6768696a6b6c6d6e6f707172737475767778797a303132333435363738392b2f917f4142434445464748494a4b4c4d4e4f505152535455565758595a61626364656660008201520152565b6177346040615fc7565b90617741602083016176dc565b565b61774b61772a565b90565b617756617743565b90565b61776d61776861777292612e8a565b61088b565b610422565b90565b61778161778791610422565b91610422565b908115617792570490565b61728c565b6177ab6177a66177b092612ec5565b61088b565b610422565b90565b906177bc6123d6565b506177c682612adb565b6177d96177d36000612120565b91610422565b146178da576177e661774e565b600161783261782d60046178286178226178126178028a612adb565b61780c6002612b3e565b9061736e565b61781c6003617759565b90617775565b91617797565b613cc7565b617249565b91019260208201908081518201956020870190815192600083525b888110617895575050600393949596505251068060011461788157600214617874575b5090565b6001603d91035338617870565b50600281603d600181940353035338617870565b60036001919996990198603f8280808d5194848660121c168801518153018385600c1c16870151815301828460061c168601518153019116830151815301949761784d565b90506178e46176d1565b90565b90565b6178fe6178f9617903926178e7565b61088b565b610422565b90565b90565b61791d61791861792292617906565b61088b565b610422565b90565b90565b61793c61793761794192617925565b61088b565b610422565b90565b90565b61795b61795661796092617944565b61088b565b610422565b90565b61797761797261797c92613001565b61088b565b610422565b90565b90565b61799661799161799b9261797f565b61088b565b610422565b90565b90565b6179b56179b06179ba9261799e565b61088b565b610422565b90565b6179c56120fd565b506179d06000612120565b90806179ff6179f97a184f03e93ff9f4daa797ed6e38ed64bf6a1f0100000000000000006178ea565b91610422565b1015617bd7575b80617a27617a216d04ee2d6d415b85acef8100000000617909565b91610422565b1015617b9c575b80617a48617a42662386f26fc10000617928565b91610422565b1015617b68575b80617a66617a606305f5e100617947565b91610422565b1015617b37575b80617a82617a7c612710617982565b91610422565b1015617b08575b80617a9d617a9760646179a1565b91610422565b1015617ada575b617ab7617ab1600a617270565b91610422565b1015617ac1575b90565b617ad590617acf6001612b5a565b90615657565b617abe565b617af1617b0291617aeb60646179a1565b906172a2565b91617afc6002612b3e565b90615657565b90617aa4565b617b20617b3191617b1a612710617982565b906172a2565b91617b2b6004617797565b90615657565b90617a89565b617b51617b6291617b4b6305f5e100617947565b906172a2565b91617b5c6008617963565b90615657565b90617a6d565b617b85617b9691617b7f662386f26fc10000617928565b906172a2565b91617b906010613c79565b90615657565b90617a4f565b617bc0617bd191617bba6d04ee2d6d415b85acef8100000000617909565b906172a2565b91617bcb6020615620565b90615657565b90617a2e565b617c08617c1991617c027a184f03e93ff9f4daa797ed6e38ed64bf6a1f0100000000000000006178ea565b906172a2565b91617c136040612ae2565b90615657565b90617a0656fea2646970667358221220f654648ee35b90ffc7e34d5a7c998bdc371a7aa60d40301d6344e076c013758164736f6c63430008180033",
  "linkReferences": {},
  "deployedLinkReferences": {}
}