{
  "_format": "hh-sol-artifact-1",
  "contractName": "ThanksToken",
  "sourceName": "contracts/thankstoken/ThanksToken.sol",
  "abi": [
    {
      "inputs": [
        {
          "internalType": "address",
          "name": "target",
          "type": "address"
        }
      ],
      "name": "AddressEmptyCode",
      "type": "error"
    },
    {
      "inputs": [
        {
          "internalType": "address",
          "name": "implementation",
          "type": "address"
        }
      ],
      "name": "ERC1967InvalidImplementation",
      "type": "error"
    },
    {
      "inputs": [],
      "name": "ERC1967NonPayable",
      "type": "error"
    },
    {
      "inputs": [
        {
          "internalType": "address",
          "name": "spender",
          "type": "address"
        },
        {
          "internalType": "uint256",
          "name": "allowance",
          "type": "uint256"
        },
        {
          "internalType": "uint256",
          "name": "needed",
          "type": "uint256"
        }
      ],
      "name": "ERC20InsufficientAllowance",
      "type": "error"
    },
    {
      "inputs": [
        {
          "internalType": "address",
          "name": "sender",
          "type": "address"
        },
        {
          "internalType": "uint256",
          "name": "balance",
          "type": "uint256"
        },
        {
          "internalType": "uint256",
          "name": "needed",
          "type": "uint256"
        }
      ],
      "name": "ERC20InsufficientBalance",
      "type": "error"
    },
    {
      "inputs": [
        {
          "internalType": "address",
          "name": "approver",
          "type": "address"
        }
      ],
      "name": "ERC20InvalidApprover",
      "type": "error"
    },
    {
      "inputs": [
        {
          "internalType": "address",
          "name": "receiver",
          "type": "address"
        }
      ],
      "name": "ERC20InvalidReceiver",
      "type": "error"
    },
    {
      "inputs": [
        {
          "internalType": "address",
          "name": "sender",
          "type": "address"
        }
      ],
      "name": "ERC20InvalidSender",
      "type": "error"
    },
    {
      "inputs": [
        {
          "internalType": "address",
          "name": "spender",
          "type": "address"
        }
      ],
      "name": "ERC20InvalidSpender",
      "type": "error"
    },
    {
      "inputs": [],
      "name": "FailedCall",
      "type": "error"
    },
    {
      "inputs": [],
      "name": "InvalidInitialization",
      "type": "error"
    },
    {
      "inputs": [],
      "name": "NotInitializing",
      "type": "error"
    },
    {
      "inputs": [
        {
          "internalType": "address",
          "name": "owner",
          "type": "address"
        }
      ],
      "name": "OwnableInvalidOwner",
      "type": "error"
    },
    {
      "inputs": [
        {
          "internalType": "address",
          "name": "account",
          "type": "address"
        }
      ],
      "name": "OwnableUnauthorizedAccount",
      "type": "error"
    },
    {
      "inputs": [],
      "name": "UUPSUnauthorizedCallContext",
      "type": "error"
    },
    {
      "inputs": [
        {
          "internalType": "bytes32",
          "name": "slot",
          "type": "bytes32"
        }
      ],
      "name": "UUPSUnsupportedProxiableUUID",
      "type": "error"
    },
    {
      "anonymous": false,
      "inputs": [
        {
          "indexed": true,
          "internalType": "address",
          "name": "owner",
          "type": "address"
        },
        {
          "indexed": true,
          "internalType": "address",
          "name": "spender",
          "type": "address"
        },
        {
          "indexed": false,
          "internalType": "uint256",
          "name": "value",
          "type": "uint256"
        }
      ],
      "name": "Approval",
      "type": "event"
    },
    {
      "anonymous": false,
      "inputs": [
        {
          "indexed": false,
          "internalType": "uint64",
          "name": "version",
          "type": "uint64"
        }
      ],
      "name": "Initialized",
      "type": "event"
    },
    {
      "anonymous": false,
      "inputs": [
        {
          "indexed": true,
          "internalType": "address",
          "name": "previousOwner",
          "type": "address"
        },
        {
          "indexed": true,
          "internalType": "address",
          "name": "newOwner",
          "type": "address"
        }
      ],
      "name": "OwnershipTransferred",
      "type": "event"
    },
    {
      "anonymous": false,
      "inputs": [
        {
          "indexed": true,
          "internalType": "address",
          "name": "to",
          "type": "address"
        },
        {
          "indexed": false,
          "internalType": "uint256",
          "name": "amount",
          "type": "uint256"
        }
      ],
      "name": "TokensMinted",
      "type": "event"
    },
    {
      "anonymous": false,
      "inputs": [
        {
          "indexed": true,
          "internalType": "address",
          "name": "from",
          "type": "address"
        },
        {
          "indexed": true,
          "internalType": "address",
          "name": "to",
          "type": "address"
        },
        {
          "indexed": false,
          "internalType": "uint256",
          "name": "value",
          "type": "uint256"
        }
      ],
      "name": "Transfer",
      "type": "event"
    },
    {
      "anonymous": false,
      "inputs": [
        {
          "indexed": true,
          "internalType": "address",
          "name": "implementation",
          "type": "address"
        }
      ],
      "name": "Upgraded",
      "type": "event"
    },
    {
      "inputs": [],
      "name": "UPGRADE_INTERFACE_VERSION",
      "outputs": [
        {
          "internalType": "string",
          "name": "",
          "type": "string"
        }
      ],
      "stateMutability": "view",
      "type": "function"
    },
    {
      "inputs": [
        {
          "internalType": "address",
          "name": "owner",
          "type": "address"
        }
      ],
      "name": "addressCoefficient",
      "outputs": [
        {
          "internalType": "uint256",
          "name": "",
          "type": "uint256"
        }
      ],
      "stateMutability": "view",
      "type": "function"
    },
    {
      "inputs": [
        {
          "internalType": "address",
          "name": "owner",
          "type": "address"
        },
        {
          "internalType": "address",
          "name": "spender",
          "type": "address"
        }
      ],
      "name": "allowance",
      "outputs": [
        {
          "internalType": "uint256",
          "name": "",
          "type": "uint256"
        }
      ],
      "stateMutability": "view",
      "type": "function"
    },
    {
      "inputs": [
        {
          "internalType": "address",
          "name": "spender",
          "type": "address"
        },
        {
          "internalType": "uint256",
          "name": "value",
          "type": "uint256"
        }
      ],
      "name": "approve",
      "outputs": [
        {
          "internalType": "bool",
          "name": "",
          "type": "bool"
        }
      ],
      "stateMutability": "nonpayable",
      "type": "function"
    },
    {
      "inputs": [
        {
          "internalType": "address",
          "name": "account",
          "type": "address"
        }
      ],
      "name": "balanceOf",
      "outputs": [
        {
          "internalType": "uint256",
          "name": "",
          "type": "uint256"
        }
      ],
      "stateMutability": "view",
      "type": "function"
    },
    {
      "inputs": [],
      "name": "decimals",
      "outputs": [
        {
          "internalType": "uint8",
          "name": "",
          "type": "uint8"
        }
      ],
      "stateMutability": "view",
      "type": "function"
    },
    {
      "inputs": [],
      "name": "defaultCoefficient",
      "outputs": [
        {
          "internalType": "uint256",
          "name": "",
          "type": "uint256"
        }
      ],
      "stateMutability": "view",
      "type": "function"
    },
    {
      "inputs": [
        {
          "internalType": "address",
          "name": "_initialOwner",
          "type": "address"
        },
        {
          "internalType": "string",
          "name": "_name",
          "type": "string"
        },
        {
          "internalType": "string",
          "name": "_symbol",
          "type": "string"
        },
        {
          "internalType": "address",
          "name": "_hatsAddress",
          "type": "address"
        },
        {
          "internalType": "address",
          "name": "_fractionTokenAddress",
          "type": "address"
        },
        {
          "internalType": "address",
          "name": "_hatsTimeFrameModuleAddress",
          "type": "address"
        },
        {
          "internalType": "uint256",
          "name": "_initialDefaultCoefficient",
          "type": "uint256"
        }
      ],
      "name": "initialize",
      "outputs": [],
      "stateMutability": "nonpayable",
      "type": "function"
    },
    {
      "inputs": [
        {
          "internalType": "address",
          "name": "to",
          "type": "address"
        },
        {
          "internalType": "uint256",
          "name": "amount",
          "type": "uint256"
        },
        {
          "components": [
            {
              "internalType": "uint256",
              "name": "hatId",
              "type": "uint256"
            },
            {
              "internalType": "address",
              "name": "wearer",
              "type": "address"
            }
          ],
          "internalType": "struct IThanksToken.RelatedRole[]",
          "name": "relatedRoles",
          "type": "tuple[]"
        }
      ],
      "name": "mint",
      "outputs": [
        {
          "internalType": "bool",
          "name": "",
          "type": "bool"
        }
      ],
      "stateMutability": "nonpayable",
      "type": "function"
    },
    {
      "inputs": [
        {
          "internalType": "address",
          "name": "owner",
          "type": "address"
        },
        {
          "components": [
            {
              "internalType": "uint256",
              "name": "hatId",
              "type": "uint256"
            },
            {
              "internalType": "address",
              "name": "wearer",
              "type": "address"
            }
          ],
          "internalType": "struct IThanksToken.RelatedRole[]",
          "name": "relatedRoles",
          "type": "tuple[]"
        }
      ],
      "name": "mintableAmount",
      "outputs": [
        {
          "internalType": "uint256",
          "name": "",
          "type": "uint256"
        }
      ],
      "stateMutability": "view",
      "type": "function"
    },
    {
      "inputs": [
        {
          "internalType": "address",
          "name": "owner",
          "type": "address"
        }
      ],
      "name": "mintedAmount",
      "outputs": [
        {
          "internalType": "uint256",
          "name": "",
          "type": "uint256"
        }
      ],
      "stateMutability": "view",
      "type": "function"
    },
    {
      "inputs": [],
      "name": "name",
      "outputs": [
        {
          "internalType": "string",
          "name": "",
          "type": "string"
        }
      ],
      "stateMutability": "view",
      "type": "function"
    },
    {
      "inputs": [],
      "name": "owner",
      "outputs": [
        {
          "internalType": "address",
          "name": "",
          "type": "address"
        }
      ],
      "stateMutability": "view",
      "type": "function"
    },
    {
      "inputs": [],
      "name": "proxiableUUID",
      "outputs": [
        {
          "internalType": "bytes32",
          "name": "",
          "type": "bytes32"
        }
      ],
      "stateMutability": "view",
      "type": "function"
    },
    {
      "inputs": [],
      "name": "renounceOwnership",
      "outputs": [],
      "stateMutability": "nonpayable",
      "type": "function"
    },
    {
      "inputs": [
        {
          "internalType": "address",
          "name": "userAddress",
          "type": "address"
        },
        {
          "internalType": "uint256",
          "name": "coefficient",
          "type": "uint256"
        }
      ],
      "name": "setAddressCoefficient",
      "outputs": [],
      "stateMutability": "nonpayable",
      "type": "function"
    },
    {
      "inputs": [
        {
          "internalType": "address[]",
          "name": "userAddresses",
          "type": "address[]"
        },
        {
          "internalType": "uint256[]",
          "name": "coefficients",
          "type": "uint256[]"
        }
      ],
      "name": "setAddressCoefficients",
      "outputs": [],
      "stateMutability": "nonpayable",
      "type": "function"
    },
    {
      "inputs": [
        {
          "internalType": "uint256",
          "name": "coefficient",
          "type": "uint256"
        }
      ],
      "name": "setDefaultCoefficient",
      "outputs": [],
      "stateMutability": "nonpayable",
      "type": "function"
    },
    {
      "inputs": [],
      "name": "symbol",
      "outputs": [
        {
          "internalType": "string",
          "name": "",
          "type": "string"
        }
      ],
      "stateMutability": "view",
      "type": "function"
    },
    {
      "inputs": [],
      "name": "totalSupply",
      "outputs": [
        {
          "internalType": "uint256",
          "name": "",
          "type": "uint256"
        }
      ],
      "stateMutability": "view",
      "type": "function"
    },
    {
      "inputs": [
        {
          "internalType": "address",
          "name": "to",
          "type": "address"
        },
        {
          "internalType": "uint256",
          "name": "value",
          "type": "uint256"
        }
      ],
      "name": "transfer",
      "outputs": [
        {
          "internalType": "bool",
          "name": "",
          "type": "bool"
        }
      ],
      "stateMutability": "nonpayable",
      "type": "function"
    },
    {
      "inputs": [
        {
          "internalType": "address",
          "name": "from",
          "type": "address"
        },
        {
          "internalType": "address",
          "name": "to",
          "type": "address"
        },
        {
          "internalType": "uint256",
          "name": "value",
          "type": "uint256"
        }
      ],
      "name": "transferFrom",
      "outputs": [
        {
          "internalType": "bool",
          "name": "",
          "type": "bool"
        }
      ],
      "stateMutability": "nonpayable",
      "type": "function"
    },
    {
      "inputs": [
        {
          "internalType": "address",
          "name": "newOwner",
          "type": "address"
        }
      ],
      "name": "transferOwnership",
      "outputs": [],
      "stateMutability": "nonpayable",
      "type": "function"
    },
    {
      "inputs": [
        {
          "internalType": "address",
          "name": "newImplementation",
          "type": "address"
        },
        {
          "internalType": "bytes",
          "name": "data",
          "type": "bytes"
        }
      ],
      "name": "upgradeToAndCall",
      "outputs": [],
      "stateMutability": "payable",
      "type": "function"
    }
  ],
  "bytecode": "0x60a06040523462000044576200001462000055565b6200001e6200004a565b6133f4620000ca82396080518181816126bb0152818161272701526128f401526133f490f35b62000050565b60405190565b600080fd5b6200005f62000061565b565b6200006b620000b9565b565b60018060a01b031690565b90565b620000946200008e6200009a926200006d565b62000078565b6200006d565b90565b620000a8906200007b565b90565b620000b6906200009d565b90565b620000c430620000ab565b60805256fe60806040526004361015610013575b610f02565b61001e60003561019d565b806306fdde0314610198578063095ea7b314610193578063108001e31461018e5780631749f20e1461018957806318160ddd146101845780631b9212da1461017f57806323b872dd1461017a578063313ce567146101755780634f1ef2861461017057806352d1902d1461016b5780635bef4c5d146101665780636635466e1461016157806370a082311461015c578063715018a61461015757806373349515146101525780638da5cb5b1461014d57806395d89b4114610148578063a9059cbb14610143578063ad3cb1cc1461013e578063dd62ed3e14610139578063f2fde38b14610134578063f70c24f21461012f578063fbbf8cc31461012a5763fe6df2d50361000e57610ecc565b610e45565b610e11565b610dde565b610da8565b610d45565b610c96565b610c61565b610c2c565b610bd6565b610b84565b610b4f565b610b15565b6109c4565b610803565b6107b3565b6106a5565b610646565b6105d5565b61041d565b6103e8565b6103b3565b61033b565b610249565b60e01c90565b60405190565b600080fd5b600080fd5b60009103126101be57565b6101ae565b5190565b60209181520190565b60005b8381106101e4575050906000910152565b8060209183015181850152016101d3565b601f801991011690565b61021e61022760209361022c93610215816101c3565b938480936101c7565b958691016101d0565b6101f5565b0190565b61024691602082019160008184039101526101ff565b90565b34610279576102593660046101b3565b61027561026461102a565b61026c6101a3565b91829182610230565b0390f35b6101a9565b600080fd5b60018060a01b031690565b61029790610283565b90565b6102a38161028e565b036102aa57565b600080fd5b905035906102bc8261029a565b565b90565b6102ca816102be565b036102d157565b600080fd5b905035906102e3826102c1565b565b919060408382031261030e578061030261030b92600086016102af565b936020016102d6565b90565b6101ae565b151590565b61032190610313565b9052565b919061033990600060208501940190610318565b565b3461036c576103686103576103513660046102e5565b9061104e565b61035f6101a3565b91829182610325565b0390f35b6101a9565b9060208282031261038b57610388916000016102af565b90565b6101ae565b610399906102be565b9052565b91906103b190600060208501940190610390565b565b346103e3576103df6103ce6103c9366004610371565b6110ee565b6103d66101a3565b9182918261039d565b0390f35b6101a9565b34610418576103f83660046101b3565b61041461040361110d565b61040b6101a3565b9182918261039d565b0390f35b6101a9565b3461044d5761042d3660046101b3565b610449610438611123565b6104406101a3565b9182918261039d565b0390f35b6101a9565b600080fd5b634e487b7160e01b600052604160045260246000fd5b90610477906101f5565b810190811067ffffffffffffffff82111761049157604052565b610457565b906104a96104a26101a3565b928361046d565b565b67ffffffffffffffff81116104c35760208091020190565b610457565b600080fd5b600080fd5b919060408382031261050e57610507906104ec6040610496565b936104fa82600083016102d6565b60008601526020016102af565b6020830152565b6104cd565b90929192610528610523826104ab565b610496565b93818552604060208601920283019281841161056757915b83831061054d5750505050565b602060409161055c84866104d2565b815201920191610540565b6104c8565b9080601f8301121561058a5781602061058793359101610513565b90565b610452565b9190916040818403126105d0576105a983600083016102af565b92602082013567ffffffffffffffff81116105cb576105c8920161056c565b90565b61027e565b6101ae565b34610606576106026105f16105eb36600461058f565b906113fa565b6105f96101a3565b9182918261039d565b0390f35b6101a9565b90916060828403126106415761063e61062784600085016102af565b9361063581602086016102af565b936040016102d6565b90565b6101ae565b346106775761067361066261065c36600461060b565b916117b1565b61066a6101a3565b91829182610325565b0390f35b6101a9565b60ff1690565b61068b9061067c565b9052565b91906106a390600060208501940190610682565b565b346106d5576106b53660046101b3565b6106d16106c0611804565b6106c86101a3565b9182918261068f565b0390f35b6101a9565b600080fd5b67ffffffffffffffff81116106fd576106f96020916101f5565b0190565b610457565b90826000939282370152565b9092919261072361071e826106df565b610496565b9381855260208501908284011161073f5761073d92610702565b565b6106da565b9080601f830112156107625781602061075f9335910161070e565b90565b610452565b9190916040818403126107a85761078183600083016102af565b92602082013567ffffffffffffffff81116107a3576107a09201610744565b90565b61027e565b6101ae565b60000190565b6107c76107c1366004610767565b90611843565b6107cf6101a3565b806107d9816107ad565b0390f35b90565b6107e9906107dd565b9052565b9190610801906000602085019401906107e0565b565b34610833576108133660046101b3565b61082f61081e6118c5565b6108266101a3565b918291826107ed565b0390f35b6101a9565b67ffffffffffffffff81116108505760208091020190565b610457565b9092919261086a61086582610838565b610496565b93818552602080860192028301928184116108a757915b83831061088e5750505050565b6020809161089c84866102af565b815201920191610881565b6104c8565b9080601f830112156108ca578160206108c793359101610855565b90565b610452565b67ffffffffffffffff81116108e75760208091020190565b610457565b909291926109016108fc826108cf565b610496565b938185526020808601920283019281841161093e57915b8383106109255750505050565b6020809161093384866102d6565b815201920191610918565b6104c8565b9080601f830112156109615781602061095e933591016108ec565b90565b610452565b9190916040818403126109bf57600081013567ffffffffffffffff81116109ba57836109939183016108ac565b92602082013567ffffffffffffffff81116109b5576109b29201610943565b90565b61027e565b61027e565b6101ae565b346109f3576109dd6109d7366004610966565b90611ab5565b6109e56101a3565b806109ef816107ad565b0390f35b6101a9565b67ffffffffffffffff8111610a1657610a126020916101f5565b0190565b610457565b90929192610a30610a2b826109f8565b610496565b93818552602085019082840111610a4c57610a4a92610702565b565b6106da565b9080601f83011215610a6f57816020610a6c93359101610a1b565b90565b610452565b60e081830312610b1057610a8b82600083016102af565b92602082013567ffffffffffffffff8111610b0b5783610aac918401610a51565b92604083013567ffffffffffffffff8111610b065781610acd918501610a51565b92610adb82606083016102af565b92610b03610aec84608085016102af565b93610afa8160a086016102af565b9360c0016102d6565b90565b61027e565b61027e565b6101ae565b34610b4a57610b34610b28366004610a74565b95949094939193611f3b565b610b3c6101a3565b80610b46816107ad565b0390f35b6101a9565b34610b7f57610b7b610b6a610b65366004610371565b611f4c565b610b726101a3565b9182918261039d565b0390f35b6101a9565b34610bb257610b943660046101b3565b610b9c611fc2565b610ba46101a3565b80610bae816107ad565b0390f35b6101a9565b90602082820312610bd157610bce916000016102d6565b90565b6101ae565b34610c0457610bee610be9366004610bb7565b6120b3565b610bf66101a3565b80610c00816107ad565b0390f35b6101a9565b610c129061028e565b9052565b9190610c2a90600060208501940190610c09565b565b34610c5c57610c3c3660046101b3565b610c58610c476120ef565b610c4f6101a3565b91829182610c16565b0390f35b6101a9565b34610c9157610c713660046101b3565b610c8d610c7c61210e565b610c846101a3565b91829182610230565b0390f35b6101a9565b34610cc757610cc3610cb2610cac3660046102e5565b9061212d565b610cba6101a3565b91829182610325565b0390f35b6101a9565b90610cde610cd9836109f8565b610496565b918252565b60007f352e302e30000000000000000000000000000000000000000000000000000000910152565b610d156005610ccc565b90610d2260208301610ce3565b565b610d2c610d0b565b90565b610d37610d24565b90565b610d42610d2f565b90565b34610d7557610d553660046101b3565b610d71610d60610d3a565b610d686101a3565b91829182610230565b0390f35b6101a9565b9190604083820312610da35780610d97610da092600086016102af565b936020016102af565b90565b6101ae565b34610dd957610dd5610dc4610dbe366004610d7a565b90612167565b610dcc6101a3565b9182918261039d565b0390f35b6101a9565b34610e0c57610df6610df1366004610371565b612206565b610dfe6101a3565b80610e08816107ad565b0390f35b6101a9565b34610e4057610e2a610e243660046102e5565b9061223b565b610e326101a3565b80610e3c816107ad565b0390f35b6101a9565b34610e7557610e71610e60610e5b366004610371565b612247565b610e686101a3565b9182918261039d565b0390f35b6101a9565b91606083830312610ec757610e9282600085016102af565b92610ea083602083016102d6565b92604082013567ffffffffffffffff8111610ec257610ebf920161056c565b90565b61027e565b6101ae565b34610efd57610ef9610ee8610ee2366004610e7a565b916123f2565b610ef06101a3565b91829182610325565b0390f35b6101a9565b600080fd5b606090565b634e487b7160e01b600052602260045260246000fd5b9060016002830492168015610f42575b6020831014610f3d57565b610f0c565b91607f1691610f32565b60209181520190565b600052602060002090565b9060009291805490610f7b610f7483610f22565b8094610f4c565b91600181169081600014610fd45750600114610f97575b505050565b610fa49192939450610f55565b916000925b818410610fbc5750500190388080610f92565b60018160209295939554848601520191019290610fa9565b92949550505060ff1916825215156020020190388080610f92565b90610ff991610f60565b90565b9061101c6110159261100c6101a3565b93848092610fef565b038361046d565b565b61102790610ffc565b90565b611032610f07565b5061104660036110406124d8565b0161101e565b90565b600090565b61106b9161105a611049565b506110636124fc565b919091612509565b600190565b600090565b90565b61108c61108761109192610283565b611075565b610283565b90565b61109d90611078565b90565b6110a990611094565b90565b906110b6906110a0565b600052602052604060002090565b60001c90565b90565b6110d96110de916110c4565b6110ca565b90565b6110eb90546110cd565b90565b61110561110a916110fd611070565b5060046110ac565b6110e1565b90565b611115611070565b5061112060056110e1565b90565b61112b611070565b5061113f60026111396124d8565b016110e1565b90565b90565b61115961115461115e92611142565b611075565b6102be565b90565b600161116d91016102be565b90565b5190565b634e487b7160e01b600052603260045260246000fd5b9061119482611170565b8110156111a5576020809102010190565b611174565b60018060a01b031690565b6111c16111c6916110c4565b6111aa565b90565b6111d390546111b5565b90565b6111df90611094565b90565b6111ec905161028e565b90565b6111f990516102be565b90565b60e01b90565b9050519061120f826102c1565b565b9060208282031261122b5761122891600001611202565b90565b6101ae565b60409061125a611261949695939661125060608401986000850190610c09565b6020830190610c09565b0190610390565b565b61126b6101a3565b3d6000823e3d90fd5b91602061129692949361128f60408201966000830190610c09565b0190610390565b565b60018060a01b031690565b6112af6112b4916110c4565b611298565b90565b6112c190546112a3565b90565b6112cd90611094565b90565b90565b6112e76112e26112ec926112d0565b611075565b6102be565b90565b634e487b7160e01b600052601260045260246000fd5b634e487b7160e01b600052601160045260246000fd5b61132761132d916102be565b916102be565b908115611338570490565b6112ef565b61134c611352919392936102be565b926102be565b9161135e8382026102be565b92818404149015171561136d57565b611305565b611381611387919392936102be565b926102be565b820180921161139257565b611305565b90565b6113ae6113a96113b392611397565b611075565b6102be565b90565b90565b6113cd6113c86113d2926113b6565b611075565b6102be565b90565b6113e46113ea919392936102be565b926102be565b82039182116113f557565b611305565b9190611404611070565b5061140f6000611145565b9061141a6000611145565b915b8261143761143161142c85611170565b6102be565b916102be565b10156116b35761144882849061118a565b519061145c61145760016111c9565b6111d6565b602063e93119d99188906114986114748488016111e2565b946114a361148460008a016111ef565b61148c6101a3565b978896879586956111fc565b855260048501611230565b03915afa9081156116ae57600091611680575b50906114ca6114c560016111c9565b6111d6565b602063346e6c0e916114dd8287016111e2565b906115056114ed600089016111ef565b946115106114f96101a3565b968795869485946111fc565b845260048401611274565b03915afa90811561167b5760009161164d575b5092826115396115336000611145565b916102be565b148015611632575b61162457602061155961155460026112b7565b6112c4565b9163819c4b0d9261159261157a60006115738686016111e2565b94016111ef565b9461159d6115866101a3565b968795869485946111fc565b845260048401611274565b03915afa93841561161f576115d96115e4946115d46115eb976115de956000916115f1575b506115ce610e106112d3565b9061131b565b61133d565b61131b565b90611372565b925b611161565b9161141c565b611612915060203d8111611618575b61160a818361046d565b810190611211565b386115c2565b503d611600565b611263565b509390506115eb91506115e6565b50836116476116416000611145565b916102be565b14611541565b61166e915060203d8111611674575b611666818361046d565b810190611211565b38611523565b503d61165c565b611263565b6116a1915060203d81116116a7575b611699818361046d565b810190611211565b386114b6565b503d61168f565b611263565b611747925061173091506116e6909493946116e06116d086611f4c565b6116da600a61139a565b9061131b565b90611372565b6116fa6116f5600486906110ac565b6110e1565b61170d6117076000611145565b916102be565b116000146117a257611729611724600486906110ac565b6110e1565b5b9061133d565b611741670de0b6b3a76400006113b9565b9061131b565b908161176e61176861176361175e600386906110ac565b6110e1565b6102be565b916102be565b1161178257505061177f6000611145565b90565b61179961179461179f939260036110ac565b6110e1565b906113d5565b90565b6117ac60056110e1565b61172a565b916117db926117be611049565b506117d36117ca6124fc565b8290849161255a565b9190916125ef565b600190565b600090565b90565b6117fc6117f7611801926117e5565b611075565b61067c565b90565b61180c6117e0565b5061181760126117e8565b90565b9061182c916118276126aa565b61182e565b565b906118419161183c81612763565b6127d5565b565b9061184d9161181a565b565b600090565b611865906118606128e3565b6118b9565b90565b90565b60001b90565b61188561188061188a92611868565b61186b565b6107dd565b90565b6118b67f360894a13ba1a3210667c828492db98dca3e2076cc3735a920a3ca505d382bbc611871565b90565b506118c261188d565b90565b6118d56118d061184f565b611854565b90565b906118ea916118e5612948565b611a0e565b565b5190565b5190565b60007f417272617973206c656e677468206d69736d6174636800000000000000000000910152565b61192960166020926101c7565b611932816118f4565b0190565b61194c906020810190600081830391015261191c565b90565b1561195657565b61195e6101a3565b62461bcd60e51b81528061197460048201611936565b0390fd5b90611982826118f0565b811015611993576020809102010190565b611174565b906119a2826118ec565b8110156119b3576020809102010190565b611174565b906119c56000199161186b565b9181191691161790565b6119e36119de6119e8926102be565b611075565b6102be565b90565b90565b90611a036119fe611a0a926119cf565b6119eb565b82546119b8565b9055565b9190611a3c611a1c846118ec565b611a36611a30611a2b856118f0565b6102be565b916102be565b1461194f565b611a466000611145565b5b80611a62611a5c611a57876118ec565b6102be565b916102be565b1015611aaf57611aaa90611aa5611a82611a7d858490611978565b6111ef565b611aa06004611a9a611a958a8790611998565b6111e2565b906110ac565b6119ee565b611161565b611a47565b50509050565b90611abf916118d8565b565b60401c90565b60ff1690565b611ad9611ade91611ac1565b611ac7565b90565b611aeb9054611acd565b90565b67ffffffffffffffff1690565b611b07611b0c916110c4565b611aee565b90565b611b199054611afb565b90565b67ffffffffffffffff1690565b611b3d611b38611b4292611142565b611075565b611b1c565b90565b90565b611b5c611b57611b6192611b45565b611075565b611b1c565b90565b611b6d90611094565b90565b90611b8367ffffffffffffffff9161186b565b9181191691161790565b611ba1611b9c611ba692611b1c565b611075565b611b1c565b90565b90565b90611bc1611bbc611bc892611b8d565b611ba9565b8254611b70565b9055565b60401b90565b90611be668ff000000000000000091611bcc565b9181191691161790565b611bf990610313565b90565b90565b90611c14611c0f611c1b92611bf0565b611bfc565b8254611bd2565b9055565b611c2890611b48565b9052565b9190611c4090600060208501940190611c1f565b565b939094919592611c5061299d565b96611c66611c6060008a01611ae1565b15610313565b96611c7360008a01611b0f565b80611c87611c816000611b29565b91611b1c565b1480611dac575b90611ca2611c9c6001611b48565b91611b1c565b1480611d83575b611cb4909115610313565b9081611d72575b50611d4f57611ce596611cda611cd16001611b48565b60008c01611bac565b88611d3c575b611ea3565b611ced575b50565b611cfb906000809101611bff565b6001611d337fc7f505b2f371ae2175ee4913f4499e1f2633a7b5936321eed1cdaeb6115181d291611d2a6101a3565b91829182611c2c565b0390a138611cea565b611d4a600160008c01611bff565b611ce0565b611d576101a3565b63f92ee8a960e01b815280611d6e600482016107ad565b0390fd5b611d7d915015610313565b38611cbb565b50611cb4611d9030611b64565b3b611da4611d9e6000611145565b916102be565b149050611ca9565b5088611c8e565b611dbc90611078565b90565b611dc890611db3565b90565b90611ddc60018060a01b039161186b565b9181191691161790565b611def90611db3565b90565b90565b90611e0a611e05611e1192611de6565b611df2565b8254611dcb565b9055565b611e1e90611078565b90565b611e2a90611e15565b90565b611e3690611e15565b90565b90565b90611e51611e4c611e5892611e2d565b611e39565b8254611dcb565b9055565b611e6590611078565b90565b611e7190611e5c565b90565b611e7d90611e5c565b90565b90565b90611e98611e93611e9f92611e74565b611e80565b8254611dcb565b9055565b93611edf611ed8611ef79795611ecb611ef098611ec6611eeb98611ee4986129e1565b612a0b565b611ed3612a20565b611dbf565b6000611df5565b611e21565b6001611e3c565b611e68565b6002611e83565b80611f0b611f056000611145565b916102be565b11600014611f2157611f1f905b60056119ee565b565b50611f1f611f36670de0b6b3a76400006113b9565b611f18565b90611f4a969594939291611c42565b565b611f6c611f7191611f5b611070565b506000611f666124d8565b016110ac565b6110e1565b90565b611f7c612948565b611f84611fae565b565b611f9a611f95611f9f92611142565b611075565b610283565b90565b611fab90611f86565b90565b611fc0611fbb6000611fa2565b612a4d565b565b611fca611f74565b565b611fdd90611fd8612948565b612089565b565b60207f2030000000000000000000000000000000000000000000000000000000000000917f436f656666696369656e74206d7573742062652067726561746572207468616e60008201520152565b61203a60226040926101c7565b61204381611fdf565b0190565b61205d906020810190600081830391015261202d565b90565b1561206757565b61206f6101a3565b62461bcd60e51b81528061208560048201612047565b0390fd5b6120b1906120aa816120a461209e6000611145565b916102be565b11612060565b60056119ee565b565b6120bc90611fcc565b565b600090565b60018060a01b031690565b6120da6120df916110c4565b6120c3565b90565b6120ec90546120ce565b90565b6120f76120be565b5061210b6000612105612abb565b016120e2565b90565b612116610f07565b5061212a60046121246124d8565b0161101e565b90565b61214a91612139611049565b506121426124fc565b9190916125ef565b600190565b90612159906110a0565b600052602052604060002090565b6121959161218b6121909261217a611070565b5060016121856124d8565b0161214f565b6110ac565b6110e1565b90565b6121a9906121a4612948565b6121ab565b565b806121c76121c16121bc6000611fa2565b61028e565b9161028e565b146121d7576121d590612a4d565b565b6122026121e46000611fa2565b6121ec6101a3565b918291631e4fbdf760e01b835260048301610c16565b0390fd5b61220f90612198565b565b906122239161221e612948565b612225565b565b612234612239929160046110ac565b6119ee565b565b9061224591612211565b565b61225e61226391612256611070565b5060036110ac565b6110e1565b90565b60007f43616e6e6f74206d696e7420746f20796f757273656c66000000000000000000910152565b61229b60176020926101c7565b6122a481612266565b0190565b6122be906020810190600081830391015261228e565b90565b156122c857565b6122d06101a3565b62461bcd60e51b8152806122e6600482016122a8565b0390fd5b60007f416d6f756e74206d7573742062652067726561746572207468616e2030000000910152565b61231f601d6020926101c7565b612328816122ea565b0190565b6123429060208101906000818303910152612312565b90565b1561234c57565b6123546101a3565b62461bcd60e51b81528061236a6004820161232c565b0390fd5b60007f416d6f756e742065786365656473206d696e7461626c6520616d6f756e740000910152565b6123a3601e6020926101c7565b6123ac8161236e565b0190565b6123c69060208101906000818303910152612396565b90565b156123d057565b6123d86101a3565b62461bcd60e51b8152806123ee600482016123b0565b0390fd5b909161244461245e91612403611049565b506124218461241a6124143361028e565b9161028e565b14156122c1565b61243e856124386124326000611145565b916102be565b11612345565b336113fa565b61245761245185926102be565b916102be565b11156123c9565b61248682612480612471600333906110ac565b9161247b836110e1565b611372565b906119ee565b612491818390612adf565b6124d06124be7f3f2c9d57c068687834f0de942a9babb9e5acab57d516d3480a3c16ee165a4273926110a0565b926124c76101a3565b9182918261039d565b0390a2600190565b7f52c63247e1f47db19d5ce0460030c497f067ca4cebf71ba98eeadabe20bace0090565b6125046120be565b503390565b916125179291600192612b47565b565b60409061254361254a949695939661253960608401986000850190610c09565b6020830190610390565b0190610390565b565b9061255791036102be565b90565b929192612568818390612167565b908161257e6125786000196102be565b916102be565b0361258b575b5050509050565b8161259e612598876102be565b916102be565b106125c5576125bc93946125b391939261254c565b90600092612b47565b80388080612584565b506125eb849291926125d56101a3565b938493637dc7a0d960e11b855260048501612519565b0390fd5b918261260c6126066126016000611fa2565b61028e565b9161028e565b1461266f578161262d6126276126226000611fa2565b61028e565b9161028e565b146126405761263e92919091612c81565b565b61266b61264d6000611fa2565b6126556101a3565b91829163ec442f0560e01b835260048301610c16565b0390fd5b61269a61267c6000611fa2565b6126846101a3565b918291634b637e8f60e11b835260048301610c16565b0390fd5b6126a790611094565b90565b6126b33061269e565b6126e56126df7f000000000000000000000000000000000000000000000000000000000000000061028e565b9161028e565b148015612716575b6126f357565b6126fb6101a3565b63703e46dd60e11b815280612712600482016107ad565b0390fd5b5061271f612e15565b61275161274b7f000000000000000000000000000000000000000000000000000000000000000061028e565b9161028e565b14156126ed565b50612761612948565b565b61276c90612758565b565b61277790611078565b90565b6127839061276e565b90565b61278f90611094565b90565b61279b816107dd565b036127a257565b600080fd5b905051906127b482612792565b565b906020828203126127d0576127cd916000016127a7565b90565b6101ae565b919061280360206127ed6127e88661277a565b612786565b6352d1902d906127fb6101a3565b9384926111fc565b82528180612813600482016107ad565b03915afa80916000926128b3575b501560001461285d57505090600161283757505b565b612859906128436101a3565b918291634c9c8ce360e01b835260048301610c16565b0390fd5b928361287861287261286d61188d565b6107dd565b916107dd565b0361288d57612888929350612e40565b612835565b6128af846128996101a3565b918291632a87526960e21b8352600483016107ed565b0390fd5b6128d591925060203d81116128dc575b6128cd818361046d565b8101906127b6565b9038612821565b503d6128c3565b6128ec3061269e565b61291e6129187f000000000000000000000000000000000000000000000000000000000000000061028e565b9161028e565b0361292557565b61292d6101a3565b63703e46dd60e11b815280612944600482016107ad565b0390fd5b6129506120ef565b61296961296361295e6124fc565b61028e565b9161028e565b0361297057565b61299961297b6124fc565b6129836101a3565b91829163118cdaa760e01b835260048301610c16565b0390fd5b7ff0c57e16840df040f15088dc2f81fe391c3923bec73e23a9662efc9c229c6a0090565b906129d3916129ce612ecb565b6129d5565b565b906129df91613127565b565b906129eb916129c1565b565b6129fe906129f9612ecb565b612a00565b565b612a09906131a1565b565b612a14906129ed565b565b612a1e612ecb565b565b612a28612a16565b565b90565b90612a42612a3d612a49926110a0565b612a2a565b8254611dcb565b9055565b612a55612abb565b612a6f612a64600083016120e2565b916000849101612a2d565b90612aa3612a9d7f8be0079c531659141344cd1fd0a4f28419497f9722a3daafe3b4186f6b6457e0936110a0565b916110a0565b91612aac6101a3565b80612ab6816107ad565b0390a3565b7f9016d09d72d40fdae2fd8ceac6b6234c7706214fd39c1cd1e609a0528c19930090565b80612afb612af5612af06000611fa2565b61028e565b9161028e565b14612b1857612b1691612b0e6000611fa2565b919091612c81565b565b612b43612b256000611fa2565b612b2d6101a3565b91829163ec442f0560e01b835260048301610c16565b0390fd5b9092612b516124d8565b82612b6d612b67612b626000611fa2565b61028e565b9161028e565b14612c445784612b8e612b88612b836000611fa2565b61028e565b9161028e565b14612c1557612bb590612bb0612ba96001879301869061214f565b87906110ac565b6119ee565b612bbf575b505050565b919091612c0a612bf8612bf27f8c5be1e5ebec7d5bd14f71427d1e84f3dd0314c0f7b2291e5b200ac8c7c3b925936110a0565b936110a0565b93612c016101a3565b9182918261039d565b0390a3388080612bba565b612c40612c226000611fa2565b612c2a6101a3565b918291634a1406b160e11b835260048301610c16565b0390fd5b612c6f612c516000611fa2565b612c596101a3565b91829163e602df0560e01b835260048301610c16565b0390fd5b90612c7e91016102be565b90565b919091612c8c6124d8565b81612ca8612ca2612c9d6000611fa2565b61028e565b9161028e565b14600014612d9757612cd083612cca6002840191612cc5836110e1565b611372565b906119ee565b5b83612ced612ce7612ce26000611fa2565b61028e565b9161028e565b14600014612d6757612d1690612d10600285920191612d0b836110e1565b61254c565b906119ee565b5b919091612d62612d50612d4a7fddf252ad1be2c89b69c2b068fc378daa952ba7f163c4a11628f55a4df523b3ef936110a0565b936110a0565b93612d596101a3565b9182918261039d565b0390a3565b612d9290612d8c612d7d600086930187906110ac565b91612d87836110e1565b612c73565b906119ee565b612d17565b612dad612da86000830184906110ac565b6110e1565b80612dc0612dba866102be565b916102be565b10612deb57612dd3612de691859061254c565b612de16000840185906110ac565b6119ee565b612cd1565b91612e1191509192612dfb6101a3565b93849363391434e360e21b855260048501612519565b0390fd5b612e1d6120be565b50612e396000612e33612e2e61188d565b6131ac565b016120e2565b90565b5190565b90612e4a826131af565b81612e757fbc7cd75a20ee27fd9adebab32041f755214dbc6bffa90cc0225b39da2e5c2d3b916110a0565b90612e7e6101a3565b80612e88816107ad565b0390a2612e9481612e3c565b612ea7612ea16000611145565b916102be565b11600014612ebc57612eb891613292565b505b565b5050612ec661320d565b612eba565b612edc612ed66132c2565b15610313565b612ee257565b612eea6101a3565b631afcd79f60e31b815280612f01600482016107ad565b0390fd5b90612f1791612f12612ecb565b613103565b565b601f602091010490565b1b90565b91906008612f43910291612f3d60001984612f23565b92612f23565b9181191691161790565b9190612f63612f5e612f6b936119cf565b6119eb565b908354612f27565b9055565b612f8191612f7b611070565b91612f4d565b565b5b818110612f8f575050565b80612f9d6000600193612f6f565b01612f84565b9190601f8111612fb3575b505050565b612fbf612fe493610f55565b906020612fcb84612f19565b83019310612fec575b612fdd90612f19565b0190612f83565b388080612fae565b9150612fdd81929050612fd4565b1c90565b9061300f9060001990600802612ffa565b191690565b8161301e91612ffe565b906002021790565b90613030816101c3565b9067ffffffffffffffff82116130f2576130548261304e8554610f22565b85612fa3565b602090601f8311600114613089579180916130789360009261307d575b5050613014565b90555b565b90915001513880613071565b601f1983169161309885610f55565b9260005b8181106130da575091600293918560019694106130c0575b5050500201905561307b565b6130d0910151601f841690612ffe565b90553880806130b4565b9193602060018192878701518155019501920161309c565b610457565b9061310191613026565b565b60046131259261311e6131146124d8565b93600385016130f7565b91016130f7565b565b9061313191612f05565b565b6131449061313f612ecb565b613146565b565b8061316261315c6131576000611fa2565b61028e565b9161028e565b146131725761317090612a4d565b565b61319d61317f6000611fa2565b6131876101a3565b918291631e4fbdf760e01b835260048301610c16565b0390fd5b6131aa90613133565b565b90565b803b6131c46131be6000611145565b916102be565b146131e7576131e59060006131df6131da61188d565b6131ac565b01612a2d565b565b613209906131f36101a3565b918291634c9c8ce360e01b835260048301610c16565b0390fd5b3461322161321b6000611145565b916102be565b1161322857565b6132306101a3565b63b398979f60e01b815280613247600482016107ad565b0390fd5b606090565b9061326261325d836106df565b610496565b918252565b3d600014613284576132783d613250565b903d6000602084013e5b565b61328c61324b565b90613282565b6000806132bf936132a161324b565b508390602081019051915af4906132b6613267565b909190916132e1565b90565b6132ca611049565b506132de60006132d861299d565b01611ae1565b90565b906132f5906132ee61324b565b5015610313565b600014613302575061336f565b61330b82612e3c565b61331e6133186000611145565b916102be565b1480613353575b61332d575090565b61334f906133396101a3565b918291639996b31560e01b835260048301610c16565b0390fd5b50803b6133696133636000611145565b916102be565b14613325565b61337881612e3c565b61338b6133856000611145565b916102be565b1160001461339b57805190602001fd5b6133a36101a3565b63d6bda27560e01b8152806133ba600482016107ad565b0390fdfea2646970667358221220411418aeab19da3e4a220e346bf80563a903579c85f503d43935d6252e36824f64736f6c63430008180033",
  "linkReferences": {},
  "deployedLinkReferences": {}
}