{
  "_format": "hh-sol-artifact-1",
  "contractName": "SampleForwarder",
  "sourceName": "contracts/SampleForwarder.sol",
  "abi": [
    {
      "type": "constructor",
      "inputs": [],
      "stateMutability": "nonpayable"
    },
    {
      "type": "function",
      "name": "eip712Domain",
      "inputs": [],
      "outputs": [
        {
          "name": "fields",
          "type": "bytes1",
          "internalType": "bytes1"
        },
        {
          "name": "name",
          "type": "string",
          "internalType": "string"
        },
        {
          "name": "version",
          "type": "string",
          "internalType": "string"
        },
        {
          "name": "chainId",
          "type": "uint256",
          "internalType": "uint256"
        },
        {
          "name": "verifyingContract",
          "type": "address",
          "internalType": "address"
        },
        {
          "name": "salt",
          "type": "bytes32",
          "internalType": "bytes32"
        },
        {
          "name": "extensions",
          "type": "uint256[]",
          "internalType": "uint256[]"
        }
      ],
      "stateMutability": "view"
    },
    {
      "type": "function",
      "name": "execute",
      "inputs": [
        {
          "name": "req",
          "type": "tuple",
          "internalType": "struct MinimalForwarder.ForwardRequest",
          "components": [
            {
              "name": "from",
              "type": "address",
              "internalType": "address"
            },
            {
              "name": "to",
              "type": "address",
              "internalType": "address"
            },
            {
              "name": "value",
              "type": "uint256",
              "internalType": "uint256"
            },
            {
              "name": "gas",
              "type": "uint256",
              "internalType": "uint256"
            },
            {
              "name": "nonce",
              "type": "uint256",
              "internalType": "uint256"
            },
            {
              "name": "data",
              "type": "bytes",
              "internalType": "bytes"
            }
          ]
        },
        {
          "name": "signature",
          "type": "bytes",
          "internalType": "bytes"
        }
      ],
      "outputs": [
        {
          "name": "",
          "type": "bool",
          "internalType": "bool"
        },
        {
          "name": "",
          "type": "bytes",
          "internalType": "bytes"
        }
      ],
      "stateMutability": "payable"
    },
    {
      "type": "function",
      "name": "getNonce",
      "inputs": [
        {
          "name": "from",
          "type": "address",
          "internalType": "address"
        }
      ],
      "outputs": [
        {
          "name": "",
          "type": "uint256",
          "internalType": "uint256"
        }
      ],
      "stateMutability": "view"
    },
    {
      "type": "function",
      "name": "verify",
      "inputs": [
        {
          "name": "req",
          "type": "tuple",
          "internalType": "struct MinimalForwarder.ForwardRequest",
          "components": [
            {
              "name": "from",
              "type": "address",
              "internalType": "address"
            },
            {
              "name": "to",
              "type": "address",
              "internalType": "address"
            },
            {
              "name": "value",
              "type": "uint256",
              "internalType": "uint256"
            },
            {
              "name": "gas",
              "type": "uint256",
              "internalType": "uint256"
            },
            {
              "name": "nonce",
              "type": "uint256",
              "internalType": "uint256"
            },
            {
              "name": "data",
              "type": "bytes",
              "internalType": "bytes"
            }
          ]
        },
        {
          "name": "signature",
          "type": "bytes",
          "internalType": "bytes"
        }
      ],
      "outputs": [
        {
          "name": "",
          "type": "bool",
          "internalType": "bool"
        }
      ],
      "stateMutability": "view"
    },
    {
      "type": "event",
      "name": "EIP712DomainChanged",
      "inputs": [],
      "anonymous": false
    },
    {
      "type": "error",
      "name": "InvalidShortString",
      "inputs": []
    },
    {
      "type": "error",
      "name": "StringTooLong",
      "inputs": [
        {
          "name": "str",
          "type": "string",
          "internalType": "string"
        }
      ]
    }
  ],
  "bytecode": {
    "object": "0x6101606040523480156200001257600080fd5b50604080518082018252601081526f26b4b734b6b0b62337b93bb0b93232b960811b60208083019190915282518084019093526005835264302e302e3160d81b90830152906200006482600062000112565b610120526200007581600162000112565b61014052815160208084019190912060e052815190820120610100524660a0526200010360e05161010051604080517f8b73c3c69bb8fe3d512ecc4cf759cc79239f7b179b0ffacaa9a75d522b39400f60208201529081019290925260608201524660808201523060a082015260009060c00160405160208183030381529060405280519060200120905090565b60805250503060c0526200037d565b600060208351101562000132576200012a836200014b565b905062000145565b816200013f84826200023c565b5060ff90505b92915050565b600080829050601f8151111562000182578260405163305a27a960e01b815260040162000179919062000308565b60405180910390fd5b80516200018f8262000358565b179392505050565b634e487b7160e01b600052604160045260246000fd5b600181811c90821680620001c257607f821691505b602082108103620001e357634e487b7160e01b600052602260045260246000fd5b50919050565b601f8211156200023757600081815260208120601f850160051c81016020861015620002125750805b601f850160051c820191505b8181101562000233578281556001016200021e565b5050505b505050565b81516001600160401b0381111562000258576200025862000197565b6200027081620002698454620001ad565b84620001e9565b602080601f831160018114620002a857600084156200028f5750858301515b600019600386901b1c1916600185901b17855562000233565b600085815260208120601f198616915b82811015620002d957888601518255948401946001909101908401620002b8565b5085821015620002f85787850151600019600388901b60f8161c191681555b5050505050600190811b01905550565b600060208083528351808285015260005b81811015620003375785810183015185820160400152820162000319565b506000604082860101526040601f19601f8301168501019250505092915050565b80516020808301519190811015620001e35760001960209190910360031b1b16919050565b60805160a05160c05160e051610100516101205161014051610f35620003d8600039600061034f01526000610325015260006107ba01526000610792015260006106ed01526000610717015260006107410152610f356000f3fe60806040526004361061003f5760003560e01c80632d0335ab1461004457806347153f821461009a57806384b0196e146100bb578063bf5d3bdb146100e3575b600080fd5b34801561005057600080fd5b5061008761005f366004610b3b565b73ffffffffffffffffffffffffffffffffffffffff1660009081526002602052604090205490565b6040519081526020015b60405180910390f35b6100ad6100a8366004610b78565b610113565b604051610091929190610c85565b3480156100c757600080fd5b506100d0610317565b6040516100919796959493929190610ca8565b3480156100ef57600080fd5b506101036100fe366004610b78565b6103bb565b6040519015158152602001610091565b600060606101228585856103bb565b6101b3576040517f08c379a000000000000000000000000000000000000000000000000000000000815260206004820152603260248201527f4d696e696d616c466f727761726465723a207369676e617475726520646f657360448201527f206e6f74206d617463682072657175657374000000000000000000000000000060648201526084015b60405180910390fd5b6101c260808601356001610d67565b600260006101d36020890189610b3b565b73ffffffffffffffffffffffffffffffffffffffff1673ffffffffffffffffffffffffffffffffffffffff168152602001908152602001600020819055506000808660200160208101906102279190610b3b565b73ffffffffffffffffffffffffffffffffffffffff166060880135604089013561025460a08b018b610da1565b61026160208d018d610b3b565b60405160200161027393929190610e06565b604080517fffffffffffffffffffffffffffffffffffffffffffffffffffffffffffffffe0818403018152908290526102ab91610e3f565b600060405180830381858888f193505050503d80600081146102e9576040519150601f19603f3d011682016040523d82523d6000602084013e6102ee565b606091505b509092509050610303603f6060890135610e5b565b5a1161030b57fe5b90969095509350505050565b60006060808280808361034a7f00000000000000000000000000000000000000000000000000000000000000008361057b565b6103757f0000000000000000000000000000000000000000000000000000000000000000600161057b565b604080516000808252602082019092527f0f000000000000000000000000000000000000000000000000000000000000009b939a50919850469750309650945092509050565b6000806104db84848080601f0160208091040260200160405190810160405280939291908181526020018383808284376000920191909152506104d592507fdd8f4b70b0f4393e889bd39128a30628a78b61816a9eb8199759e7a349657e48915061042b905060208a018a610b3b565b61043b60408b0160208c01610b3b565b60408b013560608c013560808d013561045760a08f018f610da1565b604051610465929190610e96565b60408051918290038220602083019890985273ffffffffffffffffffffffffffffffffffffffff96871690820152949093166060850152608084019190915260a083015260c082015260e08101919091526101000160405160208183030381529060405280519060200120610628565b90610670565b90506080850135600260006104f36020890189610b3b565b73ffffffffffffffffffffffffffffffffffffffff1673ffffffffffffffffffffffffffffffffffffffff1681526020019081526020016000205414801561057257506105436020860186610b3b565b73ffffffffffffffffffffffffffffffffffffffff168173ffffffffffffffffffffffffffffffffffffffff16145b95945050505050565b606060ff83146105955761058e83610694565b9050610622565b8180546105a190610ea6565b80601f01602080910402602001604051908101604052809291908181526020018280546105cd90610ea6565b801561061a5780601f106105ef5761010080835404028352916020019161061a565b820191906000526020600020905b8154815290600101906020018083116105fd57829003601f168201915b505050505090505b92915050565b60006106226106356106d3565b836040517f19010000000000000000000000000000000000000000000000000000000000008152600281019290925260228201526042902090565b600080600061067f8585610810565b9150915061068c81610855565b509392505050565b606060006106a183610a0b565b604080516020808252818301909252919250600091906020820181803683375050509182525060208101929092525090565b60003073ffffffffffffffffffffffffffffffffffffffff7f00000000000000000000000000000000000000000000000000000000000000001614801561073957507f000000000000000000000000000000000000000000000000000000000000000046145b1561076357507f000000000000000000000000000000000000000000000000000000000000000090565b61080b604080517f8b73c3c69bb8fe3d512ecc4cf759cc79239f7b179b0ffacaa9a75d522b39400f60208201527f0000000000000000000000000000000000000000000000000000000000000000918101919091527f000000000000000000000000000000000000000000000000000000000000000060608201524660808201523060a082015260009060c00160405160208183030381529060405280519060200120905090565b905090565b60008082516041036108465760208301516040840151606085015160001a61083a87828585610a4c565b9450945050505061084e565b506000905060025b9250929050565b600081600481111561086957610869610ef9565b036108715750565b600181600481111561088557610885610ef9565b036108ec576040517f08c379a000000000000000000000000000000000000000000000000000000000815260206004820152601860248201527f45434453413a20696e76616c6964207369676e6174757265000000000000000060448201526064016101aa565b600281600481111561090057610900610ef9565b03610967576040517f08c379a000000000000000000000000000000000000000000000000000000000815260206004820152601f60248201527f45434453413a20696e76616c6964207369676e6174757265206c656e6774680060448201526064016101aa565b600381600481111561097b5761097b610ef9565b03610a08576040517f08c379a000000000000000000000000000000000000000000000000000000000815260206004820152602260248201527f45434453413a20696e76616c6964207369676e6174757265202773272076616c60448201527f756500000000000000000000000000000000000000000000000000000000000060648201526084016101aa565b50565b600060ff8216601f811115610622576040517fb3512b0c00000000000000000000000000000000000000000000000000000000815260040160405180910390fd5b6000807f7fffffffffffffffffffffffffffffff5d576e7357a4501ddfe92f46681b20a0831115610a835750600090506003610b32565b6040805160008082526020820180845289905260ff881692820192909252606081018690526080810185905260019060a0016020604051602081039080840390855afa158015610ad7573d6000803e3d6000fd5b50506040517fffffffffffffffffffffffffffffffffffffffffffffffffffffffffffffffe0015191505073ffffffffffffffffffffffffffffffffffffffff8116610b2b57600060019250925050610b32565b9150600090505b94509492505050565b600060208284031215610b4d57600080fd5b813573ffffffffffffffffffffffffffffffffffffffff81168114610b7157600080fd5b9392505050565b600080600060408486031215610b8d57600080fd5b833567ffffffffffffffff80821115610ba557600080fd5b9085019060c08288031215610bb957600080fd5b90935060208501359080821115610bcf57600080fd5b818601915086601f830112610be357600080fd5b813581811115610bf257600080fd5b876020828501011115610c0457600080fd5b6020830194508093505050509250925092565b60005b83811015610c32578181015183820152602001610c1a565b50506000910152565b60008151808452610c53816020860160208601610c17565b601f017fffffffffffffffffffffffffffffffffffffffffffffffffffffffffffffffe0169290920160200192915050565b8215158152604060208201526000610ca06040830184610c3b565b949350505050565b7fff00000000000000000000000000000000000000000000000000000000000000881681526000602060e081840152610ce460e084018a610c3b565b8381036040850152610cf6818a610c3b565b6060850189905273ffffffffffffffffffffffffffffffffffffffff8816608086015260a0850187905284810360c0860152855180825283870192509083019060005b81811015610d5557835183529284019291840191600101610d39565b50909c9b505050505050505050505050565b80820180821115610622577f4e487b7100000000000000000000000000000000000000000000000000000000600052601160045260246000fd5b60008083357fffffffffffffffffffffffffffffffffffffffffffffffffffffffffffffffe1843603018112610dd657600080fd5b83018035915067ffffffffffffffff821115610df157600080fd5b60200191503681900382131561084e57600080fd5b8284823760609190911b7fffffffffffffffffffffffffffffffffffffffff000000000000000000000000169101908152601401919050565b60008251610e51818460208701610c17565b9190910192915050565b600082610e91577f4e487b7100000000000000000000000000000000000000000000000000000000600052601260045260246000fd5b500490565b8183823760009101908152919050565b600181811c90821680610eba57607f821691505b602082108103610ef3577f4e487b7100000000000000000000000000000000000000000000000000000000600052602260045260246000fd5b50919050565b7f4e487b7100000000000000000000000000000000000000000000000000000000600052602160045260246000fdfea164736f6c6343000813000a",
    "linkReferences": {}
  },
  "methodIdentifiers": {
    "eip712Domain()": "84b0196e",
    "execute((address,address,uint256,uint256,uint256,bytes),bytes)": "47153f82",
    "getNonce(address)": "2d0335ab",
    "verify((address,address,uint256,uint256,uint256,bytes),bytes)": "bf5d3bdb"
  },
  "id": 49
}