{
  "_format": "hh-sol-artifact-1",
  "contractName": "PullSplitFactory",
  "sourceName": "contracts/splits/splitters/pull/PullSplitFactory.sol",
  "abi": [
    {
      "inputs": [
        {
          "internalType": "address",
          "name": "_splitsWarehouse",
          "type": "address"
        }
      ],
      "stateMutability": "nonpayable",
      "type": "constructor"
    },
    {
      "anonymous": false,
      "inputs": [
        {
          "indexed": true,
          "internalType": "address",
          "name": "split",
          "type": "address"
        },
        {
          "components": [
            {
              "internalType": "address[]",
              "name": "recipients",
              "type": "address[]"
            },
            {
              "internalType": "uint256[]",
              "name": "allocations",
              "type": "uint256[]"
            },
            {
              "internalType": "uint256",
              "name": "totalAllocation",
              "type": "uint256"
            },
            {
              "internalType": "uint16",
              "name": "distributionIncentive",
              "type": "uint16"
            }
          ],
          "indexed": false,
          "internalType": "struct SplitV2Lib.Split",
          "name": "splitParams",
          "type": "tuple"
        },
        {
          "indexed": false,
          "internalType": "address",
          "name": "owner",
          "type": "address"
        },
        {
          "indexed": false,
          "internalType": "address",
          "name": "creator",
          "type": "address"
        }
      ],
      "name": "SplitCreated",
      "type": "event"
    },
    {
      "inputs": [],
      "name": "SPLIT_WALLET_IMPLEMENTATION",
      "outputs": [
        {
          "internalType": "address",
          "name": "",
          "type": "address"
        }
      ],
      "stateMutability": "view",
      "type": "function"
    },
    {
      "inputs": [
        {
          "components": [
            {
              "internalType": "address[]",
              "name": "recipients",
              "type": "address[]"
            },
            {
              "internalType": "uint256[]",
              "name": "allocations",
              "type": "uint256[]"
            },
            {
              "internalType": "uint256",
              "name": "totalAllocation",
              "type": "uint256"
            },
            {
              "internalType": "uint16",
              "name": "distributionIncentive",
              "type": "uint16"
            }
          ],
          "internalType": "struct SplitV2Lib.Split",
          "name": "_splitParams",
          "type": "tuple"
        },
        {
          "internalType": "address",
          "name": "_owner",
          "type": "address"
        },
        {
          "internalType": "address",
          "name": "_creator",
          "type": "address"
        }
      ],
      "name": "createSplit",
      "outputs": [
        {
          "internalType": "address",
          "name": "split",
          "type": "address"
        }
      ],
      "stateMutability": "nonpayable",
      "type": "function"
    },
    {
      "inputs": [
        {
          "components": [
            {
              "internalType": "address[]",
              "name": "recipients",
              "type": "address[]"
            },
            {
              "internalType": "uint256[]",
              "name": "allocations",
              "type": "uint256[]"
            },
            {
              "internalType": "uint256",
              "name": "totalAllocation",
              "type": "uint256"
            },
            {
              "internalType": "uint16",
              "name": "distributionIncentive",
              "type": "uint16"
            }
          ],
          "internalType": "struct SplitV2Lib.Split",
          "name": "_splitParams",
          "type": "tuple"
        },
        {
          "internalType": "address",
          "name": "_owner",
          "type": "address"
        },
        {
          "internalType": "address",
          "name": "_creator",
          "type": "address"
        },
        {
          "internalType": "bytes32",
          "name": "_salt",
          "type": "bytes32"
        }
      ],
      "name": "createSplitDeterministic",
      "outputs": [
        {
          "internalType": "address",
          "name": "split",
          "type": "address"
        }
      ],
      "stateMutability": "nonpayable",
      "type": "function"
    },
    {
      "inputs": [
        {
          "components": [
            {
              "internalType": "address[]",
              "name": "recipients",
              "type": "address[]"
            },
            {
              "internalType": "uint256[]",
              "name": "allocations",
              "type": "uint256[]"
            },
            {
              "internalType": "uint256",
              "name": "totalAllocation",
              "type": "uint256"
            },
            {
              "internalType": "uint16",
              "name": "distributionIncentive",
              "type": "uint16"
            }
          ],
          "internalType": "struct SplitV2Lib.Split",
          "name": "_splitParams",
          "type": "tuple"
        },
        {
          "internalType": "address",
          "name": "_owner",
          "type": "address"
        },
        {
          "internalType": "bytes32",
          "name": "_salt",
          "type": "bytes32"
        }
      ],
      "name": "isDeployed",
      "outputs": [
        {
          "internalType": "address",
          "name": "split",
          "type": "address"
        },
        {
          "internalType": "bool",
          "name": "exists",
          "type": "bool"
        }
      ],
      "stateMutability": "view",
      "type": "function"
    },
    {
      "inputs": [
        {
          "internalType": "bytes32",
          "name": "_hash",
          "type": "bytes32"
        }
      ],
      "name": "nonces",
      "outputs": [
        {
          "internalType": "uint256",
          "name": "",
          "type": "uint256"
        }
      ],
      "stateMutability": "view",
      "type": "function"
    },
    {
      "inputs": [
        {
          "components": [
            {
              "internalType": "address[]",
              "name": "recipients",
              "type": "address[]"
            },
            {
              "internalType": "uint256[]",
              "name": "allocations",
              "type": "uint256[]"
            },
            {
              "internalType": "uint256",
              "name": "totalAllocation",
              "type": "uint256"
            },
            {
              "internalType": "uint16",
              "name": "distributionIncentive",
              "type": "uint16"
            }
          ],
          "internalType": "struct SplitV2Lib.Split",
          "name": "_splitParams",
          "type": "tuple"
        },
        {
          "internalType": "address",
          "name": "_owner",
          "type": "address"
        }
      ],
      "name": "predictDeterministicAddress",
      "outputs": [
        {
          "internalType": "address",
          "name": "",
          "type": "address"
        }
      ],
      "stateMutability": "view",
      "type": "function"
    },
    {
      "inputs": [
        {
          "components": [
            {
              "internalType": "address[]",
              "name": "recipients",
              "type": "address[]"
            },
            {
              "internalType": "uint256[]",
              "name": "allocations",
              "type": "uint256[]"
            },
            {
              "internalType": "uint256",
              "name": "totalAllocation",
              "type": "uint256"
            },
            {
              "internalType": "uint16",
              "name": "distributionIncentive",
              "type": "uint16"
            }
          ],
          "internalType": "struct SplitV2Lib.Split",
          "name": "_splitParams",
          "type": "tuple"
        },
        {
          "internalType": "address",
          "name": "_owner",
          "type": "address"
        },
        {
          "internalType": "bytes32",
          "name": "_salt",
          "type": "bytes32"
        }
      ],
      "name": "predictDeterministicAddress",
      "outputs": [
        {
          "internalType": "address",
          "name": "",
          "type": "address"
        }
      ],
      "stateMutability": "view",
      "type": "function"
    }
  ],
  "bytecode": "0x60a0604052346200005c576200001e620000186200013b565b620001dc565b6200002862000062565b6110cb6200023d82396080518181816104640152818161098301528181610b2801528181610c9f0152610f1201526110cb90f35b62000068565b60405190565b600080fd5b601f801991011690565b634e487b7160e01b600052604160045260246000fd5b9062000099906200006d565b810190811060018060401b03821117620000b257604052565b62000077565b90620000cf620000c762000062565b92836200008d565b565b600080fd5b60018060a01b031690565b620000ec90620000d6565b90565b620000fa81620000e1565b036200010257565b600080fd5b905051906200011682620000ef565b565b906020828203126200013557620001329160000162000107565b90565b620000d1565b6200015e62005ce5803803806200015281620000b8565b92833981019062000118565b90565b6200016c90620000e1565b9052565b9190620001869060006020850194019062000161565b565b6200019262000062565b3d6000823e3d90fd5b90565b620001b7620001b1620001bd92620000d6565b6200019b565b620000d6565b90565b620001cb906200019e565b90565b620001d990620001c0565b90565b620001e662000062565b906149dd820182811060018060401b038211176200023657829162000214916149dd62001308853962000170565b03906000f0801562000230576200022b90620001ce565b608052565b62000188565b6200007756fe60806040526004361015610013575b6104bb565b61001e60003561008d565b80632556fa391461008857806380ebf0ab146100835780639e317f121461007e578063cd6bc12114610079578063e9889edd14610074578063f79918b01461006f5763fc6119b10361000e57610486565b610419565b610384565b61034d565b61028f565b6101ed565b610171565b60e01c90565b60405190565b600080fd5b600080fd5b600080fd5b600080fd5b908160809103126100bb5790565b6100a8565b60018060a01b031690565b6100d4906100c0565b90565b6100e0816100cb565b036100e757565b600080fd5b905035906100f9826100d7565b565b909160608284031261014957600082013567ffffffffffffffff81116101445761012a846101419285016100ad565b9361013881602086016100ec565b936040016100ec565b90565b6100a3565b61009e565b610157906100cb565b9052565b919061016f9060006020850194019061014e565b565b346101a25761019e61018d6101873660046100fb565b9161092d565b610195610093565b9182918261015b565b0390f35b610099565b91906040838203126101e85760008301359067ffffffffffffffff82116101e3576101d7816101e09386016100ad565b936020016100ec565b90565b6100a3565b61009e565b3461021e5761021a6102096102033660046101a7565b90610ad6565b610211610093565b9182918261015b565b0390f35b610099565b90565b61022f81610223565b0361023657565b600080fd5b9050359061024882610226565b565b90602082820312610264576102619160000161023b565b90565b61009e565b90565b61027590610269565b9052565b919061028d9060006020850194019061026c565b565b346102bf576102bb6102aa6102a536600461024a565b610bf4565b6102b2610093565b91829182610279565b0390f35b610099565b909160608284031261031257600082013567ffffffffffffffff811161030d576102f38461030a9285016100ad565b9361030181602086016100ec565b9360400161023b565b90565b6100a3565b61009e565b151590565b61032590610317565b9052565b91602061034b9294936103446040820196600083019061014e565b019061031c565b565b3461037f576103666103603660046102c4565b91610c37565b9061037b610372610093565b92839283610329565b0390f35b610099565b346103b5576103b16103a061039a3660046102c4565b91610c70565b6103a8610093565b9182918261015b565b0390f35b610099565b60808183031261041457600081013567ffffffffffffffff811161040f57826103e49183016100ad565b9261040c6103f584602085016100ec565b9361040381604086016100ec565b9360600161023b565b90565b6100a3565b61009e565b3461044d5761044961043861042f3660046103ba565b92919091610c89565b610440610093565b9182918261015b565b0390f35b610099565b600091031261045d57565b61009e565b7f000000000000000000000000000000000000000000000000000000000000000090565b346104b657610496366004610452565b6104b26104a1610462565b6104a9610093565b9182918261015b565b0390f35b610099565b600080fd5b600090565b600080fd5b600080fd5b600080fd5b903560016020038236030381121561051557016020813591019167ffffffffffffffff821161051057602082023603831361050b57565b6104ca565b6104c5565b6104cf565b60209181520190565b90565b61052f906100cb565b9052565b9061054081602093610526565b0190565b506105539060208101906100ec565b90565b60200190565b9161056a826105709261051a565b92610523565b90816000905b828210610584575050505090565b909192936105a66105a060019261059b8886610544565b610533565b95610556565b920190929192610576565b90356001602003823603038112156105f257016020813591019167ffffffffffffffff82116105ed5760208202360383136105e857565b6104ca565b6104c5565b6104cf565b60209181520190565b600080fd5b9037565b909182610615916105f7565b9160018060fb1b03811161063857829160206106349202938491610605565b0190565b610600565b61064681610269565b0361064d57565b600080fd5b9050359061065f8261063d565b565b50610670906020810190610652565b90565b61067c90610269565b9052565b61ffff1690565b61069081610680565b0361069757565b600080fd5b905035906106a982610687565b565b506106ba90602081019061069c565b90565b6106c690610680565b9052565b906107409060606107386107146106f9608085016106eb60008901896104d4565b90878303600089015261055c565b61070660208801886105b1565b908683036020880152610609565b9461072f6107256040830183610661565b6040860190610673565b828101906106ab565b9101906106bd565b90565b9291602061076061076893604087019087820360008901526106ca565b94019061014e565b565b601f801991011690565b634e487b7160e01b600052604160045260246000fd5b906107949061076a565b810190811067ffffffffffffffff8211176107ae57604052565b610774565b60200190565b5190565b90565b6107cc6107d191610223565b6107bd565b9052565b905090565b60005b8381106107ee575050906000910152565b8060209183015181850152016107dd565b61082461081b92602092610812816107b9565b948580936107d5565b938491016107da565b0190565b8061083960209261084095946107c0565b01906107ff565b90565b610862929161086e91610854610093565b948592602084019283610828565b9081038252038361078a565b565b90565b61088761088261088c926100c0565b610870565b6100c0565b90565b61089890610873565b90565b6108a49061088f565b90565b6108b090610873565b90565b6108bc906108a7565b90565b600080fd5b60e01b90565b60009103126108d557565b61009e565b6108e2610093565b3d6000823e3d90fd5b6108f4906108a7565b90565b60409061092461091961092b95979694606084019084820360008601526106ca565b96602083019061014e565b019061014e565b565b9291926109386104c0565b506109f081610968849161095961094d610093565b93849260208401610743565b6020820181038252038261078a565b61097a610974826107b9565b916107b3565b206109d76109c37f0000000000000000000000000000000000000000000000000000000000000000926109d26109af82610e14565b6109b7610093565b93849160208301610279565b6020820181038252038361078a565b610843565b6109e96109e3826107b9565b916107b3565b2090610e47565b93610a026109fd8661089b565b6108b3565b63baa7fda4838592803b15610ac557610a2f60008094610a3a610a23610093565b978896879586946108c4565b845260048401610743565b03925af18015610ac057610a93575b508491929092610a8e610a7c7fb3ec24e9259e438f9917b49f27c0dd89a11b7626cb63e6fc977863c0b26a681b946108eb565b94610a85610093565b938493846108f7565b0390a2565b610ab39060003d8111610ab9575b610aab818361078a565b8101906108ca565b38610a49565b503d610aa1565b6108da565b6108bf565b610ad3906108a7565b90565b90610b0d610b9e92610ae66104c0565b50610afe610af2610093565b93849260208401610743565b6020820181038252038261078a565b610b1f610b19826107b9565b916107b3565b20610b7c610b687f000000000000000000000000000000000000000000000000000000000000000092610b77610b5482610bf4565b610b5c610093565b93849160208301610279565b6020820181038252038361078a565b610843565b610b8e610b88826107b9565b916107b3565b20610b9830610aca565b91610edd565b90565b600090565b610baf90610223565b90565b90610bbc90610ba6565b600052602052604060002090565b60001c90565b90565b610bdf610be491610bca565b610bd0565b90565b610bf19054610bd3565b90565b610c0b610c1091610c03610ba1565b506000610bb2565b610be7565b90565b600090565b90565b610c2f610c2a610c3492610c18565b610870565b610269565b90565b91610c5692610c446104c0565b50610c4d610c13565b50919091610efe565b90813b610c6c610c666000610c1b565b91610269565b1190565b91610c8692610c7d6104c0565b50919091610efe565b90565b90919392610ccf90610c996104c0565b50610cc97f0000000000000000000000000000000000000000000000000000000000000000918490869091610f99565b90610e47565b93610ce1610cdc8661089b565b6108b3565b63baa7fda4838592803b15610da457610d0e60008094610d19610d02610093565b978896879586946108c4565b845260048401610743565b03925af18015610d9f57610d72575b508491929092610d6d610d5b7fb3ec24e9259e438f9917b49f27c0dd89a11b7626cb63e6fc977863c0b26a681b946108eb565b94610d64610093565b938493846108f7565b0390a2565b610d929060003d8111610d98575b610d8a818361078a565b8101906108ca565b38610d28565b503d610d80565b6108da565b6108bf565b6001610db59101610269565b90565b60001b90565b90610dcb60001991610db8565b9181191691161790565b610de9610de4610dee92610269565b610870565b610269565b90565b90565b90610e09610e04610e1092610dd5565b610df1565b8254610dbe565b9055565b610e2890610e20610ba1565b506000610bb2565b610e44610e3482610be7565b91610e3e83610da9565b90610df4565b90565b9190610e516104c0565b50604051926c5af43d3d93803e605757fd5bf36051526044526f593da1005b3d3d3d3d363d3d37363d736030527f9e4ac34f21c619cefc926c8bd93b54bf5a39c7ab2127a895af1cc0691d7e3dff6020527060593d8160093d39f336602c57343d527f6000526071600f6000f59160405260006060528115610ecf57565b63301164256000526004601cfd5b91610ef3610efb93610eed6104c0565b50610fec565b91909161106b565b90565b90610f3a90610f4993610f0f6104c0565b507f000000000000000000000000000000000000000000000000000000000000000093919091610f99565b610f4330610aca565b91610edd565b90565b600090565b610f61610f6891602094936107ff565b80926107c0565b0190565b610f8b9291610f9791610f7d610093565b948592602084019283610f51565b9081038252038361078a565b565b91610fd0610fd693610fa9610f4c565b50610fc1610fb5610093565b94859260208401610743565b6020820181038252038361078a565b90610f6c565b610fe8610fe2826107b9565b916107b3565b2090565b90610ff5610f4c565b50604051916c5af43d3d93803e605757fd5bf36051526044526f593da1005b3d3d3d3d363d3d37363d736030527f9e4ac34f21c619cefc926c8bd93b54bf5a39c7ab2127a895af1cc0691d7e3dff6020527060593d8160093d39f336602c57343d527f6000526071600f20916040526000606052565b9190916110766104c0565b5060ff60005360355260601b600152601552605560002090600060355256fea2646970667358221220db09d48192292bd29a9f7f8657d45e93e259fb3aeefa661d9474338d390ac61764736f6c634300081800336101c060405234620000e5576200001f62000019620001c4565b620001ea565b62000029620000eb565b613e1162000bcc82396080518161385a015260a05181613891015260c05181613820015260e05181613d5301526101005181613d7801526101205181611ec601526101405181611efb015261016051818181610ea30152818161156001528181611619015281816116c101528181611725015281816120010152818161304e015261313f015261018051818181610737015261214b01526101a0518181816107b30152818161152901528181611fbc01526123cf0152613e1190f35b620000f1565b60405190565b600080fd5b601f801991011690565b634e487b7160e01b600052604160045260246000fd5b906200012290620000f6565b810190811060018060401b038211176200013b57604052565b62000100565b906200015862000150620000eb565b928362000116565b565b600080fd5b60018060a01b031690565b62000175906200015f565b90565b62000183816200016a565b036200018b57565b600080fd5b905051906200019f8262000178565b565b90602082820312620001be57620001bb9160000162000190565b90565b6200015a565b620001e7620049dd80380380620001db8162000141565b928339810190620001a1565b90565b620001f59062000374565b565b60018060401b038111620002165762000212602091620000f6565b0190565b62000100565b90620002326200022c83620001f7565b62000141565b918252565b60007f73706c697457616c6c6574000000000000000000000000000000000000000000910152565b6200026b600b6200021c565b906200027a6020830162000237565b565b620002866200025f565b90565b60007f3200000000000000000000000000000000000000000000000000000000000000910152565b620002bd60016200021c565b90620002cc6020830162000289565b565b620002d8620002b1565b90565b90565b620002f7620002f1620002fd926200015f565b620002db565b6200015f565b90565b6200030b90620002de565b90565b620003199062000300565b90565b62000327906200016a565b90565b6200033690516200031c565b90565b6200034490620002de565b90565b620003529062000339565b90565b60e01b90565b60000190565b6200036b620000eb565b3d6000823e3d90fd5b6200039e9062000398620003876200027c565b62000391620002ce565b9062000446565b6200030e565b61016052620003d86020620003bf620003b96101606200032a565b62000347565b6331f7d96490620003cf620000eb565b93849262000355565b82528180620003ea600482016200035b565b03915afa90811562000440576000916200040b575b506101a0523361018052565b62000431915060203d811162000438575b62000428818362000116565b810190620001a1565b38620003ff565b503d6200041c565b62000361565b90620004529162000472565b565b90565b90565b60200190565b5190565b6200046f9062000339565b90565b90620004ba620004da9262000494816200048d600162000454565b906200082e565b61012052620004b083620004a9600262000454565b906200082e565b6101405262000457565b620004d0620004c98262000460565b916200045a565b2060e05262000457565b620004f0620004e98262000460565b916200045a565b20610100524660a052620005036200096b565b608052620005113062000464565b60c052565b600090565b90565b90565b6200053a6200053462000540926200051e565b620002db565b6200051b565b90565b5190565b634e487b7160e01b600052602260045260246000fd5b906001600283049216801562000580575b60208310146200057a57565b62000547565b91607f16916200056e565b600052602060002090565b601f602091010490565b1b90565b91906008620005c4910291620005bd60001984620005a0565b92620005a0565b9181191691161790565b620005e7620005e1620005ed926200051b565b620002db565b6200051b565b90565b90565b91906200060e620006086200061793620005ce565b620005f0565b908354620005a4565b9055565b600090565b62000636916200062f6200061b565b91620005f3565b565b5b81811062000645575050565b8062000655600060019362000620565b0162000639565b9190601f81116200066d575b505050565b6200067c620006a7936200058b565b9060206200068a8462000596565b83019310620006b0575b6200069f9062000596565b019062000638565b38808062000668565b91506200069f8192905062000694565b1c90565b90620006d79060001990600802620006c0565b191690565b81620006e891620006c4565b906002021790565b90620006fc8162000543565b9060018060401b038211620007cf5762000723826200071c85546200055d565b856200065c565b602090601f83116001146200075d579180916200074b9360009262000750575b5050620006dc565b90555b565b9091500151388062000743565b601f198316916200076e856200058b565b9260005b818110620007b65750916002939185600196941062000799575b505050020190556200074e565b620007ab910151601f841690620006c4565b90553880806200078c565b9193602060018192878701518155019501920162000772565b62000100565b90620007e191620006f0565b565b90565b90565b60001b90565b62000808620008026200080e92620007e3565b620007e9565b620007e6565b90565b6200081d60ff620007ef565b90565b6200082b90620007e6565b90565b906200083962000516565b506200084f620008498362000457565b62000460565b620008666200085f602062000521565b916200051b565b106000146200087e57506200087b9062000b28565b90565b600062000890620008979392620009f0565b01620007d5565b620008ab620008a562000811565b62000820565b90565b600090565b7f8b73c3c69bb8fe3d512ecc4cf759cc79239f7b179b0ffacaa9a75d522b39400f90565b620008e39051620007e6565b90565b620008f190620007e6565b9052565b62000900906200051b565b9052565b6200090f906200016a565b9052565b9095949262000969946200095662000961926200094b6080966200094060a088019c6000890190620008e6565b6020870190620008e6565b6040850190620008e6565b6060830190620008f5565b019062000904565b565b62000975620008ae565b5062000980620008b3565b620009d66200099060e0620008d7565b91620009c6620009a2610100620008d7565b46620009ae3062000464565b91620009b9620000eb565b9687956020870162000913565b6020820181038252038262000116565b620009ec620009e58262000460565b916200045a565b2090565b90565b90565b62000a0f62000a0962000a1592620009f3565b620002db565b6200051b565b90565b60209181520190565b60005b83811062000a36575050906000910152565b80602091830151818501520162000a24565b62000a6d62000a7760209362000a7d9362000a638162000543565b9384809362000a18565b9586910162000a21565b620000f6565b0190565b62000a99916020820191600081840391015262000a48565b90565b62000abc62000ab662000aaf8362000460565b926200045a565b620008d7565b906020811062000acb575b5090565b62000ae09060001990602003600802620005a0565b163862000ac7565b60001c90565b62000afd62000b039162000ae8565b620005ce565b90565b62000b1f62000b1962000b25926200051b565b620007e9565b620007e6565b90565b62000b3262000516565b5062000b3e8162000457565b9062000b4a8262000460565b62000b6162000b5a601f620009f6565b916200051b565b1162000ba1575062000b988162000b9162000b8a62000b8462000b9e9562000a9c565b62000aee565b9162000460565b1762000b06565b62000820565b90565b62000bc79062000bb0620000eb565b91829163305a27a960e01b83526004830162000a81565b0390fdfe60806040526004361015610013575b6111c6565b61001e60003561017d565b806301ffc9a714610178578063150b7a02146101735780631626ba7e1461016e57806316c38b3c146101695780631d43d55e14610164578063286617de1461015f5780632d3f55371461015a5780632dd310001461015557806331f7d964146101505780635c975abb1461014b5780636d2244891461014657806384b0196e146101415780638da5cb5b1461013c578063b8d63f4514610137578063baa7fda414610132578063bc197c811461012d578063ce1506be14610128578063d47b287e14610123578063dfb7ce831461011e578063f23a6e6114610119578063f2fde38b146101145763f69e64b20361000e57611199565b610ffd565b610fc4565b610f1f565b610e6a565b610dc6565b610d6e565b610c03565b610b87565b610b0f565b610a94565b6108db565b61084a565b6107d5565b61077c565b6106f1565b61066b565b6105e9565b610588565b610509565b610419565b61020f565b60e01c90565b60405190565b600080fd5b600080fd5b600080fd5b63ffffffff60e01b1690565b6101ad81610198565b036101b457565b600080fd5b905035906101c6826101a4565b565b906020828203126101e2576101df916000016101b9565b90565b61018e565b151590565b6101f5906101e7565b9052565b919061020d906000602085019401906101ec565b565b3461023f5761023b61022a6102253660046101c8565b6111d0565b610232610183565b918291826101f9565b0390f35b610189565b60018060a01b031690565b61025890610244565b90565b6102648161024f565b0361026b57565b600080fd5b9050359061027d8261025b565b565b90565b61028b8161027f565b0361029257565b600080fd5b905035906102a482610282565b565b600080fd5b600080fd5b601f801991011690565b634e487b7160e01b600052604160045260246000fd5b906102da906102b0565b810190811067ffffffffffffffff8211176102f457604052565b6102ba565b9061030c610305610183565b92836102d0565b565b67ffffffffffffffff811161032c576103286020916102b0565b0190565b6102ba565b90826000939282370152565b9092919261035261034d8261030e565b6102f9565b9381855260208501908284011161036e5761036c92610331565b565b6102ab565b9080601f830112156103915781602061038e9335910161033d565b90565b6102a6565b906080828203126103f1576103ae8160008401610270565b926103bc8260208501610270565b926103ca8360408301610297565b92606082013567ffffffffffffffff81116103ec576103e99201610373565b90565b610193565b61018e565b6103ff90610198565b9052565b9190610417906000602085019401906103f6565b565b3461044d5761044961043861042f366004610396565b92919091611240565b610440610183565b91829182610403565b0390f35b610189565b90565b61045e81610452565b0361046557565b600080fd5b9050359061047782610455565b565b600080fd5b600080fd5b909182601f830112156104bd5781359167ffffffffffffffff83116104b85760200192600183028401116104b357565b61047e565b610479565b6102a6565b919091604081840312610504576104dc836000830161046a565b92602082013567ffffffffffffffff81116104ff576104fb9201610483565b9091565b610193565b61018e565b3461053a5761053661052561051f3660046104c2565b916112a9565b61052d610183565b91829182610403565b0390f35b610189565b610548816101e7565b0361054f57565b600080fd5b905035906105618261053f565b565b9060208282031261057d5761057a91600001610554565b90565b61018e565b60000190565b346105b6576105a061059b366004610563565b61143a565b6105a8610183565b806105b281610582565b0390f35b610189565b91906040838203126105e457806105d86105e19260008601610270565b93602001610297565b90565b61018e565b34610618576106026105fc3660046105bb565b90611520565b61060a610183565b8061061481610582565b0390f35b610189565b600080fd5b908160809103126106305790565b61061d565b9060208282031261066657600082013567ffffffffffffffff81116106615761065e9201610622565b90565b610193565b61018e565b346106995761068361067e366004610635565b611bcd565b61068b610183565b8061069581610582565b0390f35b610189565b90916060828403126106ec57600082013567ffffffffffffffff81116106e7576106cd846106e4928501610622565b936106db8160208601610270565b93604001610270565b90565b610193565b61018e565b346107205761070a61070436600461069e565b91611de1565b610712610183565b8061071c81610582565b0390f35b610189565b600091031261073057565b61018e565b7f000000000000000000000000000000000000000000000000000000000000000090565b6107629061024f565b9052565b919061077a90600060208501940190610759565b565b346107ac5761078c366004610725565b6107a8610797610735565b61079f610183565b91829182610766565b0390f35b610189565b7f000000000000000000000000000000000000000000000000000000000000000090565b34610805576107e5366004610725565b6108016107f06107b1565b6107f8610183565b91829182610766565b0390f35b610189565b1c90565b60ff1690565b610824906008610829930261080a565b61080e565b90565b906108379154610814565b90565b610847600060149061082c565b90565b3461087a5761085a366004610725565b61087661086561083a565b61086d610183565b918291826101f9565b0390f35b610189565b90565b610892906008610897930261080a565b61087f565b90565b906108a59154610882565b90565b6108b5600360009061089a565b90565b6108c190610452565b9052565b91906108d9906000602085019401906108b8565b565b3461090b576108eb366004610725565b6109076108f66108a8565b6108fe610183565b918291826108c5565b0390f35b610189565b60ff60f81b1690565b61092290610910565b9052565b5190565b60209181520190565b60005b838110610947575050906000910152565b806020918301518185015201610936565b6109776109806020936109859361096e81610926565b9384809361092a565b95869101610933565b6102b0565b0190565b6109929061027f565b9052565b5190565b60209181520190565b60200190565b6109b29061027f565b9052565b906109c3816020936109a9565b0190565b60200190565b906109ea6109e46109dd84610996565b809361099a565b926109a3565b9060005b8181106109fb5750505090565b909192610a14610a0e60019286516109b6565b946109c7565b91019190916109ee565b93959194610a70610a65610a8495610a57610a7a95610a919c9a610a4a60e08c019260008d0190610919565b8a820360208c0152610958565b9088820360408a0152610958565b976060870190610989565b6080850190610759565b60a08301906108b8565b60c08184039101526109cd565b90565b34610acb57610aa4366004610725565b610ac7610aaf611e82565b93610abe979597939193610183565b97889788610a1e565b0390f35b610189565b60018060a01b031690565b610aeb906008610af0930261080a565b610ad0565b90565b90610afe9154610adb565b90565b610b0c600080610af3565b90565b34610b3f57610b1f366004610725565b610b3b610b2a610b01565b610b32610183565b91829182610766565b0390f35b610189565b90602082820312610b5e57610b5b91600001610270565b90565b61018e565b916020610b85929493610b7e60408201966000830190610989565b0190610989565b565b34610bb857610b9f610b9a366004610b44565b611fa0565b90610bb4610bab610183565b92839283610b63565b0390f35b610189565b9190604083820312610bfe5760008301359067ffffffffffffffff8211610bf957610bed81610bf6938601610622565b93602001610270565b90565b610193565b61018e565b34610c3257610c1c610c16366004610bbd565b90612141565b610c24610183565b80610c2e81610582565b0390f35b610189565b67ffffffffffffffff8111610c4f5760208091020190565b6102ba565b90929192610c69610c6482610c37565b6102f9565b9381855260208086019202830192818411610ca657915b838310610c8d5750505050565b60208091610c9b8486610297565b815201920191610c80565b61047e565b9080601f83011215610cc957816020610cc693359101610c54565b90565b6102a6565b91909160a081840312610d6957610ce88360008301610270565b92610cf68160208401610270565b92604083013567ffffffffffffffff8111610d645782610d17918501610cab565b92606081013567ffffffffffffffff8111610d5f5783610d38918301610cab565b92608082013567ffffffffffffffff8111610d5a57610d579201610373565b90565b610193565b610193565b610193565b61018e565b34610da257610d9e610d8d610d84366004610cce565b939290926121c3565b610d95610183565b91829182610403565b0390f35b610189565b90602082820312610dc157610dbe9160000161046a565b90565b61018e565b34610df657610df2610de1610ddc366004610da7565b61222f565b610de9610183565b918291826108c5565b0390f35b610189565b919060a083820312610e6557600083013567ffffffffffffffff8111610e605781610e27918501610622565b92610e358260208301610270565b92610e5d610e468460408501610297565b93610e548160608601610554565b93608001610270565b90565b610193565b61018e565b34610e9c57610e86610e7d366004610dfb565b939290926124f5565b610e8e610183565b80610e9881610582565b0390f35b610189565b7f000000000000000000000000000000000000000000000000000000000000000090565b90565b610edc610ed7610ee192610244565b610ec5565b610244565b90565b610eed90610ec8565b90565b610ef990610ee4565b90565b610f0590610ef0565b9052565b9190610f1d90600060208501940190610efc565b565b34610f4f57610f2f366004610725565b610f4b610f3a610ea1565b610f42610183565b91829182610f09565b0390f35b610189565b91909160a081840312610fbf57610f6e8360008301610270565b92610f7c8160208401610270565b92610f8a8260408501610297565b92610f988360608301610297565b92608082013567ffffffffffffffff8111610fba57610fb79201610373565b90565b610193565b61018e565b34610ff857610ff4610fe3610fda366004610f54565b93929092612504565b610feb610183565b91829182610403565b0390f35b610189565b3461102b57611015611010366004610b44565b612645565b61101d610183565b8061102781610582565b0390f35b610189565b909182601f8301121561106a5781359167ffffffffffffffff831161106557602001926020830284011161106057565b61047e565b610479565b6102a6565b906020828203126110a157600082013567ffffffffffffffff811161109c576110989201611030565b9091565b610193565b61018e565b5190565b60209181520190565b60200190565b5190565b60209181520190565b6110e56110ee6020936110f3936110dc816110b9565b938480936110bd565b95869101610933565b6102b0565b0190565b90611101916110c6565b90565b60200190565b9061111e611117836110a6565b80926110aa565b908161112f602083028401946110b3565b926000915b83831061114357505050505090565b9091929394602061116561115f838560019503875289516110f7565b97611104565b9301930191939290611134565b916111969261118960408201936000830190610989565b602081840391015261110a565b90565b6111ad6111a736600461106f565b90612a87565b906111c26111b9610183565b92839283611172565b0390f35b600080fd5b600090565b6111d86111cb565b50806111f36111ed630271189760e51b610198565b91610198565b14908115611200575b5090565b61120a9150612c6f565b386111fc565b600090565b63ffffffff1690565b60e01b90565b61123861123361123d92611215565b61121e565b610198565b90565b5050505061124c611210565b5061125a63150b7a02611224565b90565b61126891369161033d565b90565b90565b61128261127d6112879261126b565b61121e565b610198565b90565b90565b6112a161129c6112a69261128a565b61121e565b610198565b90565b906112d16112d7936112b9611210565b506112cb6112c5612c95565b9461222f565b9261125d565b91612cdc565b6112eb576112e863ffffffff61128d565b90565b6112f8631626ba7e61126e565b90565b60001c90565b61130d611312916112fb565b610ad0565b90565b61131f9054611301565b90565b61132b90610ee4565b90565b3361134a61134461133f6000611315565b61024f565b9161024f565b141580611383575b6113615761135f906113f4565b565b611369610183565b6282b42960e81b81528061137f60048201610582565b0390fd5b503361139f61139961139430611322565b61024f565b9161024f565b1415611352565b60a01b90565b906113bb60ff60a01b916113a6565b9181191691161790565b6113ce906101e7565b90565b90565b906113e96113e46113f0926113c5565b6113d1565b82546113ac565b9055565b6113ff8160006113d4565b6114357f3c70af01296aef045b2f5c9d3c30b05d4428fd257145b9c7fcd76418e65b59809161142c610183565b918291826101f9565b0390a1565b6114439061132e565b565b61144e90610ee4565b90565b600080fd5b600091031261146157565b61018e565b604090611490611497949695939661148660608401986000850190610759565b6020830190610759565b0190610989565b565b6114a1610183565b3d6000823e3d90fd5b6114b390610ec8565b90565b6114bf906114aa565b90565b6114cb90610ee4565b90565b905051906114db8261053f565b565b906020828203126114f7576114f4916000016114ce565b90565b61018e565b91602061151e92949361151760408201966000830190610759565b0190610989565b565b8061155361154d7f000000000000000000000000000000000000000000000000000000000000000061024f565b9161024f565b14600014611614576115847f0000000000000000000000000000000000000000000000000000000000000000610ef0565b90638340f5498392909261159730611445565b929490823b1561160f576000946115ca6115bf936115b3610183565b9889978896879561121e565b855260048501611466565b03925af1801561160a576115dd575b505b565b6115fd9060003d8111611603575b6115f581836102d0565b810190611456565b386115d9565b503d6115eb565b611499565b611451565b61163d7f0000000000000000000000000000000000000000000000000000000000000000610ef0565b638340f54961164b30611445565b83928592813b1561183e576000611675916116808296611669610183565b9889978896879561121e565b855260048501611466565b03925af19081611811575b501560001461180a5760016116a3575b50505b6115db565b6116b46116af826114b6565b6114c2565b602063095ea7b3916116e57f0000000000000000000000000000000000000000000000000000000000000000610ef0565b9061170560008019956117106116f9610183565b9788968795869461121e565b8452600484016114fc565b03925af18015611805576117d9575b506117497f0000000000000000000000000000000000000000000000000000000000000000610ef0565b90638340f5499161175930611445565b919392813b156117d45760006117829161178d8296611776610183565b9889978896879561121e565b855260048501611466565b03925af180156117cf576117a2575b8061169b565b6117c29060003d81116117c8575b6117ba81836102d0565b810190611456565b3861179c565b503d6117b0565b611499565b611451565b6117f99060203d81116117fe575b6117f181836102d0565b8101906114dd565b61171f565b503d6117e7565b611499565b505061169e565b6118319060003d8111611837575b61182981836102d0565b810190611456565b3861168b565b503d61181f565b611451565b3361185f6118596118546000611315565b61024f565b9161024f565b141580611898575b6118765761187490611b76565b565b61187e610183565b6282b42960e81b81528061189460048201610582565b0390fd5b50336118b46118ae6118a930611322565b61024f565b9161024f565b1415611867565b60001b90565b906118ce600019916118bb565b9181191691161790565b6118e190610452565b90565b6118ed906112fb565b90565b9061190561190061190c926118d8565b6118e4565b82546118c1565b9055565b600080fd5b600080fd5b600080fd5b903560016020038236030381121561196057016020813591019167ffffffffffffffff821161195b57602082023603831361195657565b611915565b611910565b61191a565b60209181520190565b90565b61197a9061024f565b9052565b9061198b81602093611971565b0190565b5061199e906020810190610270565b90565b60200190565b916119b5826119bb92611965565b9261196e565b90816000905b8282106119cf575050505090565b909192936119f16119eb6001926119e6888661198f565b61197e565b956119a1565b9201909291926119c1565b9035600160200382360303811215611a3d57016020813591019167ffffffffffffffff8211611a38576020820236038313611a3357565b611915565b611910565b61191a565b60209181520190565b600080fd5b9037565b909182611a6091611a42565b9160018060fb1b038111611a835782916020611a7f9202938491611a50565b0190565b611a4b565b50611a97906020810190610297565b90565b61ffff1690565b611aaa81611a9a565b03611ab157565b600080fd5b90503590611ac382611aa1565b565b50611ad4906020810190611ab6565b90565b611ae090611a9a565b9052565b90611b5a906060611b52611b2e611b1360808501611b05600089018961191f565b9087830360008901526119a7565b611b2060208801886119fc565b908683036020880152611a54565b94611b49611b3f6040830183611a88565b60408601906109a9565b82810190611ac5565b910190611ad7565b90565b611b739160208201916000818403910152611ae4565b90565b611b7f81612df6565b611b92611b8b82612f13565b60036118f0565b611bc87f52cd08e805db808b670064dedc5cf97374a918fc17c82d7097753189550e8d5191611bbf610183565b91829182611b5d565b0390a1565b611bd690611843565b565b60a01c90565b611bea611bef91611bd8565b61080e565b90565b611bfc9054611bde565b90565b611c0890610ee4565b90565b9190611c176000611315565b611c216000611bf2565b611c32575b50611c3092611d3d565b565b33611c45611c3f8361024f565b9161024f565b14159081611ca5575b5080611c82575b611c5f5738611c26565b611c67610183565b6313d0ff5960e31b815280611c7e60048201610582565b0390fd5b5033611c9e611c98611c9330611bff565b61024f565b9161024f565b1415611c55565b9050611cba611cb4329261024f565b9161024f565b141538611c4e565b611cce611cd3916112fb565b61087f565b90565b611ce09054611cc2565b90565b90565b611cfa611cf5611cff92611ce3565b610ec5565b61027f565b90565b634e487b7160e01b600052601160045260246000fd5b611d27611d2d9193929361027f565b9261027f565b8201809211611d3857565b611d02565b91611d486003611cd6565b611d62611d5c611d5786612f13565b610452565b91610452565b03611dbe57611dac92611da5611d7784611fa0565b9080151590039080151590039281611d98611d926000611ce6565b9161027f565b11611dae575b9492611d18565b919261303d565b565b611db9868390611520565b611d9e565b611dc6610183565b63bcd55b0f60e01b815280611ddd60048201610582565b0390fd5b90611dec9291611c0b565b565b600090565b606090565b600090565b600090565b600090565b606090565b90565b611e1890610ee4565b90565b611e2f611e2a611e3492611ce3565b6118bb565b610452565b90565b90611e49611e4483610c37565b6102f9565b918252565b369037565b90611e78611e6083611e37565b92602080611e6e8693610c37565b9201910390611e4e565b565b600f60f81b90565b611e8a611dee565b50611e93611df3565b50611e9c611df3565b50611ea5611df8565b50611eae611dfd565b50611eb7611e02565b50611ec0611e07565b50611ef57f0000000000000000000000000000000000000000000000000000000000000000611eef6001611e0c565b90613362565b90611f2a7f0000000000000000000000000000000000000000000000000000000000000000611f246002611e0c565b90613362565b904690611f3630611e0f565b90611f416000611e1b565b90611f54611f4f6000611ce6565b611e53565b90611f5d611e7a565b96959493929190565b611f6f90610ee4565b90565b90505190611f7f82610282565b565b90602082820312611f9b57611f9891600001611f72565b90565b61018e565b90611fa9611df8565b50611fb2611df8565b5081611fe6611fe07f000000000000000000000000000000000000000000000000000000000000000061024f565b9161024f565b146000146120ad57611ff730611f66565b315b9160206120257f0000000000000000000000000000000000000000000000000000000000000000610ef0565b9162fdd58e9261205861204061203a30611f66565b936133d9565b9461206361204c610183565b9687958694859461121e565b8452600484016114fc565b03915afa9081156120a85760009161207a575b5090565b61209b915060203d81116120a1575b61209381836102d0565b810190611f81565b38612076565b503d612089565b611499565b6120f560206120c36120be856114b6565b6114c2565b6370a08231906120ea6120d530611f66565b926120de610183565b9586948593849361121e565b835260048301610766565b03915afa90811561213c5760009161210e575b50611ff9565b61212f915060203d8111612135575b61212781836102d0565b810190611f81565b38612108565b503d61211d565b611499565b903361217561216f7f000000000000000000000000000000000000000000000000000000000000000061024f565b9161024f565b036121a0576121996121928361218d61219e95612df6565b612f13565b60036118f0565b6133f6565b565b6121a8610183565b630d622feb60e01b8152806121bf60048201610582565b0390fd5b50505050506121d0611210565b506121de63bc197c81611224565b90565b7f27494ec45ae688e7b2451f36d0c95ff88538e2aeba4442f5a7a84fb2268f973490565b916020612227929493612220604082019660008301906108b8565b01906108b8565b565b60200190565b6122859061223b611e02565b5061226d6122476121e1565b61225e612252610183565b93849260208401612205565b602082018103825203826102d0565b61227f612279826110b9565b91612229565b20613404565b90565b939291906122966000611315565b6122a06000611bf2565b6122b1575b506122af94612385565b565b336122c46122be8361024f565b9161024f565b14159081612324575b5080612301575b6122de57386122a5565b6122e6610183565b6313d0ff5960e31b8152806122fd60048201610582565b0390fd5b503361231d61231761231230611bff565b61024f565b9161024f565b14156122d4565b9050612339612333329261024f565b9161024f565b1415386122cd565b90565b61235861235361235d92612341565b610ec5565b61027f565b90565b61236f6123759193929361027f565b9261027f565b820391821161238057565b611d02565b939190926123936003611cd6565b6123ad6123a76123a288612f13565b610452565b91610452565b036124d2576123c6575b6123c4939290919261303d565b565b826123f96123f37f000000000000000000000000000000000000000000000000000000000000000061024f565b9161024f565b14600014612433576123c49361242c61242661241430611445565b315b6124206001612344565b90612360565b85611520565b93506123b7565b61247c93602061244a612445866114b6565b6114c2565b6370a082319061247161245c30611445565b92612465610183565b998a948593849361121e565b835260048301610766565b03915afa80156124cd5761242661242c916123c49760009161249f575b50612416565b6124c0915060203d81116124c6575b6124b881836102d0565b810190611f81565b38612499565b503d6124ae565b611499565b6124da610183565b63bcd55b0f60e01b8152806124f160048201610582565b0390fd5b9061250294939291612288565b565b5050505050612511611210565b5061251f63f23a6e61611224565b90565b3361253e6125386125336000611315565b61024f565b9161024f565b141580612577575b61255557612553906125e4565b565b61255d610183565b6282b42960e81b81528061257360048201610582565b0390fd5b503361259361258d61258830611322565b61024f565b9161024f565b1415612546565b6125a390610ee4565b90565b906125b760018060a01b03916118bb565b9181191691161790565b90565b906125d96125d46125e09261259a565b6125c1565b82546125a6565b9055565b612643906125f26000611315565b816126266126207f8be0079c531659141344cd1fd0a4f28419497f9722a3daafe3b4186f6b6457e09361259a565b9161259a565b9161262f610183565b8061263981610582565b0390a360006125c4565b565b61264e90612522565b565b606090565b5090565b67ffffffffffffffff81116126715760208091020190565b6102ba565b9061268861268383612659565b6102f9565b918252565b606090565b60005b8281106126a157505050565b6020906126ac61268d565b8184015201612695565b906126db6126c383612676565b926020806126d18693612659565b9201910390612692565b565b60016126e9910161027f565b90565b634e487b7160e01b600052603260045260246000fd5b600080fd5b600080fd5b600080fd5b903590600160600381360303821215612728570190565b612702565b908210156127475760206127449202810190612711565b90565b6126ec565b356127568161025b565b90565b90359060016020038136030382121561279b570180359067ffffffffffffffff82116127965760200191600182023603831361279157565b61270c565b612707565b612702565b5090565b90356001602003823603038112156127e557016020813591019167ffffffffffffffff82116127e05760018202360383136127db57565b611915565b611910565b61191a565b9190612804816127fd81612809956110bd565b8095610331565b6102b0565b0190565b612865916128576060820192612833612829600083018361198f565b6000850190611971565b61284d6128436020830183611a88565b60208501906109a9565b60408101906127a4565b9160408185039101526127ea565b90565b61287e916020820191600081840391015261280d565b90565b3561288b81610282565b90565b905090565b9091826128a3816128aa9361288e565b8093610331565b0190565b90916128b992612893565b90565b906128ce6128c98361030e565b6102f9565b918252565b606090565b3d6000146128f5576128e93d6128bc565b903d6000602084013e5b565b6128fd6128d3565b906128f3565b9061290d826110a6565b81101561291e576020809102010190565b6126ec565b90565b61293c9160208201916000818403910152610958565b90565b156129475750565b61296890612953610183565b91829162461bcd60e51b835260048301612926565b0390fd5b60209181520190565b90565b6129d0916129c2606082019261299e612994600083018361198f565b6000850190611971565b6129b86129ae6020830183611a88565b60208501906109a9565b60408101906127a4565b9160408185039101526127ea565b90565b906129dd91612978565b90565b90356001606003823603038112156129f6570190565b61191a565b60200190565b9181612a0c9161296c565b9081612a1d60208302840194612975565b92836000925b848410612a335750505050505090565b9091929394956020612a5e612a588385600195038852612a538b886129e0565b6129d3565b986129fb565b940194019294939190612a23565b9091612a849260208301926000818503910152612a01565b90565b612a8f611df8565b50612a98612650565b5033914392612aa8838390612655565b93612ab2856126b6565b95612abb6111cb565b50612ac4611df8565b5b80612ad8612ad28961027f565b9161027f565b1015612c2c5783612afa612af4612aef6000611315565b61024f565b9161024f565b03612c0a57612b0b8686839161272d565b612b176000820161274c565b3b612b2b612b256000611ce6565b9161027f565b14612bb4575b90612baa60008084612b4782612baf970161274c565b90612b62612b5760208301612881565b916040810190612759565b9190612b78612b6f610183565b938492836128ae565b03925af1612b846128d8565b612b8f8c8590612903565b52612ba4612b9e8c8590612903565b51612923565b9061293f565b6126dd565b612ac5565b612bcb612bc5826040810190612759565b906127a0565b612bde612bd86000611ce6565b9161027f565b1115612b3157612c0690612bf0610183565b91829163a633565160e01b835260048301612868565b0390fd5b612c12610183565b6282b42960e81b815280612c2860048201610582565b0390fd5b50939150949350907f79dfcb184c75a8c53199ae76930d72ffcdac408a45ea4b710dfe3f2d35a45a2691612c6a612c61610183565b92839283612a6c565b0390a1565b612c776111cb565b50612c91612c8b6301ffc9a760e01b610198565b91610198565b1490565b612c9d611dfd565b50612ca86000611315565b90565b634e487b7160e01b600052602160045260246000fd5b60051115612ccb57565b612cab565b90612cda82612cc1565b565b91612ce56111cb565b50612cf1828290613472565b612d04612cfe6000612cd0565b91612cd0565b149081612d30575b50928315612d1b575b50505090565b612d2893509190916135b3565b388080612d15565b9050612d44612d3e8561024f565b9161024f565b1438612d0c565b903590600160200381360303821215612d8d570180359067ffffffffffffffff8211612d8857602001916020820236038313612d8357565b61270c565b612707565b612702565b5090565b903590600160200381360303821215612dd8570180359067ffffffffffffffff8211612dd357602001916020820236038313612dce57565b61270c565b612707565b612702565b5090565b9190811015612df1576020020190565b6126ec565b90612e0e612e08836000810190612d4b565b90612d92565b90612e26612e20846020810190612d96565b90612ddd565b612e38612e328461027f565b9161027f565b03612ef057612e45611df8565b90612e4e611df8565b915b82612e63612e5d8661027f565b9161027f565b1015612ea257612e96612e9c91612e90612e8b612e84896020810190612d96565b8891612de1565b612881565b90611d18565b926126dd565b91612e50565b612ec091949350612ec692506040612ebb919401612881565b61027f565b9161027f565b03612ecd57565b612ed5610183565b63123c9c8160e01b815280612eec60048201610582565b0390fd5b612ef8610183565b6340fa044d60e01b815280612f0f60048201610582565b0390fd5b612f46612f3791612f22611e02565b50612f2b610183565b92839160208301611b5d565b602082018103825203826102d0565b612f58612f52826110b9565b91612229565b2090565b60209181520190565b91612f7382612f7992612f5c565b9261196e565b90816000905b828210612f8d575050505090565b90919293612faf612fa9600192612fa4888661198f565b61197e565b956119a1565b920190929192612f7f565b90612fd9612fe491612ff1969460608501918583036000870152612f65565b936020830190610759565b60408184039101526109cd565b90565b60409061301e613025949695939661301460608401986000850190610759565b6020830190610989565b0190610989565b565b919061303b90600060208501940190610989565b565b6130488184906136b4565b916130727f0000000000000000000000000000000000000000000000000000000000000000610ef0565b91613086632e72102f926000810190612d4b565b9390918690823b15613213576000946130bd86926130b2946130a6610183565b998a988997889661121e565b865260048601612fba565b03925af1801561320e576131e1575b50806130e16130db6000611ce6565b9161027f565b11613138575b5091909161313361312161311b7f562c19c0e7b3493417e3cf5103baa939f4d0e9c1087be236aebb46b84e09c7d99361259a565b9361259a565b9361312a610183565b91829182613027565b0390a3565b60206131637f0000000000000000000000000000000000000000000000000000000000000000610ef0565b63095bcdb6906131916000889361319c61317c896133d9565b97613185610183565b9889978896879561121e565b855260048501612ff4565b03925af180156131dc576131b0575b6130e7565b6131d09060203d81116131d5575b6131c881836102d0565b8101906114dd565b6131ab565b503d6131be565b611499565b6132019060003d8111613207575b6131f981836102d0565b810190611456565b386130cc565b503d6131ef565b611499565b611451565b90565b61322f61322a61323492613218565b6118bb565b610452565b90565b61324160ff61321b565b90565b634e487b7160e01b600052602260045260246000fd5b906001600283049216801561327a575b602083101461327557565b613244565b91607f169161326a565b60209181520190565b600052602060002090565b90600092918054906132b36132ac8361325a565b8094613284565b9160018116908160001461330c57506001146132cf575b505050565b6132dc919293945061328d565b916000925b8184106132f457505001903880806132ca565b600181602092959395548486015201910192906132e1565b92949550505060ff19168252151560200201903880806132ca565b9061333191613298565b90565b9061335461334d92613344610183565b93848092613327565b03836102d0565b565b61335f90613334565b90565b9061336b611df3565b50613375826118d8565b61338e613388613383613237565b610452565b91610452565b14156000146133a457506133a1906137c0565b90565b6133ae9150613356565b90565b6133ba90610ec8565b90565b6133d16133cc6133d692610244565b610ec5565b61027f565b90565b6133ee6133f3916133e8611df8565b506133b1565b6133bd565b90565b613402906000906137f0565b565b61341e90613410611e02565b50613419613806565b6138c1565b90565b600090565b90565b61343d61343861344292613426565b610ec5565b61027f565b90565b61345961345461345e92611ce3565b610ec5565b610244565b90565b61346a90613445565b90565b600090565b61347a611dfd565b50613483613421565b5061348d826110b9565b6134a061349a6041613429565b9161027f565b146000146134e7576134e1916134b4611e02565b506134bd611e02565b506134c661346d565b5060208101516060604083015192015160001a9091926139a3565b91909190565b50506134f36000613461565b90600290565b60209181520190565b61352161352a60209361352f93613518816110b9565b938480936134f9565b95869101610933565b6102b0565b0190565b916135579261354a604082019360008301906108b8565b6020818403910152613502565b90565b90565b61357161356c6135769261355a565b610ec5565b61027f565b90565b9050519061358682610455565b565b906020828203126135a25761359f91600001613579565b90565b61018e565b6135b090610198565b90565b9160046135fc600094936135ed86956135ca6111cb565b5094630b135d3f60e11b926135dd610183565b9586946020860190815201613533565b602082018103825203826102d0565b602081019051915afa61360d6128d8565b9080613662575b908161361f575b5090565b61363a9150602061362f826110b9565b818301019101613588565b61365b613655613650630b135d3f60e11b6135a7565b610452565b91610452565b143861361b565b5061366c816110b9565b61367f613679602061355d565b9161027f565b1015613614565b9061369082610996565b8110156136a1576020809102010190565b6126ec565b906136b09061027f565b9052565b90916136be611e07565b506136c7611df8565b506136df6136d9836000810190612d4b565b90612d92565b916136e983611e53565b936137006136f8838390613b42565b918290612360565b92613709611df8565b5b8061371d6137178861027f565b9161027f565b10156137525761374d9061374861373686888491613b7e565b6137438a91849092613686565b6136a6565b6126dd565b61370a565b509250925050565b67ffffffffffffffff8111613778576137746020916102b0565b0190565b6102ba565b9061378f61378a8361375a565b6102f9565b918252565b369037565b906137be6137a68361377d565b926020806137b4869361375a565b9201910390613794565b565b6137c8611df3565b506137d281613c06565b906137e56137e0602061355d565b613799565b918252602082015290565b906137fd61380492613c6a565b60006113d4565b565b61380e611e02565b5061381830611e0f565b61384a6138447f000000000000000000000000000000000000000000000000000000000000000061024f565b9161024f565b1480613887575b60001461387c577f000000000000000000000000000000000000000000000000000000000000000090565b613884613d3d565b90565b50466138bb6138b57f000000000000000000000000000000000000000000000000000000000000000061027f565b9161027f565b14613851565b6042916138cc611e02565b50604051917f19010000000000000000000000000000000000000000000000000000000000008352600283015260228201522090565b61391661391161391b9261027f565b610ec5565b61027f565b90565b61392a61392f916112fb565b613902565b90565b90565b61394961394461394e92613932565b610ec5565b61027f565b90565b60ff1690565b61396090613951565b9052565b61399a6139a194613990606094989795613986608086019a60008701906108b8565b6020850190613957565b60408301906108b8565b01906108b8565b565b9291906139ae611dfd565b506139b7613421565b506139c18361391e565b6139f36139ed7f7fffffffffffffffffffffffffffffff5d576e7357a4501ddfe92f46681b20a0613935565b9161027f565b11613a6a57613a146000936020959293613a0b610183565b94859485613964565b838052039060015afa15613a6557613a2d6000516118bb565b80613a49613a43613a3e6000613461565b61024f565b9161024f565b14613a545790600090565b50613a5f6000613461565b90600190565b611499565b50505050613a786000613461565b90600390565b35613a8881611aa1565b90565b613a9f613a9a613aa492611a9a565b610ec5565b61027f565b90565b613ab6613abc9193929361027f565b9261027f565b91613ac883820261027f565b928184041490151715613ad757565b611d02565b90565b613af3613aee613af892613adc565b610ec5565b61027f565b90565b613b07620f4240613adf565b90565b634e487b7160e01b600052601260045260246000fd5b613b2c613b329161027f565b9161027f565b908115613b3d570490565b613b0a565b613b6d90613b67613b626060613b7b95613b5a611df8565b509301613a7e565b613a8b565b90613aa7565b613b75613afb565b90613b20565b90565b906040613bbb613bc894613bb5613bb0613bc295613b9a611df8565b5092613baa886020810190612d96565b90612de1565b612881565b90613aa7565b9201612881565b90613b20565b90565b613bdf613bda613be492613218565b610ec5565b61027f565b90565b90565b613bfe613bf9613c0392613be7565b610ec5565b61027f565b90565b613c1b613c2091613c15611df8565b506118d8565b61391e565b613c2a60ff613bcb565b1680613c3f613c39601f613bea565b9161027f565b11613c475790565b613c4f610183565b632cd44ac360e21b815280613c6660048201610582565b0390fd5b613cc990613c786000613461565b81613cac613ca67f8be0079c531659141344cd1fd0a4f28419497f9722a3daafe3b4186f6b6457e09361259a565b9161259a565b91613cb5610183565b80613cbf81610582565b0390a360006125c4565b565b7f8b73c3c69bb8fe3d512ecc4cf759cc79239f7b179b0ffacaa9a75d522b39400f90565b90959492613d3b94613d2a613d3492613d20608096613d1660a088019c60008901906108b8565b60208701906108b8565b60408501906108b8565b6060830190610989565b0190610759565b565b613d45611e02565b50613d4e613ccb565b613dc57f000000000000000000000000000000000000000000000000000000000000000091613db67f000000000000000000000000000000000000000000000000000000000000000046613da130611e0f565b91613daa610183565b96879560208701613cef565b602082018103825203826102d0565b613dd7613dd1826110b9565b91612229565b209056fea26469706673582212205bf6bd1d269f7a269c623ea616b2fce6c4b5234b3dbc0b674dc89f9573c0fcb664736f6c63430008180033",
  "linkReferences": {},
  "deployedLinkReferences": {}
}