{
  "_format": "hh-sol-artifact-1",
  "contractName": "HatsIdUtilities",
  "sourceName": "contracts/hats/src/HatsIdUtilities.sol",
  "abi": [
    {
      "inputs": [],
      "name": "MaxLevelsReached",
      "type": "error"
    },
    {
      "inputs": [
        {
          "internalType": "uint256",
          "name": "_admin",
          "type": "uint256"
        },
        {
          "internalType": "uint16",
          "name": "_newHat",
          "type": "uint16"
        }
      ],
      "name": "buildHatId",
      "outputs": [
        {
          "internalType": "uint256",
          "name": "id",
          "type": "uint256"
        }
      ],
      "stateMutability": "pure",
      "type": "function"
    },
    {
      "inputs": [
        {
          "internalType": "uint256",
          "name": "_hatId",
          "type": "uint256"
        },
        {
          "internalType": "uint32",
          "name": "_level",
          "type": "uint32"
        }
      ],
      "name": "getAdminAtLevel",
      "outputs": [
        {
          "internalType": "uint256",
          "name": "admin",
          "type": "uint256"
        }
      ],
      "stateMutability": "view",
      "type": "function"
    },
    {
      "inputs": [
        {
          "internalType": "uint256",
          "name": "_hatId",
          "type": "uint256"
        },
        {
          "internalType": "uint32",
          "name": "_level",
          "type": "uint32"
        }
      ],
      "name": "getAdminAtLocalLevel",
      "outputs": [
        {
          "internalType": "uint256",
          "name": "admin",
          "type": "uint256"
        }
      ],
      "stateMutability": "pure",
      "type": "function"
    },
    {
      "inputs": [
        {
          "internalType": "uint256",
          "name": "_hatId",
          "type": "uint256"
        }
      ],
      "name": "getHatLevel",
      "outputs": [
        {
          "internalType": "uint32",
          "name": "level",
          "type": "uint32"
        }
      ],
      "stateMutability": "view",
      "type": "function"
    },
    {
      "inputs": [
        {
          "internalType": "uint256",
          "name": "_hatId",
          "type": "uint256"
        }
      ],
      "name": "getLocalHatLevel",
      "outputs": [
        {
          "internalType": "uint32",
          "name": "level",
          "type": "uint32"
        }
      ],
      "stateMutability": "pure",
      "type": "function"
    },
    {
      "inputs": [
        {
          "internalType": "uint32",
          "name": "_topHatDomain",
          "type": "uint32"
        }
      ],
      "name": "getTippyTopHatDomain",
      "outputs": [
        {
          "internalType": "uint32",
          "name": "domain",
          "type": "uint32"
        }
      ],
      "stateMutability": "view",
      "type": "function"
    },
    {
      "inputs": [
        {
          "internalType": "uint256",
          "name": "_hatId",
          "type": "uint256"
        }
      ],
      "name": "getTopHatDomain",
      "outputs": [
        {
          "internalType": "uint32",
          "name": "domain",
          "type": "uint32"
        }
      ],
      "stateMutability": "pure",
      "type": "function"
    },
    {
      "inputs": [
        {
          "internalType": "uint256",
          "name": "_hatId",
          "type": "uint256"
        }
      ],
      "name": "isLocalTopHat",
      "outputs": [
        {
          "internalType": "bool",
          "name": "_isLocalTopHat",
          "type": "bool"
        }
      ],
      "stateMutability": "pure",
      "type": "function"
    },
    {
      "inputs": [
        {
          "internalType": "uint256",
          "name": "_hatId",
          "type": "uint256"
        }
      ],
      "name": "isTopHat",
      "outputs": [
        {
          "internalType": "bool",
          "name": "_isTopHat",
          "type": "bool"
        }
      ],
      "stateMutability": "view",
      "type": "function"
    },
    {
      "inputs": [
        {
          "internalType": "uint256",
          "name": "_hatId",
          "type": "uint256"
        }
      ],
      "name": "isValidHatId",
      "outputs": [
        {
          "internalType": "bool",
          "name": "validHatId",
          "type": "bool"
        }
      ],
      "stateMutability": "pure",
      "type": "function"
    },
    {
      "inputs": [
        {
          "internalType": "uint32",
          "name": "",
          "type": "uint32"
        }
      ],
      "name": "linkedTreeAdmins",
      "outputs": [
        {
          "internalType": "uint256",
          "name": "",
          "type": "uint256"
        }
      ],
      "stateMutability": "view",
      "type": "function"
    },
    {
      "inputs": [
        {
          "internalType": "uint32",
          "name": "",
          "type": "uint32"
        }
      ],
      "name": "linkedTreeRequests",
      "outputs": [
        {
          "internalType": "uint256",
          "name": "",
          "type": "uint256"
        }
      ],
      "stateMutability": "view",
      "type": "function"
    },
    {
      "inputs": [
        {
          "internalType": "uint32",
          "name": "_topHatDomain",
          "type": "uint32"
        },
        {
          "internalType": "uint256",
          "name": "_linkedAdmin",
          "type": "uint256"
        }
      ],
      "name": "noCircularLinkage",
      "outputs": [
        {
          "internalType": "bool",
          "name": "notCircular",
          "type": "bool"
        }
      ],
      "stateMutability": "view",
      "type": "function"
    },
    {
      "inputs": [
        {
          "internalType": "uint32",
          "name": "_topHatDomain",
          "type": "uint32"
        },
        {
          "internalType": "uint256",
          "name": "_newAdminHat",
          "type": "uint256"
        }
      ],
      "name": "sameTippyTopHatDomain",
      "outputs": [
        {
          "internalType": "bool",
          "name": "sameDomain",
          "type": "bool"
        }
      ],
      "stateMutability": "view",
      "type": "function"
    }
  ],
  "bytecode": "0x60806040523461001f57610011610024565b6115b161003082396115b190f35b61002a565b60405190565b600080fdfe60806040526004361015610013575b61064b565b61001e6000356100fd565b80630b328e26146100f857806345fffac8146100f3578063499c05e8146100ee5780635d5eb5af146100e95780636743175a146100e45780639aa22f6d146100df5780639d6ccb9f146100da5780639fe3b510146100d5578063a29e8fa6146100d0578063cead6304146100cb578063e05209ff146100c6578063f8f353b6146100c1578063fb2aaa4c146100bc5763fd8a71630361000e57610616565b6105e1565b6105ab565b61051c565b6104e7565b610497565b610461565b6103fe565b6103c9565b610394565b61035e565b6102fb565b6102a3565b610203565b60e01c90565b60405190565b600080fd5b600080fd5b63ffffffff1690565b61012581610113565b0361012c57565b600080fd5b9050359061013e8261011c565b565b9060208282031261015a5761015791600001610131565b90565b61010e565b90565b61017661017161017b92610113565b61015f565b610113565b90565b9061018890610162565b600052602052604060002090565b1c90565b90565b6101ad9060086101b29302610196565b61019a565b90565b906101c0915461019d565b90565b6101da906101d560019160009261017e565b6101b5565b90565b90565b6101e9906101dd565b9052565b9190610201906000602085019401906101e0565b565b346102335761022f61021e610219366004610140565b6101c3565b610226610103565b918291826101ed565b0390f35b610109565b610241816101dd565b0361024857565b600080fd5b9050359061025a82610238565b565b90602082820312610276576102739160000161024d565b90565b61010e565b151590565b6102899061027b565b9052565b91906102a190600060208501940190610280565b565b346102d3576102cf6102be6102b936600461025c565b61069b565b6102c6610103565b9182918261028d565b0390f35b610109565b6102e190610113565b9052565b91906102f9906000602085019401906102d8565b565b3461032b5761032761031661031136600461025c565b610afa565b61031e610103565b918291826102e5565b0390f35b610109565b9190604083820312610359578061034d610356926000860161024d565b93602001610131565b90565b61010e565b3461038f5761038b61037a610374366004610330565b90610e76565b610382610103565b918291826101ed565b0390f35b610109565b346103c4576103c06103af6103aa36600461025c565b61103a565b6103b7610103565b9182918261028d565b0390f35b610109565b346103f9576103f56103e46103df36600461025c565b611123565b6103ec610103565b918291826102e5565b0390f35b610109565b3461042e5761042a610419610414366004610140565b61115a565b610421610103565b918291826102e5565b0390f35b610109565b919060408382031261045c57806104506104599260008601610131565b9360200161024d565b90565b61010e565b346104925761048e61047d610477366004610433565b906111ab565b610485610103565b9182918261028d565b0390f35b610109565b346104c8576104c46104b36104ad366004610433565b906111e3565b6104bb610103565b9182918261028d565b0390f35b610109565b6104e4906104df60009160009261017e565b6101b5565b90565b34610517576105136105026104fd366004610140565b6104cd565b61050a610103565b918291826101ed565b0390f35b610109565b3461054d57610549610538610532366004610330565b90611280565b610540610103565b918291826101ed565b0390f35b610109565b61ffff1690565b61056281610552565b0361056957565b600080fd5b9050359061057b82610559565b565b91906040838203126105a6578061059a6105a3926000860161024d565b9360200161056e565b90565b61010e565b346105dc576105d86105c76105c136600461057d565b9061134f565b6105cf610103565b918291826101ed565b0390f35b610109565b346106115761060d6105fc6105f736600461025c565b611479565b610604610103565b918291826102e5565b0390f35b610109565b346106465761064261063161062c36600461025c565b61152e565b610639610103565b9182918261028d565b0390f35b610109565b600080fd5b600090565b60001c90565b61066761066c91610655565b61019a565b90565b610679905461065b565b90565b90565b61069361068e6106989261067c565b61015f565b6101dd565b90565b6106a3610650565b506106ad8161152e565b90816106b8575b5090565b6106d791506106d2906106cc600191611123565b9061017e565b61066f565b6106ea6106e4600061067f565b916101dd565b14386106b4565b600090565b60018060e01b031690565b61071561071061071a926106f6565b61015f565b6101dd565b90565b61073161072c6107369261067c565b61015f565b610113565b90565b60018060d01b031690565b61075861075361075d92610739565b61015f565b6101dd565b90565b90565b61077761077261077c92610760565b61015f565b610113565b90565b60018060c01b031690565b61079e6107996107a39261077f565b61015f565b6101dd565b90565b90565b6107bd6107b86107c2926107a6565b61015f565b610113565b90565b60018060b01b031690565b6107e46107df6107e9926107c5565b61015f565b6101dd565b90565b90565b6108036107fe610808926107ec565b61015f565b610113565b90565b60018060a01b031690565b61082a61082561082f9261080b565b61015f565b6101dd565b90565b90565b61084961084461084e92610832565b61015f565b610113565b90565b71ffffffffffffffffffffffffffffffffffff1690565b61087c61087761088192610851565b61015f565b6101dd565b90565b90565b61089b6108966108a092610884565b61015f565b610113565b90565b6fffffffffffffffffffffffffffffffff1690565b6108cc6108c76108d1926108a3565b61015f565b6101dd565b90565b90565b6108eb6108e66108f0926108d4565b61015f565b610113565b90565b6dffffffffffffffffffffffffffff1690565b61091a61091561091f926108f3565b61015f565b6101dd565b90565b90565b61093961093461093e92610922565b61015f565b610113565b90565b6bffffffffffffffffffffffff1690565b61096661096161096b92610941565b61015f565b6101dd565b90565b90565b61098561098061098a9261096e565b61015f565b610113565b90565b69ffffffffffffffffffff1690565b6109b06109ab6109b59261098d565b61015f565b6101dd565b90565b90565b6109cf6109ca6109d4926109b8565b61015f565b610113565b90565b67ffffffffffffffff1690565b6109f86109f36109fd926109d7565b61015f565b6101dd565b90565b90565b610a17610a12610a1c92610a00565b61015f565b610113565b90565b65ffffffffffff1690565b610a3e610a39610a4392610a1f565b61015f565b6101dd565b90565b90565b610a5d610a58610a6292610a46565b61015f565b610113565b90565b610a79610a74610a7e92610113565b61015f565b6101dd565b90565b90565b610a98610a93610a9d92610a81565b61015f565b610113565b90565b610ab4610aaf610ab992610552565b61015f565b6101dd565b90565b90565b610ad3610ace610ad892610abc565b61015f565b610113565b90565b90565b610af2610aed610af792610adb565b61015f565b610113565b90565b610b026106f1565b5080610b1360018060e01b03610701565b16610b27610b21600061067f565b916101dd565b14610e265780610b3c60018060d01b03610744565b16610b50610b4a600061067f565b916101dd565b14610e185780610b6560018060c01b0361078a565b16610b79610b73600061067f565b916101dd565b14610e0a5780610b8e60018060b01b036107d0565b16610ba2610b9c600061067f565b916101dd565b14610dfc5780610bb760018060a01b03610816565b16610bcb610bc5600061067f565b916101dd565b14610dee5780610bec71ffffffffffffffffffffffffffffffffffff610868565b16610c00610bfa600061067f565b916101dd565b14610de05780610c1f6fffffffffffffffffffffffffffffffff6108b8565b16610c33610c2d600061067f565b916101dd565b14610dd25780610c506dffffffffffffffffffffffffffff610906565b16610c64610c5e600061067f565b916101dd565b14610dc45780610c7f6bffffffffffffffffffffffff610952565b16610c93610c8d600061067f565b916101dd565b14610db65780610cac69ffffffffffffffffffff61099c565b16610cc0610cba600061067f565b916101dd565b14610da85780610cd767ffffffffffffffff6109e4565b16610ceb610ce5600061067f565b916101dd565b14610d9a5780610d0065ffffffffffff610a2a565b16610d14610d0e600061067f565b916101dd565b14610d8c5780610d2763ffffffff610a65565b16610d3b610d35600061067f565b916101dd565b14610d7e57610d4b61ffff610aa0565b16610d5f610d59600061067f565b916101dd565b14610d7157610d6e600e610ade565b90565b610d7b600d610abf565b90565b50610d89600c610a84565b90565b50610d97600b610a49565b90565b50610da5600a610a03565b90565b50610db360096109bb565b90565b50610dc16008610971565b90565b50610dcf6007610925565b90565b50610ddd60066108d7565b90565b50610deb6005610887565b90565b50610df96004610835565b90565b50610e0760036107ef565b90565b50610e1560026107a9565b90565b50610e236001610763565b90565b50610e31600061071d565b90565b600090565b634e487b7160e01b600052601160045260246000fd5b610e5b610e6191610113565b91610113565b90039063ffffffff8211610e7157565b610e39565b90610e7f610e34565b50610e9c610e976001610e9185611123565b9061017e565b61066f565b80610eb0610eaa600061067f565b916101dd565b14610f1057610ed1610ecc84610ec6600061071d565b90611280565b611479565b80610ee4610ede85610113565b91610113565b1115610ef85750610ef59250610e76565b90565b610f079150610f0d9392610e4f565b90611280565b90565b50610f1a91611280565b90565b90565b610f34610f2f610f3992610f1d565b61015f565b6101dd565b90565b610f466010610f20565b90565b610f5d610f58610f6292610adb565b61015f565b6101dd565b90565b610f6f600e610f49565b90565b610f81610f87919392936101dd565b926101dd565b8203918211610f9257565b610e39565b610fa6610fac919392936101dd565b926101dd565b91610fb88382026101dd565b928184041490151715610fc757565b610e39565b610feb90610fe5610fdf610ff0946101dd565b916101dd565b90610196565b6101dd565b90565b61100761100261100c926101dd565b61015f565b610552565b90565b61102361101e6110289261067c565b61015f565b610552565b90565b600161103791036101dd565b90565b611042610650565b5061104c8161152e565b6111015761107d61107861105f83610afa565b611067610e34565b506110726001610763565b90610e4f565b610a65565b5b8061109261108c600061067f565b916101dd565b11156110fa576110cd6110c8836110c26110aa610f3c565b6110bc6110b5610f65565b8790610f72565b90610f97565b90610fcc565b610ff3565b6110e06110da600061100f565b91610552565b146110f3576110ee9061102b565b61107e565b5050600090565b5050600190565b50600190565b61111b611116611120926101dd565b61015f565b610113565b90565b611152611157916111326106f1565b5061114c61113e610f3c565b611146610f65565b90610f97565b90610fcc565b611107565b90565b6111626106f1565b506111776111726001839061017e565b61066f565b908161118c611186600061067f565b916101dd565b146111a6575061119e6111a391611123565b61115a565b90565b905090565b6111d96111d46111cf6111c96111df946111c3610650565b5061115a565b94611123565b61115a565b610113565b91610113565b1490565b906111ec610650565b50806112016111fb600061067f565b916101dd565b1461124e5761120f90611123565b908061122361121d84610113565b91610113565b146112475761123e61123961124493600161017e565b61066f565b906111e3565b90565b5050600090565b5050600190565b1b90565b6112789061127261126c61127d946101dd565b916101dd565b90611255565b6101dd565b90565b906112c49061128d610e34565b506112be600019916112b86112a0610f3c565b916112b26112ac610f65565b91610a65565b90610f72565b90610f97565b90611259565b1690565b90565b6112df6112da6112e4926112c8565b61015f565b6101dd565b90565b6112f160206112cb565b90565b906112ff91026101dd565b90565b9061130d91016101dd565b90565b61132461131f61132992610760565b61015f565b6101dd565b90565b9061133791036101dd565b90565b600161134691016101dd565b90565b60000190565b90611358610e34565b50611361610e34565b5061136c600061067f565b5b8061138761138161137c610f65565b6101dd565b916101dd565b1015611430576113bc6000196113b661139e6112e7565b6113b06113a9610f3c565b86906112f4565b90611302565b90610fcc565b83166113d16113cb600061067f565b916101dd565b146113e4576113df9061133a565b61136d565b6114266113f361142c93610aa0565b916114206113ff610f3c565b9161141b61140b610f65565b6114156001611310565b9061132c565b61132c565b906112f4565b90611259565b1790565b611438610103565b630f9244b960e31b81528061144f60048201611349565b0390fd5b61145f61146591610113565b91610113565b019063ffffffff821161147457565b610e39565b906114826106f1565b506114a96114a461149284610afa565b9361149e600191611123565b9061017e565b61066f565b806114bd6114b7600061067f565b916101dd565b036114c6575b50565b90916114de6114e4916114d96001610763565b611453565b91611479565b906114ef9190611453565b90386114c3565b61150a61150561150f926101dd565b61015f565b6106f6565b90565b61152661152161152b9261067c565b61015f565b6106f6565b90565b611536610650565b508061154b611545600061067f565b916101dd565b119081611557575b5090565b61156191506114f6565b61157461156e6000611512565b916106f6565b143861155356fea264697066735822122019987d98eaec77065b0ec26447c585209be0f8a6e40442e266dfe2d00d55accb64736f6c63430008180033",
  "linkReferences": {},
  "deployedLinkReferences": {}
}