{
  "_format": "hh-sol-artifact-1",
  "contractName": "SampleForwarder",
  "sourceName": "contracts/metaTx/SampleForwarder.sol",
  "abi": [
    {
      "inputs": [],
      "stateMutability": "nonpayable",
      "type": "constructor"
    },
    {
      "inputs": [],
      "name": "InvalidShortString",
      "type": "error"
    },
    {
      "inputs": [
        {
          "internalType": "string",
          "name": "str",
          "type": "string"
        }
      ],
      "name": "StringTooLong",
      "type": "error"
    },
    {
      "anonymous": false,
      "inputs": [],
      "name": "EIP712DomainChanged",
      "type": "event"
    },
    {
      "inputs": [],
      "name": "eip712Domain",
      "outputs": [
        {
          "internalType": "bytes1",
          "name": "fields",
          "type": "bytes1"
        },
        {
          "internalType": "string",
          "name": "name",
          "type": "string"
        },
        {
          "internalType": "string",
          "name": "version",
          "type": "string"
        },
        {
          "internalType": "uint256",
          "name": "chainId",
          "type": "uint256"
        },
        {
          "internalType": "address",
          "name": "verifyingContract",
          "type": "address"
        },
        {
          "internalType": "bytes32",
          "name": "salt",
          "type": "bytes32"
        },
        {
          "internalType": "uint256[]",
          "name": "extensions",
          "type": "uint256[]"
        }
      ],
      "stateMutability": "view",
      "type": "function"
    },
    {
      "inputs": [
        {
          "components": [
            {
              "internalType": "address",
              "name": "from",
              "type": "address"
            },
            {
              "internalType": "address",
              "name": "to",
              "type": "address"
            },
            {
              "internalType": "uint256",
              "name": "value",
              "type": "uint256"
            },
            {
              "internalType": "uint256",
              "name": "gas",
              "type": "uint256"
            },
            {
              "internalType": "uint256",
              "name": "nonce",
              "type": "uint256"
            },
            {
              "internalType": "bytes",
              "name": "data",
              "type": "bytes"
            }
          ],
          "internalType": "struct MinimalForwarder.ForwardRequest",
          "name": "req",
          "type": "tuple"
        },
        {
          "internalType": "bytes",
          "name": "signature",
          "type": "bytes"
        }
      ],
      "name": "execute",
      "outputs": [
        {
          "internalType": "bool",
          "name": "",
          "type": "bool"
        },
        {
          "internalType": "bytes",
          "name": "",
          "type": "bytes"
        }
      ],
      "stateMutability": "payable",
      "type": "function"
    },
    {
      "inputs": [
        {
          "internalType": "address",
          "name": "from",
          "type": "address"
        }
      ],
      "name": "getNonce",
      "outputs": [
        {
          "internalType": "uint256",
          "name": "",
          "type": "uint256"
        }
      ],
      "stateMutability": "view",
      "type": "function"
    },
    {
      "inputs": [
        {
          "components": [
            {
              "internalType": "address",
              "name": "from",
              "type": "address"
            },
            {
              "internalType": "address",
              "name": "to",
              "type": "address"
            },
            {
              "internalType": "uint256",
              "name": "value",
              "type": "uint256"
            },
            {
              "internalType": "uint256",
              "name": "gas",
              "type": "uint256"
            },
            {
              "internalType": "uint256",
              "name": "nonce",
              "type": "uint256"
            },
            {
              "internalType": "bytes",
              "name": "data",
              "type": "bytes"
            }
          ],
          "internalType": "struct MinimalForwarder.ForwardRequest",
          "name": "req",
          "type": "tuple"
        },
        {
          "internalType": "bytes",
          "name": "signature",
          "type": "bytes"
        }
      ],
      "name": "verify",
      "outputs": [
        {
          "internalType": "bool",
          "name": "",
          "type": "bool"
        }
      ],
      "stateMutability": "view",
      "type": "function"
    }
  ],
  "bytecode": "0x6101606040523462000070576200001562000081565b6200001f62000076565b6117e6620009ba8239608051816110cb015260a05181611102015260c05181611091015260e051816115cb015261010051816115f001526101205181610b1c01526101405181610b5101526117e690f35b6200007c565b60405190565b600080fd5b6200008b620001d5565b565b601f801991011690565b634e487b7160e01b600052604160045260246000fd5b90620000b9906200008d565b810190811060018060401b03821117620000d257604052565b62000097565b90620000ef620000e762000076565b9283620000ad565b565b60018060401b03811162000110576200010c6020916200008d565b0190565b62000097565b906200012c6200012683620000f1565b620000d8565b918252565b60007f4d696e696d616c466f7277617264657200000000000000000000000000000000910152565b62000165601062000116565b90620001746020830162000131565b565b6200018062000159565b90565b60007f302e302e31000000000000000000000000000000000000000000000000000000910152565b620001b7600562000116565b90620001c66020830162000183565b565b620001d2620001ab565b90565b620001f4620001e362000176565b620001ed620001c8565b9062000252565b565b90565b90565b60200190565b5190565b60018060a01b031690565b90565b6200022d62000227620002339262000206565b62000211565b62000206565b90565b620002419062000214565b90565b6200024f9062000236565b90565b906200029a620002ba9262000274816200026d6000620001f6565b906200060e565b610120526200029083620002896001620001f6565b906200060e565b61014052620001f9565b620002b0620002a98262000202565b91620001fc565b2060e052620001f9565b620002d0620002c98262000202565b91620001fc565b20610100524660a052620002e362000759565b608052620002f13062000244565b60c052565b600090565b90565b90565b6200031a620003146200032092620002fe565b62000211565b620002fb565b90565b5190565b634e487b7160e01b600052602260045260246000fd5b906001600283049216801562000360575b60208310146200035a57565b62000327565b91607f16916200034e565b600052602060002090565b601f602091010490565b1b90565b91906008620003a49102916200039d6000198462000380565b9262000380565b9181191691161790565b620003c7620003c1620003cd92620002fb565b62000211565b620002fb565b90565b90565b9190620003ee620003e8620003f793620003ae565b620003d0565b90835462000384565b9055565b600090565b62000416916200040f620003fb565b91620003d3565b565b5b81811062000425575050565b8062000435600060019362000400565b0162000419565b9190601f81116200044d575b505050565b6200045c62000487936200036b565b9060206200046a8462000376565b8301931062000490575b6200047f9062000376565b019062000418565b38808062000448565b91506200047f8192905062000474565b1c90565b90620004b79060001990600802620004a0565b191690565b81620004c891620004a4565b906002021790565b90620004dc8162000323565b9060018060401b038211620005af576200050382620004fc85546200033d565b856200043c565b602090601f83116001146200053d579180916200052b9360009262000530575b5050620004bc565b90555b565b9091500151388062000523565b601f198316916200054e856200036b565b9260005b818110620005965750916002939185600196941062000579575b505050020190556200052e565b6200058b910151601f841690620004a4565b90553880806200056c565b9193602060018192878701518155019501920162000552565b62000097565b90620005c191620004d0565b565b90565b90565b60001b90565b620005e8620005e2620005ee92620005c3565b620005c9565b620005c6565b90565b620005fd60ff620005cf565b90565b6200060b90620005c6565b90565b9062000619620002f6565b506200062f6200062983620001f9565b62000202565b620006466200063f602062000301565b91620002fb565b106000146200065e57506200065b9062000916565b90565b600062000670620006779392620007de565b01620005b5565b6200068b62000685620005f1565b62000600565b90565b600090565b7f8b73c3c69bb8fe3d512ecc4cf759cc79239f7b179b0ffacaa9a75d522b39400f90565b620006c39051620005c6565b90565b620006d190620005c6565b9052565b620006e090620002fb565b9052565b620006ef9062000206565b90565b620006fd90620006e4565b9052565b909594926200075794620007446200074f92620007396080966200072e60a088019c6000890190620006c6565b6020870190620006c6565b6040850190620006c6565b6060830190620006d5565b0190620006f2565b565b620007636200068e565b506200076e62000693565b620007c46200077e60e0620006b7565b91620007b462000790610100620006b7565b466200079c3062000244565b91620007a762000076565b9687956020870162000701565b60208201810382520382620000ad565b620007da620007d38262000202565b91620001fc565b2090565b90565b90565b620007fd620007f76200080392620007e1565b62000211565b620002fb565b90565b60209181520190565b60005b83811062000824575050906000910152565b80602091830151818501520162000812565b6200085b620008656020936200086b93620008518162000323565b9384809362000806565b958691016200080f565b6200008d565b0190565b62000887916020820191600081840391015262000836565b90565b620008aa620008a46200089d8362000202565b92620001fc565b620006b7565b9060208110620008b9575b5090565b620008ce906000199060200360080262000380565b1638620008b5565b60001c90565b620008eb620008f191620008d6565b620003ae565b90565b6200090d620009076200091392620002fb565b620005c9565b620005c6565b90565b62000920620002f6565b506200092c81620001f9565b90620009388262000202565b6200094f62000948601f620007e4565b91620002fb565b116200098f575062000986816200097f62000978620009726200098c956200088a565b620008dc565b9162000202565b17620008f4565b62000600565b90565b620009b5906200099e62000076565b91829163305a27a960e01b8352600483016200086f565b0390fdfe60806040526004361015610013575b6104cc565b61001e60003561005d565b80632d0335ab1461005857806347153f821461005357806384b0196e1461004e5763bf5d3bdb0361000e57610496565b610444565b610298565b6100f8565b60e01c90565b60405190565b600080fd5b600080fd5b600080fd5b60018060a01b031690565b61008c90610078565b90565b61009881610083565b0361009f57565b600080fd5b905035906100b18261008f565b565b906020828203126100cd576100ca916000016100a4565b90565b61006e565b90565b6100de906100d2565b9052565b91906100f6906000602085019401906100d5565b565b346101285761012461011361010e3660046100b3565b61054f565b61011b610063565b918291826100e2565b0390f35b610069565b600080fd5b908160c09103126101405790565b61012d565b600080fd5b600080fd5b600080fd5b909182601f8301121561018e5781359167ffffffffffffffff831161018957602001926001830284011161018457565b61014f565b61014a565b610145565b9190916040818403126101ed57600081013567ffffffffffffffff81116101e857836101c0918301610132565b92602082013567ffffffffffffffff81116101e3576101df9201610154565b9091565b610073565b610073565b61006e565b151590565b610200906101f2565b9052565b5190565b60209181520190565b60005b838110610225575050906000910152565b806020918301518185015201610214565b601f801991011690565b61025f61026860209361026d9361025681610204565b93848093610208565b95869101610211565b610236565b0190565b9161029592610288604082019360008301906101f7565b6020818403910152610240565b90565b6102ac6102a6366004610193565b916108e8565b906102c16102b8610063565b92839283610271565b0390f35b60009103126102d057565b61006e565b60ff60f81b1690565b6102e7906102d5565b9052565b5190565b60209181520190565b6103176103206020936103259361030e816102eb565b938480936102ef565b95869101610211565b610236565b0190565b61033290610083565b9052565b90565b61034290610336565b9052565b5190565b60209181520190565b60200190565b610362906100d2565b9052565b9061037381602093610359565b0190565b60200190565b9061039a61039461038d84610346565b809361034a565b92610353565b9060005b8181106103ab5750505090565b9091926103c46103be6001928651610366565b94610377565b910191909161039e565b939591946104206104156104349561040761042a956104419c9a6103fa60e08c019260008d01906102de565b8a820360208c01526102f8565b9088820360408a01526102f8565b9760608701906100d5565b6080850190610329565b60a0830190610339565b60c081840391015261037d565b90565b3461047b576104543660046102c5565b61047761045f610ad8565b9361046e979597939193610063565b978897886103ce565b0390f35b610069565b9190610494906000602085019401906101f7565b565b346104c7576104c36104b26104ac366004610193565b91610c98565b6104ba610063565b91829182610480565b0390f35b610069565b600080fd5b600090565b90565b6104ed6104e86104f292610078565b6104d6565b610078565b90565b6104fe906104d9565b90565b61050a906104f5565b90565b9061051790610501565b600052602052604060002090565b60001c90565b90565b61053a61053f91610525565b61052b565b90565b61054c905461052e565b90565b61056661056b9161055e6104d1565b50600261050d565b610542565b90565b600090565b606090565b60207f206e6f74206d6174636820726571756573740000000000000000000000000000917f4d696e696d616c466f727761726465723a207369676e617475726520646f657360008201520152565b6105d360326040926102ef565b6105dc81610578565b0190565b6105f690602081019060008183039101526105c6565b90565b1561060057565b610608610063565b62461bcd60e51b81528061061e600482016105e0565b0390fd5b61062b816100d2565b0361063257565b600080fd5b3561064181610622565b90565b90565b61065b61065661066092610644565b6104d6565b6100d2565b90565b634e487b7160e01b600052601160045260246000fd5b61068861068e919392936100d2565b926100d2565b820180921161069957565b610663565b356106a88161008f565b90565b60001b90565b906106be600019916106ab565b9181191691161790565b6106dc6106d76106e1926100d2565b6104d6565b6100d2565b90565b90565b906106fc6106f7610703926106c8565b6106e4565b82546106b1565b9055565b600080fd5b600080fd5b600080fd5b903590600160200381360303821215610758570180359067ffffffffffffffff82116107535760200191600182023603831361074e57565b610711565b61070c565b610707565b905090565b90826000939282370152565b90918261077e816107859361075d565b8093610762565b0190565b60601b90565b61079890610789565b90565b6107a49061078f565b90565b6107b36107b891610083565b61079b565b9052565b6107cd90601494936107d49361076e565b80926107a7565b0190565b634e487b7160e01b600052604160045260246000fd5b906107f890610236565b810190811067ffffffffffffffff82111761081257604052565b6107d8565b9061082a610823610063565b92836107ee565b565b67ffffffffffffffff811161084a57610846602091610236565b0190565b6107d8565b9061086161085c8361082c565b610817565b918252565b3d600014610883576108773d61084f565b903d6000602084013e5b565b61088b610573565b90610881565b90565b6108a86108a36108ad92610891565b6104d6565b6100d2565b90565b634e487b7160e01b600052601260045260246000fd5b6108d26108d8916100d2565b916100d2565b9081156108e3570490565b6108b0565b92916109129161090d916108fa61056e565b50610903610573565b5085919091610c98565b6105f9565b61095061093461092460808501610637565b61092e6001610647565b90610679565b61094b60026109456000870161069e565b9061050d565b6106e7565b60008061095f6020850161069e565b6109bf61096e60608701610637565b61097a60408801610637565b9290929061098c8860a0810190610716565b93906109b061099c888c0161069e565b6109a4610063565b968793602085016107bc565b602082018103825203846107ee565b60208301925193f16109cf610866565b92610a016109fb6109f66109e660605a9501610637565b6109f0603f610894565b906108c6565b6100d2565b916100d2565b1115610a0b579190565bfe5b600090565b606090565b600090565b600090565b606090565b90565b610a32906104f5565b90565b90565b610a4c610a47610a5192610a35565b6106ab565b610336565b90565b610a68610a63610a6d92610a35565b6104d6565b6100d2565b90565b67ffffffffffffffff8111610a885760208091020190565b6107d8565b90610a9f610a9a83610a70565b610817565b918252565b369037565b90610ace610ab683610a8d565b92602080610ac48693610a70565b9201910390610aa4565b565b600f60f81b90565b610ae0610a0d565b50610ae9610a12565b50610af2610a12565b50610afb6104d1565b50610b04610a17565b50610b0d610a1c565b50610b16610a21565b50610b4b7f0000000000000000000000000000000000000000000000000000000000000000610b456000610a26565b90610f35565b90610b807f0000000000000000000000000000000000000000000000000000000000000000610b7a6001610a26565b90610f35565b904690610b8c30610a29565b90610b976000610a38565b90610baa610ba56000610a54565b610aa9565b90610bb3610ad0565b96959493929190565b7fdd8f4b70b0f4393e889bd39128a30628a78b61816a9eb8199759e7a349657e4890565b600080fd5b90929192610bfa610bf58261082c565b610817565b93818552602085019082840111610c1657610c1492610762565b565b610be0565b610c26913691610be5565b90565b60200190565b949290979695939160e086019860008701610c4991610339565b60208601610c5691610329565b60408501610c6391610329565b60608401610c70916100d5565b60808301610c7d916100d5565b60a08201610c8a916100d5565b60c001610c9691610339565b565b9190610d66610d6c92610ca961056e565b50610d60610cb5610bbc565b610d48610cc46000890161069e565b91610d39610cd460208b0161069e565b8a610ce160408201610637565b610ced60608301610637565b90610d11610d0b610d0060808601610637565b9460a0810190610716565b90610c1b565b610d23610d1d82610204565b91610c29565b2093610d2d610063565b98899760208901610c2f565b602082018103825203826107ee565b610d5a610d5482610204565b91610c29565b20610f84565b92610c1b565b90610fa1565b90610d8c610d876002610d816000850161069e565b9061050d565b610542565b610da9610da3610d9e60808501610637565b6100d2565b916100d2565b149182610db6575b505090565b610dd7919250610dcc6000610dd192940161069e565b610083565b91610083565b143880610db1565b610de890610336565b90565b90565b610e02610dfd610e0792610deb565b6106ab565b610336565b90565b610e1460ff610dee565b90565b634e487b7160e01b600052602260045260246000fd5b9060016002830492168015610e4d575b6020831014610e4857565b610e17565b91607f1691610e3d565b60209181520190565b600052602060002090565b9060009291805490610e86610e7f83610e2d565b8094610e57565b91600181169081600014610edf5750600114610ea2575b505050565b610eaf9192939450610e60565b916000925b818410610ec75750500190388080610e9d565b60018160209295939554848601520191019290610eb4565b92949550505060ff1916825215156020020190388080610e9d565b90610f0491610e6b565b90565b90610f27610f2092610f17610063565b93848092610efa565b03836107ee565b565b610f3290610f07565b90565b90610f3e610a12565b50610f4882610ddf565b610f61610f5b610f56610e0a565b610336565b91610336565b1415600014610f775750610f7490611047565b90565b610f819150610f29565b90565b610f9e90610f90610a1c565b50610f99611077565b611132565b90565b610fbf91610fb791610fb1610a17565b506111c4565b9190916113b3565b90565b90565b610fd9610fd4610fde92610fc2565b6104d6565b6100d2565b90565b67ffffffffffffffff8111610fff57610ffb602091610236565b0190565b6107d8565b9061101661101183610fe1565b610817565b918252565b369037565b9061104561102d83611004565b9260208061103b8693610fe1565b920191039061101b565b565b61104f610a12565b50611059816114df565b9061106c6110676020610fc5565b611020565b918252602082015290565b61107f610a1c565b5061108930610a29565b6110bb6110b57f0000000000000000000000000000000000000000000000000000000000000000610083565b91610083565b14806110f8575b6000146110ed577f000000000000000000000000000000000000000000000000000000000000000090565b6110f56115b5565b90565b504661112c6111267f00000000000000000000000000000000000000000000000000000000000000006100d2565b916100d2565b146110c2565b60429161113d610a1c565b50604051917f19010000000000000000000000000000000000000000000000000000000000008352600283015260228201522090565b600090565b90565b61118f61118a61119492611178565b6104d6565b6100d2565b90565b6111ab6111a66111b092610a35565b6104d6565b610078565b90565b6111bc90611197565b90565b600090565b6111cc610a17565b506111d5611173565b506111df82610204565b6111f26111ec604161117b565b916100d2565b146000146112395761123391611206610a1c565b5061120f610a1c565b506112186111bf565b5060208101516060604083015192015160001a9091926116d5565b91909190565b505061124560006111b3565b90600290565b634e487b7160e01b600052602160045260246000fd5b6005111561126b57565b61124b565b9061127a82611261565b565b60207f7565000000000000000000000000000000000000000000000000000000000000917f45434453413a20696e76616c6964207369676e6174757265202773272076616c60008201520152565b6112d760226040926102ef565b6112e08161127c565b0190565b6112fa90602081019060008183039101526112ca565b90565b60007f45434453413a20696e76616c6964207369676e6174757265206c656e67746800910152565b611332601f6020926102ef565b61133b816112fd565b0190565b6113559060208101906000818303910152611325565b90565b60007f45434453413a20696e76616c6964207369676e61747572650000000000000000910152565b61138d60186020926102ef565b61139681611358565b0190565b6113b09060208101906000818303910152611380565b90565b806113c76113c16000611270565b91611270565b146000146113d25750565b806113e66113e06001611270565b91611270565b14600014611410576113f6610063565b62461bcd60e51b81528061140c6004820161139a565b0390fd5b8061142461141e6002611270565b91611270565b1460001461144e57611434610063565b62461bcd60e51b81528061144a6004820161133f565b0390fd5b61146161145b6003611270565b91611270565b1461146857565b611470610063565b62461bcd60e51b815280611486600482016112e4565b0390fd5b61149661149b91610525565b6106c8565b90565b6114b26114ad6114b792610deb565b6104d6565b6100d2565b90565b90565b6114d16114cc6114d6926114ba565b6104d6565b6100d2565b90565b60000190565b6114f46114f9916114ee6104d1565b50610ddf565b61148a565b61150360ff61149e565b1680611518611512601f6114bd565b916100d2565b116115205790565b611528610063565b632cd44ac360e21b81528061153f600482016114d9565b0390fd5b7f8b73c3c69bb8fe3d512ecc4cf759cc79239f7b179b0ffacaa9a75d522b39400f90565b909594926115b3946115a26115ac9261159860809661158e60a088019c6000890190610339565b6020870190610339565b6040850190610339565b60608301906100d5565b0190610329565b565b6115bd610a1c565b506115c6611543565b61163d7f00000000000000000000000000000000000000000000000000000000000000009161162e7f00000000000000000000000000000000000000000000000000000000000000004661161930610a29565b91611622610063565b96879560208701611567565b602082018103825203826107ee565b61164f61164982610204565b91610c29565b2090565b90565b61166a61166561166f92611653565b6104d6565b6100d2565b90565b60ff1690565b61168190611672565b9052565b6116bb6116c2946116b16060949897956116a7608086019a6000870190610339565b6020850190611678565b6040830190610339565b0190610339565b565b6116cc610063565b3d6000823e3d90fd5b9291906116e0610a17565b506116e9611173565b506116f38361148a565b61172561171f7f7fffffffffffffffffffffffffffffff5d576e7357a4501ddfe92f46681b20a0611656565b916100d2565b1161179c57611746600093602095929361173d610063565b94859485611685565b838052039060015afa156117975761175f6000516106ab565b8061177b61177561177060006111b3565b610083565b91610083565b146117865790600090565b5061179160006111b3565b90600190565b6116c4565b505050506117aa60006111b3565b9060039056fea2646970667358221220b9318d9166f939d7ec22f313003e85fea6318c3dbd53f154fd61d07a319201ff64736f6c63430008180033",
  "linkReferences": {},
  "deployedLinkReferences": {}
}