{
  "_format": "hh-sol-artifact-1",
  "contractName": "PushSplitFactory",
  "sourceName": "contracts/splits/splitters/push/PushSplitFactory.sol",
  "abi": [
    {
      "inputs": [
        {
          "internalType": "address",
          "name": "_splitsWarehouse",
          "type": "address"
        }
      ],
      "stateMutability": "nonpayable",
      "type": "constructor"
    },
    {
      "anonymous": false,
      "inputs": [
        {
          "indexed": true,
          "internalType": "address",
          "name": "split",
          "type": "address"
        },
        {
          "components": [
            {
              "internalType": "address[]",
              "name": "recipients",
              "type": "address[]"
            },
            {
              "internalType": "uint256[]",
              "name": "allocations",
              "type": "uint256[]"
            },
            {
              "internalType": "uint256",
              "name": "totalAllocation",
              "type": "uint256"
            },
            {
              "internalType": "uint16",
              "name": "distributionIncentive",
              "type": "uint16"
            }
          ],
          "indexed": false,
          "internalType": "struct SplitV2Lib.Split",
          "name": "splitParams",
          "type": "tuple"
        },
        {
          "indexed": false,
          "internalType": "address",
          "name": "owner",
          "type": "address"
        },
        {
          "indexed": false,
          "internalType": "address",
          "name": "creator",
          "type": "address"
        }
      ],
      "name": "SplitCreated",
      "type": "event"
    },
    {
      "inputs": [],
      "name": "SPLIT_WALLET_IMPLEMENTATION",
      "outputs": [
        {
          "internalType": "address",
          "name": "",
          "type": "address"
        }
      ],
      "stateMutability": "view",
      "type": "function"
    },
    {
      "inputs": [
        {
          "components": [
            {
              "internalType": "address[]",
              "name": "recipients",
              "type": "address[]"
            },
            {
              "internalType": "uint256[]",
              "name": "allocations",
              "type": "uint256[]"
            },
            {
              "internalType": "uint256",
              "name": "totalAllocation",
              "type": "uint256"
            },
            {
              "internalType": "uint16",
              "name": "distributionIncentive",
              "type": "uint16"
            }
          ],
          "internalType": "struct SplitV2Lib.Split",
          "name": "_splitParams",
          "type": "tuple"
        },
        {
          "internalType": "address",
          "name": "_owner",
          "type": "address"
        },
        {
          "internalType": "address",
          "name": "_creator",
          "type": "address"
        }
      ],
      "name": "createSplit",
      "outputs": [
        {
          "internalType": "address",
          "name": "split",
          "type": "address"
        }
      ],
      "stateMutability": "nonpayable",
      "type": "function"
    },
    {
      "inputs": [
        {
          "components": [
            {
              "internalType": "address[]",
              "name": "recipients",
              "type": "address[]"
            },
            {
              "internalType": "uint256[]",
              "name": "allocations",
              "type": "uint256[]"
            },
            {
              "internalType": "uint256",
              "name": "totalAllocation",
              "type": "uint256"
            },
            {
              "internalType": "uint16",
              "name": "distributionIncentive",
              "type": "uint16"
            }
          ],
          "internalType": "struct SplitV2Lib.Split",
          "name": "_splitParams",
          "type": "tuple"
        },
        {
          "internalType": "address",
          "name": "_owner",
          "type": "address"
        },
        {
          "internalType": "address",
          "name": "_creator",
          "type": "address"
        },
        {
          "internalType": "bytes32",
          "name": "_salt",
          "type": "bytes32"
        }
      ],
      "name": "createSplitDeterministic",
      "outputs": [
        {
          "internalType": "address",
          "name": "split",
          "type": "address"
        }
      ],
      "stateMutability": "nonpayable",
      "type": "function"
    },
    {
      "inputs": [
        {
          "components": [
            {
              "internalType": "address[]",
              "name": "recipients",
              "type": "address[]"
            },
            {
              "internalType": "uint256[]",
              "name": "allocations",
              "type": "uint256[]"
            },
            {
              "internalType": "uint256",
              "name": "totalAllocation",
              "type": "uint256"
            },
            {
              "internalType": "uint16",
              "name": "distributionIncentive",
              "type": "uint16"
            }
          ],
          "internalType": "struct SplitV2Lib.Split",
          "name": "_splitParams",
          "type": "tuple"
        },
        {
          "internalType": "address",
          "name": "_owner",
          "type": "address"
        },
        {
          "internalType": "bytes32",
          "name": "_salt",
          "type": "bytes32"
        }
      ],
      "name": "isDeployed",
      "outputs": [
        {
          "internalType": "address",
          "name": "split",
          "type": "address"
        },
        {
          "internalType": "bool",
          "name": "exists",
          "type": "bool"
        }
      ],
      "stateMutability": "view",
      "type": "function"
    },
    {
      "inputs": [
        {
          "internalType": "bytes32",
          "name": "_hash",
          "type": "bytes32"
        }
      ],
      "name": "nonces",
      "outputs": [
        {
          "internalType": "uint256",
          "name": "",
          "type": "uint256"
        }
      ],
      "stateMutability": "view",
      "type": "function"
    },
    {
      "inputs": [
        {
          "components": [
            {
              "internalType": "address[]",
              "name": "recipients",
              "type": "address[]"
            },
            {
              "internalType": "uint256[]",
              "name": "allocations",
              "type": "uint256[]"
            },
            {
              "internalType": "uint256",
              "name": "totalAllocation",
              "type": "uint256"
            },
            {
              "internalType": "uint16",
              "name": "distributionIncentive",
              "type": "uint16"
            }
          ],
          "internalType": "struct SplitV2Lib.Split",
          "name": "_splitParams",
          "type": "tuple"
        },
        {
          "internalType": "address",
          "name": "_owner",
          "type": "address"
        }
      ],
      "name": "predictDeterministicAddress",
      "outputs": [
        {
          "internalType": "address",
          "name": "",
          "type": "address"
        }
      ],
      "stateMutability": "view",
      "type": "function"
    },
    {
      "inputs": [
        {
          "components": [
            {
              "internalType": "address[]",
              "name": "recipients",
              "type": "address[]"
            },
            {
              "internalType": "uint256[]",
              "name": "allocations",
              "type": "uint256[]"
            },
            {
              "internalType": "uint256",
              "name": "totalAllocation",
              "type": "uint256"
            },
            {
              "internalType": "uint16",
              "name": "distributionIncentive",
              "type": "uint16"
            }
          ],
          "internalType": "struct SplitV2Lib.Split",
          "name": "_splitParams",
          "type": "tuple"
        },
        {
          "internalType": "address",
          "name": "_owner",
          "type": "address"
        },
        {
          "internalType": "bytes32",
          "name": "_salt",
          "type": "bytes32"
        }
      ],
      "name": "predictDeterministicAddress",
      "outputs": [
        {
          "internalType": "address",
          "name": "",
          "type": "address"
        }
      ],
      "stateMutability": "view",
      "type": "function"
    }
  ],
  "bytecode": "0x60a0604052346200005c576200001e620000186200013b565b620001dc565b6200002862000062565b6110cb6200023d82396080518181816104640152818161098301528181610b2801528181610c9f0152610f1201526110cb90f35b62000068565b60405190565b600080fd5b601f801991011690565b634e487b7160e01b600052604160045260246000fd5b9062000099906200006d565b810190811060018060401b03821117620000b257604052565b62000077565b90620000cf620000c762000062565b92836200008d565b565b600080fd5b60018060a01b031690565b620000ec90620000d6565b90565b620000fa81620000e1565b036200010257565b600080fd5b905051906200011682620000ef565b565b906020828203126200013557620001329160000162000107565b90565b620000d1565b6200015e62005d80803803806200015281620000b8565b92833981019062000118565b90565b6200016c90620000e1565b9052565b9190620001869060006020850194019062000161565b565b6200019262000062565b3d6000823e3d90fd5b90565b620001b7620001b1620001bd92620000d6565b6200019b565b620000d6565b90565b620001cb906200019e565b90565b620001d990620001c0565b90565b620001e662000062565b90614a78820182811060018060401b03821117620002365782916200021491614a7862001308853962000170565b03906000f0801562000230576200022b90620001ce565b608052565b62000188565b6200007756fe60806040526004361015610013575b6104bb565b61001e60003561008d565b80632556fa391461008857806380ebf0ab146100835780639e317f121461007e578063cd6bc12114610079578063e9889edd14610074578063f79918b01461006f5763fc6119b10361000e57610486565b610419565b610384565b61034d565b61028f565b6101ed565b610171565b60e01c90565b60405190565b600080fd5b600080fd5b600080fd5b600080fd5b908160809103126100bb5790565b6100a8565b60018060a01b031690565b6100d4906100c0565b90565b6100e0816100cb565b036100e757565b600080fd5b905035906100f9826100d7565b565b909160608284031261014957600082013567ffffffffffffffff81116101445761012a846101419285016100ad565b9361013881602086016100ec565b936040016100ec565b90565b6100a3565b61009e565b610157906100cb565b9052565b919061016f9060006020850194019061014e565b565b346101a25761019e61018d6101873660046100fb565b9161092d565b610195610093565b9182918261015b565b0390f35b610099565b91906040838203126101e85760008301359067ffffffffffffffff82116101e3576101d7816101e09386016100ad565b936020016100ec565b90565b6100a3565b61009e565b3461021e5761021a6102096102033660046101a7565b90610ad6565b610211610093565b9182918261015b565b0390f35b610099565b90565b61022f81610223565b0361023657565b600080fd5b9050359061024882610226565b565b90602082820312610264576102619160000161023b565b90565b61009e565b90565b61027590610269565b9052565b919061028d9060006020850194019061026c565b565b346102bf576102bb6102aa6102a536600461024a565b610bf4565b6102b2610093565b91829182610279565b0390f35b610099565b909160608284031261031257600082013567ffffffffffffffff811161030d576102f38461030a9285016100ad565b9361030181602086016100ec565b9360400161023b565b90565b6100a3565b61009e565b151590565b61032590610317565b9052565b91602061034b9294936103446040820196600083019061014e565b019061031c565b565b3461037f576103666103603660046102c4565b91610c37565b9061037b610372610093565b92839283610329565b0390f35b610099565b346103b5576103b16103a061039a3660046102c4565b91610c70565b6103a8610093565b9182918261015b565b0390f35b610099565b60808183031261041457600081013567ffffffffffffffff811161040f57826103e49183016100ad565b9261040c6103f584602085016100ec565b9361040381604086016100ec565b9360600161023b565b90565b6100a3565b61009e565b3461044d5761044961043861042f3660046103ba565b92919091610c89565b610440610093565b9182918261015b565b0390f35b610099565b600091031261045d57565b61009e565b7f000000000000000000000000000000000000000000000000000000000000000090565b346104b657610496366004610452565b6104b26104a1610462565b6104a9610093565b9182918261015b565b0390f35b610099565b600080fd5b600090565b600080fd5b600080fd5b600080fd5b903560016020038236030381121561051557016020813591019167ffffffffffffffff821161051057602082023603831361050b57565b6104ca565b6104c5565b6104cf565b60209181520190565b90565b61052f906100cb565b9052565b9061054081602093610526565b0190565b506105539060208101906100ec565b90565b60200190565b9161056a826105709261051a565b92610523565b90816000905b828210610584575050505090565b909192936105a66105a060019261059b8886610544565b610533565b95610556565b920190929192610576565b90356001602003823603038112156105f257016020813591019167ffffffffffffffff82116105ed5760208202360383136105e857565b6104ca565b6104c5565b6104cf565b60209181520190565b600080fd5b9037565b909182610615916105f7565b9160018060fb1b03811161063857829160206106349202938491610605565b0190565b610600565b61064681610269565b0361064d57565b600080fd5b9050359061065f8261063d565b565b50610670906020810190610652565b90565b61067c90610269565b9052565b61ffff1690565b61069081610680565b0361069757565b600080fd5b905035906106a982610687565b565b506106ba90602081019061069c565b90565b6106c690610680565b9052565b906107409060606107386107146106f9608085016106eb60008901896104d4565b90878303600089015261055c565b61070660208801886105b1565b908683036020880152610609565b9461072f6107256040830183610661565b6040860190610673565b828101906106ab565b9101906106bd565b90565b9291602061076061076893604087019087820360008901526106ca565b94019061014e565b565b601f801991011690565b634e487b7160e01b600052604160045260246000fd5b906107949061076a565b810190811067ffffffffffffffff8211176107ae57604052565b610774565b60200190565b5190565b90565b6107cc6107d191610223565b6107bd565b9052565b905090565b60005b8381106107ee575050906000910152565b8060209183015181850152016107dd565b61082461081b92602092610812816107b9565b948580936107d5565b938491016107da565b0190565b8061083960209261084095946107c0565b01906107ff565b90565b610862929161086e91610854610093565b948592602084019283610828565b9081038252038361078a565b565b90565b61088761088261088c926100c0565b610870565b6100c0565b90565b61089890610873565b90565b6108a49061088f565b90565b6108b090610873565b90565b6108bc906108a7565b90565b600080fd5b60e01b90565b60009103126108d557565b61009e565b6108e2610093565b3d6000823e3d90fd5b6108f4906108a7565b90565b60409061092461091961092b95979694606084019084820360008601526106ca565b96602083019061014e565b019061014e565b565b9291926109386104c0565b506109f081610968849161095961094d610093565b93849260208401610743565b6020820181038252038261078a565b61097a610974826107b9565b916107b3565b206109d76109c37f0000000000000000000000000000000000000000000000000000000000000000926109d26109af82610e14565b6109b7610093565b93849160208301610279565b6020820181038252038361078a565b610843565b6109e96109e3826107b9565b916107b3565b2090610e47565b93610a026109fd8661089b565b6108b3565b63baa7fda4838592803b15610ac557610a2f60008094610a3a610a23610093565b978896879586946108c4565b845260048401610743565b03925af18015610ac057610a93575b508491929092610a8e610a7c7fb3ec24e9259e438f9917b49f27c0dd89a11b7626cb63e6fc977863c0b26a681b946108eb565b94610a85610093565b938493846108f7565b0390a2565b610ab39060003d8111610ab9575b610aab818361078a565b8101906108ca565b38610a49565b503d610aa1565b6108da565b6108bf565b610ad3906108a7565b90565b90610b0d610b9e92610ae66104c0565b50610afe610af2610093565b93849260208401610743565b6020820181038252038261078a565b610b1f610b19826107b9565b916107b3565b20610b7c610b687f000000000000000000000000000000000000000000000000000000000000000092610b77610b5482610bf4565b610b5c610093565b93849160208301610279565b6020820181038252038361078a565b610843565b610b8e610b88826107b9565b916107b3565b20610b9830610aca565b91610edd565b90565b600090565b610baf90610223565b90565b90610bbc90610ba6565b600052602052604060002090565b60001c90565b90565b610bdf610be491610bca565b610bd0565b90565b610bf19054610bd3565b90565b610c0b610c1091610c03610ba1565b506000610bb2565b610be7565b90565b600090565b90565b610c2f610c2a610c3492610c18565b610870565b610269565b90565b91610c5692610c446104c0565b50610c4d610c13565b50919091610efe565b90813b610c6c610c666000610c1b565b91610269565b1190565b91610c8692610c7d6104c0565b50919091610efe565b90565b90919392610ccf90610c996104c0565b50610cc97f0000000000000000000000000000000000000000000000000000000000000000918490869091610f99565b90610e47565b93610ce1610cdc8661089b565b6108b3565b63baa7fda4838592803b15610da457610d0e60008094610d19610d02610093565b978896879586946108c4565b845260048401610743565b03925af18015610d9f57610d72575b508491929092610d6d610d5b7fb3ec24e9259e438f9917b49f27c0dd89a11b7626cb63e6fc977863c0b26a681b946108eb565b94610d64610093565b938493846108f7565b0390a2565b610d929060003d8111610d98575b610d8a818361078a565b8101906108ca565b38610d28565b503d610d80565b6108da565b6108bf565b6001610db59101610269565b90565b60001b90565b90610dcb60001991610db8565b9181191691161790565b610de9610de4610dee92610269565b610870565b610269565b90565b90565b90610e09610e04610e1092610dd5565b610df1565b8254610dbe565b9055565b610e2890610e20610ba1565b506000610bb2565b610e44610e3482610be7565b91610e3e83610da9565b90610df4565b90565b9190610e516104c0565b50604051926c5af43d3d93803e605757fd5bf36051526044526f593da1005b3d3d3d3d363d3d37363d736030527f9e4ac34f21c619cefc926c8bd93b54bf5a39c7ab2127a895af1cc0691d7e3dff6020527060593d8160093d39f336602c57343d527f6000526071600f6000f59160405260006060528115610ecf57565b63301164256000526004601cfd5b91610ef3610efb93610eed6104c0565b50610fec565b91909161106b565b90565b90610f3a90610f4993610f0f6104c0565b507f000000000000000000000000000000000000000000000000000000000000000093919091610f99565b610f4330610aca565b91610edd565b90565b600090565b610f61610f6891602094936107ff565b80926107c0565b0190565b610f8b9291610f9791610f7d610093565b948592602084019283610f51565b9081038252038361078a565b565b91610fd0610fd693610fa9610f4c565b50610fc1610fb5610093565b94859260208401610743565b6020820181038252038361078a565b90610f6c565b610fe8610fe2826107b9565b916107b3565b2090565b90610ff5610f4c565b50604051916c5af43d3d93803e605757fd5bf36051526044526f593da1005b3d3d3d3d363d3d37363d736030527f9e4ac34f21c619cefc926c8bd93b54bf5a39c7ab2127a895af1cc0691d7e3dff6020527060593d8160093d39f336602c57343d527f6000526071600f20916040526000606052565b9190916110766104c0565b5060ff60005360355260601b600152601552605560002090600060355256fea26469706673582212209b8bd9420384ab475e87c97c314f7e6de24e4532964c336b1f54787b9adee14264736f6c634300081800336101c060405234620000c2576200001f62000019620001a1565b620001c7565b62000029620000c8565b613ecf62000ba9823960805181613657015260a0518161368e015260c0518161361d015260e05181613b9401526101005181613bb901526101205181611bc001526101405181611bf5015261016051818181610e740152818161147101528181611d430152612d080152610180518181816107270152611e8d01526101a0518181816107a301528181611cfe0152612c530152613ecf90f35b620000ce565b60405190565b600080fd5b601f801991011690565b634e487b7160e01b600052604160045260246000fd5b90620000ff90620000d3565b810190811060018060401b038211176200011857604052565b620000dd565b90620001356200012d620000c8565b9283620000f3565b565b600080fd5b60018060a01b031690565b62000152906200013c565b90565b620001608162000147565b036200016857565b600080fd5b905051906200017c8262000155565b565b906020828203126200019b5762000198916000016200016d565b90565b62000137565b620001c462004a7880380380620001b8816200011e565b9283398101906200017e565b90565b620001d29062000351565b565b60018060401b038111620001f357620001ef602091620000d3565b0190565b620000dd565b906200020f6200020983620001d4565b6200011e565b918252565b60007f73706c697457616c6c6574000000000000000000000000000000000000000000910152565b62000248600b620001f9565b90620002576020830162000214565b565b620002636200023c565b90565b60007f3200000000000000000000000000000000000000000000000000000000000000910152565b6200029a6001620001f9565b90620002a96020830162000266565b565b620002b56200028e565b90565b90565b620002d4620002ce620002da926200013c565b620002b8565b6200013c565b90565b620002e890620002bb565b90565b620002f690620002dd565b90565b620003049062000147565b90565b620003139051620002f9565b90565b6200032190620002bb565b90565b6200032f9062000316565b90565b60e01b90565b60000190565b62000348620000c8565b3d6000823e3d90fd5b6200037b90620003756200036462000259565b6200036e620002ab565b9062000423565b620002eb565b61016052620003b560206200039c6200039661016062000307565b62000324565b6331f7d96490620003ac620000c8565b93849262000332565b82528180620003c76004820162000338565b03915afa9081156200041d57600091620003e8575b506101a0523361018052565b6200040e915060203d811162000415575b620004058183620000f3565b8101906200017e565b38620003dc565b503d620003f9565b6200033e565b906200042f916200044f565b565b90565b90565b60200190565b5190565b6200044c9062000316565b90565b9062000497620004b79262000471816200046a600162000431565b906200080b565b610120526200048d8362000486600262000431565b906200080b565b6101405262000434565b620004ad620004a6826200043d565b9162000437565b2060e05262000434565b620004cd620004c6826200043d565b9162000437565b20610100524660a052620004e062000948565b608052620004ee3062000441565b60c052565b600090565b90565b90565b62000517620005116200051d92620004fb565b620002b8565b620004f8565b90565b5190565b634e487b7160e01b600052602260045260246000fd5b90600160028304921680156200055d575b60208310146200055757565b62000524565b91607f16916200054b565b600052602060002090565b601f602091010490565b1b90565b91906008620005a19102916200059a600019846200057d565b926200057d565b9181191691161790565b620005c4620005be620005ca92620004f8565b620002b8565b620004f8565b90565b90565b9190620005eb620005e5620005f493620005ab565b620005cd565b90835462000581565b9055565b600090565b62000613916200060c620005f8565b91620005d0565b565b5b81811062000622575050565b80620006326000600193620005fd565b0162000616565b9190601f81116200064a575b505050565b62000659620006849362000568565b906020620006678462000573565b830193106200068d575b6200067c9062000573565b019062000615565b38808062000645565b91506200067c8192905062000671565b1c90565b90620006b490600019906008026200069d565b191690565b81620006c591620006a1565b906002021790565b90620006d98162000520565b9060018060401b038211620007ac576200070082620006f985546200053a565b8562000639565b602090601f83116001146200073a5791809162000728936000926200072d575b5050620006b9565b90555b565b9091500151388062000720565b601f198316916200074b8562000568565b9260005b818110620007935750916002939185600196941062000776575b505050020190556200072b565b62000788910151601f841690620006a1565b905538808062000769565b919360206001819287870151815501950192016200074f565b620000dd565b90620007be91620006cd565b565b90565b90565b60001b90565b620007e5620007df620007eb92620007c0565b620007c6565b620007c3565b90565b620007fa60ff620007cc565b90565b6200080890620007c3565b90565b9062000816620004f3565b506200082c620008268362000434565b6200043d565b620008436200083c6020620004fe565b91620004f8565b106000146200085b5750620008589062000b05565b90565b60006200086d620008749392620009cd565b01620007b2565b6200088862000882620007ee565b620007fd565b90565b600090565b7f8b73c3c69bb8fe3d512ecc4cf759cc79239f7b179b0ffacaa9a75d522b39400f90565b620008c09051620007c3565b90565b620008ce90620007c3565b9052565b620008dd90620004f8565b9052565b620008ec9062000147565b9052565b909594926200094694620009336200093e92620009286080966200091d60a088019c6000890190620008c3565b6020870190620008c3565b6040850190620008c3565b6060830190620008d2565b0190620008e1565b565b620009526200088b565b506200095d62000890565b620009b36200096d60e0620008b4565b91620009a36200097f610100620008b4565b466200098b3062000441565b9162000996620000c8565b96879560208701620008f0565b60208201810382520382620000f3565b620009c9620009c2826200043d565b9162000437565b2090565b90565b90565b620009ec620009e6620009f292620009d0565b620002b8565b620004f8565b90565b60209181520190565b60005b83811062000a13575050906000910152565b80602091830151818501520162000a01565b62000a4a62000a5460209362000a5a9362000a408162000520565b93848093620009f5565b95869101620009fe565b620000d3565b0190565b62000a76916020820191600081840391015262000a25565b90565b62000a9962000a9362000a8c836200043d565b9262000437565b620008b4565b906020811062000aa8575b5090565b62000abd90600019906020036008026200057d565b163862000aa4565b60001c90565b62000ada62000ae09162000ac5565b620005ab565b90565b62000afc62000af662000b0292620004f8565b620007c6565b620007c3565b90565b62000b0f620004f3565b5062000b1b8162000434565b9062000b27826200043d565b62000b3e62000b37601f620009d3565b91620004f8565b1162000b7e575062000b758162000b6e62000b6762000b6162000b7b9562000a79565b62000acb565b916200043d565b1762000ae3565b620007fd565b90565b62000ba49062000b8d620000c8565b91829163305a27a960e01b83526004830162000a5e565b0390fdfe60806040526004361015610013575b611197565b61001e60003561017d565b806301ffc9a714610178578063150b7a02146101735780631626ba7e1461016e57806316c38b3c14610169578063254689f514610164578063286617de1461015f5780632d3f55371461015a5780632dd310001461015557806331f7d964146101505780635c975abb1461014b5780636d2244891461014657806384b0196e146101415780638da5cb5b1461013c578063b8d63f4514610137578063baa7fda414610132578063bc197c811461012d578063ce1506be14610128578063d47b287e14610123578063dfb7ce831461011e578063f23a6e6114610119578063f2fde38b146101145763f69e64b20361000e5761116a565b610fce565b610f95565b610ef0565b610e3b565b610d97565b610d3f565b610bd4565b610b58565b610aff565b610a84565b6108cb565b61083a565b6107c5565b61076c565b6106e1565b61065b565b6105da565b610588565b610509565b610419565b61020f565b60e01c90565b60405190565b600080fd5b600080fd5b600080fd5b63ffffffff60e01b1690565b6101ad81610198565b036101b457565b600080fd5b905035906101c6826101a4565b565b906020828203126101e2576101df916000016101b9565b90565b61018e565b151590565b6101f5906101e7565b9052565b919061020d906000602085019401906101ec565b565b3461023f5761023b61022a6102253660046101c8565b6111a1565b610232610183565b918291826101f9565b0390f35b610189565b60018060a01b031690565b61025890610244565b90565b6102648161024f565b0361026b57565b600080fd5b9050359061027d8261025b565b565b90565b61028b8161027f565b0361029257565b600080fd5b905035906102a482610282565b565b600080fd5b600080fd5b601f801991011690565b634e487b7160e01b600052604160045260246000fd5b906102da906102b0565b810190811067ffffffffffffffff8211176102f457604052565b6102ba565b9061030c610305610183565b92836102d0565b565b67ffffffffffffffff811161032c576103286020916102b0565b0190565b6102ba565b90826000939282370152565b9092919261035261034d8261030e565b6102f9565b9381855260208501908284011161036e5761036c92610331565b565b6102ab565b9080601f830112156103915781602061038e9335910161033d565b90565b6102a6565b906080828203126103f1576103ae8160008401610270565b926103bc8260208501610270565b926103ca8360408301610297565b92606082013567ffffffffffffffff81116103ec576103e99201610373565b90565b610193565b61018e565b6103ff90610198565b9052565b9190610417906000602085019401906103f6565b565b3461044d5761044961043861042f366004610396565b92919091611211565b610440610183565b91829182610403565b0390f35b610189565b90565b61045e81610452565b0361046557565b600080fd5b9050359061047782610455565b565b600080fd5b600080fd5b909182601f830112156104bd5781359167ffffffffffffffff83116104b85760200192600183028401116104b357565b61047e565b610479565b6102a6565b919091604081840312610504576104dc836000830161046a565b92602082013567ffffffffffffffff81116104ff576104fb9201610483565b9091565b610193565b61018e565b3461053a5761053661052561051f3660046104c2565b9161127a565b61052d610183565b91829182610403565b0390f35b610189565b610548816101e7565b0361054f57565b600080fd5b905035906105618261053f565b565b9060208282031261057d5761057a91600001610554565b90565b61018e565b60000190565b346105b6576105a061059b366004610563565b61140b565b6105a8610183565b806105b281610582565b0390f35b610189565b906020828203126105d5576105d291600001610270565b90565b61018e565b34610608576105f26105ed3660046105bb565b61146c565b6105fa610183565b8061060481610582565b0390f35b610189565b600080fd5b908160809103126106205790565b61060d565b9060208282031261065657600082013567ffffffffffffffff81116106515761064e9201610612565b90565b610193565b61018e565b346106895761067361066e366004610625565b6118aa565b61067b610183565b8061068581610582565b0390f35b610189565b90916060828403126106dc57600082013567ffffffffffffffff81116106d7576106bd846106d4928501610612565b936106cb8160208601610270565b93604001610270565b90565b610193565b61018e565b34610710576106fa6106f436600461068e565b91611abc565b610702610183565b8061070c81610582565b0390f35b610189565b600091031261072057565b61018e565b7f000000000000000000000000000000000000000000000000000000000000000090565b6107529061024f565b9052565b919061076a90600060208501940190610749565b565b3461079c5761077c366004610715565b610798610787610725565b61078f610183565b91829182610756565b0390f35b610189565b7f000000000000000000000000000000000000000000000000000000000000000090565b346107f5576107d5366004610715565b6107f16107e06107a1565b6107e8610183565b91829182610756565b0390f35b610189565b1c90565b60ff1690565b61081490600861081993026107fa565b6107fe565b90565b906108279154610804565b90565b610837600060149061081c565b90565b3461086a5761084a366004610715565b61086661085561082a565b61085d610183565b918291826101f9565b0390f35b610189565b90565b61088290600861088793026107fa565b61086f565b90565b906108959154610872565b90565b6108a5600360009061088a565b90565b6108b190610452565b9052565b91906108c9906000602085019401906108a8565b565b346108fb576108db366004610715565b6108f76108e6610898565b6108ee610183565b918291826108b5565b0390f35b610189565b60ff60f81b1690565b61091290610900565b9052565b5190565b60209181520190565b60005b838110610937575050906000910152565b806020918301518185015201610926565b6109676109706020936109759361095e81610916565b9384809361091a565b95869101610923565b6102b0565b0190565b6109829061027f565b9052565b5190565b60209181520190565b60200190565b6109a29061027f565b9052565b906109b381602093610999565b0190565b60200190565b906109da6109d46109cd84610986565b809361098a565b92610993565b9060005b8181106109eb5750505090565b909192610a046109fe60019286516109a6565b946109b7565b91019190916109de565b93959194610a60610a55610a7495610a47610a6a95610a819c9a610a3a60e08c019260008d0190610909565b8a820360208c0152610948565b9088820360408a0152610948565b976060870190610979565b6080850190610749565b60a08301906108a8565b60c08184039101526109bd565b90565b34610abb57610a94366004610715565b610ab7610a9f611b7c565b93610aae979597939193610183565b97889788610a0e565b0390f35b610189565b60018060a01b031690565b610adb906008610ae093026107fa565b610ac0565b90565b90610aee9154610acb565b90565b610afc600080610ae3565b90565b34610b2f57610b0f366004610715565b610b2b610b1a610af1565b610b22610183565b91829182610756565b0390f35b610189565b916020610b56929493610b4f60408201966000830190610979565b0190610979565b565b34610b8957610b70610b6b3660046105bb565b611ce2565b90610b85610b7c610183565b92839283610b34565b0390f35b610189565b9190604083820312610bcf5760008301359067ffffffffffffffff8211610bca57610bbe81610bc7938601610612565b93602001610270565b90565b610193565b61018e565b34610c0357610bed610be7366004610b8e565b90611e83565b610bf5610183565b80610bff81610582565b0390f35b610189565b67ffffffffffffffff8111610c205760208091020190565b6102ba565b90929192610c3a610c3582610c08565b6102f9565b9381855260208086019202830192818411610c7757915b838310610c5e5750505050565b60208091610c6c8486610297565b815201920191610c51565b61047e565b9080601f83011215610c9a57816020610c9793359101610c25565b90565b6102a6565b91909160a081840312610d3a57610cb98360008301610270565b92610cc78160208401610270565b92604083013567ffffffffffffffff8111610d355782610ce8918501610c7c565b92606081013567ffffffffffffffff8111610d305783610d09918301610c7c565b92608082013567ffffffffffffffff8111610d2b57610d289201610373565b90565b610193565b610193565b610193565b61018e565b34610d7357610d6f610d5e610d55366004610c9f565b93929092611f05565b610d66610183565b91829182610403565b0390f35b610189565b90602082820312610d9257610d8f9160000161046a565b90565b61018e565b34610dc757610dc3610db2610dad366004610d78565b611f71565b610dba610183565b918291826108b5565b0390f35b610189565b919060a083820312610e3657600083013567ffffffffffffffff8111610e315781610df8918501610612565b92610e068260208301610270565b92610e2e610e178460408501610297565b93610e258160608601610554565b93608001610270565b90565b610193565b61018e565b34610e6d57610e57610e4e366004610dcc565b939290926120f6565b610e5f610183565b80610e6981610582565b0390f35b610189565b7f000000000000000000000000000000000000000000000000000000000000000090565b90565b610ead610ea8610eb292610244565b610e96565b610244565b90565b610ebe90610e99565b90565b610eca90610eb5565b90565b610ed690610ec1565b9052565b9190610eee90600060208501940190610ecd565b565b34610f2057610f00366004610715565b610f1c610f0b610e72565b610f13610183565b91829182610eda565b0390f35b610189565b91909160a081840312610f9057610f3f8360008301610270565b92610f4d8160208401610270565b92610f5b8260408501610297565b92610f698360608301610297565b92608082013567ffffffffffffffff8111610f8b57610f889201610373565b90565b610193565b61018e565b34610fc957610fc5610fb4610fab366004610f25565b93929092612105565b610fbc610183565b91829182610403565b0390f35b610189565b34610ffc57610fe6610fe13660046105bb565b612246565b610fee610183565b80610ff881610582565b0390f35b610189565b909182601f8301121561103b5781359167ffffffffffffffff831161103657602001926020830284011161103157565b61047e565b610479565b6102a6565b9060208282031261107257600082013567ffffffffffffffff811161106d576110699201611001565b9091565b610193565b61018e565b5190565b60209181520190565b60200190565b5190565b60209181520190565b6110b66110bf6020936110c4936110ad8161108a565b9384809361108e565b95869101610923565b6102b0565b0190565b906110d291611097565b90565b60200190565b906110ef6110e883611077565b809261107b565b908161110060208302840194611084565b926000915b83831061111457505050505090565b90919293946020611136611130838560019503875289516110c8565b976110d5565b9301930191939290611105565b916111679261115a60408201936000830190610979565b60208184039101526110db565b90565b61117e611178366004611040565b90612688565b9061119361118a610183565b92839283611143565b0390f35b600080fd5b600090565b6111a961119c565b50806111c46111be630271189760e51b610198565b91610198565b149081156111d1575b5090565b6111db9150612870565b386111cd565b600090565b63ffffffff1690565b60e01b90565b61120961120461120e926111e6565b6111ef565b610198565b90565b5050505061121d6111e1565b5061122b63150b7a026111f5565b90565b61123991369161033d565b90565b90565b61125361124e6112589261123c565b6111ef565b610198565b90565b90565b61127261126d6112779261125b565b6111ef565b610198565b90565b906112a26112a89361128a6111e1565b5061129c611296612896565b94611f71565b9261122e565b916128dd565b6112bc576112b963ffffffff61125e565b90565b6112c9631626ba7e61123f565b90565b60001c90565b6112de6112e3916112cc565b610ac0565b90565b6112f090546112d2565b90565b6112fc90610eb5565b90565b3361131b61131561131060006112e6565b61024f565b9161024f565b141580611354575b61133257611330906113c5565b565b61133a610183565b6282b42960e81b81528061135060048201610582565b0390fd5b503361137061136a611365306112f3565b61024f565b9161024f565b1415611323565b60a01b90565b9061138c60ff60a01b91611377565b9181191691161790565b61139f906101e7565b90565b90565b906113ba6113b56113c192611396565b6113a2565b825461137d565b9055565b6113d08160006113a5565b6114067f3c70af01296aef045b2f5c9d3c30b05d4428fd257145b9c7fcd76418e65b5980916113fd610183565b918291826101f9565b0390a1565b611414906112ff565b565b61141f90610eb5565b90565b600080fd5b600091031261143257565b61018e565b91602061145992949361145260408201966000830190610749565b0190610749565b565b611463610183565b3d6000823e3d90fd5b6114957f0000000000000000000000000000000000000000000000000000000000000000610ec1565b9063f940e385906114a530611416565b9092803b1561151b576114cc600080946114d76114c0610183565b978896879586946111ef565b845260048401611437565b03925af18015611516576114e9575b50565b6115099060003d811161150f575b61150181836102d0565b810190611427565b386114e6565b503d6114f7565b61145b565b611422565b3361153c61153661153160006112e6565b61024f565b9161024f565b141580611575575b6115535761155190611853565b565b61155b610183565b6282b42960e81b81528061157160048201610582565b0390fd5b503361159161158b611586306112f3565b61024f565b9161024f565b1415611544565b60001b90565b906115ab60001991611598565b9181191691161790565b6115be90610452565b90565b6115ca906112cc565b90565b906115e26115dd6115e9926115b5565b6115c1565b825461159e565b9055565b600080fd5b600080fd5b600080fd5b903560016020038236030381121561163d57016020813591019167ffffffffffffffff821161163857602082023603831361163357565b6115f2565b6115ed565b6115f7565b60209181520190565b90565b6116579061024f565b9052565b906116688160209361164e565b0190565b5061167b906020810190610270565b90565b60200190565b916116928261169892611642565b9261164b565b90816000905b8282106116ac575050505090565b909192936116ce6116c86001926116c3888661166c565b61165b565b9561167e565b92019092919261169e565b903560016020038236030381121561171a57016020813591019167ffffffffffffffff821161171557602082023603831361171057565b6115f2565b6115ed565b6115f7565b60209181520190565b600080fd5b9037565b90918261173d9161171f565b9160018060fb1b038111611760578291602061175c920293849161172d565b0190565b611728565b50611774906020810190610297565b90565b61ffff1690565b61178781611777565b0361178e57565b600080fd5b905035906117a08261177e565b565b506117b1906020810190611793565b90565b6117bd90611777565b9052565b9061183790606061182f61180b6117f0608085016117e260008901896115fc565b908783036000890152611684565b6117fd60208801886116d9565b908683036020880152611731565b9461182661181c6040830183611765565b6040860190610999565b828101906117a2565b9101906117b4565b90565b61185091602082019160008184039101526117c1565b90565b61185c816129f7565b61186f61186882612b14565b60036115cd565b6118a57f52cd08e805db808b670064dedc5cf97374a918fc17c82d7097753189550e8d519161189c610183565b9182918261183a565b0390a1565b6118b390611520565b565b60a01c90565b6118c76118cc916118b5565b6107fe565b90565b6118d990546118bb565b90565b6118e590610eb5565b90565b91906118f460006112e6565b6118fe60006118cf565b61190f575b5061190d92611a1a565b565b3361192261191c8361024f565b9161024f565b14159081611982575b508061195f575b61193c5738611903565b611944610183565b6313d0ff5960e31b81528061195b60048201610582565b0390fd5b503361197b611975611970306118dc565b61024f565b9161024f565b1415611932565b9050611997611991329261024f565b9161024f565b14153861192b565b6119ab6119b0916112cc565b61086f565b90565b6119bd905461199f565b90565b90565b6119d76119d26119dc926119c0565b610e96565b61027f565b90565b634e487b7160e01b600052601160045260246000fd5b611a04611a0a9193929361027f565b9261027f565b8201809211611a1557565b6119df565b91611a2560036119b3565b611a3f611a39611a3486612b14565b610452565b91610452565b03611a9957611a8992611a82611a5484611ce2565b9081611a69611a6360016119c3565b9161027f565b11611a8b575b80151590039080151590039294926119f5565b9192612c0e565b565b611a948661146c565b611a6f565b611aa1610183565b63bcd55b0f60e01b815280611ab860048201610582565b0390fd5b90611ac792916118e8565b565b600090565b606090565b600090565b600090565b600090565b606090565b90565b611af390610eb5565b90565b90565b611b0d611b08611b1292611af6565b611598565b610452565b90565b611b29611b24611b2e92611af6565b610e96565b61027f565b90565b90611b43611b3e83610c08565b6102f9565b918252565b369037565b90611b72611b5a83611b31565b92602080611b688693610c08565b9201910390611b48565b565b600f60f81b90565b611b84611ac9565b50611b8d611ace565b50611b96611ace565b50611b9f611ad3565b50611ba8611ad8565b50611bb1611add565b50611bba611ae2565b50611bef7f0000000000000000000000000000000000000000000000000000000000000000611be96001611ae7565b90613064565b90611c247f0000000000000000000000000000000000000000000000000000000000000000611c1e6002611ae7565b90613064565b904690611c3030611aea565b90611c3b6000611af9565b90611c4e611c496000611b15565b611b4d565b90611c57611b74565b96959493929190565b611c6990610e99565b90565b611c7590611c60565b90565b611c8190610eb5565b90565b611c8d90610eb5565b90565b90505190611c9d82610282565b565b90602082820312611cb957611cb691600001611c90565b90565b61018e565b916020611ce0929493611cd960408201966000830190610749565b0190610979565b565b90611ceb611ad3565b50611cf4611ad3565b5081611d28611d227f000000000000000000000000000000000000000000000000000000000000000061024f565b9161024f565b14600014611def57611d3930611c84565b315b916020611d677f0000000000000000000000000000000000000000000000000000000000000000610ec1565b9162fdd58e92611d9a611d82611d7c30611c84565b936130db565b94611da5611d8e610183565b968795869485946111ef565b845260048401611cbe565b03915afa908115611dea57600091611dbc575b5090565b611ddd915060203d8111611de3575b611dd581836102d0565b810190611c9f565b38611db8565b503d611dcb565b61145b565b611e376020611e05611e0085611c6c565b611c78565b6370a0823190611e2c611e1730611c84565b92611e20610183565b958694859384936111ef565b835260048301610756565b03915afa908115611e7e57600091611e50575b50611d3b565b611e71915060203d8111611e77575b611e6981836102d0565b810190611c9f565b38611e4a565b503d611e5f565b61145b565b9033611eb7611eb17f000000000000000000000000000000000000000000000000000000000000000061024f565b9161024f565b03611ee257611edb611ed483611ecf611ee0956129f7565b612b14565b60036115cd565b6130f8565b565b611eea610183565b630d622feb60e01b815280611f0160048201610582565b0390fd5b5050505050611f126111e1565b50611f2063bc197c816111f5565b90565b7f27494ec45ae688e7b2451f36d0c95ff88538e2aeba4442f5a7a84fb2268f973490565b916020611f69929493611f62604082019660008301906108a8565b01906108a8565b565b60200190565b611fc790611f7d611add565b50611faf611f89611f23565b611fa0611f94610183565b93849260208401611f47565b602082018103825203826102d0565b611fc1611fbb8261108a565b91611f6b565b20613106565b90565b93929190611fd860006112e6565b611fe260006118cf565b611ff3575b50611ff194612083565b565b336120066120008361024f565b9161024f565b14159081612066575b5080612043575b6120205738611fe7565b612028610183565b6313d0ff5960e31b81528061203f60048201610582565b0390fd5b503361205f612059612054306118dc565b61024f565b9161024f565b1415612016565b905061207b612075329261024f565b9161024f565b14153861200f565b939190929361209260036119b3565b6120ac6120a66120a184612b14565b610452565b91610452565b036120d3576120c3946120c5575b92909192612c0e565b565b6120ce8461146c565b6120ba565b6120db610183565b63bcd55b0f60e01b8152806120f260048201610582565b0390fd5b9061210394939291611fca565b565b50505050506121126111e1565b5061212063f23a6e616111f5565b90565b3361213f61213961213460006112e6565b61024f565b9161024f565b141580612178575b61215657612154906121e5565b565b61215e610183565b6282b42960e81b81528061217460048201610582565b0390fd5b503361219461218e612189306112f3565b61024f565b9161024f565b1415612147565b6121a490610eb5565b90565b906121b860018060a01b0391611598565b9181191691161790565b90565b906121da6121d56121e19261219b565b6121c2565b82546121a7565b9055565b612244906121f360006112e6565b816122276122217f8be0079c531659141344cd1fd0a4f28419497f9722a3daafe3b4186f6b6457e09361219b565b9161219b565b91612230610183565b8061223a81610582565b0390a360006121c5565b565b61224f90612123565b565b606090565b5090565b67ffffffffffffffff81116122725760208091020190565b6102ba565b906122896122848361225a565b6102f9565b918252565b606090565b60005b8281106122a257505050565b6020906122ad61228e565b8184015201612296565b906122dc6122c483612277565b926020806122d2869361225a565b9201910390612293565b565b60016122ea910161027f565b90565b634e487b7160e01b600052603260045260246000fd5b600080fd5b600080fd5b600080fd5b903590600160600381360303821215612329570190565b612303565b908210156123485760206123459202810190612312565b90565b6122ed565b356123578161025b565b90565b90359060016020038136030382121561239c570180359067ffffffffffffffff82116123975760200191600182023603831361239257565b61230d565b612308565b612303565b5090565b90356001602003823603038112156123e657016020813591019167ffffffffffffffff82116123e15760018202360383136123dc57565b6115f2565b6115ed565b6115f7565b9190612405816123fe8161240a9561108e565b8095610331565b6102b0565b0190565b61246691612458606082019261243461242a600083018361166c565b600085019061164e565b61244e6124446020830183611765565b6020850190610999565b60408101906123a5565b9160408185039101526123eb565b90565b61247f916020820191600081840391015261240e565b90565b3561248c81610282565b90565b905090565b9091826124a4816124ab9361248f565b8093610331565b0190565b90916124ba92612494565b90565b906124cf6124ca8361030e565b6102f9565b918252565b606090565b3d6000146124f6576124ea3d6124bd565b903d6000602084013e5b565b6124fe6124d4565b906124f4565b9061250e82611077565b81101561251f576020809102010190565b6122ed565b90565b61253d9160208201916000818403910152610948565b90565b156125485750565b61256990612554610183565b91829162461bcd60e51b835260048301612527565b0390fd5b60209181520190565b90565b6125d1916125c3606082019261259f612595600083018361166c565b600085019061164e565b6125b96125af6020830183611765565b6020850190610999565b60408101906123a5565b9160408185039101526123eb565b90565b906125de91612579565b90565b90356001606003823603038112156125f7570190565b6115f7565b60200190565b918161260d9161256d565b908161261e60208302840194612576565b92836000925b8484106126345750505050505090565b909192939495602061265f61265983856001950388526126548b886125e1565b6125d4565b986125fc565b940194019294939190612624565b90916126859260208301926000818503910152612602565b90565b612690611ad3565b50612699612251565b50339143926126a9838390612256565b936126b3856122b7565b956126bc61119c565b506126c5611ad3565b5b806126d96126d38961027f565b9161027f565b101561282d57836126fb6126f56126f060006112e6565b61024f565b9161024f565b0361280b5761270c8686839161232e565b6127186000820161234d565b3b61272c6127266000611b15565b9161027f565b146127b5575b906127ab60008084612748826127b0970161234d565b9061276361275860208301612482565b91604081019061235a565b9190612779612770610183565b938492836124af565b03925af16127856124d9565b6127908c8590612504565b526127a561279f8c8590612504565b51612524565b90612540565b6122de565b6126c6565b6127cc6127c682604081019061235a565b906123a1565b6127df6127d96000611b15565b9161027f565b111561273257612807906127f1610183565b91829163a633565160e01b835260048301612469565b0390fd5b612813610183565b6282b42960e81b81528061282960048201610582565b0390fd5b50939150949350907f79dfcb184c75a8c53199ae76930d72ffcdac408a45ea4b710dfe3f2d35a45a269161286b612862610183565b9283928361266d565b0390a1565b61287861119c565b5061289261288c6301ffc9a760e01b610198565b91610198565b1490565b61289e611ad8565b506128a960006112e6565b90565b634e487b7160e01b600052602160045260246000fd5b600511156128cc57565b6128ac565b906128db826128c2565b565b916128e661119c565b506128f2828290613174565b6129056128ff60006128d1565b916128d1565b149081612931575b5092831561291c575b50505090565b61292993509190916132b5565b388080612916565b905061294561293f8561024f565b9161024f565b143861290d565b90359060016020038136030382121561298e570180359067ffffffffffffffff82116129895760200191602082023603831361298457565b61230d565b612308565b612303565b5090565b9035906001602003813603038212156129d9570180359067ffffffffffffffff82116129d4576020019160208202360383136129cf57565b61230d565b612308565b612303565b5090565b91908110156129f2576020020190565b6122ed565b90612a0f612a0983600081019061294c565b90612993565b90612a27612a21846020810190612997565b906129de565b612a39612a338461027f565b9161027f565b03612af157612a46611ad3565b90612a4f611ad3565b915b82612a64612a5e8661027f565b9161027f565b1015612aa357612a97612a9d91612a91612a8c612a85896020810190612997565b88916129e2565b612482565b906119f5565b926122de565b91612a51565b612ac191949350612ac792506040612abc919401612482565b61027f565b9161027f565b03612ace57565b612ad6610183565b63123c9c8160e01b815280612aed60048201610582565b0390fd5b612af9610183565b6340fa044d60e01b815280612b1060048201610582565b0390fd5b612b47612b3891612b23611add565b50612b2c610183565b9283916020830161183a565b602082018103825203826102d0565b612b59612b538261108a565b91611f6b565b2090565b612b6c612b729193929361027f565b9261027f565b8203918211612b7d57565b6119df565b9190811015612b92576020020190565b6122ed565b90565b612bae612ba9612bb392612b97565b610e96565b61027f565b90565b612bc2620186a0612b9a565b90565b604090612bef612bf69496959396612be560608401986000850190610749565b6020830190610749565b0190610979565b565b9190612c0c90600060208501940190610979565b565b919093612c19611ad3565b50612c31612c2b84600081019061294c565b90612993565b93612c3d84849061344c565b92612c49818590612b5d565b9387612c7d612c777f000000000000000000000000000000000000000000000000000000000000000061024f565b9161024f565b14600014612e6057612c8d611ad3565b5b80612ca1612c9b8a61027f565b9161027f565b1015612ddb57612cb387878391613488565b90612cef612ce9612cda612cd5612cce8c600081019061294c565b8691612b82565b61234d565b84612ce3612bb6565b91613520565b156101e7565b612d03575b612cfe91506122de565b612c8e565b612d2c7f0000000000000000000000000000000000000000000000000000000000000000610ec1565b638340f5498391909190612d56612d51612d4a8d600081019061294c565b8791612b82565b61234d565b918d9590823b15612dd657600094612d8a612d7f93612d73610183565b998a97889687956111ef565b855260048501612bc5565b03925af1918215612dd157612cfe92612da4575b50612cf4565b612dc49060003d8111612dca575b612dbc81836102d0565b810190611427565b38612d9e565b503d612db2565b61145b565b611422565b50929693509350935080612df8612df26000611b15565b9161027f565b11612e50575b505b919091612e4b612e39612e337f562c19c0e7b3493417e3cf5103baa939f4d0e9c1087be236aebb46b84e09c7d99361219b565b9361219b565b93612e42610183565b91829182612bf8565b0390a3565b612e5a9084613537565b38612dfe565b600097949750612e6e611ad3565b5b80612e82612e7c8a61027f565b9161027f565b1015612ed657612ed190612ecc612e9b898c8491613488565b612ea489611c6c565b90612ec5612ec0612eb98d600081019061294c565b8791612b82565b61234d565b90916134d5565b6122de565b612e6f565b509296509350935080612ef2612eec6000611b15565b9161027f565b11612efe575b50612e00565b612f1490612f0b83611c6c565b908590916134d5565b38612ef8565b90565b612f31612f2c612f3692612f1a565b611598565b610452565b90565b612f4360ff612f1d565b90565b634e487b7160e01b600052602260045260246000fd5b9060016002830492168015612f7c575b6020831014612f7757565b612f46565b91607f1691612f6c565b60209181520190565b600052602060002090565b9060009291805490612fb5612fae83612f5c565b8094612f86565b9160018116908160001461300e5750600114612fd1575b505050565b612fde9192939450612f8f565b916000925b818410612ff65750500190388080612fcc565b60018160209295939554848601520191019290612fe3565b92949550505060ff1916825215156020020190388080612fcc565b9061303391612f9a565b90565b9061305661304f92613046610183565b93848092613029565b03836102d0565b565b61306190613036565b90565b9061306d611ace565b50613077826115b5565b61309061308a613085612f39565b610452565b91610452565b14156000146130a657506130a3906135bd565b90565b6130b09150613058565b90565b6130bc90610e99565b90565b6130d36130ce6130d892610244565b610e96565b61027f565b90565b6130f06130f5916130ea611ad3565b506130b3565b6130bf565b90565b613104906000906135ed565b565b61312090613112611add565b5061311b613603565b6136be565b90565b600090565b90565b61313f61313a61314492613128565b610e96565b61027f565b90565b61315b61315661316092611af6565b610e96565b610244565b90565b61316c90613147565b90565b600090565b61317c611ad8565b50613185613123565b5061318f8261108a565b6131a261319c604161312b565b9161027f565b146000146131e9576131e3916131b6611add565b506131bf611add565b506131c861316f565b5060208101516060604083015192015160001a9091926137a0565b91909190565b50506131f56000613163565b90600290565b60209181520190565b61322361322c6020936132319361321a8161108a565b938480936131fb565b95869101610923565b6102b0565b0190565b916132599261324c604082019360008301906108a8565b6020818403910152613204565b90565b90565b61327361326e6132789261325c565b610e96565b61027f565b90565b9050519061328882610455565b565b906020828203126132a4576132a19160000161327b565b90565b61018e565b6132b290610198565b90565b9160046132fe600094936132ef86956132cc61119c565b5094630b135d3f60e11b926132df610183565b9586946020860190815201613235565b602082018103825203826102d0565b602081019051915afa61330f6124d9565b9080613364575b9081613321575b5090565b61333c915060206133318261108a565b81830101910161328a565b61335d613357613352630b135d3f60e11b6132a9565b610452565b91610452565b143861331d565b5061336e8161108a565b61338161337b602061325f565b9161027f565b1015613316565b356133928161177e565b90565b6133a96133a46133ae92611777565b610e96565b61027f565b90565b6133c06133c69193929361027f565b9261027f565b916133d283820261027f565b9281840414901517156133e157565b6119df565b90565b6133fd6133f8613402926133e6565b610e96565b61027f565b90565b613411620f42406133e9565b90565b634e487b7160e01b600052601260045260246000fd5b61343661343c9161027f565b9161027f565b908115613447570490565b613414565b6134779061347161346c606061348595613464611ad3565b509301613388565b613395565b906133b1565b61347f613405565b9061342a565b90565b9060406134c56134d2946134bf6134ba6134cc956134a4611ad3565b50926134b4886020810190612997565b906129e2565b612482565b906133b1565b9201612482565b9061342a565b90565b9161351960049261350a61351e95936134f163a9059cbb6111f5565b926134fa610183565b9687946020860190815201611cbe565b602082018103825203836102d0565b61399f565b565b90600092839161352e61119c565b5038933892f190565b9060008092389238915af11561354957565b63b12d13eb6000526004601cfd5b67ffffffffffffffff8111613575576135716020916102b0565b0190565b6102ba565b9061358c61358783613557565b6102f9565b918252565b369037565b906135bb6135a38361357a565b926020806135b18693613557565b9201910390613591565b565b6135c5611ace565b506135cf81613a47565b906135e26135dd602061325f565b613596565b918252602082015290565b906135fa61360192613aab565b60006113a5565b565b61360b611add565b5061361530611aea565b6136476136417f000000000000000000000000000000000000000000000000000000000000000061024f565b9161024f565b1480613684575b600014613679577f000000000000000000000000000000000000000000000000000000000000000090565b613681613b7e565b90565b50466136b86136b27f000000000000000000000000000000000000000000000000000000000000000061027f565b9161027f565b1461364e565b6042916136c9611add565b50604051917f19010000000000000000000000000000000000000000000000000000000000008352600283015260228201522090565b61371361370e6137189261027f565b610e96565b61027f565b90565b61372761372c916112cc565b6136ff565b90565b90565b61374661374161374b9261372f565b610e96565b61027f565b90565b60ff1690565b61375d9061374e565b9052565b61379761379e9461378d606094989795613783608086019a60008701906108a8565b6020850190613754565b60408301906108a8565b01906108a8565b565b9291906137ab611ad8565b506137b4613123565b506137be8361371b565b6137f06137ea7f7fffffffffffffffffffffffffffffff5d576e7357a4501ddfe92f46681b20a0613732565b9161027f565b11613867576138116000936020959293613808610183565b94859485613761565b838052039060015afa156138625761382a600051611598565b8061384661384061383b6000613163565b61024f565b9161024f565b146138515790600090565b5061385c6000613163565b90600190565b61145b565b505050506138756000613163565b90600390565b60007f5361666545524332303a206c6f772d6c6576656c2063616c6c206661696c6564910152565b6138ad602061357a565b906138ba6020830161387b565b565b6138c46138a3565b90565b905051906138d48261053f565b565b906020828203126138f0576138ed916000016138c7565b90565b61018e565b60207f6f74207375636365656400000000000000000000000000000000000000000000917f5361666545524332303a204552433230206f7065726174696f6e20646964206e60008201520152565b613950602a60409261091a565b613959816138f5565b0190565b6139739060208101906000818303910152613943565b90565b1561397d57565b613985610183565b62461bcd60e51b81528061399b6004820161395d565b0390fd5b6139e9916139af6139be92611c78565b906139b86138bc565b91613c1c565b6139c78161108a565b6139da6139d46000611b15565b9161027f565b149081156139eb575b50613976565b565b613a06915060206139fb8261108a565b8183010191016138d6565b386139e3565b613a20613a1b613a2592612f1a565b610e96565b61027f565b90565b90565b613a3f613a3a613a4492613a28565b610e96565b61027f565b90565b613a5c613a6191613a56611ad3565b506115b5565b61371b565b613a6b60ff613a0c565b1680613a80613a7a601f613a2b565b9161027f565b11613a885790565b613a90610183565b632cd44ac360e21b815280613aa760048201610582565b0390fd5b613b0a90613ab96000613163565b81613aed613ae77f8be0079c531659141344cd1fd0a4f28419497f9722a3daafe3b4186f6b6457e09361219b565b9161219b565b91613af6610183565b80613b0081610582565b0390a360006121c5565b565b7f8b73c3c69bb8fe3d512ecc4cf759cc79239f7b179b0ffacaa9a75d522b39400f90565b90959492613b7c94613b6b613b7592613b61608096613b5760a088019c60008901906108a8565b60208701906108a8565b60408501906108a8565b6060830190610979565b0190610749565b565b613b86611add565b50613b8f613b0c565b613c067f000000000000000000000000000000000000000000000000000000000000000091613bf77f000000000000000000000000000000000000000000000000000000000000000046613be230611aea565b91613beb610183565b96879560208701613b30565b602082018103825203826102d0565b613c18613c128261108a565b91611f6b565b2090565b90613c3c9291613c2a6124d4565b5090613c366000611b15565b91613cf5565b90565b613c4890610eb5565b90565b60207f722063616c6c0000000000000000000000000000000000000000000000000000917f416464726573733a20696e73756666696369656e742062616c616e636520666f60008201520152565b613ca6602660409261091a565b613caf81613c4b565b0190565b613cc99060208101906000818303910152613c99565b90565b15613cd357565b613cdb610183565b62461bcd60e51b815280613cf160048201613cb3565b0390fd5b9160008091613d4c9593613d076124d4565b50613d2e613d1430613c3f565b31613d27613d218561027f565b9161027f565b1015613ccc565b8591602082019151925af191613d426124d9565b9092909192613dd3565b90565b60007f416464726573733a2063616c6c20746f206e6f6e2d636f6e7472616374000000910152565b613d84601d60209261091a565b613d8d81613d4f565b0190565b613da79060208101906000818303910152613d77565b90565b15613db157565b613db9610183565b62461bcd60e51b815280613dcf60048201613d91565b0390fd5b919290613dde6124d4565b50600014613e245750613df08261108a565b613e03613dfd6000611b15565b9161027f565b14613e0d575b5090565b613e19613e1e91613e78565b613daa565b38613e09565b8290613e2f8261108a565b613e42613e3c6000611b15565b9161027f565b11600014613e535750805190602001fd5b613e7490613e5f610183565b91829162461bcd60e51b835260048301612527565b0390fd5b613e8061119c565b503b613e95613e8f6000611b15565b9161027f565b119056fea2646970667358221220cc4e74cb99af1e991cc2c51e11f43d1904654cf4981dedba0edcefb7b72d990464736f6c63430008180033",
  "linkReferences": {},
  "deployedLinkReferences": {}
}