{
  "_format": "hh-sol-artifact-1",
  "contractName": "FractionToken",
  "sourceName": "contracts/fraction/FractionToken.sol",
  "abi": [
    {
      "inputs": [
        {
          "internalType": "string",
          "name": "_uri",
          "type": "string"
        },
        {
          "internalType": "address",
          "name": "_hatsAddress",
          "type": "address"
        },
        {
          "internalType": "address",
          "name": "_trustedForwarder",
          "type": "address"
        }
      ],
      "stateMutability": "nonpayable",
      "type": "constructor"
    },
    {
      "anonymous": false,
      "inputs": [
        {
          "indexed": true,
          "internalType": "address",
          "name": "account",
          "type": "address"
        },
        {
          "indexed": true,
          "internalType": "address",
          "name": "operator",
          "type": "address"
        },
        {
          "indexed": false,
          "internalType": "bool",
          "name": "approved",
          "type": "bool"
        }
      ],
      "name": "ApprovalForAll",
      "type": "event"
    },
    {
      "anonymous": false,
      "inputs": [
        {
          "indexed": true,
          "internalType": "address",
          "name": "operator",
          "type": "address"
        },
        {
          "indexed": true,
          "internalType": "address",
          "name": "from",
          "type": "address"
        },
        {
          "indexed": true,
          "internalType": "address",
          "name": "to",
          "type": "address"
        },
        {
          "indexed": false,
          "internalType": "uint256[]",
          "name": "ids",
          "type": "uint256[]"
        },
        {
          "indexed": false,
          "internalType": "uint256[]",
          "name": "values",
          "type": "uint256[]"
        }
      ],
      "name": "TransferBatch",
      "type": "event"
    },
    {
      "anonymous": false,
      "inputs": [
        {
          "indexed": true,
          "internalType": "address",
          "name": "operator",
          "type": "address"
        },
        {
          "indexed": true,
          "internalType": "address",
          "name": "from",
          "type": "address"
        },
        {
          "indexed": true,
          "internalType": "address",
          "name": "to",
          "type": "address"
        },
        {
          "indexed": false,
          "internalType": "uint256",
          "name": "id",
          "type": "uint256"
        },
        {
          "indexed": false,
          "internalType": "uint256",
          "name": "value",
          "type": "uint256"
        }
      ],
      "name": "TransferSingle",
      "type": "event"
    },
    {
      "anonymous": false,
      "inputs": [
        {
          "indexed": false,
          "internalType": "string",
          "name": "value",
          "type": "string"
        },
        {
          "indexed": true,
          "internalType": "uint256",
          "name": "id",
          "type": "uint256"
        }
      ],
      "name": "URI",
      "type": "event"
    },
    {
      "inputs": [],
      "name": "TOKEN_SUPPLY",
      "outputs": [
        {
          "internalType": "uint256",
          "name": "",
          "type": "uint256"
        }
      ],
      "stateMutability": "view",
      "type": "function"
    },
    {
      "inputs": [
        {
          "internalType": "address",
          "name": "account",
          "type": "address"
        },
        {
          "internalType": "uint256",
          "name": "id",
          "type": "uint256"
        }
      ],
      "name": "balanceOf",
      "outputs": [
        {
          "internalType": "uint256",
          "name": "",
          "type": "uint256"
        }
      ],
      "stateMutability": "view",
      "type": "function"
    },
    {
      "inputs": [
        {
          "internalType": "address",
          "name": "account",
          "type": "address"
        },
        {
          "internalType": "address",
          "name": "wearer",
          "type": "address"
        },
        {
          "internalType": "uint256",
          "name": "hatId",
          "type": "uint256"
        }
      ],
      "name": "balanceOf",
      "outputs": [
        {
          "internalType": "uint256",
          "name": "",
          "type": "uint256"
        }
      ],
      "stateMutability": "view",
      "type": "function"
    },
    {
      "inputs": [
        {
          "internalType": "address[]",
          "name": "accounts",
          "type": "address[]"
        },
        {
          "internalType": "address[]",
          "name": "wearers",
          "type": "address[]"
        },
        {
          "internalType": "uint256[]",
          "name": "hatIds",
          "type": "uint256[]"
        }
      ],
      "name": "balanceOfBatch",
      "outputs": [
        {
          "internalType": "uint256[]",
          "name": "",
          "type": "uint256[]"
        }
      ],
      "stateMutability": "view",
      "type": "function"
    },
    {
      "inputs": [
        {
          "internalType": "address[]",
          "name": "accounts",
          "type": "address[]"
        },
        {
          "internalType": "uint256[]",
          "name": "ids",
          "type": "uint256[]"
        }
      ],
      "name": "balanceOfBatch",
      "outputs": [
        {
          "internalType": "uint256[]",
          "name": "",
          "type": "uint256[]"
        }
      ],
      "stateMutability": "view",
      "type": "function"
    },
    {
      "inputs": [],
      "name": "getAllTokenIds",
      "outputs": [
        {
          "internalType": "uint256[]",
          "name": "",
          "type": "uint256[]"
        }
      ],
      "stateMutability": "view",
      "type": "function"
    },
    {
      "inputs": [
        {
          "internalType": "uint256",
          "name": "hatId",
          "type": "uint256"
        },
        {
          "internalType": "address",
          "name": "account",
          "type": "address"
        }
      ],
      "name": "getTokenId",
      "outputs": [
        {
          "internalType": "uint256",
          "name": "",
          "type": "uint256"
        }
      ],
      "stateMutability": "pure",
      "type": "function"
    },
    {
      "inputs": [
        {
          "internalType": "uint256",
          "name": "tokenId",
          "type": "uint256"
        }
      ],
      "name": "getTokenRecipients",
      "outputs": [
        {
          "internalType": "address[]",
          "name": "",
          "type": "address[]"
        }
      ],
      "stateMutability": "view",
      "type": "function"
    },
    {
      "inputs": [
        {
          "internalType": "address",
          "name": "account",
          "type": "address"
        },
        {
          "internalType": "address",
          "name": "operator",
          "type": "address"
        }
      ],
      "name": "isApprovedForAll",
      "outputs": [
        {
          "internalType": "bool",
          "name": "",
          "type": "bool"
        }
      ],
      "stateMutability": "view",
      "type": "function"
    },
    {
      "inputs": [
        {
          "internalType": "address",
          "name": "forwarder",
          "type": "address"
        }
      ],
      "name": "isTrustedForwarder",
      "outputs": [
        {
          "internalType": "bool",
          "name": "",
          "type": "bool"
        }
      ],
      "stateMutability": "view",
      "type": "function"
    },
    {
      "inputs": [
        {
          "internalType": "uint256",
          "name": "hatId",
          "type": "uint256"
        },
        {
          "internalType": "address",
          "name": "account",
          "type": "address"
        }
      ],
      "name": "mint",
      "outputs": [],
      "stateMutability": "nonpayable",
      "type": "function"
    },
    {
      "inputs": [
        {
          "internalType": "address",
          "name": "from",
          "type": "address"
        },
        {
          "internalType": "address",
          "name": "to",
          "type": "address"
        },
        {
          "internalType": "uint256[]",
          "name": "tokenIds",
          "type": "uint256[]"
        },
        {
          "internalType": "uint256[]",
          "name": "amounts",
          "type": "uint256[]"
        },
        {
          "internalType": "bytes",
          "name": "data",
          "type": "bytes"
        }
      ],
      "name": "safeBatchTransferFrom",
      "outputs": [],
      "stateMutability": "nonpayable",
      "type": "function"
    },
    {
      "inputs": [
        {
          "internalType": "address",
          "name": "from",
          "type": "address"
        },
        {
          "internalType": "address",
          "name": "to",
          "type": "address"
        },
        {
          "internalType": "uint256",
          "name": "tokenId",
          "type": "uint256"
        },
        {
          "internalType": "uint256",
          "name": "amount",
          "type": "uint256"
        },
        {
          "internalType": "bytes",
          "name": "data",
          "type": "bytes"
        }
      ],
      "name": "safeTransferFrom",
      "outputs": [],
      "stateMutability": "nonpayable",
      "type": "function"
    },
    {
      "inputs": [
        {
          "internalType": "address",
          "name": "operator",
          "type": "address"
        },
        {
          "internalType": "bool",
          "name": "approved",
          "type": "bool"
        }
      ],
      "name": "setApprovalForAll",
      "outputs": [],
      "stateMutability": "nonpayable",
      "type": "function"
    },
    {
      "inputs": [
        {
          "internalType": "bytes4",
          "name": "interfaceId",
          "type": "bytes4"
        }
      ],
      "name": "supportsInterface",
      "outputs": [
        {
          "internalType": "bool",
          "name": "",
          "type": "bool"
        }
      ],
      "stateMutability": "view",
      "type": "function"
    },
    {
      "inputs": [
        {
          "internalType": "uint256",
          "name": "tokenId",
          "type": "uint256"
        }
      ],
      "name": "uri",
      "outputs": [
        {
          "internalType": "string",
          "name": "",
          "type": "string"
        }
      ],
      "stateMutability": "view",
      "type": "function"
    }
  ],
  "bytecode": "0x60a06040523462000041576200001f6200001862000218565b91620002db565b6200002962000047565b613078620005d182396080518161151a015261307890f35b6200004d565b60405190565b600080fd5b601f801991011690565b634e487b7160e01b600052604160045260246000fd5b906200007e9062000052565b810190811060018060401b038211176200009757604052565b6200005c565b90620000b4620000ac62000047565b928362000072565b565b600080fd5b600080fd5b600080fd5b600080fd5b60018060401b038111620000e957620000e560209162000052565b0190565b6200005c565b60005b83811062000104575050906000910152565b806020918301518185015201620000f2565b909291926200012f6200012982620000ca565b6200009d565b938185526020850190828401116200014e576200014c92620000ef565b565b620000c5565b9080601f830112156200017557816020620001729351910162000116565b90565b620000c0565b60018060a01b031690565b62000191906200017b565b90565b6200019f8162000186565b03620001a757565b600080fd5b90505190620001bb8262000194565b565b90916060828403126200021257600082015160018060401b0381116200020c57620001ef846200020992850162000154565b93620001ff8160208601620001ac565b93604001620001ac565b90565b620000bb565b620000b6565b6200023b62003649803803806200022f816200009d565b928339810190620001bd565b909192565b90565b6200025c6200025662000262926200017b565b62000240565b6200017b565b90565b620002709062000243565b90565b6200027e9062000265565b90565b60001b90565b906200029a60018060a01b039162000281565b9181191691161790565b620002af9062000265565b90565b90565b90620002cf620002c9620002d792620002a4565b620002b2565b825462000287565b9055565b90620002f0620002f692620002fe9462000300565b62000273565b6005620002b5565b565b906200030c9062000311565b608052565b6200031c90620005c1565b565b5190565b634e487b7160e01b600052602260045260246000fd5b90600160028304921680156200035b575b60208310146200035557565b62000322565b91607f169162000349565b600052602060002090565b601f602091010490565b1b90565b919060086200039f91029162000398600019846200037b565b926200037b565b9181191691161790565b90565b620003c5620003bf620003cb92620003a9565b62000240565b620003a9565b90565b90565b9190620003ec620003e6620003f593620003ac565b620003ce565b9083546200037f565b9055565b600090565b62000414916200040d620003f9565b91620003d1565b565b5b81811062000423575050565b80620004336000600193620003fe565b0162000417565b9190601f81116200044b575b505050565b6200045a620004859362000366565b906020620004688462000371565b830193106200048e575b6200047d9062000371565b019062000416565b38808062000446565b91506200047d8192905062000472565b1c90565b90620004b590600019906008026200049e565b191690565b81620004c691620004a2565b906002021790565b90620004da816200031e565b9060018060401b038211620005ad576200050182620004fa855462000338565b856200043a565b602090601f83116001146200053b5791809162000529936000926200052e575b5050620004ba565b90555b565b9091500151388062000521565b601f198316916200054c8562000366565b9260005b818110620005945750916002939185600196941062000577575b505050020190556200052c565b62000589910151601f841690620004a2565b90553880806200056a565b9193602060018192878701518155019501920162000550565b6200005c565b90620005bf91620004ce565b565b620005ce906002620005b3565b56fe60806040526004361015610013575b610d02565b61001e60003561011c565b8062fdd58e1461011757806301ffc9a7146101125780630be49bca1461010d5780630e89341c1461010857806310f9f7b4146101035780632eb2c2d6146100fe5780634e1273f4146100f9578063572b6c05146100f4578063616151a6146100ef57806394bf804d146100ea578063a22cb465146100e5578063b152f6cf146100e0578063bdbed722146100db578063e93119d9146100d6578063e985e9c5146100d15763f242432a0361000e57610ccb565b610c25565b610bc1565b610b51565b610b1c565b610a9d565b610a17565b6109e1565b61097e565b610929565b610894565b61072b565b610447565b61038c565b610297565b6101ea565b60e01c90565b60405190565b600080fd5b600080fd5b600080fd5b60018060a01b031690565b61014b90610137565b90565b61015781610142565b0361015e57565b600080fd5b905035906101708261014e565b565b90565b61017e81610172565b0361018557565b600080fd5b9050359061019782610175565b565b91906040838203126101c257806101b66101bf9260008601610163565b9360200161018a565b90565b61012d565b6101d090610172565b9052565b91906101e8906000602085019401906101c7565b565b3461021b57610217610206610200366004610199565b90610e8b565b61020e610122565b918291826101d4565b0390f35b610128565b63ffffffff60e01b1690565b61023581610220565b0361023c57565b600080fd5b9050359061024e8261022c565b565b9060208282031261026a5761026791600001610241565b90565b61012d565b151590565b61027d9061026f565b9052565b919061029590600060208501940190610274565b565b346102c7576102c36102b26102ad366004610250565b610ede565b6102ba610122565b91829182610281565b0390f35b610128565b906020828203126102e6576102e39160000161018a565b90565b61012d565b5190565b60209181520190565b60200190565b61030790610142565b9052565b90610318816020936102fe565b0190565b60200190565b9061033f610339610332846102eb565b80936102ef565b926102f8565b9060005b8181106103505750505090565b909192610369610363600192865161030b565b9461031c565b9101919091610343565b6103899160208201916000818403910152610322565b90565b346103bc576103b86103a76103a23660046102cc565b611040565b6103af610122565b91829182610373565b0390f35b610128565b5190565b60209181520190565b60005b8381106103e2575050906000910152565b8060209183015181850152016103d1565b601f801991011690565b61041c61042560209361042a93610413816103c1565b938480936103c5565b958691016103ce565b6103f3565b0190565b61044491602082019160008184039101526103fd565b90565b346104775761047361046261045d3660046102cc565b611064565b61046a610122565b9182918261042e565b0390f35b610128565b600080fd5b634e487b7160e01b600052604160045260246000fd5b906104a1906103f3565b810190811067ffffffffffffffff8211176104bb57604052565b610481565b906104d36104cc610122565b9283610497565b565b67ffffffffffffffff81116104ed5760208091020190565b610481565b600080fd5b9092919261050c610507826104d5565b6104c0565b938185526020808601920283019281841161054957915b8383106105305750505050565b6020809161053e8486610163565b815201920191610523565b6104f2565b9080601f8301121561056c57816020610569933591016104f7565b90565b61047c565b67ffffffffffffffff81116105895760208091020190565b610481565b909291926105a361059e82610571565b6104c0565b93818552602080860192028301928184116105e057915b8383106105c75750505050565b602080916105d5848661018a565b8152019201916105ba565b6104f2565b9080601f83011215610603578160206106009335910161058e565b90565b61047c565b9160608383031261068557600083013567ffffffffffffffff8111610680578261063391850161054e565b92602081013567ffffffffffffffff811161067b578361065491830161054e565b92604082013567ffffffffffffffff81116106765761067392016105e5565b90565b610132565b610132565b610132565b61012d565b5190565b60209181520190565b60200190565b6106a690610172565b9052565b906106b78160209361069d565b0190565b60200190565b906106de6106d86106d18461068a565b809361068e565b92610697565b9060005b8181106106ef5750505090565b90919261070861070260019286516106aa565b946106bb565b91019190916106e2565b61072891602082019160008184039101526106c1565b90565b3461075c57610758610747610741366004610608565b9161116a565b61074f610122565b91829182610712565b0390f35b610128565b600080fd5b67ffffffffffffffff8111610784576107806020916103f3565b0190565b610481565b90826000939282370152565b909291926107aa6107a582610766565b6104c0565b938185526020850190828401116107c6576107c492610789565b565b610761565b9080601f830112156107e9578160206107e693359101610795565b90565b61047c565b91909160a081840312610889576108088360008301610163565b926108168160208401610163565b92604083013567ffffffffffffffff811161088457826108379185016105e5565b92606081013567ffffffffffffffff811161087f57836108589183016105e5565b92608082013567ffffffffffffffff811161087a5761087792016107cb565b90565b610132565b610132565b610132565b61012d565b60000190565b346108c6576108b06108a73660046107ee565b939290926112e1565b6108b8610122565b806108c28161088e565b0390f35b610128565b91909160408184031261092457600081013567ffffffffffffffff811161091f57836108f891830161054e565b92602082013567ffffffffffffffff811161091a5761091792016105e5565b90565b610132565b610132565b61012d565b3461095a5761095661094561093f3660046108cb565b9061143d565b61094d610122565b91829182610712565b0390f35b610128565b906020828203126109795761097691600001610163565b90565b61012d565b346109ae576109aa61099961099436600461095f565b611509565b6109a1610122565b91829182610281565b0390f35b610128565b91906040838203126109dc57806109d06109d9926000860161018a565b93602001610163565b90565b61012d565b34610a1257610a0e6109fd6109f73660046109b3565b906115d0565b610a05610122565b918291826101d4565b0390f35b610128565b34610a4657610a30610a2a3660046109b3565b9061172f565b610a38610122565b80610a428161088e565b0390f35b610128565b610a548161026f565b03610a5b57565b600080fd5b90503590610a6d82610a4b565b565b9190604083820312610a985780610a8c610a959260008601610163565b93602001610a60565b90565b61012d565b34610acc57610ab6610ab0366004610a6f565b90611789565b610abe610122565b80610ac88161088e565b0390f35b610128565b6000910312610adc57565b61012d565b90565b90565b610afb610af6610b0092610ae1565b610ae4565b610172565b90565b610b0e612710610ae7565b90565b610b19610b03565b90565b34610b4c57610b2c366004610ad1565b610b48610b37610b11565b610b3f610122565b918291826101d4565b0390f35b610128565b34610b8157610b61366004610ad1565b610b7d610b6c61185d565b610b74610122565b91829182610712565b0390f35b610128565b9091606082840312610bbc57610bb9610ba28460008501610163565b93610bb08160208601610163565b9360400161018a565b90565b61012d565b34610bf257610bee610bdd610bd7366004610b86565b91611873565b610be5610122565b918291826101d4565b0390f35b610128565b9190604083820312610c205780610c14610c1d9260008601610163565b93602001610163565b90565b61012d565b34610c5657610c52610c41610c3b366004610bf7565b90611950565b610c49610122565b91829182610281565b0390f35b610128565b91909160a081840312610cc657610c758360008301610163565b92610c838160208401610163565b92610c91826040850161018a565b92610c9f836060830161018a565b92608082013567ffffffffffffffff8111610cc157610cbe92016107cb565b90565b610132565b61012d565b34610cfd57610ce7610cde366004610c5b565b93929092611978565b610cef610122565b80610cf98161088e565b0390f35b610128565b600080fd5b600090565b90565b610d23610d1e610d2892610d0c565b610ae4565b610137565b90565b610d3490610d0f565b90565b60207f616c6964206f776e657200000000000000000000000000000000000000000000917f455243313135353a2061646472657373207a65726f206973206e6f742061207660008201520152565b610d92602a6040926103c5565b610d9b81610d37565b0190565b610db59060208101906000818303910152610d85565b90565b15610dbf57565b610dc7610122565b62461bcd60e51b815280610ddd60048201610d9f565b0390fd5b610df5610df0610dfa92610172565b610ae4565b610172565b90565b90610e0790610de1565b600052602052604060002090565b610e29610e24610e2e92610137565b610ae4565b610137565b90565b610e3a90610e15565b90565b610e4690610e31565b90565b90610e5390610e3d565b600052602052604060002090565b60001c90565b90565b610e76610e7b91610e61565b610e67565b90565b610e889054610e6a565b90565b610ed190610ecc610ed693610e9e610d07565b50610ec583610ebe610eb8610eb36000610d2b565b610142565b91610142565b1415610db8565b6000610dfd565b610e49565b610e7e565b90565b600090565b610ee6610ed9565b5080610f01610efb636cdb3d1360e11b610220565b91610220565b148015610f25575b908115610f15575b5090565b610f1f91506119cb565b38610f11565b5080610f40610f3a6303a24d0760e21b610220565b91610220565b14610f09565b606090565b90610f5590610de1565b600052602052604060002090565b5490565b60209181520190565b600052602060002090565b60018060a01b031690565b610f92610f9791610e61565b610f7b565b90565b610fa49054610f86565b90565b60010190565b90610fca610fc4610fbd84610f63565b8093610f67565b92610f70565b9060005b818110610fdb5750505090565b909192610ffb610ff5600192610ff087610f9a565b61030b565b94610fa7565b9101919091610fce565b9061100f91610fad565b90565b9061103261102b92611022610122565b93848092611005565b0383610497565b565b61103d90611012565b90565b61105761105c9161104f610f46565b506003610f4b565b611034565b90565b606090565b6110769061107061105f565b50611b0f565b90565b606090565b9061109061108b83610571565b6104c0565b918252565b369037565b906110bf6110a78361107e565b926020806110b58693610571565b9201910390611095565b565b6110d56110d06110da92610d0c565b610ae4565b610172565b90565b60016110e99101610172565b90565b634e487b7160e01b600052603260045260246000fd5b9061110c826102eb565b81101561111d576020809102010190565b6110ec565b61112c9051610142565b90565b906111398261068a565b81101561114a576020809102010190565b6110ec565b6111599051610172565b90565b9061116690610172565b9052565b91611173611079565b50611185611180846102eb565b61109a565b9261119060006110c1565b5b806111ac6111a66111a1856102eb565b610172565b91610172565b1015611217576112129061120d6111fb6111cf6111ca868590611102565b611122565b6111e26111dd898690611102565b611122565b6111f56111f089879061112f565b61114f565b91611873565b611208889184909261112f565b61115c565b6110dd565b611191565b5050505090565b90565b600052602060002090565b5490565b6112398161122c565b8210156112545761124b600191611221565b91020190600090565b6110ec565b1b90565b9190600861127d91029161127760018060a01b0384611259565b92611259565b9181191691161790565b90565b91906112a061129b6112a893610e3d565b611287565b90835461125d565b9055565b90815491680100000000000000008310156112dc57826112d49160016112da95018155611230565b9061128a565b565b610481565b936112f492939194918585919293611bd0565b6112fe60006110c1565b5b8061131a61131461130f8561068a565b610172565b91610172565b101561138e576113549061134a61134461133d61133886859061112f565b61114f565b8690611c2d565b1561026f565b611359575b6110dd565b6112ff565b61138961138261137d600361137761137288879061112f565b61114f565b90610f4b565b61121e565b85906112ac565b61134f565b505050565b60207f206d69736d617463680000000000000000000000000000000000000000000000917f455243313135353a206163636f756e747320616e6420696473206c656e67746860008201520152565b6113ee60296040926103c5565b6113f781611393565b0190565b61141190602081019060008183039101526113e1565b90565b1561141b57565b611423610122565b62461bcd60e51b815280611439600482016113fb565b0390fd5b90611446611079565b50611473611453836102eb565b61146d6114676114628561068a565b610172565b91610172565b14611414565b61148461147f836102eb565b61109a565b9161148f60006110c1565b5b806114ab6114a56114a0856102eb565b610172565b91610172565b1015611503576114fe906114f96114e76114ce6114c9868590611102565b611122565b6114e16114dc88869061112f565b61114f565b90610e8b565b6114f4879184909261112f565b61115c565b6110dd565b611490565b50505090565b611511610ed9565b5061154461153e7f0000000000000000000000000000000000000000000000000000000000000000610142565b91610142565b1490565b90565b61155761155c91610172565b611548565b9052565b60601b90565b61156f90611560565b90565b61157b90611566565b90565b61158a61158f91610142565b611572565b9052565b6020816115a66115ae936014969561154b565b01809261157e565b0190565b60200190565b5190565b6115c86115cd91610e61565b610de1565b90565b9061160761161f926115e0610d07565b506115f86115ec610122565b93849260208401611593565b60208201810382520382610497565b611619611613826115b8565b916115b2565b206115bc565b90565b67ffffffffffffffff81116116405761163c6020916103f3565b0190565b610481565b9061165761165283611622565b6104c0565b918252565b6116666000611645565b90565b61167161165c565b90565b90565b600052602060002090565b5490565b61168f81611682565b8210156116aa576116a1600191611677565b91020190600090565b6110ec565b919060086116cb9102916116c560001984611259565b92611259565b9181191691161790565b90565b91906116ee6116e96116f693610de1565b6116d5565b9083546116af565b9055565b908154916801000000000000000083101561172a578261172291600161172895018155611686565b906116d8565b565b610481565b61173d6117569183906115d0565b9182611747610b03565b90611750611669565b92611e04565b61176861176282611f4c565b1561026f565b611770575b50565b6117839061177e6004611674565b6116fa565b3861176d565b61179d91611795611fcf565b9190916120d2565b565b5490565b60209181520190565b600052602060002090565b6117c19054610e6a565b90565b60010190565b906117e76117e16117da8461179f565b80936117a3565b926117ac565b9060005b8181106117f85750505090565b90919261181861181260019261180d876117b7565b6106aa565b946117c4565b91019190916117eb565b9061182c916117ca565b90565b9061184f6118489261183f610122565b93848092611822565b0383610497565b565b61185a9061182f565b90565b611865611079565b506118706004611851565b90565b61189461189a92611882610d07565b5061188e83869061220f565b946115d0565b90610e8b565b9080806118de575b6118d157806118b6575b6118b35790565b90565b50806118cb6118c560006110c1565b91610172565b116118ac565b50506118db610b03565b90565b50816118f36118ed60006110c1565b91610172565b146118a2565b9061190390610e3d565b600052602052604060002090565b9061191b90610e3d565b600052602052604060002090565b60ff1690565b61193b61194091610e61565b611929565b90565b61194d905461192f565b90565b6119759161196b61197092611963610ed9565b5060016118f9565b611911565b611943565b90565b9361198c92949391939184869192936122b8565b6119a061199a838390611c2d565b1561026f565b6119a9575b5050565b6119bf6119ba6119c4936003610f4b565b61121e565b6112ac565b38806119a5565b6119d3610ed9565b506119ed6119e76301ffc9a760e01b610220565b91610220565b1490565b634e487b7160e01b600052602260045260246000fd5b9060016002830492168015611a27575b6020831014611a2257565b6119f1565b91607f1691611a17565b60209181520190565b600052602060002090565b9060009291805490611a60611a5983611a07565b8094611a31565b91600181169081600014611ab95750600114611a7c575b505050565b611a899192939450611a3a565b916000925b818410611aa15750500190388080611a77565b60018160209295939554848601520191019290611a8e565b92949550505060ff1916825215156020020190388080611a77565b90611ade91611a45565b90565b90611b01611afa92611af1610122565b93848092611ad4565b0383610497565b565b611b0c90611ae1565b90565b50611b1861105f565b50611b236002611b03565b90565b60207f6572206f7220617070726f766564000000000000000000000000000000000000917f455243313135353a2063616c6c6572206973206e6f7420746f6b656e206f776e60008201520152565b611b81602e6040926103c5565b611b8a81611b26565b0190565b611ba49060208101906000818303910152611b74565b90565b15611bae57565b611bb6610122565b62461bcd60e51b815280611bcc60048201611b8e565b0390fd5b91611c0e949293919380611bf3611bed611be8611fcf565b610142565b91610142565b148015611c10575b611c0490611ba7565b939091929361254d565b565b50611c04611c2682611c20611fcf565b90611950565b9050611bfb565b611c44611c4991611c3c610ed9565b506003610f4b565b611034565b90611c5460006110c1565b5b80611c70611c6a611c65866102eb565b610172565b91610172565b1015611cb657611c89611c84848390611102565b611122565b611c9b611c9584610142565b91610142565b14611cae57611ca9906110dd565b611c55565b505050600190565b505050600090565b60207f7300000000000000000000000000000000000000000000000000000000000000917f455243313135353a206d696e7420746f20746865207a65726f2061646472657360008201520152565b611d1960216040926103c5565b611d2281611cbe565b0190565b611d3c9060208101906000818303910152611d0c565b90565b15611d4657565b611d4e610122565b62461bcd60e51b815280611d6460048201611d26565b0390fd5b634e487b7160e01b600052601160045260246000fd5b611d8d611d9391939293610172565b92610172565b8201809211611d9e57565b611d68565b60001b90565b90611db660001991611da3565b9181191691161790565b90611dd5611dd0611ddc92610de1565b6116d5565b8254611da9565b9055565b916020611e02929493611dfb604082019660008301906101c7565b01906101c7565b565b91611ef79391611e3084611e29611e23611e1e6000610d2b565b610142565b91610142565b1415611d3f565b611e38611fcf565b611e418261272f565b50611e4b8361272f565b50611e7e83611e78611e69611e6260008790610dfd565b8990610e49565b91611e7383610e7e565b611d7e565b90611dc0565b80611e896000610d2b565b8690849286611eca611ec4611ebe7fc3d58168c5ae7397731d063d5bbf3d657854427343f4c083240f7aacaa2d0f6294610e3d565b94610e3d565b94610e3d565b94611edf611ed6610122565b92839283611de0565b0390a493611eed6000610d2b565b90919293946129f1565b565b611f028161179f565b821015611f1d57611f146001916117ac565b91020190600090565b6110ec565b1c90565b611f36906008611f3b9302611f22565b610e67565b90565b90611f499154611f26565b90565b611f54610ed9565b50611f5f60006110c1565b5b80611f7c611f76611f71600461179f565b610172565b91610172565b1015611fc357611f97611f9160048390611ef9565b90611f3e565b611fa9611fa384610172565b91610172565b14611fbc57611fb7906110dd565b611f60565b5050600190565b5050600090565b600090565b611fd7611fca565b50611fe0612c35565b90565b60207f20666f722073656c660000000000000000000000000000000000000000000000917f455243313135353a2073657474696e6720617070726f76616c2073746174757360008201520152565b61203e60296040926103c5565b61204781611fe3565b0190565b6120619060208101906000818303910152612031565b90565b1561206b57565b612073610122565b62461bcd60e51b8152806120896004820161204b565b0390fd5b9061209960ff91611da3565b9181191691161790565b6120ac9061026f565b90565b90565b906120c76120c26120ce926120a3565b6120af565b825461208d565b9055565b9190916120f2816120eb6120e586610142565b91610142565b1415612064565b6121118261210c612105600185906118f9565b8690611911565b6120b2565b91909161215c61214a6121447f17307eab39ab6107e8899845ad3d59bd9653f200f220920489ca2b5937696c3193610e3d565b93610e3d565b93612153610122565b91829182610281565b0390a3565b60018060a01b031690565b61217861217d91610e61565b612161565b90565b61218a905461216c565b90565b61219690610e31565b90565b60e01b90565b905051906121ac82610175565b565b906020828203126121c8576121c59160000161219f565b90565b61012d565b6121d690610142565b9052565b9160206121fc9294936121f5604082019660008301906121cd565b01906101c7565b565b612206610122565b3d6000823e3d90fd5b9060209061221b610ed9565b5061222e6122296005612180565b61218d565b61224f62fdd58e94929461225a612243610122565b96879586948594612199565b8452600484016121da565b03915afa9081156122b357600091612285575b5061228161227b60006110c1565b91610172565b1190565b6122a6915060203d81116122ac575b61229e8183610497565b8101906121ae565b3861226d565b503d612294565b6121fe565b916122f69492939193806122db6122d56122d0611fcf565b610142565b91610142565b1480156122f8575b6122ec90611ba7565b9390919293612cbe565b565b506122ec61230e82612308611fcf565b90611950565b90506122e3565b60207f6d69736d61746368000000000000000000000000000000000000000000000000917f455243313135353a2069647320616e6420616d6f756e7473206c656e6774682060008201520152565b61237060286040926103c5565b61237981612315565b0190565b6123939060208101906000818303910152612363565b90565b1561239d57565b6123a5610122565b62461bcd60e51b8152806123bb6004820161237d565b0390fd5b60207f6472657373000000000000000000000000000000000000000000000000000000917f455243313135353a207472616e7366657220746f20746865207a65726f20616460008201520152565b61241a60256040926103c5565b612423816123bf565b0190565b61243d906020810190600081830391015261240d565b90565b1561244757565b61244f610122565b62461bcd60e51b81528061246560048201612427565b0390fd5b60207f72207472616e7366657200000000000000000000000000000000000000000000917f455243313135353a20696e73756666696369656e742062616c616e636520666f60008201520152565b6124c4602a6040926103c5565b6124cd81612469565b0190565b6124e790602081019060008183039101526124b7565b90565b156124f157565b6124f9610122565b62461bcd60e51b81528061250f600482016124d1565b0390fd5b9061251e9103610172565b90565b909161253c61254a93604084019084820360008601526106c1565b9160208184039101526106c1565b90565b91909461257c61255c8361068a565b61257661257061256b8861068a565b610172565b91610172565b14612396565b6125a28661259b6125956125906000610d2b565b610142565b91610142565b1415612440565b6125aa611fcf565b946125b560006110c1565b5b806125d16125cb6125c68761068a565b610172565b91610172565b101561269e57612699906126946125f16125ec87849061112f565b61114f565b61268e61267f61267861260d6126088d889061112f565b61114f565b6126708c61266b61265961263561263061262960008c90610dfd565b8590610e49565b610e7e565b6126528161264b61264589610172565b91610172565b10156124ea565b8590612513565b9161266660008a90610dfd565b610e49565b611dc0565b936000610dfd565b8d90610e49565b9161268983610e7e565b611d7e565b90611dc0565b6110dd565b6125b6565b50929391909561270e95808683908592876126eb6126e56126df7f4a39dc06d4c0dbc64b70af90fd698a233a518aa5d07e595d983b8c0526c8f7fb94610e3d565b94610e3d565b94610e3d565b946127006126f7610122565b92839283612521565b0390a4949091929394612e5f565b565b90565b61272761272261272c92612710565b610ae4565b610172565b90565b612737611079565b5061276761274d6127486001612713565b61109a565b916127628361275c60006110c1565b9061112f565b61115c565b90565b61277390610e15565b90565b61277f9061276a565b90565b61278b90610e31565b90565b9050519061279b8261022c565b565b906020828203126127b7576127b49160000161278e565b90565b61012d565b60209181520190565b6127e46127ed6020936127f2936127db816115b8565b938480936127bc565b958691016103ce565b6103f3565b0190565b919361282e6128459694612824612838949761281a60a088019960008901906121cd565b60208701906121cd565b60408501906101c7565b60608301906101c7565b60808184039101526127c5565b90565b60207f6420746f6b656e73000000000000000000000000000000000000000000000000917f455243313135353a204552433131353552656365697665722072656a6563746560008201520152565b6128a360286040926103c5565b6128ac81612848565b0190565b6128c69060208101906000818303910152612896565b90565b60009060033d116128d7575b565b905060046000803e6128ea60005161011c565b906128d5565b60009060443d1061296e57612903610122565b60043d036004823e8051903d602483011167ffffffffffffffff83111761296a5781810191825167ffffffffffffffff81116129645780602085010160043d0384011061295e5761295b939495506020010190610497565b90565b50505050565b50505050565b5050565b565b60207f526563656976657220696d706c656d656e746572000000000000000000000000917f455243313135353a207472616e7366657220746f206e6f6e2d4552433131353560008201520152565b6129cb60346040926103c5565b6129d481612970565b0190565b6129ee90602081019060008183039101526129be565b90565b939491909294612a0082612fcb565b612a0d575b505050505050565b602094612a55600092612a2a612a25612a4a96612776565b612782565b9563f23a6e61939799919091612a3e610122565b9a8b998a988997612199565b8752600487016127f6565b03925af18091600092612b2d575b5015600014612aec57506001612a776128c9565b6308c379a014612ab4575b612a92575b388080808080612a05565b612a9a610122565b62461bcd60e51b815280612ab0600482016129d8565b0390fd5b612abc6128f0565b80612ac75750612a82565b612ae890612ad3610122565b91829162461bcd60e51b83526004830161042e565b0390fd5b612b05612aff63f23a6e6160e01b610220565b91610220565b0315612a8757612b13610122565b62461bcd60e51b815280612b29600482016128b0565b0390fd5b612b4f91925060203d8111612b56575b612b478183610497565b81019061279d565b9038612a63565b503d612b3d565b5090565b612b70612b7691939293610172565b92610172565b8203918211612b8157565b611d68565b600080fd5b600080fd5b90939293848311612bb0578411612bab576001820201920390565b612b8b565b612b86565b6bffffffffffffffffffffffff191690565b90612bd5612bdc9183612b5d565b9135612bb5565b9060148110612bea575b5090565b612c08906bffffffffffffffffffffffff1990601403600802611259565b1638612be6565b60601c90565b612c21612c2691612c0f565b610e15565b90565b612c3290612c15565b90565b612c3d611fca565b50612c4a60003690612b5d565b612c52612fec565b612c5b33611509565b80612ca3575b600014612c9657612c88612c8e91612c9393612c806000923692612b61565b908092612b90565b90612bc7565b612c29565b90565b5050612ca0613000565b90565b5081612cb7612cb183610172565b91610172565b1015612c61565b929091612e039492612cec81612ce5612cdf612cda6000610d2b565b610142565b91610142565b1415612440565b612cf4611fcf565b612cfd8361272f565b50612d078461272f565b50612d6b612d50612d2c612d27612d2060008890610dfd565b8a90610e49565b610e7e565b612d4981612d42612d3c8a610172565b91610172565b10156124ea565b8690612513565b612d66612d5f60008790610dfd565b8990610e49565b611dc0565b612d9d84612d97612d88612d8160008890610dfd565b8690610e49565b91612d9283610e7e565b611d7e565b90611dc0565b80868390859287612de0612dda612dd47fc3d58168c5ae7397731d063d5bbf3d657854427343f4c083240f7aacaa2d0f6294610e3d565b94610e3d565b94610e3d565b94612df5612dec610122565b92839283611de0565b0390a49490919293946129f1565b565b9390612e4090612e5c9694612e33612e4e95612e2960a08a019460008b01906121cd565b60208901906121cd565b86820360408801526106c1565b9084820360608601526106c1565b9160808184039101526127c5565b90565b939491909294612e6e82612fcb565b612e7b575b505050505050565b602094612ec3600092612e98612e93612eb896612776565b612782565b9563bc197c81939799919091612eac610122565b9a8b998a988997612199565b875260048701612e05565b03925af18091600092612f9b575b5015600014612f5a57506001612ee56128c9565b6308c379a014612f22575b612f00575b388080808080612e73565b612f08610122565b62461bcd60e51b815280612f1e600482016129d8565b0390fd5b612f2a6128f0565b80612f355750612ef0565b612f5690612f41610122565b91829162461bcd60e51b83526004830161042e565b0390fd5b612f73612f6d63bc197c8160e01b610220565b91610220565b0315612ef557612f81610122565b62461bcd60e51b815280612f97600482016128b0565b0390fd5b612fbd91925060203d8111612fc4575b612fb58183610497565b81019061279d565b9038612ed1565b503d612fab565b612fd3610ed9565b503b612fe8612fe260006110c1565b91610172565b1190565b612ff4610d07565b50612ffd61302c565b90565b613008611fca565b503390565b90565b61302461301f6130299261300d565b610ae4565b610172565b90565b613034610d07565b5061303f6014613010565b9056fea2646970667358221220639f9acb9e79c31f92b79dcc648ec515f41417fb193e2e1f951193e3e387d8d064736f6c63430008180033",
  "linkReferences": {},
  "deployedLinkReferences": {}
}